:020000040000FA
:10000000D87C0010CD010000D1010000D301000018
:10001000D5010000D7010000D90100000000000058
:10002000000000000000000000000000DB010000F4
:10003000DD01000000000000DF010000638E010010
:10004000E30100001FC101004BC10100E3010000FA
:10005000E301000099F10100E3010000E301000069
:10006000E3010000E3010000E3010000E301000000
:10007000E3010000E3010000E3010000E3010000F0
:10008000E3010000E3010000E3010000E3010000E0
:10009000E3010000E3010000554C0000E301000013
:1000A000E30100005BEC0100E3010000E30100005C
:1000B000310D0200E3010000E3010000E301000054
:1000C000E3010000E3010000E301000000F002F89A
:1000D00000F06DF80AA090E8000C82448344AAF175
:1000E0000107DA4501D100F062F8AFF2090EBAE873
:1000F0000F0013F0010F18BFFB1A43F0010318475C
:10010000D45F0200146002000A444FF0000C10F8A3
:10011000013B13F0070408BF10F8014B1D1108BF85
:1001200010F8015B641E05D010F8016B641E01F825
:10013000016BF9D113F0080F1EBF10F8014BAD1C75
:100140000C1B09D16D1E58BF01F801CBFAD505E093
:1001500014F8016B01F8016B6D1EF9D59142D6D3ED
:10016000704700000023002400250026103A28BF15
:1001700078C1FBD8520728BF30C148BF0B60704719
:10018000642920F0AD86732921F013810020704787
:100190001FB524F041FF21F0CDF90400002000211B
:1001A00024F024FF401C60601FBD10B510BD21F07D
:1001B0009BF91146FFF7ECFF18F00EFF21F0D0F984
:1001C00003B4FFF7F2FF03BC21F0D6F9084800475B
:1001D000FEE7FEE7FEE7FEE7FEE7FEE7FEE7FEE7F7
:1001E000FEE7FEE703480449044A054B7047000058
:1001F000CD000000D86C0010D87C0010D87400101E
:10020000D8740010FEE710B522F0EEFD22F07CFE5F
:1002100022F06EFE22F0FAFDAFF30080BDE8104040
:1002200022F038BE10B523F043FC24F0ADFA23F0E1
:1002300095FCBDE8104023F005BE23F04FBB23F032
:1002400027B909B10020704721F07EBE0020704719
:100250001E4BDA601870597070471C48C16800293D
:100260000DD0491EC1600AD1194902780A7042783E
:100270004A700A710021C17001714171817170472A
:10028000124A1161907070471048016900290BD023
:10029000491E016108D10E4A817811700021517008
:1002A000C1700171417181717047084908817047BF
:1002B0000648B0F90810002907D0491E09B201818B
:1002C000002902D1084600F0EABE704714C007209A
:1002D000B8C1072070B5064620F0DCFF046805466B
:1002E00030460A22002121F068F82C6070BD70476A
:1002F0007047704700487047743C0820FFFFFFFFBD
:10030000002801DA404200B270470020F94A20215B
:100310001154401CC0B2C828FAD370470146F54AB0
:100320000020401CC0B2135C8B4201D0C828F8D317
:10033000704710B50021F04C0A2200BFB0FBF2F369
:1003400002FB13006054491CC9B218460529F5D3B5
:1003500010BDF0B5E94B0121202719700521E64AAF
:10036000002601E01C7844B1541814F8015C25B94A
:10037000814202D904F8017C05E0541814F8015DAB
:10038000303525701E70491E11F0FF01EAD1F0BD15
:1003900070B50D461446002802DAC043401C00B276
:1003A000FFF7C7FF601CC0B2FFF7D3FF2846FFF777
:1003B000B5FFFF2819D0D04ACE4B0021A14201D26F
:1003C000555C13E004D14FF02E051D54555C03E03D
:1003D000555C202D03D04CB11E1806F8015C401E60
:1003E000491CC9B2C0B20529E8D370BD1D54F6E757
:1003F000F0B50D461446002801DA404200B2FFF77E
:1004000098FF601CC0B2FFF7A4FF2846FFF786FFE5
:10041000B94AB84B002164B9555C202D09D0561853
:100420007678202E03D12D261F1807F8016C1D5455
:100430000FE0A14201D2555CF9E704D14FF02E053F
:100440001D54555C02E0555C202D02D01E1806F8A4
:10045000015C401E491CC9B2C0B20529DBD3F0BD06
:10046000FEB52B23002802DA404200B22D230025DE
:100470000A266C4690FBF6F706FB170060556D1CCC
:100480006DB238B20A2DF5DB0126002509202027A0
:1004900000E046B114F800C0BCF1000F03D1904257
:1004A00001DD275405E0265C3036265400266D1CFD
:1004B000EDB2401E40B20028EBDA2D2B02D163557D
:1004C0006D1CEDB26AB168B205E02318461E13F840
:1004D000013C235470B29042F7DC2E206D1CA054D6
:1004E000EDB20846FFF71AFF0021824A04E0635C80
:1004F000461A491C935549B2A942F8DBFEBDFEB528
:100500002B23002801DA40422D2300250A266C46C1
:10051000074690FBF6F006FB107767556D1C6DB231
:100520000A2DF5DB012600250920202700E046B131
:1005300014F800C0BCF1000F03D1904201DD275434
:1005400005E0265C3036265400266D1CEDB2401EB8
:1005500040B20028EBDA2D2B02D163556D1CEDB2B1
:100560006AB168B205E02318461E13F8013C235413
:1005700070B29042F7DC2E206D1CA054EDB20846FC
:10058000FFF7CCFE00215B4A04E0635C461A491C7D
:10059000935549B2A942F8DBFEBDFEB52B260028D3
:1005A00001DA40422D2600240A276D46844690FB3E
:1005B000F7F007FB10CC05F804C0641C64B20A2CE9
:1005C000F4DB0127002009244FF0200C00E04FB19C
:1005D00015F804E0BEF1000F04D19C4202DD05F8DD
:1005E00004C005E02F5D30372F550027401CC0B2F6
:1005F000641E64B2002CEADA2D2E02D12E54401C67
:10060000C0B26BB144B205E02E1916F8017C661E2B
:100610002F5574B29C42F7DC2E24401CEC54C0B21F
:1006200001EB810102EB8101CAB20021314B04E0F0
:100630006C5C561A491C9C5549B28142F8DBFEBDE0
:1006400070B50D4616461C46FFF773FE601CC0B21F
:10065000FFF77FFE05EB850006EB8000C1B2264A5E
:10066000244B0020A04201D2155C5D5406D3155CDA
:10067000202D03D04CB15E1806F8015C491E401CC9
:10068000C0B2C9B20528EDD370BD5D54F6E710B510
:100690000C46FFF743FE17490CB1032200E0042289
:1006A0000A5410BD30B5044608461546FFF736FE1D
:1006B000FF2809D00F4A2178002905D04319641C6E
:1006C000401CD154C0B2F6E730BD70B50D4614469B
:1006D000FFF72FFE601CC0B2FFF73BFE2846FFF776
:1006E0001DFE054B034A002154B95D5C202D07D047
:1006F000155415E038C20720C8000010CD000010C6
:10070000A14201D25D5CF3E704D14FF02E051554F0
:100710005D5C02E05D5C202D02D0161806F8015CDD
:10072000401E491CC9B2C0B20529DDD370BD801876
:1007300001D5084402E0884200DB401AC0B270478D
:100740002DE9F04F044685B00D464FF460601CF073
:10075000CFFA62424021FFF7EAFF400100F58060D6
:10076000044602A91CF041FB694604F108001CF094
:100770003CFB01A904F10C001CF037FB2846FFF7F5
:10078000CDFD9DF808C04022302121232324DFF82D
:10079000E4A3F94D20264FF03A0BBCF1550F32D0AF
:1007A000CF27BCF1500F65D04FF0C00E4FF0E208DC
:1007B000BCF1490F69D0BCF1420F7ED0BCF1440FAF
:1007C0007CD0BCF1530F52D14FF0C10C05F800C0E2
:1007D000401CC0B2A9462F54401CC0B2D1272F5490
:1007E000401C00F0FF0C9DF80900092867D2313049
:1007F00005F80C000CF1010C0CF0FF0009F800608A
:10080000401CC5B262E29DF80A70522F0AD1C2277D
:100810002F54401CC0B2EA272F54401CC0B2EB2713
:100820002F542FE02E54401CC0B22E54EEE12E5413
:10083000401CC0B22954401CC0B22B54401CC0B252
:100840002A54401CC0B22E54401CC0B22E54401C2E
:10085000C0B22954401CC0B22C54ABE19DF8011029
:10086000C648002200EB81004021FFF71BFF05B0C6
:10087000BDE8F08F2F54401CC0B2D1272F54401C2C
:10088000C0B22E54401CC0B2CCE7C8272F54401C25
:10089000C0B2ED272F54401CC0B2A94605F8008015
:1008A000401C00F0FF0C9DF80900092815D23130DA
:1008B00005F80C000CF1010C02E066E090E1E0E1CB
:1008C0000CF0FF0005F800E0401CC0B205F8008005
:1008D000401CC0B209F8006021E0A0F109055A2DC2
:1008E00020D2401C0A27B0FBF7F5CDE903053035CF
:1008F00009F80C50DDE903050CF1010C07FB1500AC
:100900000CF0FF0C303009F80C000CF1010C0CF06D
:10091000FF0009F800E0401CC0B209F80080401C4C
:1009200000F0FF0C484609F80C600CF1010C0CF0CB
:10093000FF05D0E19DF8040000222121FFF7C5FE4C
:100940009DF8050000224021FFF7BFFE9DF806003C
:1009500000222321FFF7B9FE89E746556D1CEDB251
:1009600041556D1CEDB243556D1CEBB2C2545B1C7E
:10097000DAB28654521CD2B28654521CD2B281547E
:10098000521CD1B209F8014014E19DF80A704FF0F1
:1009900041094E2F33D04F2F7ED0492F7DD0542F79
:1009A000DAD1C1272F54401CC0B2E0272F54401C7D
:1009B000C0B24FF0E90C05F800C0401CC0B24FF0C7
:1009C000EF0C05F800C0401CC0B2A8462F54401CD4
:1009D000C0B2F12708F80070401C9DF80950C0B261
:1009E000012D72D0022D71D0032D70D008F8006057
:1009F000401CC5B2404646556D1CEDB22AE005F8D4
:100A000000E0401CC0B2552705F80080401CC0B271
:100A1000AC462F54401CC0B2F1272F54401CC0B22A
:100A2000E5272F54401CC0B2F2272F54401CC0B2FF
:100A3000FC270CF80070401C9DF80950C0B2012D35
:100A40003AD0022D3BD0032D3BD00CF80060401C67
:100A5000C5B26046D04646556D1C9DF80070BAF888
:100A60003CC0EDB267457BD19DF8017098F838C065
:100A7000674575D19DF8027098F82CC067456FD115
:100A800041556D1CEDB243556D1CEBB200F803B03F
:100A90005B1CDBB2C15401E01AE043E05B1CDBB23B
:100AA000C2545B1CDAB200F802B0521CD2B28154BC
:100AB000521CD1B244543DE70CF80090C7E74225E0
:100AC00000E043250CF80050C1E74EE050E057E04D
:100AD00005F800E0401CC0B2552705F80080401C16
:100AE000C0B2AC462F54401CC0B2FB2705F80080B2
:100AF000401CC0B22F54401CC0B2F5270CF8007047
:100B000027E000BF0CF8009008E0022D29D0032D4B
:100B100029D00CF8006001E00CF80050401CC5B270
:100B2000604668E705F800E0401CC0B2552705F8AC
:100B30000080401CC0B2AC462F54401CC0B2E82715
:100B40002F54401CC0B2ED272F54401CC0B20CF8EB
:100B50000080401C9DF80950C0B2012DD5D1D1E7CD
:100B600012E04225D8E74325D6E708F800903FE792
:100B7000422506E00040024038C2072040570200EC
:100B8000432508F8005033E746556D1CEDB241553A
:100B90006D1CEDB243556D1CEBB2C2545B1CDAB256
:100BA0008654521CD2B28654521CD2B28154521C6A
:100BB000D1B244549DF8020000222121FFF785FDA7
:100BC0009DF8000000222321FFF77FFD9DF8010022
:100BD000401E0C28FFF442AE01208DF801003DE6D6
:100BE0009DF80A70552F7FF4B7AE05F800E0401C61
:100BF000C0B205F80080401CC0B22F54401CC0B2E7
:100C000064272F54401CC0B263272F54401CC0B22D
:100C1000D0462E54401CC0B22E54401CC0B22E549C
:100C2000401CC0B22E54401C9DF80070BAF83CC065
:100C3000C0B267457FF4FBAD9DF8017098F838C0ED
:100C40006745F7D19DF8027098F82CC06745F1D13F
:100C50002954401CC0B22B54401CC0B205F800B04F
:100C6000401CC0B22954401CC0B22A54401CC0B21F
:100C700005F800B0401CC0B22954401CC0B22C542E
:100C800058E6A0F109055A2D16D200F1010E0A27E7
:100C9000BEFBF7F808F1300509F80C500CF1010C17
:100CA00007FB18E00CF0FF0C303009F80C000CF1D9
:100CB000010C0CF0FF0509E009F80C600CF1010CC7
:100CC0000CF0FF0509F805606D1CEDB2484609F807
:100CD00005606D1CEDB2D04646556D1C9DF8007048
:100CE000BAF83CC0EDB267457FF437AE9DF80170AD
:100CF00098F838C06745F7D19DF8027098F82CC075
:100D00006745F1D141556D1CEDB243556D1CEBB2F9
:100D100000F803B05B1CDBB2C1545B1CDBB2C254F5
:100D20005B1CDAB200F802B0521CD2B28154521CE1
:100D3000D1B209F80140FDE570B5044608461546F4
:100D40001E46FFF7EBFA0146FF4BFF2804D106E0F1
:100D50001A54641C401CC0B22278002AF8D1FB4807
:100D60000078002804D0002E02D029445F20585477
:100D700070BD2DE9FF4F8146DDE90D048A4693469B
:100D8000FFF7CCFA2022DFF8C483EF490A234FF0A3
:100D9000640C012C09D198F8005035B10D18A5F15B
:100DA0000E05AA706A702A7020E099FBF3F603FB27
:100DB00016970D183037A5F10E05022CAF7096FB73
:100DC000F3F703FB176606F130066E7099FBFCF62D
:100DD00006F1300605F80E6B08D198F800602EB1C8
:100DE000A5F10A05AA706A702A7021E09AFBF3F651
:100DF00003FB16A70D183037A5F10A05032CAF70B9
:100E000096FBF3F703FB176606F130066E709AFB4C
:100E1000FCF606F13006674605F80A6B08D198F82B
:100E200000602EB1A5F10605AA706A702A7022E052
:100E30009BFBF3F603FB16B70D183037A5F106053B
:100E4000042CAF7096FBF3F703FB176606F1300630
:100E50006E709BFBFCF606F13006674605F8066BE4
:100E600009D198F8004034B1A5F102050A546A701E
:100E70002A70BDE8FF8F039C94FBF3F203FB12443E
:100E800030340C5492FBF3F403FB14220844A0F119
:100E9000020030324270039991FBF7F101F1300109
:100EA0000170E6E717B501EB810002EB8000C2B2EA
:100EB0009DF80030A64803F00F0100EB1313445CCB
:100EC000A1498C54521ED2B21C78531E8C54DAB2F3
:100ED0009DF8013003F00F0400EB1313045D8C54F4
:100EE000521ED2B21C78531E8C54DAB29DF80230D6
:100EF00003F00F0400EB1313045D8C54521ED2B2A6
:100F00001C78531E8C54DAB29DF8033003F00F04A2
:100F1000045D8C54521E00EB1310D2B2007888543A
:100F20001EBD10B504460846FFF7F8F9884904F0DD
:100F30000F028B5C844A01EB14111354401EC0B2A3
:100F40000978115410BD01EB810102EB8101804A47
:100F500010B500F00F03C9B2D45C7B4B02EB10104C
:100F60005C54491EC9B20078585410BD01EB810190
:100F700002EB8101CBB2764910B500F00F028C5C18
:100F8000714AD45404095B1E04F00F00DBB2085C04
:100F9000D0545B1ED8B2230903F00F040C5D145427
:100FA000401E1B09C0B2C95C115410BD01EB810188
:100FB00002EB8101CBB2664910B500F001028C5CF6
:100FC000614AD45444085B1E04F00100DBB2085CA3
:100FD000D0545B1ED8B2630803F001045B080C5DBB
:100FE0001454401E03F00104C0B20C5D14545B089D
:100FF000401E03F00104C0B20C5D14545B08401E97
:1010000003F00104C0B20C5D14545B08401E03F0F1
:101010000104C0B20C5D1454401EC4B25808085CF0
:10102000105510BD30B54B490123474D91F90120B2
:1010300091F9041000EB80048A4202D105F82430B3
:1010400030BD414D4C1C00EB800005EB8000A242FE
:1010500001D1037530BD8C1CA24202D180F828302A
:1010600030BDCC1CA24202D180F83C3030BD0C1DFA
:10107000A24202D180F8503030BD4C1DA24202D1B4
:1010800080F8643030BD8C1DA24202D180F87830E7
:1010900030BDC91D8A42FBD180F88C3030BD2E4B4B
:1010A0001A88521E104400B218802C4A00EB8000AF
:1010B000024428481368036012790271427811448F
:1010C00041707047F0B5244E244DB6F9004004EB52
:1010D0008407641C34801F4C3D4426682E602679AA
:1010E0002E71207061702271A370F0BDF0B50546BD
:1010F0000E461746FFF709F9134C002015F8011B9F
:10110000621C401C2170C0B214461428F6D3002083
:1011100016F8011B621C401C2170C0B21446142832
:10112000F6D3002017F8011B621C401C2170C0B2CE
:1011300014461428F6D30020621C13F8011B2170FA
:10114000401C1446C0B20BE038C2072062C0072022
:10115000BE570200B8C1072082C00720F05C001013
:101160001428E9D3F0BD10B5029CFFF7BFFF444837
:10117000C378827841787A20FFF7A4FF642094FB3B
:10118000F0F0BDE81040C0B2FFF78FB82DE9FE4384
:1011900040010D4600F58060044602A91BF025FEC3
:1011A000694604F108001BF020FE01A904F10C00BF
:1011B0001BF01BFE2846FFF7B1F8324C20253026E5
:1011C0002554401CC0B24FF021082654401CC0B228
:1011D0004FF0400C04F80080401CC0B2232104F8FA
:1011E00000C0401CC0B200222554401CC0B225548F
:1011F000401CC0B22654401CC0B22154401CC7B28F
:101200009DF802002121FFF760FA9DF800000022FE
:101210002321FFF75AFA9DF80100401E0C2802D343
:1012200001208DF801009DF801001749002201EB13
:1012300080004021FFF736FAE5557F1CF8B23A21CD
:101240002654401CC0B2002204F80080401CC0B2EA
:101250002154401CC0B221212654401CC0B204F8C5
:1012600000C0401CC6B29DF80400FFF72EFA9DF89E
:10127000050000224021FFF728FAA555BDE8FE83AE
:10128000B8C1072038C20720405702002DE9FF41AE
:10129000FA4C00270546E774207C0121022805D07E
:1012A000F74A525D552A04D065200EE0E174BDE88E
:1012B000FF8105EB450202EB0513F24A02EB8306C0
:1012C00096F83D20D30702D06620E074EFE796F849
:1012D0003F309B0701D56720F7E7920701D56820CB
:1012E000F3E7E94AB6F90830B2F90020934201DD8C
:1012F0006920EAE75242934201DA6A20E5E70128D1
:1013000003D1607CF0B301287ED06420E0742174A6
:10131000E1854FF4F8701BF019FE657429462586A7
:101320004FF4FA701BF012FED848B761002130F973
:1013300015001BF00BFEA774678639464FF4FB704F
:101340001BF004FED248D34D0088401C00F007007B
:1013500006EB4000008CADF80000A88B8DF804006F
:101360004FF063024FF0010101A802F0C8FBC34C2B
:101370009DF8040058342070287E0C228DF804005B
:10138000012100E044E001A802F0B9FB9DF804004F
:101390006070287B8DF804001F22012101A802F053
:1013A000AEFB9DF80400A0709DF80000E0704FF4C3
:1013B000FC7021681BF00DFE287A8DF804001722BE
:1013C000002101A802F09BFB9DF804002071287900
:1013D0008DF804003B22002101A802F090FB9DF84B
:1013E0000400607128788DF804003B22002101A8D8
:1013F00002F085FB9DF80400A0719DF80100E071EA
:101400004FF4FE70616800E004E01BF0E2FD4EE77F
:101410006B205AE76C2058E77047704770B59D4CB9
:10142000203C94F838009C4D297808440C2803D9B6
:10143000A08F401C01B201E0B4F93C10B8201BF0B1
:1014400085FD94F83810287801440C2994F8381058
:1014500000D90C380144B6201BF078FD94F82C001C
:101460001C2801D91C2101E094F82C10B4201BF099
:101470006DFD04F12004217A4FF0AE001BF066FDF3
:101480002179B0201BF062FD2178BDE87040B220C8
:101490001BF05CBD814801886FF03B00C1EB01117E
:1014A00000EB8100754908857047744940F2F96086
:1014B000C884704770B5714CE08C401C00B2E08469
:1014C000B0F5E16F02DB0020E08470BDB0F5DF6FA6
:1014D00011D90F2301226421D22002F0ADFA0F238B
:1014E0000022D821D72002F0A7FA0F230022D8210A
:1014F000DC2002F0A1FAB4F92600A0F5E06107397A
:10150000E3D1674E674C684D30882188884205D00A
:10151000B4F90010B5F900001BF018FD708861885F
:101520008842D2D0B4F90210B5F90200BDE870408B
:101530001BF00CBD10B5564C082200212088401C21
:101540002080204602F0F1FA4E48B4F9001000EB7A
:10155000410142880A84B0F84E00A1F86C0010BD29
:101560002DE9F05F514C524F4FF4FA65B4F9001079
:10157000B7F90000434E484390FBF5F04D497080A9
:10158000B4F90820B1F900004FF42F73504390FBD9
:10159000F3F0B080B4F91820B7F90200504390FB83
:1015A000F5F0A6F84E00B4F90220B1F9020050435C
:1015B00090FBF3F0A6F85000DC2002F074FADFF89C
:1015C000F8E0F0BBDFF8DCA0DFF8D4B03B49BAF8B4
:1015D0000000BBF8002045F63863801AB1F90020FE
:1015E00045F6926C4243BEF8000045F211694FF493
:1015F0007A78984201D0604504D14FF4967792FBF7
:10160000F7F20CE0A0F5AA47FA3F03D0193F01D04A
:10161000484502D192FBF5F201E092FBF8F23281EB
:10162000BAF80220BBF80270B1F90210D21B514384
:10163000984201D0604505D14FF4967091FBF0F0CF
:101640000DE00EE0A0F5AA42FA3A03D0193A01D013
:10165000484502D191FBF5F001E091FBF8F0A6F8C6
:101660005400B4F90C1040F6B73CA1F22132012528
:101670000020624524D2307323E0000010000010E7
:10168000DEC00720402700109A000010B050020072
:1016900046C107202040024069C00720A200001078
:1016A00080000010FE210010D8500200002700101A
:1016B0007C00001068C30720E0C007206CC307202F
:1016C0003573FD4B44F62067B3F900204A4392FB83
:1016D000F7F1A1F211117181B4F90E10A1F22132CA
:1016E000624502D286F8580001E086F85850B3F9F6
:1016F0000220B1464A4392FBF7F1A1F21111A6F87C
:101700005610EE49B1F90030ED4933B9ED4AEE4ECD
:1017100012883280ED4A12880A80B1F90020002A2E
:1017200000DA08801BB9EA49EA4A09681160B4F98D
:101730000A20E949A2F22136664501D2086000E09C
:101740000D60DFF89883DFF898B3BA46B8F9006007
:10175000564396FBF7F2A2F21112ABF80020B4F94F
:101760001420A2F22136664501D2486000E04D60A7
:10177000B8F902705646574397FBFAF2A2F21112DB
:1017800012B2DA46ABF802209346B4F90620A2F270
:101790002137674501D2886000E08D60B8F90440C8
:1017A000DFF84083544394FBF6F2A2F2111214B214
:1017B000AAF80440A246CC4CB8F800704FF47A6600
:1017C000B4F90020DFF824C37A4392FBF6F292B218
:1017D000C74FACF80020642A01D3C64A12883A8069
:1017E000B8F80220B4F90240DFF81483544394FBA4
:1017F000F6F2ACF80220C04ADFF800C341F2707480
:10180000B2F90070BCF900607E4396FBF4F6A8F8CC
:101810000060B2F90270BCF902607E4396FBF4F6F8
:10182000A8F80260B2F90460BCF90470774397FB32
:10183000F4F6A8F80460B34EB2F906C0DFF8C88227
:10184000B6F9007007FB0CF797FBF4F7A8F80070E7
:10185000B2F90870B6F902C00CFB07FC9CFBF4F768
:10186000A8F80270B2F90A20B6F90460A74F5643EF
:1018700096FBF4F2A8F804200BF2111214B20AF24B
:1018800011123C8016B27E804A6812F0FF023A7252
:101890008968C9B279729E4F04D0012A0ED012B164
:1018A0000DD020E011B1012910D01CE0A11901EBED
:1018B000D1716FF4887202EB610113E011B101295B
:1018C00008D010E0A6F211163E800CE0A4F211142C
:1018D0003C8008E08F490978052902D28E490988A1
:1018E00000E0142139808D4C8D4A2178552906D18C
:1018F000B9F90260C82E02DDB9F808109184617848
:1019000055290BD1B9F94E404946C82C06DDB1F92D
:101910005440B9F908108C4200DD9484BEF80010E0
:10192000A1F5AC442F3C03D0283401D0143C02D1A3
:101930007C49098891847D490022DFF8EC91B1F956
:1019400000402CE002EB820609EB0611CE78192E3E
:101950001CD28E79CF7906EB07264E620E7A4F7A2B
:1019600006EB07260E628E7ACF7A06EB0726CE614B
:101970000E7B8E624E7B81F84E608E7B81F84260DA
:101980000E7C4F7C06EB07268E6406E0C861486239
:101990000862886281F842008864521CD2B2A24276
:1019A000D0DBDFF88CC10621CCF804106149B1F915
:1019B0000080B8F1000F55D0002451E004EB840200
:1019C00009EB021191F84326052A36D201F246614D
:1019D00004EB04120E784F780CEB820206EB07261C
:1019E00096608F78CE7807EB062696830E794F792E
:1019F00006EB072656608E79D660CE7982F826608F
:101A0000B2460E7A4F7A1AF01A0F06EB0726566185
:101A10008E7ACF7A06EB072616610E7B4F7B06EB9C
:101A200007269661897B82F82710907002D082F891
:101A3000285013E082F8280010E004EB04110CEBAE
:101A400081011922886088834860C86081F8260077
:101A50000861486188618A7081F82800641CE4B2DA
:101A60004445ABDB3449012B03DB8A7D3C2A01D2A0
:101A700008E03BB9088048604880087548750881CF
:101A800048810876022B04DB91F832203C2A01D2EF
:101A90000BE053B921F81C0F486048800875487561
:101AA000088148810876A1F11C01032B46DB91F8DF
:101AB0004E203C2A43D24BE084000010D8C00720BF
:101AC0004AC10720C200001048C10720B0C3072048
:101AD000C4000010A4C107206C5C001072C3072072
:101AE000F2C10720F8C1072088000010FEC10720BE
:101AF00066C1072050C10720405D0010E0000010C3
:101B000004C20720C4C307200AC20720C65C001015
:101B10005EC1072079C007206AC10720DEC0072008
:101B200010000010AEC30720D8270010CAC007203D
:101B300018470010CCC007201858001043B921F8EE
:101B4000380F4860488008754875088148810876D4
:101B5000FF48B0F90400FF49B1F900204FF4FA71D1
:101B6000504390FBF1F0FC490880BDE8F09FFB4A30
:101B7000FB481178042901D0012905D1517819B900
:101B8000F8490978552902D0F749098803E0017816
:101B9000002901D0491E01707047F448416821F4C2
:101BA000402141F480214160416821F4403141F4F9
:101BB00080314160416821F4404141F480414160FD
:101BC000416C21F4402141F400214164416C21F435
:101BD000403141F400314164416C21F4404141F411
:101BE00000414164E248016821F0E0610160016860
:101BF00041F400110160016821F480310160016845
:101C000021F47F4141F4807101608115C160D948A0
:101C10008903016070472DE9F041D74C6088218825
:101C2000401A00B202F0D2FFA51D2880A08861886A
:101C3000401A00B202F0CAFF6880A0882188401ACA
:101C400000B202F0C3FF4FF49672A880A4F14C01D9
:101C5000904201DAA0880AE0B5F90200904201DA68
:101C6000608804E0B5F90000904201DA208808831A
:101C70008D7800221DB3B648B1F9183020300468C1
:101C80001C44046044681C44446084681C448460B0
:101C9000C4682344C3600B8C5B1C1BB20B84B3F57C
:101CA000805F00DB0A84B1F920309C0531D19B12A2
:101CB00050F823402412CC8240F8232029E0AF4F73
:101CC000C87891F804C007EB8014B1F9183044F8D3
:101CD0002C305FEA8C730ED10024234607EB80166C
:101CE00056F823705B1CDBB23C44102BF8D3231155
:101CF000974C24F81030401CC0B2C870102808D38C
:101D00000CF1010C0CF0FF00CA700871102800D310
:101D10000A714A706D1C15F00100954A887005D053
:101D2000106820F0FF00001D106034E0C97808073B
:101D30000028106820F0FF0002DB00F1010001E044
:101D400000F1020010608E48036843F08053036086
:101D5000036A43F080430362036E43F080630366CB
:101D6000CB07436908D043F0805343618B07436B33
:101D700005D423F0804304E023F08053F5E743F0DB
:101D8000804343634907416F02D421F0806101E041
:101D900041F080614167106840F080701060BDE8DC
:101DA000F0812DE9F041744C60882188401A00B21E
:101DB00002F00CFFA51D2880A0886188401A00B29F
:101DC00002F004FF6880A0882188401A00B202F067
:101DD000FDFE4FF49672A880A4F14C01904201DA06
:101DE000A0880AE0B5F90200904201DA608804E0B8
:101DF000B5F90000904201DA208808838E7800222D
:101E0000F6B353484C7920308CB1B1F918300568DD
:101E100005EBA3050560456805EBA30545608568EE
:101E200005EBA3058560C56805EBA303C360B1F9A5
:101E30001830642B0EDA8B8B4FF4FA655B1C1BB2E7
:101E40008B83AB4208DB8D83026042608260C2609C
:101E5000CA8252E08A8350E0052B4ED1A4B14B8B4D
:101E60005B1C1BB24B83B3F5007F00DB4A83B1F9E7
:101E70001A305D0608D1DB1150F823502D1200E016
:101E800010E0CD8240F82320B1F91E00962801DD34
:101E900004B14A711F3827282FD2487968BB012026
:101EA00048712AE0354FC87891F804C007EB8014D8
:101EB000B1F9183044F82C305FEA8C730FD100244C
:101EC000234607EB801500BF55F823705B1CDBB27F
:101ED0003C44102BF8D323111D4C24F81030401C27
:101EE000C0B2C870102808D30CF1010C0CF0FF0030
:101EF000CA700871102800D30A714A70761C16F057
:101F000001001B4A887005D0106820F0FF00001DFA
:101F100010604DE0C97808070028106820F0FF0025
:101F200001DB401C00E0801C10601548036843F092
:101F300080530360036A43F080430362036E43F0FF
:101F400080630366CB07436923D043F0805319E0D5
:101F500000270010920000104CC10720B8C10720D4
:101F600046C00720ACC30720F0C0072000C00240D5
:101F70000040034000E100E05C000010002300107E
:101F800000C0092043618B07436B05D423F08043D5
:101F900004E023F08053DAE743F0804343634907CA
:101FA000416F02D421F0806101E041F0806141671E
:101FB000106840F080701060F1E6F0B5F848B0F9B4
:101FC000141011B1491E81827FE00022F64C82720A
:101FD0001346F449B4F900400FE000BF03EB83055A
:101FE00001EB0515AE78012E05D1ED78142D02D246
:101FF000857A6D1C85725B1CDBB2A342EEDB867AB0
:10200000022E62D341F28833C0E90D230023C2635C
:1020100015E000BF03EB830501EB0515AF78012F39
:102020000BD16D6A476BBD4200DD4563876BBD42D6
:1020300000DA8563C76B3D44C5635B1CDBB2A3421A
:10204000E8DBC36B012593FBF6F70764836B03B9E9
:102050008563436B64267343866B93FBF6F343649B
:10206000A02B00DD4572782B01DA42722DE0407A18
:1020700001282AD100226FF0310524E002EB820012
:1020800001EB00108378012B1BD1436ABB4205DDB5
:10209000B0F84C30A3F10103A0F84C3005DAB0F8E9
:1020A0004C3003F10103A0F84C30B0F94C30AB4296
:1020B00002DAA0F84C5004E0322B02DD3223A0F803
:1020C0004C30521CD2B2A242D8DB00BFF0BD2DE989
:1020D000F047B6480168B64A11400160B5490A6840
:1020E000002042F47C720A60B44BB34AB3F900306A
:1020F00001E0401CC0B29842FBDBB14AB44B002067
:1021000092F800C0AF4A1D78B24B92F80080AE4AF8
:1021100006464FF0010A1478AC4A92F80090AE4A95
:10212000BCF1000F165405D033F81070FF0701D032
:1021300002F800A0B8F1000F05D033F81070BF0707
:1021400001D502F800A02CB133F810707F0701D53B
:1021500002F800A0B9F1000F05D033F810703F0766
:1021600001D502F800A02DB133F81070FF0601D59B
:1021700002F800A0401CC0B20228D1D395481378C1
:10218000B0F9000013B1012B03D009E0000402D420
:1021900006E0000404D4C86940F01000C86103E000
:1021A000886940F0100088618A485278B0F90200CE
:1021B00012B1012A03D00AE0000402D407E00004AF
:1021C00005D4C86940F02000C861BDE8F08788697F
:1021D00040F020008861F8E72DE9F041704C0126BD
:1021E0000025207B0A2806D2401CC0B220730A2892
:1021F00001D3257366736585A585CD2001F053FC59
:102200006849DFF8A4E1E0B174484FF6FF73026853
:10221000CE2A08D0CF2A08D0D12A08D0D22A09D075
:10222000D02A09D04CE0A3854AE0406807E0406826
:10223000608545E0638543E040686085C043A085D4
:102240003EE0607B88B300221046BEF9003007E014
:1022500000EB800701EB0717401C87F82C60C0B229
:102260009842F5DD5E4E0020B6F9006012E000BF36
:1022700000EB800701EB071797F802C0BCF1020FD3
:1022800002D0BCF1010F03D1521C87F82C50D2B2FE
:10229000401CC0B2984201DAB242E9DB5148B0F9C1
:1022A00000003C280CDA002008E009E000EB800286
:1022B00001EB0212401C82F82C50C0B29842F5DDAE
:1022C00000206326BEF900700CE000BF00EB800226
:1022D00001EB0212D36B1BB182F82C605B1ED3633F
:1022E000401CC0B2B842F1DB6573E5720020334D8B
:1022F000034601460246DFF8C0E0B5F9006014E08D
:1023000002EB02150EEB850595F82670BF060AD57F
:10231000E77A7F1CE772D5E9017CB5F91C5060446F
:102320003B4400B22944521CD2B2B242E8DBE27A0A
:102330002D4C93FBF2F22280002800DA00202B4A79
:102340000029108000DA00212948016027E570B5D6
:102350001A4D2888002868D00024174E61E000BF7D
:1023600004EB041006EB800191F8260010F0180F22
:1023700091F83C003ED090B191F93D0032284EDA00
:10238000401C40B281F83D00322848DB91F83E0005
:1023900028B9012081F83E0002464B683BE03EE050
:1023A00010000010D8270010CAC0072000C002404B
:1023B000FF00F0FF00C0092018470010CCC0072024
:1023C000CEC30720EA0000107CC007207DC0072094
:1023D000CFC307207EC10720CCC307200CC0072035
:1023E000D600001080C00720C2000010B0C3072034
:1023F000C400001098B191F93D0080B1401E40B278
:1024000081F83D0058B991F83E0040B1002081F8B4
:102410003E00034602464F21204601F0CCFF641CDB
:10242000E4B2B5F9000084429ADB70BDF0B5FD4B13
:1024300000221146FA48B3F900400CE001EB011309
:1024400000EB830393F83E5015B993F8403003B185
:102450000122491CC9B2A142F0DBF349F44BF64E0C
:102460000A70F2494FF00005CA7BF2491A70F34B2B
:10247000B1F900102A4661B117E000BF02EB021764
:1024800000EB870797F83E700FB101250FE0521C53
:10249000D2B2A242F2DB0AE0C2EBC20703EB87072B
:1024A000FF7B002FF1D1521CD2B28A42F4DB35708F
:1024B000E34E11B1002210461CE000252A460BE035
:1024C00002EB021700EB870797F82770BF0701D0D0
:1024D000012503E0521CD2B2A242F1DB35700CE0C0
:1024E000C0EBC00403EB8404647B0CB1012203E065
:1024F000401CC0B28842F3DB3270D24C11B10022D2
:1025000010460EE000202070F0BD00BFC0EBC005FB
:1025100003EB85056D7D2D0601D4012203E0401CEF
:10252000C0B28842F2DB2270F0BDC74830B4B0F9C7
:102530000010C648B0F90040BC48A142C37B90F9E6
:102540000E2004DAC24CB4F90040A1420CDC322A5D
:1025500018DA521C52B28273322A13DB002B11D1CB
:102560000122C27310460AE0002A0BD0521E51B25B
:102570008173002906D1002B04D0C173084630BCFA
:1025800002F0E9B830BC70472DE9F05FA948002699
:10259000008800286FD0AF480188032900D10126A8
:1025A0000025DFF8B4B2DFF8B4820A27DFF8B0A262
:1025B0008146E1E0A148C5EBC50100EB8104BBF910
:1025C0000010B4F9020090FBF7F0884204DAA54A43
:1025D000B2F90020904213DC227E8AB194F90E10E9
:1025E000322928DA491C49B2A173322923DBE17B65
:1025F00009BB012103B2A819E173C0B20A4617E072
:10260000884218DA9749B1F90010884213DD207E1C
:1026100088B194F90E0070B1401E40B2A07350B959
:10262000E07B40B10020E073A8190023C0B21A4635
:102630004F2102F0A0F9B4F90800B8F9001090FB9E
:10264000F7F0884203DABAF90020904214DC227EC7
:1026500092B194F90C10322928DA491C49B221733D
:10266000322923DB617B09BB012103B2A819617305
:10267000C0B20A4617E084E0884217DABAF90010BF
:10268000884213DD207E88B194F90C0070B1401EA1
:1026900040B2207350B9607B40B100206073A8192C
:1026A0000023C0B21A464E2102F065F9B4F90A00BF
:1026B000B8F9001090FBF7F0884203DABAF900206D
:1026C000904213DC227E8AB194F91010322927DA65
:1026D000491C49B22174322922DB617C01BB0121F2
:1026E00003B2A8196174C0B20A4616E0884217DA2C
:1026F000BAF90010884213DD207E88B194F91000E9
:1027000070B1401E40B2207450B9607C40B10020CE
:102710006074A8190023C0B21A46492102F02BF9AF
:10272000607D8007207E12D520B394F912003228F4
:1027300020DA401C40B2A07432281BDBE07CC8B910
:102740000120E074A819237DC0B201220FE088B1F6
:1027500094F9120070B1401E40B2A07450B9E07CF0
:1027600040B10020E074A8190023C0B21A465421D9
:1027700002F001F96D1CEDB2B9F900008542FFF6D7
:1027800019AFBDE8F09F70B5044607220121364815
:1027900001F0B5F9224804EB041100EB8105234850
:1027A00095F8291095F8262000F14800514000D0F6
:1027B00041700A4000D0827001EA0203DB071ED09C
:1027C000C178491CC17034B1012C09D0022C0CD045
:1027D000032C0FD045E101231A460E2123A03EE130
:1027E000012302220E2128A039E1012303220E2118
:1027F0002CA034E1012304220E2131A02FE18B070C
:102800000DD593077FD5C178491CC17034B1012C17
:1028100069D0022C6CD0032C70D022E15EE072E013
:1028200018470010CCC00720CEC3072010000010AE
:10283000EA000010D8C007207CC0072018580010FC
:102840007DC00720CFC307204CC10720C4C007208C
:10285000C6C00720DAC00720BCC00720C0C00720C0
:10286000C2C00720BEC0072045C00720496E76655C
:1028700072746F7220233120416C61726D2C206F55
:102880007665726C6F616400496E766572746F7202
:1028900020233220416C61726D2C206F7665726C42
:1028A0006F616400496E766572746F722023332005
:1028B000416C61726D2C206F7665726C6F61640083
:1028C000496E766572746F7220233420416C617298
:1028D0006D2C206F7665726C6F616400022301229B
:1028E0000E21AAA0BBE002231A460E21AEA0B6E03C
:1028F000022303220E21B3A0B1E0FFE7022304224A
:102900000E21B7A0ABE04B0720D553071ED5C178E9
:10291000491CC17034B1012C09D0022C0CD0032CFD
:102920000FD09EE0032301220E21B4A097E00323E1
:1029300002220E21B8A092E003231A460E21BDA068
:102940008DE0032304220E21C1A088E00B0720D5CF
:1029500013071ED5C178491CC17034B1012C09D0B0
:10296000022C0CD0032C0FD07BE0042301220E217B
:10297000BEA074E0042302220E21C5A06FE0042350
:1029800003220E21CBA06AE004231A460E21D2A016
:1029900065E0CB0620D5D3061ED5C178491CC17091
:1029A00034B1012C09D0022C0CD0032C0FD058E0EC
:1029B000052301220E21D1A051E0052302220E2180
:1029C000D7A04CE0052303220E21DEA047E005231B
:1029D00004220E21E4A042E08B0620D593061ED5EA
:1029E000C178491CC17034B1012C09D0022C0CD023
:1029F000032C0FD035E0062301220E21E3A02EE0A8
:102A0000062302220E21EAA029E0062303220E213A
:102A1000F0A024E0062304220E21F7A01FE001B35A
:102A2000FAB9C178491CC17034B1012C09D0022C0B
:102A30000CD0032C0FD014E0002301220E21F7A0AC
:102A40000DE0002302220E21F9A008E0002303225A
:102A50000E21FCA003E0002304220E21FEA018F0AA
:102A6000E7F915F8260FE87070BD70B5FF49002032
:102A7000FF4DB1F90C200121034600BF01FA00F41B
:102A8000224201D0295400E02B54401CC0B20C2833
:102A9000F4D3F84C2878F84E217881420CD0B6F95E
:102AA0000010012908DB012869D0002301220B2135
:102AB000F2A000BF18F0BCF96178687881420BD0B1
:102AC000B6F90010022907DB012859D000230222A1
:102AD0000B21EFA018F0ACF9A178A87881420BD0B7
:102AE000B6F90010032907DB01284AD0002303228E
:102AF0000B21ECA018F09CF9E178E87881420BD02A
:102B0000B6F90010042907DB01283BD0002304227A
:102B10000B21E9A018F08CF92179287981420BD09A
:102B2000B6F90010052907DB01282CD00023052267
:102B30000B21E6A018F07CF96179687981420BD00D
:102B4000B6F90010062907DB01281DD00023062254
:102B50000B21E3A018F06CF9A179A87981420BD080
:102B6000B6F90010072907DB01280ED00023072241
:102B70000B21E0A018F05CF9E179E879C4E1E9E122
:102B8000EDE1F1E1F5E1F9E1FDE101E2496E7665A2
:102B900072746F7220233120416C61726D2C206F32
:102BA0007665726865617400496E766572746F72DD
:102BB00020233220416C61726D2C206F7665726823
:102BC00065617400496E766572746F7220233320DC
:102BD000416C61726D2C206F76657268656174005E
:102BE000496E766572746F7220233420416C617275
:102BF0006D2C206F7665726865617400496E76652C
:102C000072746F7220233120416C61726D2C2069C7
:102C100073207761726D0000496E766572746F7211
:102C200020233220416C61726D2C20697320776102
:102C3000726D0000496E766572746F7220233320C6
:102C4000416C61726D2C206973207761726D000098
:102C5000496E766572746F7220233420416C617204
:102C60006D2C206973207761726D0000496E766566
:102C700072746F7220233120416C61726D2C20764A
:102C80006F6C7461676520697320757000000000C7
:102C9000496E766572746F7220233220416C6172C6
:102CA0006D2C20766F6C7461676520697320757078
:102CB00000000000496E766572746F722023332025
:102CC000416C61726D2C20766F6C74616765206950
:102CD0007320757000000000496E766572746F7223
:102CE00020233420416C61726D2C20766F6C7461EE
:102CF000676520697320757000000000496E766575
:102D000072746F7220233120416C61726D2C2076B9
:102D10006F6C7461676520697320646F776E000063
:102D2000496E766572746F7220233220416C617235
:102D30006D2C20766F6C7461676520697320646FF9
:102D4000776E0000496E766572746F7220233320AF
:102D5000416C61726D2C20766F6C746167652069BF
:102D60007320646F776E0000496E766572746F72BF
:102D700020233420416C61726D2C20766F6C74615D
:102D8000676520697320646F776E0000496E766511
:102D900072746F7220233120416C61726D2C206F30
:102DA0007574707574206973206F666665640000C1
:102DB000496E766572746F7220233220416C6172A5
:102DC0006D2C206F7574707574206973206F666642
:102DD00065640000496E766572746F72202333203B
:102DE000416C61726D2C206F7574707574206973FD
:102DF000206F666665640000496E766572746F7256
:102E000020233420416C61726D2C206F75747075B5
:102E100074206973206F666665640000496E76658C
:102E200072746F72202331206973206E6F726D008F
:102E3000496E766572746F72202332206973206E3A
:102E40006F726D00496E766572746F722023332045
:102E50006973206E6F726D00496E766572746F7261
:102E6000202334206973206E6F726D00405D001066
:102E7000E45C00104C110820D4C007204176746F28
:102E80006D6174202331206973204F464600000095
:102E90004176746F6D6174202332206973204F4630
:102EA000460000004176746F6D6174202333206901
:102EB00073204F46460000004176746F6D617420A8
:102EC0002334206973204F46460000004176746F1A
:102ED0006D6174202335206973204F464600000041
:102EE0004176746F6D6174202336206973204F46DC
:102EF000460000004176746F6D61742023372069AD
:102F000073204F464600000081420BD0B6F90010F6
:102F1000082907DB012840D0002308220B21E8A064
:102F200017F086FF217A287A81420BD0B6F900107B
:102F3000092907DB012835D0002309220B21E5A050
:102F400017F076FF0020295C2154401CC0B20C28E9
:102F5000F9D370BD01231A460B21E3A0AAE5012392
:102F600002220B21E5A0B5E5012303220B21E8A0F5
:102F7000C0E5012304220B21EAA0CBE501230522B1
:102F80000B21EDA0D6E5012306220B21EFA0E1E500
:102F9000012307220B21F2A0ECE5012308220B21DB
:102FA000F4A0BDE7012309220B21F7A0C8E72DE912
:102FB000F041FA4FFA48FB4CB7F90010B0F9002085
:102FC000B4F90000914202DD00F1010002E002DAF2
:102FD000A0F10100208006220021F24800F09AFDB5
:102FE000B4F90010F0480126052900DD0670002420
:102FF000012900DA0470ED48B7F90010ED4DB0F981
:103000000020EB48931E99420BDA90F900201E2A0B
:1030100016DA521C52B202701E2A11DB2A88521E86
:103020000CE091420BDD90F900201E2A08DA521CB8
:1030300052B202701E2A03DB2A88521C2A800470B6
:10304000DD48B846B0F90000814201DD142203E0FA
:10305000DA480088093002B20021D64800F05AFD53
:10306000F02000F020FD28B1D5480168F12901D1F8
:1030700040682880B5F90010D248012901DC0670AB
:1030800000E00470D048D14FB0F90000A0F1320147
:1030900028291BD8B8F90010CD4D814202DD2888BF
:1030A000401C2880CB48B0F90000814202DA288811
:1030B000401E288006220021C54800F02BFDB5F9EE
:1030C0000000052800DD3E70012800DA3C70C2488F
:1030D000C24FB0F90000A0F132011E291BD8B8F987
:1030E0000010BF4D814202DD2888401C2880BD4869
:1030F000B0F90000814202DA2888401E28800622AA
:103100000021B74800F006FDB5F90000052800DDF4
:103110003E70012800DA3C70BDE8F081F8B5B24C91
:103120000021A0790A2807D2401CC0B2A0710A2849
:1031300002D3A17101202072E079052805D2401C3C
:10314000C0B2E071052800D1E171BE2000F0ABFCF7
:10315000A64928B19A480268BF2A5BD1406858E066
:10316000207A88B3A24A1078552805D0507855287F
:1031700002D0A04800884CE09F4D00204FF0140C76
:103180006B466FF01307165C552E0FD023F81070A6
:10319000401CC0B20228F6D3BDF90000BDF90230D0
:1031A000964A984215DD0346106013E000EB400696
:1031B00006EB001605EB860696F80CE0BEF1000F54
:1031C00003D023F810C0E3E724E0768923F81060E9
:1031D000DEE713608A48002B02DAB0F9000012E043
:1031E000282B01DD28231360864BB3F90050B0F97A
:1031F0000030E81A00EB800015684000C8226843E0
:1032000090FBF2F01844227C022A02D17E48B0F9E9
:1032100000000880B1F90000622200FB02F1642284
:1032200091FBF2F1794B19806621484390FBF2F053
:1032300077490880F8BD2DE9F05F784E0020754988
:10324000DFF8D4814FF00A0B8246B6F9003024E053
:10325000734A744C125C34F91220B2F5FA6F0A56B4
:103260000DDA0A2A08DA521C52B20A540A2A12DB70
:10327000012208F800200EE001F800B00BE0002A5F
:1032800007DB521E52B20A54002A04DC08F800A0E0
:1032900001E001F800A0401CC0B29842D8DB002435
:1032A000DFF88491614D624F2EE1624830F81400DE
:1032B000002818F8040002D000B1BFE0CBE0BBE06A
:1032C0004176746F6D6174202338206973204F46F6
:1032D000460000004176746F6D61742023392069C7
:1032E00073204F46460000004176746F6D61742074
:1032F0002331206973204F4E200000004176746F07
:103300006D6174202332206973204F4E200000002D
:103310004176746F6D6174202333206973204F4EA2
:10332000200000004176746F6D61742023342069A1
:1033300073204F4E200000004176746F6D61742041
:103340002335206973204F4E200000004176746FB2
:103350006D6174202336206973204F4E20000000D9
:103360004176746F6D6174202337206973204F4E4E
:10337000200000004176746F6D617420233820694D
:1033800073204F4E200000004176746F6D617420F1
:103390002339206973204F4E200000005EC10720B2
:1033A0009AC00720E600001066C307209CC00720D3
:1033B00064C307206EC107209EC0072068C1072094
:1033C0000CC007207A000010A4C0072065C30720A6
:1033D000CAC30720A6C00720A0C007207B0000109A
:1033E000E8000010A2C007201000001060C10720F4
:1033F000DEC00720A000001040270010D8000010F9
:10340000940000107EC3072084C30720BEC307209A
:10341000D4000010B5C3072075C10720D0C0072015
:10342000A750020000270010D000001079C107202B
:10343000B9C3072010C2072001280CD019F90400D5
:10344000002818DB401E40B209F80400002814DCF4
:1034500005F804A011E019F904100A2908DA491C3A
:1034600049B209F804100A2907DB0120285504E0B5
:1034700009F804B001E009F804A0395D285D814233
:103480003ED0FF4A518C491C5184012807D014B307
:10349000012C25D0022C28D0032C2BD030E034B1C5
:1034A000012C09D0022C0CD0032C0FD028E00123D2
:1034B0001A460F21F3A021E0012302220F21F4A0DC
:1034C0001CE0012303220F21F4A017E001230422B2
:1034D0000F21F5A012E0002301220F21F5A00DE03D
:1034E000002302220F21F8A008E0002303220F216D
:1034F000FAA003E0002304220F21FDA017F098FC9E
:10350000285D3855641CE4B2B6F900008442FFF629
:10351000CCAEBDE8F09FFB49FB4A0120087010705B
:103520004870507070472DE9F05FDFF8E8E3DFF88E
:10353000DCC3F748BEF90010D14CBCF90250B0F919
:103540000070C1EB01116FF01D0A6FF0950B0026A2
:10355000DFF8B083B4F928000AEB81020BEB81039A
:10356000BD4204DCEC4FB7F90070BD4205DA82427F
:1035700003DD834201DA88F80060E84DE146BCF9DA
:1035800008C0B5F90050E04FBCEB450F03DC6D42BD
:10359000BCEB450F04DA824202DD834200DA3E7062
:1035A0006FF0090202EB81017546814220D1207C37
:1035B000F0B998F8000001281AD13878012817D1FD
:1035C0004FF4D67019F094FBD549B1F90010884238
:1035D0000ED0D448008858B199F83D00C00707D1F3
:1035E0004FF4D67019F0B2FCCF480178491C017035
:1035F000C749B9F902204846B1F900108A4206DCF1
:10360000C549B0F94E20B1F900108A420FDAB5F978
:103610000010B4F92820C1EB01110AEB8103934299
:1036200005DD0BEB8101914201DA88F80160BB49AD
:10363000B9F95400B1F90010B0EB410F03DC494275
:10364000B0EB410F0EDAB5F90000B4F92810C0EB69
:1036500000100AEB80028A4204DD0BEB80008842F6
:1036600000DA7E70B5F900106FF00900C1EB0111AE
:1036700000EB8100B4F92810884222D1207C00BBE5
:1036800098F8010001281CD17878012819D14FF44D
:10369000E576304619F02CFB0246A148B0F902103D
:1036A0008A420ED09F48008802280AD199F88900E2
:1036B000C00706D1304619F049FC9B480178491CE7
:1036C0000170B5F900106FF00100C1EB011100EBC2
:1036D0008100B4F92810884202D1BDE8F05F1AE7F2
:1036E00017E72DE9F04F9148DFF89491914903785D
:1036F0008F4899F90020B1F90010B0F9000088B0A6
:1037000023B1022B31D0012B7ED057E17F4B8A4D64
:10371000B3F90A702C7893F80CC0B3F956606D7841
:1037200093F8583022B1012A0ED1552C14D10EE055
:10373000552C04D1874246DCBCF1000F43D1552DF6
:1037400002D186423FDCF3BB08B0BDE8F08F8F4268
:10375000FADABCF1000FF7D1552D35D18E42F3DAEC
:1037600093B3F1E789F80000EEE7754C734BE57809
:10377000B3F90030A66A0096D4F878C0019594F8A1
:10378000538094F8A360D4F8C870D4F81851029606
:1037900094F8F3600395D4F86851049694F8436163
:1037A0000595D4F8B8E1069694F89361D4F808A288
:1037B000079694F8E3B1D4F8585294F83342E3B33F
:1037C000009E864201E05AE058E058DC019E1E2E21
:1037D00055D2012B04DD844551DCB8F11E0F4ED2C9
:1037E000022B04DD87424ADC029E1E2E47D2032BA9
:1037F00005DD039E864242DC049E1E2E3FD2042B32
:1038000007DD059E864200E0BAE038DC069E1E2EEB
:1038100035D2052B04DD864531DC079E1E2E2ED2C7
:10382000062B04DD82452ADCBBF11E0F27D2072BB5
:1038300003DD854223DC1E2C21D2012A84D1EBB189
:103840000098884280DA01980A288AD2022B79DB14
:103850008C4586DAB8F10A0F86D2032B72DB8F42D1
:10386000F0DA02980A28F0D2042B6BDB0398884226
:10387000E8DA04980A28E8D2052B64E07EE09DE0AF
:1038800010000010534B20233120416C61726D00F9
:10389000534B20233220416C61726D00534B202327
:1038A0003320416C61726D00534B20233420416CF6
:1038B00061726D00534B20233120416C61726D2089
:1038C0006973206F66660000534B20233220416CE1
:1038D00061726D206973206F66660000534B202370
:1038E0003320416C61726D206973206F6666000041
:1038F000534B20233420416C61726D206973206F1B
:1039000066660000C0C30720DC00001040270010DE
:10391000D4000010A2000010BEC307209A000010BF
:103920009CC10720C8C00720DE000010AA000010BC
:10393000A800001092C30720DEC00720CAC00720DD
:10394000D827001014E013DB0598884288DA06981F
:103950000A2888D2062B0BDB8E4589DA07980A28BD
:1039600089D2072B04DB8A45F0DABBF10A0FF0D2CB
:10397000082B03DB8D42E9DA0A2CEAD20020F1E6BB
:103980001E4E1D4D1B4BD6E900C4B5F90070B5F9AC
:103990000280B3F90030B5F90450B66883B18742AC
:1039A0000CDCBCF1000F09D1012B02DD804505DCE8
:1039B00024B9022B04DD854200DC0EB10120D1E6E2
:1039C000012A7FF4CEAE83B18F42BFDABCF1000F83
:1039D000F7D1022B03DB8845B8DA002CF1D1032B99
:1039E00003DB8D42B2DA002EEBD1002189F8001002
:1039F000AAE60000CEC00720F2C107206C5C0010D0
:103A000070B5374A0020A2F11401064601F10A03FD
:103A10000C5C54B11D5CAC4207D1145C2CB1641E2B
:103A200014F0FF04145400D10E540C5C1C54401CC0
:103A3000C0B20A28ECD370BD70B5294D0024143DE6
:103A4000641CE4B22E5D1EB1864201D00A2CF7D36D
:103A5000285523480C3040F82410283040F8242002
:103A60003438035570BD1E4A0021143A491CC9B2AE
:103A7000535C834201D00A29F8D3DBB2834210D1D0
:103A800017480C3050F8213016480360144B34337B
:103A900053F82130436000205054114A5054012003
:103AA0007047002070470E4A0021143A491CC9B2E1
:103AB000535C834201D00A29F8D3DAB282420CD196
:103AC00007480C3050F8212006480260044A34327E
:103AD00052F821104160012070470020704700001B
:103AE000F01008200CC0072090F900308B4200DA5B
:103AF000027090F90030934200DD0170704790F938
:103B000000308B4200DA017090F90010914200DD24
:103B100002707047B0F900308B4200DA0180B0F9D2
:103B20000010914200DD02807047B0F900308B42F6
:103B300000DA0280B0F90030934200DD0180704766
:103B400003688B4200DA02600368934200DD016083
:103B50007047000070B5F9480278F948016812B161
:103B600041F0010101E021F0010101600021F54C6B
:103B70005FF0010301EB410202EB011204EB820250
:103B800092F83D20D20706D04D1C03FA05F20568D5
:103B90009543154304E04A1C056803FA02F2954375
:103BA000491CC9B205600229E4D3E74C002100BFDB
:103BB00001EB810204EB021252783AB1CD1C03FAF8
:103BC00005F2056895431543056005E0CA1C03FA34
:103BD00002F50268AA430260491CC9B20C29E7D366
:103BE000D74D002201681435AC5C34B102F10F06E8
:103BF00003FA06F4A143214304E002F10F0403FA9F
:103C000004F4A143521CD2B2062AEDD3CF4D0022B8
:103C10000160AC5C012C2FD002F1190403FA04F40A
:103C2000A143521CD2B2042AF3D30160836821EA73
:103C30000302C26044681443C54A4460158815B144
:103C400024F00074446054881CB1446824F08064FB
:103C5000446094881CB1446824F000644460D288B5
:103C60001AB1426822F0805242608B43DA43B94B6A
:103C700002611B883BB109E002F1190603FA06F460
:103C8000A1432143CDE762F001020261036942686A
:103C90001A40C0E9012170BDF8B54FF460652846AF
:103CA00019F026F8441C3F2C00D9002421B22846E4
:103CB00019F04CF940F60266304619F019F83F2821
:103CC00000D0204601B2304619F040F9284619F0DC
:103CD0000FF84FF4806101EB401555208DF800007E
:103CE00000248DF8014052208DF802008DF8034029
:103CF0006946284619F0AFF96946281D009419F065
:103D0000AAF9954E308B8DF80000307D8DF80100BA
:103D1000307A8DF802008DF80340694605F10800FD
:103D200019F099F930798DF8000030788B4E8DF8C4
:103D3000010030688DF802008DF80340694605F1F6
:103D40000C0019F088F941248DF800408DF80140ED
:103D50008DF802408DF80340694605F1100019F016
:103D60007AF98DF800408DF801408DF802408DF809
:103D70000340694605F1140019F06DF98DF8004013
:103D80008DF801408DF802408DF80340694605F139
:103D9000180019F060F98DF800408DF801408DF899
:103DA00002408DF80340694605F11C0019F053F9F3
:103DB000FF203060F8BD2DE9F843674D5F4A243D90
:103DC00000262F154FF46061012801D0F0B336E1D1
:103DD000012010708846084618F08AFF441C3F2CCA
:103DE00000D9002421B2404619F0B0F840F602692B
:103DF000484618F07DFF3F2800D0204601B24846D3
:103E000019F0A4F8404618F073FF07EB4017502054
:103E10008DF800008DF8016041248DF802408DF886
:103E200003606946384619F016F96946381D009650
:103E300019F011F905F12005A88B8DF80000287EF6
:103E40008DF80100287B8DF8020000E04FE08DF82E
:103E50000360694607F1080019F0FDF8287A8DF82B
:103E6000000028798DF8010028788DF802008DF87F
:103E70000360694607F10C0019F0EDF88DF8004079
:103E80008DF801408DF802408DF80340694607F136
:103E9000100019F0E0F88DF800408DF801408DF821
:103EA00002408DF80340694607F1140019F0D3F879
:103EB0008DF800408DF801408DF802408DF80340E8
:103EC000694607F1180019F0C6F88DF800408DF822
:103ED00001408DF802408DF80340694607F11C004F
:103EE00019F0B9F80023012202211DA0A5E0144811
:103EF0001670184B0268B04622F0010202601A8860
:103F00001AB1426822F001024260084618F0F0FE41
:103F1000064604464FEA070909EB44176946384646
:103F200018F063FF9DF8000050283ED19DF8010075
:103F3000D8BB9DF80200412837D121E0B4C3072047
:103F400028C0072040270010D827001079C107207B
:103F500020C2072092C007202440024080C10F40A9
:103F60004D61696E20706F776572206973206F668E
:103F700066000000641E00E03F24B442CCD15EE045
:103F8000694607F1100018F030FF9DF80000412845
:103F90000BD19DF80100412807D19DF8020041286E
:103FA00003D19DF80300412802D0002CE4D0E1E7C2
:103FB00005F12005A88B8DF80000287E8DF8010002
:103FC000287B8DF8020044468DF80380694607F18E
:103FD000100019F040F8287A8DF8000028798DF843
:103FE000010028788DF802008DF80340694607F13A
:103FF000140019F030F8FE48422401788DF80010C2
:1040000040788DF801008DF802408DF80340694634
:1040100007F1180019F01FF88DF800408DF80140E5
:104020008DF802408DF80340694607F11C0019F035
:1040300012F801231A460221EEA016F0F9FE00BF85
:10404000BDE8F8832DE9F84F05460C004FF0540603
:104050000BD0012C04D0022C04D0032C04D004E09B
:10406000552602E0752600E04C26E849DFF898A3C3
:1040700005EB85034FF0000B4FF460604FF480694F
:1040800001EB0311012A01D0EAB391E134B1012C13
:1040900008D0022C0AD0032C0CD00FE04A7842F052
:1040A00001020AE04A7842F0020206E04A7842F051
:1040B000040202E04A7842F008024A7081F84F4058
:1040C000804618F015FE401C87B23F2F00D900270C
:1040D00039B2404618F03AFF40F6026018F008FE88
:1040E00080B23F2800D0384601B240F6026018F096
:1040F0002DFF404618F0FCFD09EB401087B253201D
:104100008DF8000000E0C4E08DF801508DF80260E9
:10411000D8468DF803B06946384618F09CFF6946CA
:10412000381DCDF8008018F096FFBAF83C000AF16F
:1041300020068DF80000307E8DF80100307B8DF870
:1041400002008DF80380694607F1080018F083FF2C
:10415000307A8DF8000030798DF8010030788DF8D4
:1041600002008DF80380694607F10C0018F073FF18
:1041700041268DF800608DF801608DF802608DF8A1
:104180000360694607F1100018F065FF8DF80060C4
:104190008DF801608DF802608DF80360694607F1C3
:1041A000140018F058FF8DF800608DF801608DF84C
:1041B00002608DF80360694607F1180018F04BFFA4
:1041C0008DF800608DF801608DF802608DF8036055
:1041D000694607F11C0018F03EFF25B1012D20D0E3
:1041E000022D3AD0E4E034B1012C09D0022C0CD0DD
:1041F000032C0FD0DCE000230122042184A00DE079
:1042000001231A46042188A008E002230122042188
:104210008CA003E003230122042192A016F008FEE3
:10422000C6E034B1012C09D0022C0CD0032C0FD0E5
:10423000BEE000230222042192A0EFE70123022224
:10424000042196A0EAE702231A4604219AA0E5E792
:10425000032302220421A0A0E0E734B1012C09D0FD
:10426000022C0CD0032C0FD0A2E000230322042147
:10427000A1A0D3E7012303220421A5A0CEE70223B6
:1042800003220421A9A0C9E703231A460421AFA0F1
:10429000C4E734B1012C08D0022C0AD0032C0CD076
:1042A0000FE04A7822F001020AE04A7822F0020286
:1042B00006E04A7822F0040202E04A7822F008027E
:1042C0004A7018F015FD84B24FEA040809EB441057
:1042D00087B26946384618F088FD9DF800005328DB
:1042E00024D19DF80100A84220D19DF80200B042DF
:1042F0001CD1694607F1100018F077FD9DF8000009
:10430000412813D106E0641EA4B200E03F244445D6
:10431000DCD14DE09DF80100412807D19DF8020055
:10432000412803D19DF80300412802D0002CEDD094
:10433000E9E7BAF83C000AF120048DF80000207E7D
:104340008DF80100207B8DF802005D468DF803B0EA
:10435000694607F1100018F07EFE207A8DF8000003
:1043600020798DF8010020788DF802008DF8035037
:10437000694607F1140018F06EFE42248DF80040E3
:104380008DF801408DF802408DF80340694607F131
:10439000180018F060FE8DF800408DF801408DF88F
:1043A00002408DF80340694607F11C0018F053FEE7
:1043B00000BFBDE8F88F2DE9F84F81461E464FF04B
:1043C0004F084F2902D0542900D18846DFF838A081
:1043D0004FF460604FF4806B012A07D0002A06D1A9
:1043E00018F086FC87B23C460026BFE0CAE0A2E196
:1043F000CE0000104D61696E20706F776572206984
:1044000073206F6E0000000000400240D8270010AB
:1044100042505320233120416C61726D2C206F7605
:104420006572686561740000425053202331204159
:104430006C61726D2C20766F6C7461676520697396
:104440002075700042505320233120416C61726D01
:104450002C20766F6C7461676520697320646F77B8
:104460006E00000042505320233120416C61726D78
:104470002C20636F6E6E656374206973206C6F739C
:104480007400000042505320233220416C61726D51
:104490002C206F766572686561740000425053206D
:1044A000233220416C61726D2C20766F6C746167D1
:1044B00065206973207570004250532023322041DB
:1044C0006C61726D2C20766F6C7461676520697306
:1044D00020646F776E000000425053202332204149
:1044E0006C61726D2C20636F6E6E656374206973EE
:1044F000206C6F737400000042505320233320411E
:104500006C61726D2C206F76657268656174000055
:1045100042505320233320416C61726D2C20766F02
:104520006C74616765206973207570004250532078
:10453000233320416C61726D2C20766F6C7461673F
:104540006520697320646F776E000000425053202D
:10455000233320416C61726D2C20636F6E6E656336
:1045600074206973206C6F73740000000BEB4410AF
:1045700085B26946284618F038FC9DF800004928A5
:1045800079D179E0054618F0B3FB401C84B23F2C8A
:1045900000D9002421B2284618F0D8FC40F6026762
:1045A000384618F0A5FB80B23F2800D0204601B263
:1045B000384618F0CBFC284618F09AFB0BEB40105D
:1045C00085B249208DF800008DF801908DF80280A9
:1045D00000248DF803406946284618F03CFD8DF80C
:1045E000006030128DF801008DF802408DF8034014
:1045F0006946281D18F02FFDBAF83C000AF1200684
:104600008DF80000307E8DF80100307B8DF80200BF
:104610008DF80340694605F1080018F01CFD307A5A
:104620008DF8000030798DF8010030788DF80200A7
:104630008DF80340694605F10C0018F00CFD41248B
:104640008DF800408DF801408DF802408DF8034050
:10465000694605F1100018F0FEFC8DF800408DF859
:1046600001408DF802408DF80340694605F11400C1
:1046700018F0F1FC45E06BE09DF80110494567D169
:104680009DF80210414563D1694605F1100018F00C
:10469000ACFB9DF8000041285AD14DE0641EA4B245
:1046A00000E03F24BC4246D0761CF6B23F2EFFF419
:1046B0009CAE002D3FD0BAF83C000AF120048DF8E2
:1046C0000000207E8DF80100207B8DF802004FF065
:1046D00000068DF80360694605F1100018F0BBFC78
:1046E000207A8DF8000020798DF8010020788DF86F
:1046F00002008DF80360694605F1140018F0ABFC68
:1047000042248DF800408DF801408DF802408DF86C
:104710000340694605F1180018F09DFC8DF8004033
:104720008DF801408DF802408DF80340694605F18F
:104730001C0018F090FC3CE69DF80100412807D1D0
:104740009DF80200412803D19DF803004128ABD019
:10475000002CA6D0A2E72DE9F84FDFF838B40E46BA
:104760004FF055084FF000094FF460674FF4806533
:10477000012815D000287DD1384618F0B9FA87B243
:104780003C4600264FEA050A0AEB441085B269460A
:10479000284618F02AFB9DF8000044286BD17BE0E6
:1047A000384618F0A5FA401C84B23F2C00D90024EA
:1047B00021B2384618F0CAFB40F6026A504618F09B
:1047C00097FA80B23F2800D0204601B2504618F038
:1047D000BDFB384618F08CFA05EB401085B244203A
:1047E0008DF800008DF801908DF802804C468DF810
:1047F00003906946284618F02EFC8DF800603012B0
:104800008DF801008DF802408DF803406946281D9F
:1048100018F021FCBBF83C000BF120068DF80000DD
:10482000307E8DF80100307B8DF802008DF803405A
:10483000694605F1080018F00EFC307A8DF800008A
:1048400030798DF8010030788DF802008DF8034042
:10485000694605F10C0018F0FEFB41248DF800407C
:104860008DF801408DF802408DF80340694605F14E
:10487000100001E06FE050E018F0EDFB8DF8004013
:104880008DF801408DF802408DF80340694605F12E
:10489000140018F0E0FB44E09DF80100E8BB9DF82F
:1048A0000210414564D1694605F1100018F09DFAE7
:1048B0009DF8000041285BD14EE0641EA4B200E0E8
:1048C0003F24BC4247D0761CF6B23F2EFFF45CAFCB
:1048D000002D40D0BBF83C000BF120048DF8000007
:1048E000207E8DF80100207B8DF802004E468DF869
:1048F0000390694605F1100018F0ADFB207A8DF8A1
:10490000000020798DF8010020788DF802008DF8E4
:104910000360694605F1140000E029E018F09BFBF4
:1049200042248DF800408DF801408DF802408DF84A
:104930000340694605F1180018F08DFB8DF8004022
:104940008DF801408DF802408DF80340694605F16D
:104950001C0018F080FB2CE59DF80100412807D1D0
:104960009DF80200412803D19DF803004128AAD0F8
:10497000002CA5D0A1E72DE9F84F4F2581461F4611
:104980004F2906D0492903D04E2901D0542900D1FE
:104990000D464FF0000A4FF460604FF4806B012A1F
:1049A00012D0002A7ED118F0A3F984B2A0460027C5
:1049B0000BEB441086B26946304618F016FA9DF8A3
:1049C000000042286FD179E0064618F091F9401CAA
:1049D00084B23F2C00D9002421B2304618F0B6FA38
:1049E00040F60268404618F083F980B23F2800D0B4
:1049F000204601B2404618F0A9FA304618F078F97E
:104A00000BEB401086B242208DF800008DF801902B
:104A10008DF8025054468DF803A06946304618F0D0
:104A20001AFB8DF8007038128DF801008DF80240E5
:104A30008DF803406946301D18F00DFB564DA88BCC
:104A40008DF80000287E8DF80100287B8DF802008B
:104A50008DF80340694606F1080018F0FCFA287A40
:104A60008DF8000028798DF8010028788DF8020073
:104A70008DF80340694606F10C0018F0ECFA412469
:104A80008DF800408DF801408DF802408DF803400C
:104A9000694606F1100018F0DEFA8DF800408DF836
:104AA000014001E066E072E08DF802408DF80340BD
:104AB000694606F1140018F0CEFA41E09DF80110A5
:104AC000494564D19DF80200A84260D1694606F1CB
:104AD000100018F08AF99DF80000412857D14AE0EB
:104AE000641EA4B200E03F24444543D07F1CFFB2C3
:104AF0003F2FFFF45DAF002E3CD0274CA08B8DF8EC
:104B00000000207E8DF80100207B8DF802005546C4
:104B10008DF803A0694606F1100018F09CFA207A7F
:104B20008DF8000020798DF8010020788DF80200C2
:104B30008DF80350694606F1140018F08CFA4224EF
:104B40008DF800408DF801408DF802408DF803404B
:104B5000694606F1180018F07EFA8DF800408DF8CD
:104B600001408DF802408DF80340694606F11C00B3
:104B700018F071FA1DE49DF80100412807D19DF855
:104B80000200412803D19DF803004128AED0002C3B
:104B9000A9D0A5E700400240204002401120FF4973
:104BA00008727047FE490820FE4A4870002000BF86
:104BB00000EB800302EB03131B78052B04D0401C91
:104BC000C0B20C28F4D3704748707047002801DA4F
:104BD000404200B2704710B54FF4347018F088F8B6
:104BE000F14C207040F2D22018F082F860704FF43F
:104BF000357018F07DF8A07040F2D62018F078F8E3
:104C0000E0704FF4367018F073F8207240F2DA203A
:104C100018F06EF860724FF4377018F069F8A072EF
:104C200040F2DE2018F064F8E0724FF4437018F0A0
:104C30005FF8207140F20E3018F05AF860714FF4AE
:104C4000447018F055F8A07140F2123018F050F886
:104C5000E07110BD30B5D548016821F0E061016018
:104C60004168D44AC1F30B14D14D11784B1CDBB20F
:104C700025F811401370032B03D2016841F08071B5
:104C8000016030BD2DE9F0470746DDE90A090E460F
:104C9000DDE9085A01B214469846982018F056F9F2
:104CA00000219A2018F052F90021762018F04EF9D0
:104CB0000121CA2018F04AF93C21C22018F046F917
:104CC00039B2782018F042F904EBD470401001B2E8
:104CD000C82018F03BF931B27A2018F037F921B228
:104CE0007C2018F033F94621C62018F02FF9502106
:104CF0007E2018F02BF90FFA88F1822018F026F99F
:104D0000BB21842018F022F90021862018F01EF91A
:104D10000A21882018F01AF90FFA89F1DE2018F01C
:104D200015F929B28C2018F011F9E8000A2190FB3E
:104D3000F1F001B28E2018F009F90121A02018F03D
:104D400005F90121A22018F001F90121A42018F091
:104D5000FDF8A021922018F0F9F80FFA8AF19420BA
:104D600018F0F4F80321962018F0F0F83221CC2046
:104D700018F0ECF82821CE2018F0E8F85521BC20D6
:104D800018F0E4F81E21BE2018F0E0F80121802080
:104D900018F0DCF84621D02018F0D8F83C21D420B7
:104DA00018F0D4F81921D22018F0D0F85021D620CC
:104DB00018F0CCF84621D82018F0C8F85B21DA208A
:104DC00018F0C4F85021DC2018F0C0F87A4C00210B
:104DD000B4F9000018F0BAF8784D0021B5F90000D8
:104DE00018F0B4F8764E4FF0FF373946B6F90000A8
:104DF00018F0ACF8B4F90200002118F0A7F8B5F9E2
:104E00000200002118F0A2F8B6F90200394618F0A5
:104E10009DF8B4F90400002118F098F8B5F90400E1
:104E2000002118F093F8B6F90400394618F08EF80E
:104E3000B4F90600002118F089F8B5F90600002140
:104E400018F084F8B6F90600394618F07FF80A2100
:104E50004FF4197018F07AF8BDE8F0470B214FF4C1
:104E6000187018F073B82DE9FF470446182808D0C9
:104E70004FF41675302C0FD03C2C19D0DC2826D0DE
:104E800053E000230722F02196208DE80F0016231F
:104E900022462146400017E0002307224FF4F0711C
:104EA00064208DE80F002C232246214628460BE083
:104EB000642000230722CDE90005CDE90223372332
:104EC0002246214640F2EE20FFF7DCFE2DE040F6C0
:104ED0009804642040F62A130222CDE90004CDE9AB
:104EE0000223BB2340F60B1240F63E1140F692100F
:104EF000FFF7C8FE40F2BD11C82018F027F8214680
:104F0000C42018F023F81421922018F01FF845F25D
:104F100011614FF49E7018F019F80121CA2018F0A1
:104F200015F8AA21BC2018F011F8264DAA21B5F9D0
:104F3000000018F00BF8244C2178244EB6F900003C
:104F400018F004F8217BDFF88880B8F9000017F02A
:104F5000FDFFB4F91010DFF87CA0BAF9000017F0DB
:104F6000F5FF1D4F0021B7F9000017F0EFFFDFF844
:104F70006C900021B9F9000017F0E8FFB5F90200C4
:104F8000AA2117F0E3FF2178B6F9020017F0DEFF3F
:104F9000217BB8F9020017F0D9FF21E00040024060
:104FA00044C00720D8270010986C00100040034030
:104FB0005C00001011000010145102001C5102008E
:104FC0002C510200BC5002002C400240C050020094
:104FD000C4500200B8500200B4500200C850020091
:104FE000B4F91010BAF9020017F0B0FFB7F90200D7
:104FF000002117F0ABFFB9F9020004B00021BDE8B1
:10500000F04717F0A3BF70B5062017F071FE002817
:1050100004DB062017F06CFE022803DD00210620C9
:1050200017F094FFFF490878401CC0B20870FE4C8E
:1050300001250A2813D3FD480068C0070FD1E07886
:1050400068B9062017F054FE022808DA062017F087
:105050004FFE401C01B2062017F078FFE570B4F94E
:105060003C00B0F5616F07D3062017F041FE18B180
:105070000021062017F06AFFED4881687F22B2EB1D
:10508000116F00D1E5708068C0F307407F2800D120
:10509000E57070BDE448E44980302E31B0F9080075
:1050A00000F11C02D2B24A720B785B1CDBB201F831
:1050B0002E39934203D9142281F82E2001E0142BBB
:1050C0001CD391F82E101430814217DAD94801EB25
:1050D000810100EB0110C1783C2905D2491CC9B2FD
:1050E000C170032902D207E03C21C1700179032974
:1050F00002D24179491C4171C178017170472DE993
:10510000FF41C94F8037A7F1520438891C306072C3
:105110002078401CC0B204F82E0932281CD904F1B2
:105120003804002004F80A0CA08FC3B2E08FC2B28A
:10513000A08EC1B2608FC0B28DE80F00E08EA0F1EA
:105140003200C3B2208FC2B2608EA4F13804C1B263
:105150004FF0F1001AF03DFB94F82E50142D35D38A
:10516000B7F908001430854230DA94F83600DFF8D9
:10517000C48290B905EB850108EB011606F12C06F7
:105180003079737A327A71798DE80F0033784FF085
:10519000ED02294628461AF01CFB94F82E1001EB6C
:1051A000810108EB0110C1783C2905D2491CC9B224
:1051B000C170032902D207E03C21C17001790329A3
:1051C00002D24179491C4171C1780171B88A002825
:1051D00017D094F82E00142813D19748817D3C29CC
:1051E00001D2491C817590F832103C2902D2491C29
:1051F00080F8321090F84E103C2902D2491C80F8F9
:105200004E10BDE8FF818D490020087048708870FD
:105210004631487070472DE9F0410020864B86B03A
:105220004FF4F471054654331D54401C00B28842BB
:10523000FADB7D4CA07858B904F18006B6F9040079
:10524000A8B1012804D104F19A00007855280ED0A5
:1052500000204FF0140C7A2100FB01F200EB8001DA
:1052600089000CB200EB80010CEB810665E26F480F
:105270000068C00718D0A07F98B30023704A0321AC
:1052800032208DE80F0002461823084614F051FC26
:1052900000236C4A032132208DE80F0002461823B8
:1052A000084614F046FCA7E0B6F90600614F012855
:1052B00051DB0023CDE900330021142314220846DA
:1052C00014F081FB0023CDE90033012112231222C7
:1052D000084614F078FBB878042803D000235A4A13
:1052E00007E089E07878C1070BD0A07F98B3574AD0
:1052F000002302210F208DE80F0003460246032001
:105300000DE010F0060F26D0A07F20B30023504AF6
:1053100002210F208DE80F0003460246084614F0D4
:1053200008FCB878012816D1002300930B23002233
:105330001421092014F032F900235B221F210920D7
:10534000009314F02BF9607A04231330C1B20022C9
:10535000092014F079FBB6F9060002284CDB002383
:10536000CDE90033142314220021172014F02BFB65
:105370000023CDE90033122312220121182014F05A
:1053800022FB97F85200042802D00023314A0FE094
:1053900097F85100C10704D0A07F68B300232B4ABF
:1053A00006E010F0060F27D0A07F28B3284A00237C
:1053B00002210F208DE80F0003460246192014F049
:1053C000B8FB97F85200012816D1002300930B2355
:1053D00000221421202014F0E1F8002344221F2190
:1053E0002020009314F0DAF8607A04231330C1B25D
:1053F0000022202014F028FBDFF83880B088A8F1C4
:1054000098080A2640B30023CDE900331423232251
:105410000021322014F0D7FA0023CDE90033022313
:1054200003221AE0EEED072044C0072028C0072021
:1054300000400440D82700101858001072C10720FF
:10544000CF57020065580200FB580200375902008E
:10545000555902001959020052E01421352014F068
:10546000B2FA0023CDE900330223032214214F2096
:1054700014F0A9FA98F83D004746C0070ED0A07F67
:10548000F0B30023FF4A032132208DE80F000246CB
:10549000182300212B2014F04CFBA3E000230093E1
:1054A0000B2300221421422014F078F8002322223A
:1054B0001F214220009314F071F8B7F9080000286A
:1054C00005DA607A042300221330C1B205E0607A65
:1054D0000423C0F12200C1B20222422014F0B4FA27
:1054E000207B0F2865D2E848B0F90000A0F5AA415A
:1054F000553977D0B7F91000052190FBF1F000E0A5
:1055000070E0ADF810001422002104A8FEF702FBA1
:1055100000230122CDE90023BDF910302022002113
:10552000332014F050FA388A0A2815D202230122B7
:10553000CDE9002309230C2205213D2014F043FA74
:105540000123B7F910001A4600218DE80F0002234D
:105550000521CEA23D2018E04FF002034FF00102DA
:10556000CDE9002364284FF0090311D2122205214E
:105570003A2014F028FAB7F9100001230222002182
:105580008DE80F000323C2A223E014F0FEFA29E005
:1055900018220521372014F016FAB7F9100001235C
:1055A000032200218DE80F0004230521B9A2372032
:1055B000EBE71E28B7F908004FF0010390FBF6F067
:1055C00000B24FF0030219468DE80F0004D2042305
:1055D000B2A205213A20D8E70523B2A21946352008
:1055E00014F076FB0023CDE900330E231B220421A7
:1055F0005C2014F0E8F900231A1F0A215C200093B4
:1056000013F0CCFF002304220A217620009313F02C
:10561000C5FF002327221F214320009313F0BEFF64
:10562000002300936FF00D0300221F21692013F067
:10563000B5FFE07A0423C0F12200C1B20222692042
:1056400014F002FA904F0123583F0422B7F90400E6
:10565000002190FBF6F000B28DE80F00052393A225
:105660001621462014F091FAB7F90600642809DAE9
:105670000123032219468DE80F000423072187A286
:105680005D200BE090FBF6F000B201230322002125
:105690008DE80F00042381A207215A2014F075FA27
:1056A000207A401CC0B22072032821D32572607A70
:1056B000401CC0B260720D2800D36572A07A401CF5
:1056C000C0B2A072202800D3A572E07A401CC0B2FC
:1056D000E0720F2800D3E572207B00F10100C0B218
:1056E000207398F83D10890705D52D2800D3257320
:1056F00006B0BDE8F0811E28F9D2F9E762496D4F86
:105700009C31095D01EB410517F81510995407EB21
:105710004505511C6F785F54921C1146AF785F5459
:10572000521CEF789F54511C2F795F54921C697959
:105730001546521C641C595524B2A642DEDC401C9E
:1057400000B20428FFF687ADD2E72DE9F04F5A4B9F
:10575000ADF50B7D05211A68002052ADD4074FF03E
:10576000010A03D055A0529001200621594EF47928
:1057700044B159A445F8204000F1010001F10101B4
:10578000C0B2C9B2140708D559A445F8204000F1A9
:10579000010001F10101C0B2C9B2D40608D55AA472
:1057A00045F8204000F1010001F10101C0B2C9B289
:1057B000940608D55AA445F8204000F1010001F1F3
:1057C0000101C0B2C9B2540608D55BA445F8204017
:1057D00000F1010001F10101C0B2C9B2140608D5FF
:1057E0005BA445F8204000F1010001F10101C0B2C5
:1057F000C9B2D40508D55CA445F8204000F10100E9
:1058000001F10101C0B2C9B2940508D55CA445F804
:10581000204000F1010001F10101C0B2C9B25205FE
:1058200006D55DA245F82020401C491CC0B2C9B273
:10583000154A233A02F1AF03A2F1B50B1778B3F979
:105840000040BBF90C30012F859308D13BB134B92E
:1058500057A345F82030401C491CC0B2C9B2537848
:10586000012B0DD1859B012B0ADD074B8C335B8807
:1058700033B955A345F82030401C491CC0B2C9B209
:105880009378ADE0655802009CC1072020250000F8
:10589000202025002020202500000000202020417D
:1058A00000000000414343C8CC000000202020201D
:1058B000420000004051020028C00720202020C0E4
:1058C000E2E0F0E8FF20F1E5F2E8212121202020AC
:1058D0000000000044C007202020C0E2E0F0E8FF04
:1058E00020E1E0F2E0F0E5E82020202000000000C8
:1058F000202020C0E2E0F0E8FF20C1CFD120B93164
:105900002020202000000000202020C0E2E0F0E85D
:10591000FF20C1CFD120B93220202020000000007C
:10592000202020C0E2E0F0E8FF20C1CFD120B93331
:105930002020202000000000202020C0E2E0F0E82D
:10594000FF20C1CFD120B93420202020000000004A
:10595000202020C0E2E0F0E8FF20C1CFD120B935FF
:105960002020202000000000202020C0E2E0F0E8FD
:10597000FF20C1CFD120B936202020200000000018
:10598000202020C0E2E0F0E8FF20C1CFD120B937CD
:105990002020202000000000202020C0E2E0F0E8CD
:1059A000FF20C1CFD120B9382020202000000000E6
:1059B000202020D1F0E0E1EEF2E0EB20D1CAB931B5
:1059C0002020202000000000202020D1F0E0E1EE87
:1059D000F2E0EB20D1CAB9322020202000000000E4
:1059E000012B0CD1859B022B09DDFE4B9B8833B923
:1059F000FDA345F82030401C491CC0B2C9B2D27882
:105A0000012A0CD1859A032A09DDF64AD28832B9D7
:105A1000FBA245F82020401C491CC0B2C9B296F830
:105A2000382032B1FCA245F82020401C491CC0B2ED
:105A3000C9B296F83920B0467AB1FDA245F82020C7
:105A4000401C491CC0B2C9B2FFA245F8202000F199
:105A5000010001F10101C0B2C9B2DFF804C462461D
:105A60009CF8263092F83C20DE0709D042B1FDA612
:105A700045F8206000F1010001F10101C0B2C9B296
:105A80009E0709D542B1FDA645F8206000F101004E
:105A900001F10101C0B2C9B25E0709D542B1FDA64C
:105AA00045F8206000F1010001F10101C0B2C9B266
:105AB0001E0709D542B1FDA645F8206000F101009E
:105AC00001F10101C0B2C9B2DB0609D542B1FDA2A4
:105AD00045F8202000F1010001F10101C0B2C9B276
