:020000040000FA
:10000000D87E0010CD010000D1010000D301000016
:10001000D5010000D7010000D90100000000000058
:10002000000000000000000000000000DB010000F4
:10003000DD01000000000000DF010000A741010019
:10004000E30100000B71010037710100E3010000C2
:10005000E301000087A20100E3010000E3010000CA
:10006000E3010000E3010000E3010000E301000000
:10007000E3010000E3010000E3010000E3010000F0
:10008000E3010000E3010000E3010000E3010000E0
:10009000E3010000E301000031500000E301000033
:1000A000E3010000439D0100E3010000E3010000C3
:1000B000C1BD0100E3010000E3010000E301000015
:1000C000E3010000E3010000E301000000F002F89A
:1000D00000F06DF80AA090E8000C82448344AAF175
:1000E0000107DA4501D100F062F8AFF2090EBAE873
:1000F0000F0013F0010F18BFFB1A43F0010318475C
:1001000054100200941002000A444FF0000C10F842
:10011000013B13F0070408BF10F8014B1D1108BF85
:1001200010F8015B641E05D010F8016B641E01F825
:10013000016BF9D113F0080F1EBF10F8014BAD1C75
:100140000C1B09D16D1E58BF01F801CBFAD505E093
:1001500014F8016B01F8016B6D1EF9D59142D6D3ED
:10016000704700000023002400250026103A28BF15
:1001700078C1FBD8520728BF30C148BF0B60704719
:1001800064291BF0F18673291CF05581002070470B
:100190001FB51FF099FF1CF00BFA0400002000218E
:1001A0001FF07CFF401C60601FBD10B510BD1CF02F
:1001B000DAF91146FFF7ECFF14F0B1F81CF00CFA75
:1001C00003B4FFF7F2FF03BC1CF010FA0848004725
:1001D000FEE7FEE7FEE7FEE7FEE7FEE7FEE7FEE7F7
:1001E000FEE7FEE703480449044A054B7047000058
:1001F000CD000000D8360820D87E0010D83E082058
:10020000D8760010FEE710B51DF03AFE1DF0C6FED0
:100210001DF0B8FE1DF046FEAFF30080BDE81040B3
:100220001DF082BE10B51EF093FC1FF003FB1EF004
:10023000E7FCBDE810401EF05FBE1EF0A7BB1EF03D
:100240006FB909B1002070471CF0C4BE0020704790
:100250001E4BDA601870597070471C48C16800293D
:100260000DD0491EC1600AD1194902780A7042783E
:100270004A700A710021C17001714171817170472A
:10028000124A1161907070471048016900290BD023
:10029000491E016108D10E4A817811700021517008
:1002A000C1700171417181717047084908817047BF
:1002B0000648B0F90810002907D0491E09B201818B
:1002C000002902D1084601F066B870477CC00720BB
:1002D000E4C1072070B5064600F00CF80468054636
:1002E00030460A2200211CF0AAF82C6070BD70472D
:1002F000704770470048704778760010FFFFFFFF97
:10030000002801DA404200B270470020F94A20215B
:100310001154401CC0B2C828FAD370470146F54AB0
:100320000020401CC0B2135C8B4201D0C828F8D317
:10033000704710B50021F04C0A2200BFB0FBF2F369
:1003400002FB13006054491CC9B218460529F5D3B5
:1003500010BDF0B5E94B0121202719700521E64AAF
:10036000002601E01C7844B1541814F8015C25B94A
:10037000814202D904F8017C05E0541814F8015DAB
:10038000303525701E70491E11F0FF01EAD1F0BD15
:1003900070B50D461446002802DAC043401C00B276
:1003A000FFF7C7FF601CC0B2FFF7D3FF2846FFF777
:1003B000B5FFFF2819D0D04ACE4B0021A14201D26F
:1003C000555C13E004D14FF02E051D54555C03E03D
:1003D000555C202D03D04CB11E1806F8015C401E60
:1003E000491CC9B2C0B20529E8D370BD1D54F6E757
:1003F000F0B50D461446002801DA404200B2FFF77E
:1004000098FF601CC0B2FFF7A4FF2846FFF786FFE5
:10041000B94AB84B002164B9555C202D09D0561853
:100420007678202E03D12D261F1807F8016C1D5455
:100430000FE0A14201D2555CF9E704D14FF02E053F
:100440001D54555C02E0555C202D02D01E1806F8A4
:10045000015C401E491CC9B2C0B20529DBD3F0BD06
:10046000FEB52B23002802DA404200B22D230025DE
:100470000A266C4690FBF6F706FB170060556D1CCC
:100480006DB238B20A2DF5DB0126002509202027A0
:1004900000E046B114F800C0BCF1000F03D1904257
:1004A00001DD275405E0265C3036265400266D1CFD
:1004B000EDB2401E40B20028EBDA2D2B02D163557D
:1004C0006D1CEDB26AB168B205E0231813F8013C67
:1004D0002354401E40B29042F7DC2E206D1CA054E5
:1004E000EDB20846FFF71AFF0021824A04E0635C80
:1004F000461A491C935549B2A942F8DBFEBDFEB528
:100500002B23002801DA40422D2300250A266C46C1
:10051000074690FBF6F006FB107767556D1C6DB231
:100520000A2DF5DB012600250920202700E046B131
:1005300014F800C0BCF1000F03D1904201DD275434
:1005400005E0265C3036265400266D1CEDB2401EB8
:1005500040B20028EBDA2D2B02D163556D1CEDB2B1
:100560006AB168B205E0231813F8013C2354401E19
:1005700040B29042F7DC2E206D1CA054EDB208462C
:10058000FFF7CCFE00215B4A04E0635C461A491C7D
:10059000935549B2A942F8DBFEBDFEB52B260028D3
:1005A00001DA40422D2600240A276D46844690FB3E
:1005B000F7F007FB10CC05F804C0641C64B20A2CE9
:1005C000F4DB0127002009244FF0200C00E04FB19C
:1005D00015F804E0BEF1000F04D19C4202DD05F8DD
:1005E00004C005E02F5D30372F550027401CC0B2F6
:1005F000641E64B2002CEADA2D2E02D12E54401C67
:10060000C0B26BB144B205E02E1916F8016C2E553C
:10061000641E64B29C42F7DC2E24401CEC54C0B231
:1006200001EB810102EB8101CAB20021314B04E0F0
:100630006C5C561A491C9C5549B28142F8DBFEBDE0
:1006400070B50D4616461C46FFF773FE601CC0B21F
:10065000FFF77FFE05EB850006EB8000C1B2264A5E
:10066000244B0020A04201D2155C5D5406D3155CDA
:10067000202D03D04CB15E1806F8015C491E401CC9
:10068000C0B2C9B20528EDD370BD5D54F6E730B5F0
:10069000044608461546FFF741FEFF2809D0154AD3
:1006A0002178002905D04319641C401CD154C0B2E4
:1006B000F6E730BD70B50D461446FFF73AFE601CF4
:1006C000C0B2FFF746FE2846FFF728FE0A4B094A4C
:1006D000002124B95D5C202D01D0155416E0A14203
:1006E00001D25D5CF9E70BD14FF02E0515545D5C2E
:1006F00009E0000064C20720840000108900001097
:100700005D5C202D02D0161806F8015C401E491CC5
:10071000C9B2C0B20529DCD370BD801801D5084428
:1007200002E0884200DB401AC0B270472DE9FE4F5C
:1007300004460D464FF4606017F0DAFA6242402139
:10074000FFF7EBFF400100F58060044602A917F0B7
:100750004CFB694604F1080017F047FB01A904F1BE
:100760000C0017F042FB2846FFF7D8FD06469DF81F
:10077000080040273025DFF8F0B4DFF8F0A420248B
:100780004FF0210C4FF02309552820D0CF22D12340
:10079000502878D0422874D0532873D0492862D189
:1007A000C8210AF80610761CF1B2ED220AF80120E1
:1007B000491CC9B2E2220AF80120491C9DF809200F
:1007C0005046C9B2092A78D231324254FDE39DF82D
:1007D0000A0052280ED1C2210AF80610761CF1B286
:1007E000EA220AF80120491CC9B2EB220AF80120CA
:1007F000491CCEB25046B5E39DF8012096F838303A
:100800009A4267D19DF8022096F82C309A42F8D18E
:100810004554491CC9B23A2200F801C0491CC9B26A
:100820004254491CC9B24554491CC9B24754491CD9
:10083000C9B24254491CC9B200224554491CC9B22C
:100840000AF801909DF804002121FFF733FF9DF87D
:10085000050000224021FFF72DFF9DF80600002231
:100860002321FFF727FFBDE8FE8F00BF9DF8011091
:10087000FF48002200EB81004021FFF708FFF2E76C
:1008800001E028E045E30AF80620761CF1B2504664
:100890000AF80130491CC9B20AF80140491CC9B222
:1008A0000AF80140491CC9B20AF80140491CC9B202
:1008B0000AF80140491CC9B21FE397E39DF80130D3
:1008C00092F83860B3429CD19DF8023092F82C2007
:1008D00093429DD05AE39DF80A0043287CD1C12160
:1008E0000AF80610761CF1B2E0220AF80120491C31
:1008F000C9B2F2220AF80120491CCEB29DF80910B3
:100900005046092906D231318155761CF1B2C022F8
:10091000425419E0A1F109025A2A11D2491C0A23B2
:10092000B1FBF3F2904630328255761C03FB18116E
:10093000F6B230318155761CF1B2C022425406E045
:100940008455761CF1B24454491CC9B24454491C24
:10095000C9B25E464454491C9DF80020BBF83C30A7
:10096000C9B29A4239D19DF8012096F838309A429E
:1009700033D19DF8022096F82C309A422DD145545F
:10098000491CC9B23A2200F801C0491CC9B24254FC
:10099000491CC9B24554491CC9B24754491CC9B283
:1009A0004254491CC9B200224554491CC9B20AF834
:1009B0000190491CCEB29DF804002121FFF77AFE78
:1009C0009DF8050000224021FFF774FE9DF8060007
:1009D00000222321FFF76EFE36E04454491CC9B2C1
:1009E00000224554491CC9B200F801C0491CC9B2D3
:1009F0004754491CC9B24454491CC9B24454491C07
:100A0000C9B24554491CC9B20AF80190491CCEB27A
:100A10009DF802002121FFF74DFE9DF80000002205
:100A20002321FFF747FE9DF80100401E0C2802D34A
:100A300001208DF801009DF801108D48002200EB87
:100A400081004021FFF723FE9DF80A00532873D14F
:100A5000C1210AF80610761CF1B2E0220AF8012042
:100A6000491CC9B2F2220AF80120491C9DF809204C
:100A700043235046C9B2092A09D231324254491C93
:100A8000C9B2C0224254491CC9B243540FE0093ACA
:100A90005A2A05D2C0224254491CC9B2435403E029
:100AA0004454491CC9B24454491CC9B24454491C59
:100AB000C9B25E464454491C9DF80020BBF83C3046
:100AC000C9B29A4239D19DF8012096F838309A423D
:100AD00033D19DF8022096F82C309A422DD14554FE
:100AE000491CC9B23A2200F801C0491CC9B242549B
:100AF000491CC9B24554491CC9B24754491CC9B222
:100B00004254491CC9B200224554491CC9B20AF8D2
:100B10000190491CCEB29DF804002121FFF7CAFDC7
:100B20009DF8050000224021FFF7C4FD9DF8060056
:100B300000222321FFF7BEFD36E04454491CC9B210
:100B400000224554491CC9B200F801C0491CC9B271
:100B50004754491CC9B24454491CC9B24454491CA5
:100B6000C9B24554491CC9B20AF80190491CCEB219
:100B70009DF802002121FFF79DFD9DF80000002255
:100B80002321FFF797FD9DF80100401E0C2802D39A
:100B900001208DF801009DF801103548002200EB7E
:100BA00081004021FFF773FD9DF80A005A2863D1A8
:100BB000C2210AF80610761CF1B2C7220AF80120F9
:100BC000491CC9B250460AF80140491CC9B25E46E8
:100BD0000AF80140491CC9B20AF80140491CC9B2CF
:100BE0004454491CC9B24454491C9DF80020BBF828
:100BF0003C30C9B29A4240D19DF8012096F8383075
:100C00009A423AD19DF8022096F82C309A4234D17B
:100C10004554491CC9B23A2200F801C0491CC9B266
:100C20004254491CC9B24554491CC9B24754491CD5
:100C3000C9B24254491CC9B200224554491CC9B228
:100C40000AF80190491CCEB29DF804002121FFF75B
:100C500031FD9DF8050000224021FFF72BFD002209
:100C60009DF80600232105E00040024064C20720F1
:100C7000E8070200FFF71EFD36E04454491CC9B2E4
:100C800000224554491CC9B200F801C0491CC9B230
:100C90004754491CC9B24454491CC9B24454491C64
:100CA000C9B24554491CC9B20AF80190491CCEB2D8
:100CB0009DF802002121FFF7FDFC9DF800000022B5
:100CC0002321FFF7F7FC9DF80100401E0C2802D3FA
:100CD00001208DF801009DF80110FF48002200EB73
:100CE00081004021FFF7D3FC9DF80A0057287DD1F1
:100CF000C1210AF80610761CF1B2E0220AF80120A0
:100D0000491CC9B2F2220AF80120491CCEB29DF852
:100D1000091050464FF0F00E092906D231318155A5
:100D2000761CF1B200F801E019E0A1F109025A2A9B
:100D300011D2491C0A23B1FBF3F29046303282559E
:100D4000761C03FB1811F6B230318155761CF1B2D6
:100D500000F801E006E08455761CF1B24454491CC9
:100D6000C9B24454491CC9B25E464454491C9DF85A
:100D70000020BBF83C30C9B29A423BD19DF801201B
:100D800096F838309A4235D19DF8022096F82C30EA
:100D90009A422FD14554491CC9B23A2200F801C0E9
:100DA000491CC9B24254491CC9B24554491CC9B274
:100DB0004754491CC9B24254491CC9B20022455487
:100DC000491CC9B20AF80190491CCEB29DF8040032
:100DD0002121FFF76FFC9DF8050000224021FFF75D
:100DE00069FC00229DF80600232100E039E0FFF7AE
:100DF00061FC36E04454491CC9B200224554491CE8
:100E0000C9B200F801C0491CC9B24754491CC9B253
:100E10004454491CC9B24454491CC9B24554491CE4
:100E2000C9B20AF80190491CCEB29DF802002121F6
:100E3000FFF740FC9DF8000000222321FFF73AFC59
:100E40009DF80100401E0C2802D301208DF80100FE
:100E50009DF80110A048002200EB81004021FFF71F
:100E600016FC9DF80A004B287FF409ADC1210AF851
:100E70000610761CF1B2E0220AF80120491CC9B222
:100E8000F2220AF80120491C9DF80900C9B209287C
:100E90000BD231300AF80100491CC8B2EA210AF825
:100EA0000010401CC0B2E52115E0A0F109025A2A49
:100EB00016D2401C0A23B0FBF3F2904630320AF8F7
:100EC0000120491C03FB1800C9B230300AF80100A8
:100ED000491CC8B2EA210AF80010401CC1B20BE05C
:100EE0000AF80140491CC9B20AF80140491CC9B2BC
:100EF0000AF80140491CC9B250465A464454491C9C
:100F00009DF80030BBF83C60C9B2B3423FF4D6ACA8
:100F10003CE0C1210AF80610761CF1B250460AF8EE
:100F20000120491CC9B20AF80130491CCEB29DF813
:100F30000910092902D23131815514E0A1F10902C9
:100F40005A2A0FD2491C0A23B1FBF3F290463032E1
:100F50008255761C03FB1811F6B230318155761C90
:100F6000F1B205E08455761CF1B24454491CC9B273
:100F70005E464454491CC9B24454491C9DF80020A3
:100F8000BBF83C30C9B29A423FF436AC4454491CD9
:100F9000C9B200224554491CC9B200F801C0491C1D
:100FA000C9B24754491CC9B24454491CC9B244543B
:100FB000491CC9B24554491CC9B20AF801909DF8B0
:100FC00002002121FFF776FB00E022E09DF80000FF
:100FD00000222321FFF76EFB9DF80100401E0C2824
:100FE000FFF444AC01208DF801003FE4A2F10903B5
:100FF0005A2B0DD2521C0A25B2FBF5F303F1300631
:101000004654491C05FB1322C9B23032425403E056
:101010004454491CC9B24454491CC9B20AF801409D
:1010200021E470B50446084615461E46FFF776F9DA
:101030002A4B0146FF2804D106E01A54641C401CC8
:10104000C0B22278002AF8D125480078002804D0C0
:10105000002E02D029445F20585470BD2DE9FF4F67
:101060008146DDE90D048A469346FFF757F92022B1
:10107000DFF86C8019490A234FF0640C012C09D168
:1010800098F8005035B10D18A5F10E05AA706A70D8
:101090002A7027E099FBF3F603FB16970D183037FB
:1010A000A5F10E05022CAF7096FBF3F703FB176654
:1010B00006F130066E7099FBFCF606F1300605F875
:1010C0000E6B0FD198F8006066B1A5F10A05AA7001
:1010D0006A702A7028E00000E807020064C2072056
:1010E000ADC007209AFBF3F603FB16A70D183037A7
:1010F000A5F10A05032CAF7096FBF3F703FB176607
:1011000006F130066E709AFBFCF606F13006674673
:1011100005F80A6B08D198F800602EB1A5F1060514
:10112000AA706A702A7022E09BFBF3F603FB16B7E5
:101130000D183037A5F10605042CAF7096FBF3F7B8
:1011400003FB176606F130066E709BFBFCF606F19A
:101150003006674605F8066B09D198F8004034B1AF
:10116000A5F102050A546A702A70BDE8FF8F039C3E
:1011700094FBF3F203FB124430340C5492FBF3F46F
:1011800003FB14220844A0F102003032427003999C
:1011900091FBF7F101F130010170E6E717B501EBC2
:1011A000810002EB8000C2B29DF80030EB4803F0F2
:1011B0000F0100EB1313445CE9498C54521ED2B268
:1011C0001B788B549DF80130521E03F00F04D2B2ED
:1011D000045D8C54521E00EB1313D2B21B788B5457
:1011E0009DF80230521E03F00F04D2B2045D8C54FD
:1011F000521E00EB1313D2B21B788B549DF80330B0
:10120000521E03F00F04D2B2045D8C54521E00EB48
:101210001310D2B2007888541EBD10B5044608469B
:10122000FFF77CF8CD4904F00F028B5CCC4A01EB50
:1012300014111354401EC0B20978115410BD01EBB3
:10124000810102EB8101C54A10B500F00F03C9B25C
:10125000D45CC34B02EB10105C54491EC9B2007839
:10126000585410BD01EB810102EB8101CBB2BB49A7
:1012700010B500F00F028C5CB94AD45404095B1E0F
:1012800004F00F00DBB2085CD0545B1ED8B2230917
:1012900003F00F040C5D1454401E1B09C0B2C95C5E
:1012A000115410BD01EB810102EB8101CBB2AB49BE
:1012B00010B500F001028C5CA94AD45444085B1EAE
:1012C00004F00100DBB2085CD0545B1ED8B26308A6
:1012D00003F001045B080C5D1454401E03F001048C
:1012E000C0B20C5D14545B08401E03F00104C0B290
:1012F0000C5D14545B08401E03F00104C0B20C5D89
:1013000014545B08401E03F00104C0B20C5D145479
:10131000401EC4B25808085C105510BD30B5914944
:1013200001238F4D91F9012091F9041000EB800405
:101330008A4202D105F8243030BD894D4C1C00EBA7
:10134000800005EB8000A24201D1037530BD8C1CEA
:10135000A24202D180F8283030BDCC1CA24202D17A
:1013600080F83C3030BD0C1DA24202D180F85030D4
:1013700030BD4C1DA24202D180F8643030BD8C1DBE
:10138000A24202D180F8783030BDC91D8A42FBD11B
:1013900080F88C3030BD744B1A88521E104400B255
:1013A0001880724A00EB800002446E4813680360A4
:1013B000127902714278114441707047F0B56A4D5C
:1013C0006A4FB5F9004004EB8406641C2C80654C20
:1013D0003E44256835602579357120706170227131
:1013E000A370F0BDF0B505460E461746FEF78DFF1B
:1013F0005B4C0020401C15F8011BC0B204F8011B17
:101400001428F7D35FF00000401C16F8011BC0B28F
:1014100004F8011B1428F7D35FF00000401C17F8F4
:10142000011BC0B204F8011B1428F7D35FF00000C1
:10143000401C13F8011BC0B204F8011B1428F7D399
:10144000F0BD10B5029CFFF7CDFF4648C378827807
:1014500041787820FFF7B2FF642094FBF0F0BDE8FC
:101460001040C0B2FEF721BF2DE9FE4340010D46FA
:1014700000F58060044602A916F0B7FC694604F145
:10148000080016F0B2FC01A904F10C0016F0ADFC46
:101490002846FEF743FF324C202530262554401CB9
:1014A000C0B24FF021082654401CC0B24FF0400C8F
:1014B00004F80080401CC0B2232104F800C0401C86
:1014C000C0B200222554401CC0B22554401CC0B2FA
:1014D0002654401CC0B22154401CC7B29DF80200E3
:1014E0002121FFF7E7F89DF8000000222321FFF7F4
:1014F000E1F89DF80100401E0C2802D301208DF870
:1015000001009DF801001A49002201EB80004021F2
:10151000FFF7BDF8E5557F1CF8B23A212654401C70
:10152000C0B2002204F80080401CC0B22154401C0C
:10153000C0B221212654401CC0B204F800C0401C97
:10154000C6B29DF80400FFF7B5F89DF8050000222B
:101550004021FFF7AFF8A555BDE8FE8366080200FD
:1015600064C20720E4C10720CCC007206C0B082010
:10157000E80702002DE9FF4105460027FF4C012145
:10158000A774A07B022805D0FD4A525D552A04D0DD
:1015900065200EE0A174BDE8FF8105EB450202EB7A
:1015A0000513F84A02EB830696F83D20D30702D0D4
:1015B0006620A074EFE796F83F309B0701D56720BF
:1015C000F7E7920701D56820F3E7EF4AB6F908304C
:1015D000B2F90020934201DD6920EAE752429342CA
:1015E00001DA6A20E5E7012804D1E07B00287ED0FB
:1015F00001287DD06420A074A173A1874FF4F870F6
:1016000016F0A4FCE5732946E5874FF4FA7016F04E
:101610009DFCDE48B761002130F9150016F096FCFC
:101620002774A4F8407039464FF4FB7016F08EFC16
:10163000D748D84D0088401C00F0070006EB40005A
:10164000008CADF80000A88B8DF804004FF0630209
:101650004FF0010101A802F0BCFAC84C9DF804004B
:1016600068342070287E8DF804000C22012101A826
:1016700002F0AFFA9DF804006070287B8DF804003A
:101680001F22012101A802F0A4FA9DF80400A07015
:101690009DF80000E0704FF4FC70216816F099FC92
:1016A000287A8DF804001722002101A802F091FA8F
:1016B0009DF80400207128798DF804003B22002158
:1016C00001A802F086FA9DF80400607128788DF870
:1016D00004003B22002101A802F07BFA9DF80400DF
:1016E000A0719DF80100E0714FF4FE7001E004E08C
:1016F00005E0616816F06DFC4DE76B2059E76C2042
:1017000057E72DE9F0479D4CA07B01287DD120466D
:101710000127C07B217CC0F1010207FA02F09B4E39
:10172000984D02B211B1012933D037E01423CA21F8
:10173000C82002F0EBF914234FF0FF32CE21CD2068
:1017400002F0E4F9E07B00EB400101EB001005EB57
:101750008000B0F90800FEF7D3FDE17B01EB410208
:1017600002EB011205EB82029369184448F6A0438C
:101770009061984212DBC01A906136F8110016F0A1
:10178000B7FA401C01B2E07B36F9100016F0DEFB20
:1017900004E01423CA21C82002F0B8F9E07BA8466F
:1017A00000EB400101EB001205EB82017A4AB1F92E
:1017B00002100025B2F900204FF4F87902EB820202
:1017C000B1EB420F40DA218F491C09B221871E2953
:1017D0003BDBA17B012921D1217CF9B936F810002E
:1017E00016F086FA01B26D48E27B30F9120016F06D
:1017F000ADFBE07B36F8100016F07AFA81B2E07BA0
:1018000003F01CFA6648E17B00E03EE030F911008D
:10181000002116F09BFB3220A082E082E07B584939
:10182000C0F10100085C552807D0A573A5870021E9
:101830004FEA090016F08AFB07E02774A4F840700D
:1018400001214FF4FB70F5E72587E17B01EB4100B7
:1018500000EB0112C1F1010101EB410303EB0111A6
:1018600008EB820208EB8100B2F90220B0F9020015
:1018700082420ADB207C012807D1A573A587484650
:10188000BDE8F047002116F061BBBDE8F08770B5F8
:101890003A4C05460026A07BE0B90221A173A1873E
:1018A0004FF4F87016F052FBC5EB05108100A586C9
:1018B0000D4661874FF4F97016F048FB29464FF446
:1018C000FF7016F043FB0020E0866086012630465C
:1018D00003F042FA304670BD10B5284CA07B0228B8
:1018E0000FD1A08E03F038FA00206086A086E08633
:1018F000A073A0870146BDE810404FF4F87016F0C1
:1019000025BB10BD70B5234C203C94F83800254D04
:10191000297808440C2803D9A08F401C01B201E0AB
:10192000B4F93C10B82016F011FB94F83810287860
:1019300001440C2994F8381000D90C380144B62021
:1019400016F004FB94F82C001C2801D91C2101E09E
:1019500094F82C10B42016F0F9FA04F12004217A3E
:101960004FF0AE0016F0F2FA2179B02016F0EEFA40
:101970002178BDE87040B22016E0000004C00720C6
:1019800016C1072040EF0720AEC307205C0102000C
:1019900078C1072020400240ACC307207801020034
:1019A00058010200B4C0072016F0D0BA10B5FF48A5
:1019B000FF4C007830B3FF48818FFF4A1288914274
:1019C00020D190F83810FD4A128891421AD190F82F
:1019D0002C10FB4A1288914214D190F82810F94A31
:1019E000128891420ED190F82410F74A1288914241
:1019F00008D190F82000F5490988884202D10120D9
:101A0000607402E0607C00280BD0F1480088C0B20E
:101A1000FFF73DFF002804D000206074BDE81040AF
:101A200070E710BDEB486FF03B010088C0EB001081
:101A300001EB8000DE4988857047DD4940F2F9609E
:101A40004885704770B5DA4C608D401C00B26085E7
:101A5000B0F5E16F02DB0020608570BDB0F5DF6F8F
:101A600011D90F2301226421D22002F04FF80F2355
:101A70000022D821D72002F049F80F230022D821D4
:101A8000DC2002F043F8B4F92A00A0F5E061073940
:101A9000E3D1D14ED14CD24D30882188884205D037
:101AA000B4F90010B5F9000016F050FA708861889A
:101AB0008842D2D0B4F90210B5F90200BDE87040F6
:101AC00016F044BA10B5C74C082200212088401CEB
:101AD0002080204602F093F8C348B4F9001000EBD0
:101AE000410142880A84B0F84E00A1F86C0010BD94
:101AF0002DE9F05FDFF8F482BD4E4FF4FA65B8F9D6
:101B00000010B6F90000B84C484390FBF5F0B94915
:101B10006080B8F90820B1F900004FF42F735043EA
:101B200090FBF3F0A080B8F91820B6F902005043FA
:101B300090FBF5F0A4F84E00B8F90220B1F90200CC
:101B4000504390FBF3F0A4F85000DC2002F015F8AD
:101B5000DFF8A4E2F0BBDFF88492DFF87CA245F264
:101B60001366B9F80000BAF8001045F6386B401A51
:101B7000A249B71E45F69263B1F9001045F2FA5238
:101B80004143BEF80000584501D0984202D14FF4BD
:101B9000967C0AE0904203D0B04201D0B84202D114
:101BA00091FBF5F103E04FF47A7C91FBFCF121818C
:101BB000B9F80210BAF802C05845A1EB0C0C8F49D5
:101BC000B1F9021001FB0CF101D0984203D14FF49E
:101BD00096700BE00EE0904203D0B04201D0B842C4
:101BE00002D191FBF5F003E04FF47A7091FBF0F035
:101BF000A4F85400B8F90C3040F6B731A3F22135FF
:101C0000012200208D4201D2207300E022737C4E1D
:101C100044F6206CB6F900505D4395FBFCF3A3F24B
:101C200011136381B8F90E30A3F221358D4202D22F
:101C300084F8580001E084F85820B6F902505D435A
:101C400095FBFCF3A3F21113A4F856306D4BB3F9D6
:101C500000506D4B35B96D4E6D4F36883E806D4EE0
:101C600036881E80B3F90060002E00DA18801DB996
:101C7000694B6A4E1B683360B8F90A300F46A3F20D
:101C800021366749BE4201D2086000E00A60DFF8F1
:101C900094B1DFF89491BBF900605E4396FBFCF3CE
:101CA000A3F21113A9F80030B8F91430A3F22136C9
:101CB000BE4201D2486000E04A60BBF902605E4368
:101CC00096FBFCF3A3F211131BB2A9F802309A465B
:101CD000B8F90630A3F22136BE4201D2886000E096
:101CE0008A60BBF90420514E5A4392FBFCF2A2F2E7
:101CF000111212B2A9F80420DFF834C191463388DA
:101D0000BCF900204FF47A685A4392FBF8F2494B31
:101D100092B2494F1A80642A01D3484A12883A8005
:101D20007288BCF90260DFF820C1564396FBF8F2D6
:101D30005A80434ADFF80C81B2F90030B8F90060EC
:101D40005E4341F2707396FBF3F6ACF80060B2F9B3
:101D50000270B8F902607E4396FBF3F6ACF80260BD
:101D6000B8F90460B2F90470DFF8E0807E4396FBB6
:101D7000F3F6ACF80460B2F90670B8F90060DFF869
:101D8000D0C07E4396FBF3F6ACF80060B2F9087061
:101D9000B8F902607E4396FBF3F6ACF80260B2F944
:101DA0000A20B8F90460564354E00000B4C007208C
:101DB00004C007200040024024C1072022C10720A0
:101DC00020C107201AC107201CC107201EC10720FF
:101DD00026C10720B6C307203C0000108E2100104A
:101DE0008401020078C1072040EF0720AC66001094
:101DF0003800001094C3072018C1072098C307209B
:101E00004000001012C107207CC10720D8C3072062
:101E10007AC107207E00001080000010D0C107208A
:101E2000E80A08209EC307201EC2072024C20720FC
:101E3000440000102AC2072096C1072080C1072055
:101E4000EC6600109E00001030C20720ECC3072093
:101E500036C2072096FBF3F2ACF804200AF2111206
:101E600013B2FA4F09F2111216B23B807E804A6813
:101E700012F0FF023A728968C9B27972F44F04D045
:101E8000012A0ED012B10DD020E011B1012910D0DD
:101E90001CE0991901EBD1716FF4887202EB6101BA
:101EA00013E011B1012908D010E0A6F211163E800E
:101EB0000CE0A3F211133B8008E0E64909780529FC
:101EC00002D2E549098800E014213980E34AE44957
:101ED0001378552B05D1B4F90230C82B01DD2389C5
:101EE0000B855278552A0AD1B4F94E20C82A06DD4E
:101EF000B4F95420B4F908309A4200DD0A85BEF8DE
:101F00000020A2F5AC432F3B03D0283301D0143B73
:101F100002D1D44A12880A85D4490022DFF84883C6
:101F2000B1F900302DE000BF02EB820108EB011196
:101F3000CC78192C1CD28C79CE7904EB06240C6257
:101F40000C7A4E7A04EB0624CC618C7ACE7A04EBC0
:101F500006248C610C7B4C624C7B81F84E408C7B60
:101F600081F83E400C7C4E7C04EB06248C6406E039
:101F700088610862C861486281F83E008864521C2A
:101F8000D2B29A42D0DBDFF8E8C20621CCF81810B2
:101F9000B849B1F900408CB3002242E002EB820163
:101FA00008EB011191F84336192B28D201F2466152
:101FB0000B784E7803EB0626C2EBC20303EB430318
:101FC0000CEB8303DE618F78CE7807EB06269E85C7
:101FD0000E794F7906EB07269E618E791E62CE79C7
:101FE00083F842600E7A4F7A06EB07269E628E7A5D
:101FF000C97A06EB01215962987010E013E0C2EB38
:10200000C20101EB41010CEB81011923C8618885F4
:102010008861086281F84200486288628B70521CB5
:10202000D2B2A242BADB944915B18A7B3C2A06D3CC
:102030000880486048800873487308814881BDE87B
:10204000F09F8E4A8E481178042901D0012905D1CC
:10205000517819B98B490978552902D08A490988DC
:1020600003E00178002901D0491E017070478748BC
:10207000416821F4402141F480214160416821F40C
:10208000403141F480314160416821F4404141F4E4
:1020900080414160416C21F4402141F400214164C0
:1020A000416C21F4403141F400314164416C21F430
:1020B000404141F4004141647548016821F0E0610C
:1020C0000160016841F400110160016821F4803170
:1020D0000160016821F47F4141F480710160811544
:1020E000C1606C488903016070472DE9F0415C4C88
:1020F0005C3460882188401A00B202F055FFA51DAB
:102100002880A0886188401A00B202F04DFF6880E4
:10211000A0882188401A00B202F046FF4FF4967260
:102120004F49A880904201DAA0880AE0B5F9020080
:10213000904201DA608804E0B5F90000904201DACB
:102140002088888391F802C00023BCF1000F22D0C0
:102150005148B1F91C2004681444046044681444D4
:102160004460846814448460C4682244C2608A8CD9
:10217000521C12B28A84B2F5805F00DB8B84B1F905
:10218000242094052ED1921250F8224024124C8320
:1021900040F8223026E0414FC8780C7907EB8015D3
:1021A000B1F91C2045F82420A2070FD100252A46AA
:1021B00007EB801656F82270521CD2B23D44102A0A
:1021C000F8D32A11344D203D25F81020401CC0B210
:1021D000C870102806D3641CE0B2CB7008711028B8
:1021E00000D30B710CF1010C4B701CF00100284A5C
:1021F000887005D0106820F0FF00001D106060E0BE
:10220000C97808070028106820F0FF0002DB00F101
:10221000010001E000F1020010602148036843F072
:1022200080530360036A43F080430362036E43F00C
:1022300080630366CB07436934D043F08053436126
:102240008B07436B31D423F0804330E0420B0820EE
:102250008EC10720C4C007209AC1072016C10720DD
:1022600004C007207C00001080F0072004C1072074
:1022700000FD072006C10720D8060820E4C107207A
:1022800092C00720D4C3072028C1072000C0024005
:102290000040034000E100E0CC660010AC6200109A
:1022A00000C0092023F08053C9E743F08043436313
:1022B0004907416F02D421F0806101E041F0806163
:1022C0004167106840F080701060BDE8F0812DE932
:1022D000F041FB4C60882188401A00B202F064FE95
:1022E000A51D2880A0886188401A00B202F05CFE1B
:1022F0006880A0882188401A00B202F055FE4FF491
:102300009672A880A4F15C01904201DAA0880AE0EC
:10231000B5F90200904201DA608804E0B5F90000E6
:10232000904201DA208888838E780020F6B34C79B9
:10233000E44A8CB1B1F91C30156805EBA3051560B2
:10234000556805EBA3055560956805EBA3059560F9
:10235000D56805EBA303D360B1F91C30642B0EDA0A
:102360000B8C4FF4FA655B1C1BB20B84AB4208DB91
:102370000D84106050609060D060488352E0088403
:1023800050E0052B4ED1A4B1CB8B5B1C1BB2CB8391
:10239000B3F5007F00DBC883B1F91E305D0608D1BC
:1023A000DB1152F823502D124D8300E00FE042F86C
:1023B0002300B1F92220962A01DD04B148711F3AA9
:1023C000272A2FD24A796ABB01224A712AE0BE4FDE
:1023D000CA7891F804C007EB8214B1F91C3044F8B4
:1023E0002C305FEA8C730FD10024234607EB821553
:1023F00055F823705B1CDBB23C44102BF8D323113F
:10240000B04C203C24F81230521CD2B2CA70102AB0
:1024100008D30CF1010C0CF0FF02C8700A71102AED
:1024200000D308714870761C16F00100A74A887026
:1024300005D0106820F0FF00001D106032E0C97860
:1024400008070028106820F0FF0001DB401C00E0B6
:10245000801C10609E48036843F080530360036A49
:1024600043F080430362036E43F080630366CB074F
:10247000436908D043F0805343618B07436B05D415
:1024800023F0804304E023F08053F5E743F08043DA
:1024900043634907416F02D421F0806101E041F0BC
:1024A00080614167106840F0807010600DE7F0B502
:1024B00083485C38B0F9181019B1A1F1010101830A
:1024C0007FE00022844C827213468249B4F90040B6
:1024D0000FE000BF03EB830501EB0515AE78012E7D
:1024E00005D1ED78142D02D2857A6D1C85725B1CA6
:1024F000DBB2A342EEDB867A022E62D341F288334E
:10250000C0E911230023C26415E000BF03EB83057B
:1025100001EB0515AF78012F0BD12D6A476CBD4239
:1025200000DD4564876CBD4200DA8564C76C3D44BC
:10253000C5645B1CDBB2A342E8DBC36C012593FBE3
:10254000F6F70765836C03B98564436C64267343AF
:10255000866C93FBF6F34365A02B00DD4572782B68
:1025600001DA42722DE0407A01282AD100226FF070
:10257000310324E002EB820001EB00108578012D8D
:102580001BD1056ABD4205DDB0F84C50A5F101052F
:10259000A0F84C5005DAB0F84C5005F10105A0F850
:1025A0004C50B0F94C509D4202DAA0F84C3004E097
:1025B000322D02DD3225A0F84C50521CD2B2A2427C
:1025C000D8DB00BFF0BD45480168454A11400160B5
:1025D0003F4A116841F47C711160C16921F44021C6
:1025E000C161116E41F000711166416821F04061D6
:1025F0004160106840F0005010603A4991F8420084
:1026000083063948B0F9000002D58B781E2B01D91A
:1026100000284FDC91F896309B0603D591F8563090
:102620001E2B01D9012845DC91F8EA309B0603D521
:1026300091F8AA301E2B01D902283BDC91F83E31DB
:102640009B0603D591F8FE301E2B01D9032831DCFF
:1026500091F892319B0603D591F852311E2B01D986
:10266000042827DC91F8E6319B0603D591F8A631C2
:102670001E2B01D905281DDC91F83A329B0603D5A3
:1026800091F8FA311E2B01D9062813DC91F88E320D
:102690009B0603D591F84E321E2B01D9072809DC81
:1026A00091F8E2329B0603D591F8A2121E291DD99A
:1026B00008281BDD906940F0100090617047000011
:1026C00060C00720CC660010AC62001000400340E0
:1026D00000C0092080F0072004C1072000C002408C
:1026E000FF00F0FF00FD072006C10720D06940F081
:1026F0001000D061E2E72DE9F041FF4C01260025F2
:10270000207B0A2806D2401CC0B220730A2801D3BD
:1027100025736673E5852586CD2001F02EFAF749ED
:10272000DFF8DCE3E0B1F7484FF6FF730268CE2A2A
:1027300008D0CF2A08D0D12A08D0D22A09D0D02A4E
:1027400009D04DE023864BE0406807E04068E08513
:1027500046E0E38544E04068E085C04320863FE0F2
:10276000607B90B300221046BEF9003008E000BF45
:1027700000EB800701EB0717401C87F82860C0B208
:102780009842F5DDE04E0020B6F9006012E000BF8F
:1027900000EB800701EB071797F802C0BCF1020FAE
:1027A00002D0BCF1010F03D1521C87F82850D2B2DD
:1027B000401CC0B2984201DAB242E9DBD348B0F91A
:1027C00000003C280CDA002008E009E000EB800261
:1027D00001EB0212401C82F82850C0B29842F5DD8D
:1027E00000206326BEF900700CE000BF00EB800201
:1027F00001EB0212936B1BB182F828605B1E93639E
:10280000401CC0B2B842F1DB6573E5720020C14DD7
:10281000034601460246DFF8F8C2B5F9006016E04B
:10282000C2EBC20505EB45050CEB850595F842703A
:10283000BF060AD5E77A7F1CE772AF693B44EF69B0
:10284000B5F92C50384400B22944521CD2B2B242DD
:10285000E6DBE27A002893FBF2F2AF4B1A8000DA53
:102860000020AE4A0029108000DA0021AC48016047
:102870002BE570B5044607220121AA4801F0A9F909
:10288000C4EBC40000EB4001A14800EB81059A486D
:1028900095F8431095F8422000F15800514000D0BF
:1028A00041700A4000D0827001EA0203DB071ED0AB
:1028B000C178491CC17034B1012C09D0022C0CD054
:1028C000032C0FD0E4E001231A460E2196A0DDE090
:1028D000012302220E219BA0D8E0012303220E2116
:1028E0009FA0D3E0012304220E21A4A0CEE08B07F9
:1028F00020D593071ED5C178491CC17034B1012C75
:1029000009D0022C0CD0032C0FD0C1E002230122ED
:102910000E21A1A0BAE002231A460E21A5A0B5E01F
:10292000022303220E21AAA0B0E0022304220E21DA
:10293000AEA0ABE04B0720D553071ED5C178491C8C
:10294000C17034B1012C09D0022C0CD0032C0FD053
:102950009EE0032301220E21ABA097E00323022275
:102960000E21B0A092E003231A460E21B4A08DE000
:10297000032304220E21B9A088E00B0720D51307FA
:102980001ED5C178491CC17034B1012C09D0022C6C
:102990000CD0032C0FD07BE0042301220E21B6A023
:1029A00074E0042302220E21BCA06FE00423032262
:1029B0000E21C3A06AE004231A460E21C9A065E0D7
:1029C000CB0620D5D3061ED5C178491CC17034B1C1
:1029D000012C09D0022C0CD0032C0FD058E0052379
:1029E00001220E21C8A051E0052302220E21CFA012
:1029F0004CE0052303220E21D5A047E00523042245
:102A00000E21DCA042E08B0620D593061ED5C178AE
:102A1000491CC17034B1012C09D0022C0CD0032CFC
:102A20000FD035E0062301220E21DBA02EE0062385
:102A300002220E21E1A029E0062303220E21E8A0B4
:102A400024E0062304220E21EEA01FE001B3FAB910
:102A5000C178491CC17034B1012C09D0022C0CD0B2
:102A6000032C0FD014E0002301220E21EEA00DE074
:102A7000002302220E21F1A008E0002303220E21F0
:102A8000F3A003E0002304220E21F6A013F063FB61
:102A900015F8420F687070BD70B5F7490020F74D0A
:102AA000B1F90C200121034601FA00F4224201D0C1
:102AB000295400E02B54401CC0B20C28F4D3F04C35
:102AC0002878F04E217881420CD0B6F90010012907
:102AD00008DB01280ED0002301220B21EAA000BF51
:102AE00013F039FB61786878814204D0B6F90010A0
:102AF0000229D3E156E2DBE104C0072080F0072081
:102B000004C1072014000010E8C30720CAC0072032
:102B100000FD072006C10720D8C307207E00001053
:102B20008000001091C00720496E766572746F7244
:102B300020233120416C61726D2C206F7665726CA0
:102B40006F616400496E766572746F722023322063
:102B5000416C61726D2C206F7665726C6F616400E0
:102B6000496E766572746F7220233320416C6172F6
:102B70006D2C206F7665726C6F616400496E7665AE
:102B800072746F7220233420416C61726D2C206F3F
:102B90007665726C6F616400496E766572746F72EF
:102BA00020233120416C61726D2C206F7665726834
:102BB00065617400496E766572746F7220233220ED
:102BC000416C61726D2C206F76657268656174006E
:102BD000496E766572746F7220233320416C617286
:102BE0006D2C206F7665726865617400496E76653C
:102BF00072746F7220233420416C61726D2C206FCF
:102C00007665726865617400496E766572746F727C
:102C100020233120416C61726D2C20697320776113
:102C2000726D0000496E766572746F7220233220D7
:102C3000416C61726D2C206973207761726D0000A8
:102C4000496E766572746F7220233320416C617215
:102C50006D2C206973207761726D0000496E766576
:102C600072746F7220233420416C61726D2C206964
:102C700073207761726D0000496E766572746F72B1
:102C800020233120416C61726D2C20766F6C746151
:102C9000676520697320757000000000496E7665D5
:102CA00072746F7220233220416C61726D2C207619
:102CB0006F6C746167652069732075700000000097
:102CC000496E766572746F7220233320416C617295
:102CD0006D2C20766F6C7461676520697320757048
:102CE00000000000496E766572746F7220233420F4
:102CF000416C61726D2C20766F6C74616765206920
:102D00007320757000000000496E766572746F72F2
:102D100020233120416C61726D2C20766F6C7461C0
:102D2000676520697320646F776E0000496E766571
:102D300072746F7220233220416C61726D2C207688
:102D40006F6C7461676520697320646F776E000033
:102D5000496E766572746F7220233320416C617204
:102D60006D2C20766F6C7461676520697320646FC9
:102D7000776E0000496E766572746F72202334207E
:102D8000416C61726D2C20766F6C7461676520698F
:102D90007320646F776E0000496E766572746F728F
:102DA00020233120416C61726D2C206F7574707519
:102DB00074206973206F666665640000496E7665ED
:102DC00072746F7220233220416C61726D2C206FFF
:102DD0007574707574206973206F66666564000091
:102DE000496E766572746F7220233320416C617274
:102DF0006D2C206F7574707574206973206F666612
:102E000065640000496E766572746F722023342009
:102E1000416C61726D2C206F7574707574206973CC
:102E2000206F666665640000496E766572746F7225
:102E3000202331206973206E6F726D00496E7665B4
:102E400072746F72202332206973206E6F726D006E
:102E5000496E766572746F72202333206973206E19
:102E60006F726D00496E766572746F722023342024
:102E70006973206E6F726D00EC660010600B0820A5
:102E8000BC0B08200EC107204176746F6D61742061
:102E90002331206973204F464600000008DB0128DB
:102EA0007ED0002302220B21FDA000BF13F053F9B6
:102EB000A178A87881420BD0B6F90010032907DB6E
:102EC000012879D0002303220B21FAA013F043F943
:102ED000E178E87881420BD0B6F90010042907DBCD
:102EE00001286ED0002304220B21F7A013F033F940
:102EF0002179287981420BD0B6F90010052907DB2A
:102F0000012863D0002305220B21F4A013F023F93C
:102F10006179687981420BD0B6F90010062907DB88
:102F2000012858D0002306220B21F1A013F013F939
:102F3000A179A87981420BD0B6F90010072907DBE7
:102F400001284DD0002307220B21EEA013F003F936
:102F5000E179E87981420BD0B6F90010082907DB46
:102F6000012842D0002308220B21EBA013F0F3F834
:102F7000217A287A81420BD0B6F90010092907DBA3
:102F8000012837D0002309220B21E8A013F0E3F831
:102F90000020295C2154401CC0B20C28F9D370BD1C
:102FA00005E009E001231A460B21E5A098E501237D
:102FB00002220B21E7A079E7012303220B21EAA0DB
:102FC00084E7012304220B21ECA08FE701230522D3
:102FD0000B21EFA09AE7012306220B21F1A0A5E720
:102FE000012307220B21F4A0B0E7012308220B21C3
:102FF000F6A0BBE7012309220B21F9A0C6E72DE9C2
:10300000F041FC4FFC48FD4CB7F90010B0F900202E
:10301000B4F90000914202DD00F1010002E002DAA1
:10302000A0F10100208006220021F44800F0DCFD20
:10303000B4F90010F2480126052900DD06700024CD
:10304000012900DA0470EF48B7F90010EF4DB0F92C
:103050000020ED48931E99420BDA90F900201E2AB9
:1030600016DA521C52B202701E2A11DB2A88521E36
:103070000CE091420BDD90F900201E2A08DA521C68
:1030800052B202701E2A03DB2A88521C2A80047066
:10309000DF48B846B0F90000814201DD142203E0A8
:1030A000DC480088093002B20021D84800F09CFDBD
:1030B000F02000F062FD28B1D7480168F12901D164
:1030C00040682880B5F90010D448012901DC067059
:1030D00000E00470D248D34FB0F90000A0F13201F3
:1030E00028291BD8B8F90010CF4D814202DD28886D
:1030F000401C2880CD48B0F90000814202DA2888BF
:10310000401E288006220021C74800F06DFDB5F959
:103110000000052800DD3E70012800DA3C70C4483C
:10312000C44FB0F90000A0F132011E291BD8B8F934
:103130000010C14D814202DD2888401C2880BF4814
:10314000B0F90000814202DA2888401E2880062259
:103150000021B94800F048FDB5F90000052800DD60
:103160003E70012800DA3C70BDE8F081F8B5B44C3F
:103170000021A0790A2807D2401CC0B2A0710A28F9
:1031800002D3A17101202072E079052805D2401CEC
:10319000C0B2E071052800D1E171BE2000F0EDFC65
:1031A000A84928B19C480268BF2A5BD1406858E012
:1031B000207A88B3A44A1078552805D0507855282D
:1031C00002D0A24800884CE0A14D00204FF0140C22
:1031D0006B466FF01307165C552E0FD023F8107056
:1031E000401CC0B20228F6D3BDF90030BDF9022060
:1031F0009848934215DD1A46036013E000EB400641
:1032000006EB001605EB860696F80CE0BEF1000F03
:1032100003D023F810C0E3E724E0768923F8106098
:10322000DEE702608C4B002A02DAB3F9000012E0FC
:10323000282A01DD28220260884AB3F9003000689C
:10324000B2F90020D21A02EB820252004243C82097
:1032500092FBF0F01844A27B022A02D18048B0F918
:1032600000000880B1F9000062214143642291FB13
:10327000F2F17C4B19806621484390FBF2F07A49C9
:103280000880F8BD2DE9F05F7A4E00207749DFF81D
:10329000E0814FF00A0B8246B6F9003011E10000E0
:1032A0004176746F6D6174202332206973204F461C
:1032B000460000004176746F6D61742023332069ED
:1032C00073204F46460000004176746F6D61742094
:1032D0002334206973204F46460000004176746F06
:1032E0006D6174202335206973204F46460000002D
:1032F0004176746F6D6174202336206973204F46C8
:10330000460000004176746F6D6174202337206998
:1033100073204F46460000004176746F6D61742043
:103320002338206973204F46460000004176746FB1
:103330006D6174202339206973204F4646000000D8
:103340004176746F6D6174202331206973204F4E74
:10335000200000004176746F6D6174202332206973
:1033600073204F4E200000004176746F6D61742011
:103370002333206973204F4E200000004176746F84
:103380006D6174202334206973204F4E20000000AB
:103390004176746F6D6174202335206973204F4E20
:1033A000200000004176746F6D617420233620691F
:1033B00073204F4E200000004176746F6D617420C1
:1033C0002337206973204F4E200000004176746F30
:1033D0006D6174202338206973204F4E2000000057
:1033E0004176746F6D6174202339206973204F4ECC
:1033F000200000008EC10720E4C00720F2C3072090
:1034000092C30720E6C0072090C307209EC1072073
:10341000E8C0072098C107201400001036000010F3
:10342000EEC0072091C30720A4000010F0C00720C1
:10343000EAC0072037000010F4C30720ECC00720C3
:1034400004C0072090C1072016C10720B4C307207D
:1034500040EF072094000010A8C307205000001080
:103460005600001090000010E6C30720DDC30720BF
:10347000A5C107200AC10720FF4A125CFF4C34F99E
:103480001220B2F5FA6F0A560DDA0A2A08DA521C2F
:1034900052B20A540A2A12DB012208F800200EE078
:1034A00001F800B00BE0002A07DB521E52B20A54AA
:1034B000002A04DC08F800A001E001F800A0401C8C
:1034C000C0B29842D8DB0024DFF8B493ED4DEE4F44
:1034D00070E0EE4830F81400002818F8040001D01D
:1034E00078B101E001280CD019F90400002818DB9C
:1034F000401E40B209F80400002814DC05F804A0BE
:1035000011E019F904100A2908DA491C49B209F82E
:1035100004100A2907DB0120285504E009F804B04B
:1035200001E009F804A0395D285D81423ED0D84A07
:10353000D18C491CD184012807D014B3012C25D08B
:10354000022C28D0032C2BD030E034B1012C09D030
:10355000022C0CD0032C0FD028E001231A460F2197
:10356000CCA021E0012302220F21CDA01CE00123E9
:1035700003220F21CDA017E0012304220F21CEA0AA
:1035800012E0002301220F21CEA00DE00023022231
:103590000F21D1A008E0002303220F21D3A003E0D4
:1035A000002304220F21D6A012F0D5FD285D385546
:1035B000641CE4B2B6F9000084428ADBBDE8F09FE7
:1035C000D449D54A01200870107048705070704777
:1035D0002DE9F05FD248DFF84CE3DFF840C3B0F9E3
:1035E0000070BEF90000AA4CC0EB0011BCF90250FB
:1035F0006FF01D0A6FF0950B0026DFF81883B4F901
:103600002C000AEB81020BEB8103BD4204DCC64FA8
:10361000B7F90070BD4205DA824203DD834201DA68
:1036200088F80060C14DE146BCF908C0B5F900500A
:10363000B94FBCEB450F03DC6D42BCEB450F04DA20
:10364000824202DD834200DA3E706FF0090202EB33
:1036500081017546814220D1A07BF0B998F8000025
:1036600001281AD13878012817D14FF4D67014F0F8
:103670003FFBAF49B1F9001088420ED0AD48008839
:1036800058B199F83D00C00707D14FF4D67014F037
:103690005DFCA9480178491C0170A149B9F90220D3
:1036A0004846B1F900108A4206DC9F49B0F94E2025
:1036B000B1F900108A420FDAB5F90010B4F92C20E4
:1036C000C1EB01110AEB8103934205DD0BEB810194
:1036D000914201DA88F801609449B9F95400B1F9CE
:1036E0000010B0EB410F03DC4942B0EB410F0EDAA2
:1036F000B5F90000B4F92C10C0EB00100AEB800201
:103700008A4204DD0BEB8000884200DA7E70B5F956
:103710000000C0EB00116FF0090000EB8100B4F96C
:103720002C10884222D1A07B00BB98F80100012810
:103730001CD17878012819D14FF4E576304614F081
:10374000D7FA02467A48B0F902108A420ED0794878
:10375000008802280AD199F88900C00706D13046AE
:1037600014F0F4FB74480178491C0170B5F90000AD
:103770006FF00101C0EB001001EB8000B4F92C10D8
:10378000884202D1BDE8F05F1AE717E72DE9F04F54
:103790006A48DFF8FC806B490378694898F9002093
:1037A000B1F90010B0F9000088B023B1022B34D079
:1037B000012B5ED06FE1644E584B347896F801C00F
:1037C000B3F90A501F7BB3F9566093F8583022B111
:1037D000012A0FD1552C14D10FE0552C03D185426D
:1037E00048DC002F46D1BCF1550F03D1864241DCA5
:1037F000002B3FD108B0BDE8F08F8D42FADA002FE0
:10380000F8D1BCF1550F36D18E42F3DA002B32D00D
:10381000F0E700BF88F80000ECE74D4C4B4B94F804
:1038200003C0B3F90030676A656F009594F8535090
:103830000195D4F8C450029594F8A3500395D4F898
:103840001451049594F8F3500595D4F864510695F5
:1038500094F84351AE46D4F8B451079594F8935177
:10386000D4F85462AB46D4F80452AA4694F8E35113
:1038700070E0EEE0ECE0EAE053010200AC6600101C
:103880008C000010A9C10720E1C307203CC207201B
:1038900004C00720534B20233120416C61726D001E
:1038A000534B20233220416C61726D00534B202317
:1038B0003320416C61726D00534B20233420416CE6
:1038C00061726D00534B20233120416C61726D2079
:1038D0006973206F66660000534B20233220416CD1
:1038E00061726D206973206F66660000534B202360
:1038F0003320416C61726D206973206F6666000031
:10390000534B20233420416C61726D206973206F0A
:103910006666000098000010EAC3072040EF072009
:10392000E6C30720B6C3072090000010AEC30720EF
:10393000C8C1072002C107209A00001066000010CD
:10394000BCC307206400001016C1072004C1072073
:1039500080F0072094F83342B146C3B3874277DC46
:10396000BCF11E0F74D2012B05DD009E86426FDC78
:10397000019E1E2E6CD2022B05DD029E864267DC64
:10398000039E1E2E64D2032B05DD049E86425FDC5F
:10399000059E1E2E7FD2042B05DD069E86427ADC14
:1039A000BEF11E0F77D2052B05DD079E864272DC25
:1039B000BBF11E0F6FD2062B03DD82456BDC1E2D83
:1039C00069D2072B03DD814565DC1E2C63D2012AF9
:1039D0007FF41EAFDBB38F42BFF61AAFBCF10A0F04
:1039E000BFF416AF022B2BDB00988842F4DA019863
:1039F0000A28F5D2032B23DB02988842ECDA0398DD
:103A00000A28EDD2042B1BDB04988842E4DA0598DF
:103A10000A28E5D2052B13DB06988842DCDABEF1D2
:103A20000A0FDDD2062B0BDB07988842D4DABBF1F4
:103A30000A0FD5D2072B03DB8A45CDDA0A2DCFD268
:103A4000082B3FDB8945C7DA0A2C3BD3D2E639E0A5
:103A500021E01E4C1C4BB4F90050B4F90260AA4698
:103A60001B4DB3F90030B4F90440D5E900C7AD6887
:103A7000B94693B182450EDCBCF1000F0BD1012B8E
:103A800004DD864207DCB9F1000F04D1022B04DD0E
:103A9000844200DC0DB10120BCE6012AD6D18BB1F5
:103AA0008A45D3DABCF1000FD0D1022B04DB8E4261
:103AB000CCDAB9F1000FC9D1032B03DB8C42C5DA94
:103AC000002DC3D10020A5E608C107201EC2072093
:103AD000E80A082070B5374A0020A2F11401064612
:103AE00001F10A030C5C54B11D5CAC4207D1145CBB
:103AF0002CB1641E14F0FF04145400D10E540C5C5D
:103B00001C54401CC0B20A28ECD370BD70B5294DBE
:103B10000024143D641CE4B22E5D1EB1864201D027
:103B20000A2CF7D3285523480C3040F824102830AD
:103B300040F824203438035570BD1E4A0021143A41
:103B4000491CC9B2535C834201D00A29F8D3DBB2C5
:103B5000834210D117480C3050F8213016480360CA
:103B6000144B343353F82130436000205054114A31
:103B7000505401207047002070470E4A0021143A2B
:103B8000491CC9B2535C834201D00A29F8D3DAB286
:103B900082420CD107480C3050F8212006480260C0
:103BA000044A343252F8211041600120704700204D
:103BB00070470000E4EE07201400001090F9003078
:103BC0008B4200DA027090F90030934200DD017000
:103BD000704790F900308B4200DA017090F90010C4
:103BE000914200DD02707047B0F900308B4200DA7C
:103BF0000180B0F90010914200DD02807047B0F9F9
:103C000000308B4200DA0280B0F90030934200DDD0
:103C10000180704703688B4200DA026003689342B8
:103C200000DD01607047000070B5F9480278F9487E
:103C3000016812B141F0010101E021F001010160D0
:103C40000021F54C5FF0010301EB410202EB011290
:103C500004EB820292F83D20D20706D04D1C03FAF5
:103C600005F205689543154304E04A1C056803FA0C
:103C700002F29543491CC9B205600229E4D3E74C1E
:103C8000002100BF01EB810204EB0212527832B135
:103C9000CD1C03FA05F205689543154303E0CA1CE1
:103CA00003FA02F29543491CC9B205600C29E9D315
:103CB0002946D84D00221435AC5C34B102F10F0610
:103CC00003FA06F4A143214304E002F10F0403FACE
:103CD00004F4A143521CD2B2062AEDD3D04D0022E7
:103CE0000160AC5C012C2FD002F1190403FA04F43A
:103CF000A143521CD2B2042AF3D30160836821EAA3
:103D00000302C26044681443C64A4460158815B172
:103D100024F00074446054881CB1446824F080642A
:103D2000446094881CB1446824F000644460D288E4
:103D30001AB1426822F0805242608B43DA43BA4B98
:103D400002611B883BB109E002F1190603FA06F48F
:103D5000A1432143CDE762F0010202610369426899
:103D60001A40C0E9012170BDF8B54FF460652846DE
:103D700013F0BEFF401C04463F2800D9002421B2A6
:103D8000284614F0E3F840F60266304613F0B0FF20
:103D90003F2800D0204601B2304614F0D7F828461C
:103DA00013F0A6FF4FF4806101EB401555208DF80C
:103DB000000000248DF8014052208DF802008DF89B
:103DC00003406946284614F046F96946281D0094C8
:103DD00014F041F9954E308B8DF80000307D8DF850
:103DE0000100307A8DF802008DF80340694605F134
:103DF000080014F030F930798DF8000030788C4EDE
:103E00008DF8010030688DF802008DF80340694696
:103E100005F10C0014F01FF941248DF800408DF8D5
:103E200001408DF802408DF80340694605F110000D
:103E300014F011F98DF800408DF801408DF8024022
:103E40008DF80340694605F1140014F004F98DF86B
:103E500000408DF801408DF802408DF8034069461E
:103E600005F1180014F0F7F88DF800408DF80140C6
:103E70008DF802408DF80340694605F11C0014F0EE
:103E8000EAF8FF203060F8BD2DE9F843674D604A3D
:103E9000243D00262F154FF46061012802D0002830
:103EA0007DD036E1012010708846084613F020FFCF
:103EB000401C04463F2800D9002421B2404614F09B
:103EC00045F840F60269484613F012FF3F2800D03B
:103ED000204601B2484614F039F8404613F008FF76
:103EE00007EB401750208DF800008DF80160412449
:103EF0008DF802408DF803606946384614F0ABF83F
:103F00006946381D009614F0A6F805F12005A88B27
:103F10008DF80000287E8DF80100287B8DF80200C6
:103F20008DF80360694607F1080014F094F8287AC8
:103F30008DF8000028798DF8010028788DF80200AE
:103F40008DF80360694607F10C0014F084F88DF8D1
:103F500000408DF801408DF802408DF8034069461D
:103F600007F1100014F077F88DF800408DF801404B
:103F70008DF802408DF80340694607F1140014F0F3
:103F80006AF88DF800408DF801408DF802408DF8F8
:103F90000340694607F1180014F05DF800E011E0F5
:103FA0008DF800408DF801408DF802408DF80340F7
:103FB000694607F11C0014F04EF80023012202218B
:103FC0001CA0A4E013481670B046026822F001025B
:103FD0000260154A12881AB1426822F0010242605A
:103FE000084613F085FE06463446B94609EB4417E9
:103FF0006946384613F0F9FE9DF8000050283ED17E
:104000009DF80100D8BB9DF80200412837D121E07E
:10401000DCC307201C00001040EF072080F00720C1
:10402000A9C107204CC20720DCC007202440024061
:1040300080C10F404D61696E20706F776572206995
:1040400073206F6666000000641E00E03F24B442E7
:10405000CCD15EE0694607F1100013F0C6FE9DF872
:10406000000041280BD19DF80100412807D19DF89F
:104070000200412803D19DF80300412802D0002C02
:10408000E4D0E1E705F12005A88B8DF80000287E3B
:104090008DF80100287B8DF8020044468DF80380DE
:1040A000694607F1100013F0D6FF287A8DF800005A
:1040B00028798DF8010028788DF802008DF80340EA
:1040C000694607F1140013F0C6FFFF484224017847
:1040D0008DF8001040788DF801008DF802408DF8C1
:1040E0000340694607F1180013F0B5FF8DF8004052
:1040F0008DF801408DF802408DF80340694607F1C4
:104100001C0013F0A8FF01231A460221EFA012F0B1
:1041100022F800BFBDE8F8832DE9F84F05460C00F2
:104120004FF054060BD0012C04D0022C04D0032CE9
:1041300004D004E0552602E0752600E04C26E9494B
:10414000DFF89CA305EB85034FF0000B4FF4606094
:104150004FF4806901EB0311012A02D0002A7DD0BF
:1041600090E134B1012C08D0022C0AD0032C0CD0E1
:104170000FE04A7842F001020AE04A7842F0020277
:1041800006E04A7842F0040202E04A7842F008026F
:104190004A7081F84F40804613F0AAFD401C87B258
:1041A0003F2F00D9002739B2404613F0CFFE40F62A
:1041B000026013F09DFD80B23F2800D0384601B266
:1041C00040F6026013F0C2FE404613F091FD09EB89
:1041D000401087B253208DF800008DF801508DF803
:1041E0000260D8468DF803B06946384613F033FFB5
:1041F0006946381DCDF8008013F02DFFBAF83C0059
:104200000AF120068DF80000307E8DF80100307B29
:104210008DF802008DF80380694607F1080013F05D
:104220001AFF307A8DF8000030798DF8010030786F
:104230008DF802008DF80380694607F10C0013F039
:104240000AFF41268DF800608DF801608DF802604C
:104250008DF80360694607F1100000E084E013F078
:10426000FAFE8DF800608DF801608DF802608DF81F
:104270000360694607F1140013F0EDFE8DF800604D
:104280008DF801608DF802608DF80360694607F1D2
:10429000180013F0E0FE8DF800608DF801608DF8D5
:1042A00002608DF80360694607F11C0013F0D3FE2D
:1042B00025B1012D20D0022D3AD0E3E034B1012CFC
:1042C00009D0022C0CD0032C0FD0DBE000230122FC
:1042D000042185A00DE001231A46042188A008E0EE
:1042E0000223012204218DA003E0032301220421E3
:1042F00092A011F030FFC5E034B1012C09D0022C9E
:104300000CD0032C0FD0BDE000230222042193A087
:10431000EFE701230222042196A0EAE702231A46CE
:1043200004219BA0E5E7032302220421A0A0E0E7EB
:1043300034B1012C09D0022C0CD0032C0FD0A1E0F9
:10434000002303220421A2A0D3E701230322042196
:10435000A5A0CEE7022303220421AAA0C9E70323D4
:104360001A460421AFA0C4E734B1012C08D0022CB6
:104370000AD0032C0CD00FE04A7822F001020AE0A8
:104380004A7822F0020206E04A7822F0040202E0B3
:104390004A7822F008024A7013F0AAFC84B2A046C0
:1043A00009EB441087B26946384613F01EFD9DF8AC
:1043B0000000532824D19DF80100A84220D19DF887
:1043C0000200B0421CD1694607F1100013F00DFD48
:1043D0009DF80000412813D106E0641EA4B200E05D
:1043E0003F244445DCD14DE09DF80100412807D130
:1043F0009DF80200412803D19DF80300412802D016
:10440000002CEDD0E9E7BAF83C000AF120048DF861
:104410000000207E8DF80100207B8DF802005D46B3
:104420008DF803B0694607F1100013F014FE207AEE
:104430008DF8000020798DF8010020788DF80200B9
:104440008DF80350694607F1140013F004FE42246E
:104450008DF800408DF801408DF802408DF8034042
:10446000694607F1180013F0F6FD8DF800408DF84D
:1044700001408DF802408DF80340694607F11C00A9
:1044800013F0E9FD00BFBDE8F88F2DE9FC410646B9
:1044900000EB460000EB06116A4800EB8104E08B5C
:1044A000052810D368484FF460670088801D00F02D
:1044B000070004EB4000008CADF80400384613F010
:1044C00017FC401CC2E02CE1DAC307204D61696E85
:1044D00020706F776572206973206F6E0000000096
:1044E0000040024080F007204250532023312041F9
:1044F0006C61726D2C206F76657268656174000066
:1045000042505320233120416C61726D2C20766F14
:104510006C74616765206973207570004250532088
:10452000233120416C61726D2C20766F6C74616751
:104530006520697320646F776E000000425053203D
:10454000233120416C61726D2C20636F6E6E656348
:1045500074206973206C6F73740000004250532004
:10456000233220416C61726D2C206F766572686514
:104570006174000042505320233220416C61726DFF
:104580002C20766F6C7461676520697320757000EC
:1045900042505320233220416C61726D2C20766F83
:1045A0006C7461676520697320646F776E0000002A
:1045B00042505320233220416C61726D2C20636F76
:1045C0006E6E656374206973206C6F7374000000F5
:1045D00042505320233320416C61726D2C206F7642
:1045E0006572686561740000425053202333204196
:1045F0006C61726D2C20766F6C74616765206973D5
:104600002075700042505320233320416C61726D3D
:104610002C20766F6C7461676520697320646F77F6
:104620006E00000042505320233320416C61726DB4
:104630002C20636F6E6E656374206973206C6F73DA
:104640007400000040EF072078C1072085B23F2D9D
:1046500000D9002529B2384613F078FC40F60268EC
:10466000404613F045FB80B23F2800D0284601B2F7
:10467000404613F06BFC384613F03AFB4FF4806170
:1046800001EB401085B242208DF800008DF80160EA
:1046900057208DF8020000268DF8036069462846F1
:1046A00013F0D9FCA07F8DF80000E07F8DF80100A9
:1046B0009DF804008DF802009DF805008DF80300B8
:1046C0006946281D13F0C7FC04F1340105F1080008
:1046D00013F0C1FC04F1380105F10C0013F0BBFC30
:1046E000FF4CA08B8DF80000207E8DF80100207B10
:1046F0008DF802008DF80360694605F1100013F093
:10470000AAFC207A8DF8000020798DF8010020782D
:104710008DF802008DF80360694605F1140013F06E
:104720009AFC00BFBDE8FC812DE9F84F0646ED4834
:10473000DFF8AC9306EB460202EB06124FF0000BDB
:104740004FF0420AA9F120094FF460674FF48065E9
:1047500000EB8200012902D000297ED01EE110F872
:104760003D1F41F001010170384613F0C1FA401CB1
:1047700084B23F2C00D9002421B2384613F0E6FB66
:1047800040F60268404613F0B3FA80B23F2800D0EA
:10479000204601B2404613F0D9FB384613F0A8FA80
:1047A00005EB401085B28DF800A08DF80160432024
:1047B0008DF802005F468DF803B06946284613F075
:1047C0004AFC6946281D009713F045FCB9F83C00E7
:1047D00009F120048DF80000207E8DF80100207B77
:1047E0008DF802008DF80370694605F1080013F09A
:1047F00032FC207A8DF8000020798DF801002078B5
:104800008DF802008DF80370694605F10C0013F075
:1048100022FC41248DF800408DF801408DF80240C3
:104820008DF80340694605F1100013F014FC8DF873
:1048300000408DF801408DF802408DF80340694634
:1048400005F1140013F007FC8DF800408DF80140CD
:104850008DF802408DF8034000E021E0694605F143
:10486000180013F0F8FB8DF800408DF801408DF82A
:1048700002408DF80340694605F11C0013F0EBFB84
:1048800016B1012E05D089E001231A46052196A014
:1048900003E001230222052198A011F05CFC7DE0D9
:1048A00010F83D1F21F001010170384613F020FA85
:1048B00087B23C464FEA050808EB441085B26946CA
:1048C000284613F092FA9DF80000422824D19DF862
:1048D0000100B04220D19DF8020043281CD106E01F
:1048E000641EA4B200E03F24BC42E5D156E0694614
:1048F00005F1100013F079FA9DF8000041280BD162
:104900009DF80100412807D19DF80200412803D1FC
:104910009DF80300412802D0002CE4D0E0E7B9F86C
:104920003C0009F120048DF80000207E8DF8010084
:10493000207B8DF802005E468DF803B0694605F1D4
:10494000100013F088FB207A8DF8000020798DF894
:10495000010020788DF802008DF80360694605F1AA
:10496000140013F078FB8DF800A08DF801A08DF8ED
:1049700002A054468DF803A0694605F1180013F013
:104980006AFB8DF800408DF801408DF802408DF8EB
:104990000340694605F11C0013F05DFB00BF72E5A2
:1049A0002DE9F84FDFF8388106464FF0000A4FF046
:1049B0004209A8F120084FF460604FF48065012996
:1049C00002D000297DD037E106EB460101EB06124B
:1049D0004449074601EB820111F83D2F42F00202E3
:1049E0000A7013F085F9401C84B23F2C00D90024D2
:1049F00021B2384613F0AAFA40F6026B584613F07B
:104A000077F980B23F2800D0204601B2584613F013
:104A10009DFA384613F06CF905EB401085B28DF81D
:104A200000908DF8016053208DF8020057468DF8F4
:104A300003A06946284613F00EFB6946281D00971F
:104A400013F009FBB8F83C0008F120048DF80000D1
:104A5000207E8DF80100207B8DF802008DF8037018
:104A6000694605F1080013F0F6FA207A8DF8000087
:104A700020798DF8010020788DF802008DF8037000
:104A8000694605F10C0013F0E6FA41248DF8004068
:104A90008DF801408DF802408DF80340694605F11C
:104AA000100013F0D8FA8DF800408DF801408DF811
:104AB00002408DF80340694605F1140013F0CBFA6B
:104AC00000E042E08DF800408DF801408DF8024092
:104AD0008DF80340694605F1180013F0BCFA17E0A1
:104AE0002040024040EF0720424154202331204122
:104AF0006C61726D2C206C6F737400004241542005
:104B0000233220416C61726D2C206C6F7374000035
:104B10008DF800408DF801408DF802408DF803407B
:104B2000694605F11C0013F096FA16B1012E05D066
:104B300082E0022301220521FBA003E002231A46A2
:104B40000521FFA011F007FB76E013F0D1F887B242
:104B50003C46AB460BEB441085B26946284613F041
:104B600044F99DF80000422824D19DF80100B0428C
:104B700020D19DF8020043281CD106E0641EA4B297
:104B800000E03F24BC42E5D156E0694605F1100043
:104B900013F02BF99DF8000041280BD19DF801007E
:104BA000412807D19DF80200412803D19DF8030058
:104BB000412802D0002CE4D0E0E7B8F83C0008F12E
:104BC00020048DF80000207E8DF80100207B8DF8F8
:104BD000020056468DF803A0694605F1100013F057
:104BE0003AFA207A8DF8000020798DF801002078BB
:104BF0008DF802008DF80360694605F1140013F08A
:104C00002AFA8DF800908DF801908DF802904C46AC
:104C10008DF80390694605F1180013F01CFA8DF821
:104C200000408DF801408DF802408DF80340694640
:104C300005F11C0013F00FFA00BF24E4F3B505469C
:104C400000EB4500C44900EB051001EB8000C349AF
:104C500083B04FF46066B1F9001000EB4100B0F989
:104C600022000190304613F043F8401C04463F28D0
:104C700000D9002421B2304613F068F940F60267EB
:104C8000384613F035F83F2800D0204601B23846A8
:104C900013F05CF9304613F02BF84FF4806101EB10
:104CA000401442208DF800008DF801504B208DF803
:104CB000020000268DF803606946204613F0CBF908
:104CC0009DF810008DF800009DF811008DF801008E
:104CD0009DF804008DF802009DF805008DF8030092
:104CE0006946201D13F0B7F94FF4FC7013F039F842
:104CF0009B4D2946286004F1080013F0ACF94FF4ED
:104D0000FE7013F02EF86860291D04F10C0013F0FA
:104D1000A2F9944DA88B8DF80000287E8DF8010033
:104D2000287B8DF802008DF80360694604F11000BD
:104D300013F091F9287A8DF8000028798DF8010098
:104D400028788DF802008DF80360694604F114009C
:104D500013F081F905B0F0BD2DE9F84F814E002721
:104D6000203E35153C46BA464FF04209012802D094
:104D7000002871D0FCE04FF46067384612F0B8FFAD
:104D8000401C04463F2800D9002421B2384613F0C5
:104D9000DDF840F60268404612F0AAFF3F2800D036
:104DA000204601B2404613F0D1F8384612F0A0FF79
:104DB00005EB40158DF800908DF801A05A208DF874
:104DC000020054468DF803A06946284613F043F9C3
:104DD0006946281D009413F03EF906F12006B08BB9
:104DE0008DF80000307E8DF80100307B8DF80200D8
:104DF0008DF80340694605F1080013F02CF9307A6C
:104E00008DF8000030798DF8010030788DF80200BF
:104E10008DF80340694605F10C0013F01CF941249C
:104E20008DF800408DF801408DF802408DF8034068
:104E3000694605F1100013F00EF98DF800408DF869
:104E400001408DF802408DF80340694605F11400D9
:104E500013F001F94EE0FFE74FEA050808EB4415AF
:104E60006946284612F0C1FF9DF80000422803D190
:104E70009DF802005A2804D0ECB3641EBC42EDD168
:104E800076E0694605F1100012F0AFFF9DF80000D2
:104E90004128F1D19DF801004128EDD19DF8020093
:104EA0004128E9D19DF803004128E5D106F120060B
:104EB000B08B8DF80000307E8DF80100307B8DF8CE
:104EC000020054468DF803A0694605F1100013F066
:104ED000C2F8307A8DF8000030798DF80100307812
:104EE0008DF802008DF80340694605F1140013F0B7
:104EF000B2F84C4600E03DE08DF800408DF80140EE
:104F00008DF802408DF80340694605F1180013F052
:104F1000A2F88DF800408DF801408DF802408DF820
:104F20000340694620E000004241542023312041E3
:104F30006C61726D2C20617373696D657472790098
:104F400042415420233220416C61726D2C206173E8
:104F500073696D657472790040EF072078C107208E
:104F60006CC007202040024005F11C0013F073F8CC
:104F700000BF14E53F2471E7FF4911200872704714
:104F8000FE490820FE4A4870002000BF00EB800365
:104F900002EB03131B78052B04D0401CC0B20C2875
:104FA000F4D3704748707047002801DA404200B2DD
:104FB000704710B54FF4347012F09AFEF14C207027
:104FC00040F2D22012F094FE60704FF4357012F06F
:104FD0008FFEA07040F2D62012F08AFEE0704FF4EF
:104FE000367012F085FE207240F2DA2012F080FE58
:104FF00060724FF4377012F07BFEA07240F2DE2038
:1050000012F076FEE0724FF4437012F071FE2071E0
:1050100040F20E3012F06CFE60714FF4447012F0EA
:1050200067FEA07140F2123012F062FEE07110BD16
:10503000D54810B5016821F0E06101604168D44AAB
:10504000C1F30B13D14C117824F81130491CC9B2AB
:105050001170032903D2016841F08071016010BD15
:105060002DE9F0470746DDE90A090E46DDE9085A51
:1050700001B214469846982012F068FF00219A2049
:1050800012F064FF0021762012F060FF0121CA2097
:1050900012F05CFF3C21C22012F058FF39B2782098
:1050A00012F054FF04EBD470401001B2C82012F08B
:1050B0004DFF31B27A2012F049FF21B27C2012F06C
:1050C00045FF4621C62012F041FF50217E2012F0FC
:1050D0003DFF0FFA88F1822012F038FFBB218420B7
:1050E00012F034FF0021862012F030FF0A218820C0
:1050F00012F02CFF0FFA89F1DE2012F027FF29B2FF
:105100008C2012F023FFE8000A2190FBF1F001B29D
:105110008E2012F01BFF0121A02012F017FF0121A9
:10512000A22012F013FF0121A42012F00FFFA021F2
:10513000922012F00BFF0FFA8AF1942012F006FF72
:105140000321962012F002FF3221CC2012F0FEFE45
:105150002821CE2012F0FAFE5521BC2012F0F6FED6
:105160001E21BE2012F0F2FE0121802012F0EEFE80
:105170004621D02012F0EAFE3C21D42012F0E6FEB7
:105180001921D22012F0E2FE5021D62012F0DEFECC
:105190004621D82012F0DAFE5B21DA2012F0D6FE8A
:1051A0005021DC2012F0D2FE7A4C0021B4F900002C
:1051B00012F0CCFE784D0021B5F9000012F0C6FEC9
:1051C000764E4FF0FF373946B6F9000012F0BEFEBA
:1051D000B4F90200002112F0B9FEB5F90200002175
:1051E00012F0B4FEB6F90200394612F0AFFEB4F97F
:1051F0000400002112F0AAFEB5F90400002112F00B
:10520000A5FEB6F90400394612F0A0FEB4F9060076
:10521000002112F09BFEB5F90600002112F096FE67
:10522000B6F90600394612F091FE0A214FF41970C2
:1052300012F08CFEBDE8F0470B214FF4187012F00D
:1052400085BE2DE9FF4700210723182809D06422D5
:105250004FF41674302810D03C2819D0DC2823D005
:105260004FE0F0249622CDE90024CDE90231024638
:10527000162311464FF4967013E04FF4F075CDE904
:105280000025CDE9023102462C231146204608E0D4
:10529000CDE90024CDE9023102463723114640F220
:1052A000EE20FFF7DDFE2CE040F6980440F62A11D0
:1052B0000220CDE90024CDE90201BB2340F60B1208
:1052C00040F63E1140F69210FFF7CAFE40F2BD11C3
:1052D000C82012F03BFE2146C42012F037FE1421F4
:1052E000922012F033FE45F211614FF49E7012F0DD
:1052F0002DFE0121CA2012F029FEAA21BC2012F0A5
:1053000025FE274DAA21B5F9000012F01FFE254CFD
:105310002178254EB6F9000012F018FE217B234FAC
:10532000B7F9000012F012FEB4F91010DFF880A0F7
:10533000BAF9000012F00AFEDFF878800021B8F90F
:10534000000012F003FEDFF870900021B9F90000B0
:1053500012F0FCFDB5F90200AA2112F0F7FD217848
:10536000B6F9020012F0F2FD217BB7F9020012F04B
:10537000EDFDB4F9101021E00040024090C007207C
:1053800080F007203C7600100040034060C00720FA
:1053900005C00720C0010200C8010200D8010200B8
:1053A000680102002C4002406C0102007001020002
:1053B000640102006001020074010200BAF90200F7
:1053C00012F0C4FDB8F90200002112F0BFFDB9F9D6
:1053D000020004B00021BDE8F04712F0B7BD70B57F
:1053E000062012F085FC002804DB062012F080FC69
:1053F000022803DD0021062012F0A8FDFF490878ED
:10540000401CC0B20870FE4C01250A2813D3FD4889
:105410000068C0070FD1E07868B9062012F068FC78
:10542000022808DA062012F063FC401C01B20620B4
:1054300012F08CFDE570B4F93A00B0F5616F07D356
:10544000062012F055FC18B10021062012F07EFD56
:10545000ED4881687F22B2EB116F00D1E570806862
:10546000C0F307407F2800D1E57070BDE4482C30C0
:10547000B0F84A101C31C9B281724278521CD2B2C3
:105480004270A0F12C008A4202D9142180F82D101C
:1054900090F82D00A0F114010F2917D200EB800124
:1054A000DA4800EB0110C1783C2905D2491CC9B289
:1054B000C170032902D207E03C21C17001790329A0
:1054C00002D24179491C4171C178017170472DE9BF
:1054D000FF41CB4C2C34B4F84A001C30A0726078E9
:1054E000401CC0B26070A4F12C04322813D90020F3
:1054F00084F82D00B4F96A00B4F97030B4F96E2064
:10550000B4F96C108DE80F00FF21B4F96830272240
:10551000084615F0D4F994F82D00A0F114010F29D4
:105520002ED294F83510B94F89B900EB800107EB02
:10553000011101F128010A794E7A0D7A4B798DE833
:105540006C000B784FF0ED02014615F0B8F994F8B5
:105550002D0000EB800007EB0010C1783C2905D23C
:10556000491CC9B2C170032902D207E03C21C170B5
:105570000179032902D24179491C4171C178017135
:105580009F4880304088002809D094F82D001428C6
:1055900005D19F49887B3C2801D2401C8873BDE817
:1055A000FF819C4900200870487088704231487023
:1055B00070472DE9F04F0020954A85B04FF4F47103
:1055C000044610321454401C00B28842FADB8C4866
:1055D000817851B98046B0F97200A0B1012804D198
:1055E00087488630007855280DD000214FF0140CE4
:1055F0007A20484301EB81039B0001EB81041BB23D
:105600000CEB840473E27F484FF002054FF0030671
:105610000068C0071BD098F81D00002816D07E48EF
:105620003227CDE90204CDE90076032118233A465A
:1056300008460FF014FC7948CDE90204CDE9007664
:1056400003211823322208460FF009FCB8E0B8F90C
:105650007400DFF8CCA10F27DFF8C8B1DFF8AC91F8
:10566000012854DB1423002100941A4608460194B3
:105670000FF039FB1223012100941A4608460194C9
:105680000FF031FB99F80200042807D06648CDE9F5
:1056900002040F2302211A46032019E099F80100A1
:1056A000C10709D098F81D0088B30F23CDE902A4E3
:1056B00002211A4603200BE010F0060F27D098F8BD
:1056C0001D0020B30F23CDE902B402211A4608467B
:1056D000CDE900750FF0C3FB99F80200012816D13F
:1056E0000B2300221421092000940FF0E1F800237D
:1056F0005B221F21092000940FF0DAF898F80900C6
:1057000004231330C1B2002209200FF029FBB8F99D
:105710007400022854DB142300941A460021172039
:1057200001940FF0E0FA122300941A460121182088
:1057300001940FF0D8FA99F85200042807D03B489A
:10574000CDE902040F2302211A46192019E099F825
:105750005100C10709D098F81D0088B30F23CDE987
:1057600002A402211A4619200BE010F0060F27D0E0
:1057700098F81D0020B30F23CDE902B402211A4688
:105780001920CDE900750FF06AFB99F85200012845
:1057900016D10B2300221421202000940FF088F84A
:1057A000002344221F21202000940FF081F898F854
:1057B000090004231330C1B2002220200FF0D0FAD8
:1057C000B8F87200DFF868A047464FF001094FF0C3
:1057D0000A0B002848D000941423232200213220F1
:1057E00001940FF080FA0094022303221421352043
:1057F00001940FF078FA009402231BE09621001028
:1058000090C007201C0000100040044080F00720DA
:10581000D8060820A2C10720770802000D0902005F
:10582000DF090200FD090200A3090200C10902000C
:1058300040EF0720032214214F2001940FF053FA68
:105840009AF83D00D046C0070FD0787F00280BD0D3
:105850003221FF48CDE90016CDE902040A4618239B
:1058600000212B200FF0FBFA97E00B2300221421DC
:10587000422000940FF01CF8002322221F21422016
:1058800000940FF015F8B8F90800002805DA787AC6
:10589000042300221330C1B205E0787A0423C0F15A
:1058A0002200C1B2022242200FF05AFA387B0F28A0
:1058B0005AD2E848B0F90000A0F5AA4155396CD099
:1058C000B8F91000052190FBF1F0ADF81000C246C8
:1058D0001422002104A8FEF787F9CDE90094C846F8
:1058E000BDF910302022002133200FF0FCF9BAF866
:1058F00010000A2812D2CDE9008509230C220521C7
:105900003D200FF0F0F9BAF9100002238DE81101E3
:105910000521D1A23D20CDF80C8012E064284FF083
:10592000090311D2CDE90085122205213A200FF09A
:10593000DAF9BAF9101003238DE83201C7A2052164
:1059400021E00FF0B8FA28E0CDE900851822052102
:1059500037200FF0C8F9BAF9101004238DE852016E
:105960000521BFA23720ECE7B8F908101E2891FBEB
:10597000FBF001B2CDE90019484606D2CDE902603C
:105980000423B9A205213A20DBE7CDE90260052313
:10599000B7A2194635200FF031FB00940E231B22CD
:1059A00004215C2001940FF09EF900231A1F0A21A4
:1059B0005C2000940EF07CFF002304220A21762054
:1059C00000940EF075FF002327221F21432000942E
:1059D0000EF06EFF6FF00D0300221F21692000946E
:1059E0000EF066FFF87AB846C0F12200C1B2042377
:1059F000022269200FF0B4F9964F4D46B83F0523B7
:105A0000B7F96A10CDF80C9091FBFBF000B2009052
:105A10000421CDE9014198A2162146200FF04BFA4E
:105A2000B7F96C00642807DA8DE8610004230721C8
:105A30008DA25D20039509E090FBFBF000B2039579
:105A40008DE85100042388A207215A200FF033FA71
:105A500098F808104046491CC9B288F80810032974
:105A600022D30472417A491CC9B241720D2900D374
:105A70004472817A491CC9B28172202900D3847290
:105A8000C17A491CC9B2C1720F2900D3C472017B0B
:105A900001F10101C9B201739AF83D20920706D5C0
:105AA0002D2901D388F80C4005B0BDE8F08F1E29E0
:105AB000F8D2F9E7674D724F9C35ED5C05EB450573
:105AC00017F81560165407EB4505401C6E78165400
:105AD000401CAE781654401CEE781654401C2E79AB
