:020000040000FA
:10000000287F0010CD010000D1010000D3010000C5
:10001000D5010000D7010000D90100000000000058
:10002000000000000000000000000000DB010000F4
:10003000DD01000000000000DF010000EF99010079
:10004000E301000007CF010033CF0100E30100000E
:10005000E301000099FC0100E3010000E30100005E
:10006000E3010000E3010000E3010000E301000000
:10007000E3010000E3010000E3010000E3010000F0
:10008000E3010000E3010000E3010000E3010000E0
:10009000E3010000E3010000E5520000E30100007D
:1000A000E3010000BBF80100E3010000E3010000F0
:1000B000C5100200E3010000E3010000E3010000BD
:1000C000E3010000E3010000E301000000F002F89A
:1000D00000F06DF80AA090E8000C82448344AAF175
:1000E0000107DA4501D100F062F8AFF2090EBAE873
:1000F0000F0013F0010F18BFFB1A43F0010318475C
:1001000008720200487202000A444FF0000C10F816
:10011000013B13F0070408BF10F8014B1D1108BF85
:1001200010F8015B641E05D010F8016B641E01F825
:10013000016BF9D113F0080F1EBF10F8014BAD1C75
:100140000C1B09D16D1E58BF01F801CBFAD505E093
:1001500014F8016B01F8016B6D1EF9D59142D6D3ED
:10016000704700000023002400250026103A28BF15
:1001700078C1FBD8520728BF30C148BF0B60704719
:10018000642921F07380732921F0D7820020704701
:100190001FB525F01BF921F08DFB04000020002184
:1001A00025F0FEF8401C60601FBD10B510BD21F0A9
:1001B0005CFB1146FFF7ECFF19F0CDFC21F08EFB44
:1001C00003B4FFF7F2FF03BC21F092FB084800479D
:1001D000FEE7FEE7FEE7FEE7FEE7FEE7FEE7FEE7F7
:1001E000FEE7FEE703480449044A054B7047000058
:1001F000CD000000286F0010287F00102877001025
:1002000028770010FEE710B522F0BCFF23F048F875
:1002100023F03AF822F0C8FFAFF30080BDE81040A9
:1002200023F004B810B523F015FE24F085FC23F06C
:1002300069FEBDE8104023F0E1BF23F029BD23F0A3
:10024000F1BA09B10020704722F046B8002070478B
:100250001E4BDA601870597070471C48C16800293D
:100260000DD0491EC1600AD1194902780A7042783E
:100270004A700A710021C17001714171817170472A
:10028000124A1161907070471048016900290BD023
:10029000491E016108D10E4A817811700021517008
:1002A000C1700171417181717047084908817047BF
:1002B0000648B0F90810002907D0491E09B201818B
:1002C000002902D1084601F01FB8704764000010F1
:1002D00094C1072070B5064600F00CF80468054686
:1002E00030460A22002121F02CFA2C6070BD7047A4
:1002F0007047704700487047C83E0820FFFFFFFF67
:10030000002801DA404200B270470020F94A20215B
:100310001154401CC0B2C828FAD370470146F54AB0
:100320000020401CC0B2135C8B4201D0C828F8D317
:10033000704710B50021F04C0A2200BFB0FBF2F369
:1003400002FB13006054491CC9B218460529F5D3B5
:1003500010BDF0B5E94B0121202719700521E64AAF
:10036000002601E01C7844B1541814F8015C25B94A
:10037000814202D904F8017C05E0541814F8015DAB
:10038000303525701E70491E11F0FF01EAD1F0BD15
:1003900070B50D461446002802DAC043401C00B276
:1003A000FFF7C7FF601CC0B2FFF7D3FF2846FFF777
:1003B000B5FFFF2819D0D04ACE4B0021A14201D26F
:1003C000555C13E004D14FF02E051D54555C03E03D
:1003D000555C202D03D04CB11E1806F8015C401E60
:1003E000491CC9B2C0B20529E8D370BD1D54F6E757
:1003F000F0B50D461446002801DA404200B2FFF77E
:1004000098FF601CC0B2FFF7A4FF2846FFF786FFE5
:10041000B94AB84B002164B9555C202D09D0561853
:100420007678202E03D12D261F1807F8016C1D5455
:100430000FE0A14201D2555CF9E704D14FF02E053F
:100440001D54555C02E0555C202D02D01E1806F8A4
:10045000015C401E491CC9B2C0B20529DBD3F0BD06
:10046000FEB52B23002802DA404200B22D230025DE
:100470000A266C4690FBF6F706FB170060556D1CCC
:100480006DB238B20A2DF5DB0126002509202027A0
:1004900000E046B114F800C0BCF1000F03D1904257
:1004A00001DD275405E0265C3036265400266D1CFD
:1004B000EDB2401E40B20028EBDA2D2B02D163557D
:1004C0006D1CEDB26AB168B205E0231813F8013C67
:1004D0002354401E40B29042F7DC2E206D1CA054E5
:1004E000EDB20846FFF71AFF0021824A04E0635C80
:1004F000461A491C935549B2A942F8DBFEBDFEB528
:100500002B23002801DA40422D2300250A266C46C1
:10051000074690FBF6F006FB107767556D1C6DB231
:100520000A2DF5DB012600250920202700E046B131
:1005300014F800C0BCF1000F03D1904201DD275434
:1005400005E0265C3036265400266D1CEDB2401EB8
:1005500040B20028EBDA2D2B02D163556D1CEDB2B1
:100560006AB168B205E0231813F8013C2354401E19
:1005700040B29042F7DC2E206D1CA054EDB208462C
:10058000FFF7CCFE00215B4A04E0635C461A491C7D
:10059000935549B2A942F8DBFEBDFEB52B260028D3
:1005A00001DA40422D2600240A276D46844690FB3E
:1005B000F7F007FB10CC05F804C0641C64B20A2CE9
:1005C000F4DB0127002009244FF0200C00E04FB19C
:1005D00015F804E0BEF1000F04D19C4202DD05F8DD
:1005E00004C005E02F5D30372F550027401CC0B2F6
:1005F000641E64B2002CEADA2D2E02D12E54401C67
:10060000C0B26BB144B205E02E1916F8016C2E553C
:10061000641E64B29C42F7DC2E24401CEC54C0B231
:1006200001EB810102EB8101CAB20021314B04E0F0
:100630006C5C561A491C9C5549B28142F8DBFEBDE0
:1006400070B50D4616461C46FFF773FE601CC0B21F
:10065000FFF77FFE05EB850006EB8000C1B2264A5E
:10066000244B0020A04201D2155C5D5406D3155CDA
:10067000202D03D04CB15E1806F8015C491E401CC9
:10068000C0B2C9B20528EDD370BD5D54F6E710B510
:100690000C46FFF743FE17490CB1032200E0042289
:1006A0000A5410BD30B5044608461546FFF736FE1D
:1006B000FF2809D00F4A2178002905D04319641C6E
:1006C000401CD154C0B2F6E730BD70B50D4614469B
:1006D000FFF72FFE601CC0B2FFF73BFE2846FFF776
:1006E0001DFE054B034A002154B95D5C202D07D047
:1006F000155415E018C207209AC30720E000001027
:10070000A14201D25D5CF3E704D14FF02E051554F0
:100710005D5C02E05D5C202D02D0161806F8015CDD
:10072000401E491CC9B2C0B20529DDD370BD801876
:1007300001D5084402E0884200DB401AC0B270478D
:100740002DE9FF5F04460D464FF460601CF0E4FEA7
:1007500062424021FFF7EBFF400100F58060044654
:1007600002A91CF0B2FF694604F108001CF0ADFFBD
:1007700001A904F10C001CF0A8FF2846FFF7CEFDEC
:100780009DF80880402330222124DFF80C944FF09C
:10079000C20C4FF03A0A23254FF0010BFF4E2021E7
:1007A000B8F1550F39D0D1274FF0C50EB8F1570F1A
:1007B00069D0B8F1540F6FD0B8F1500F6DD04FF031
:1007C000C00C4FF0E20EB8F1490F67D0B8F1420FFC
:1007D0007ED0B8F14F0F7CD0B8F1440F7AD0B8F189
:1007E000530F4ED14FF0C10C06F800C0401CC0B2F0
:1007F0004FF0CF0C06F800C0401CC0B2B6463754CC
:10080000401CC0B284469DF8090009287ED23130D0
:1008100006F80C000CF1010043E39DF80A70522F1A
:100820000AD106F800C0401CC0B2EA273754401C69
:10083000C0B2EB27375405E13154401CC0B23154EB
:1008400006E33154401CC0B23254401CC0B2345490
:10085000401CC0B23354401CC0B23154401CC0B222
:100860003154401CC0B23254401CC0B235546AE30B
:100870009DF80110CA48002200EB81004021FFF7DB
:1008800011FFBDE8FF9F9DF80A80B8F14E0F06D01A
:10089000B8F1490F22D076E03EE0C9E0D5E04FF054
:1008A000C80806F80080401CC0B24FF0CD0806F81A
:1008B0000080401CC0B206F800C0401CC0B24FF01F
:1008C0002D0C06F800C0401CC0B24FF03E0C02E0F8
:1008D00002E135E2A6E206F800C043E03754401CCE
:1008E000C0B2D22706F800E0401CC0B23754401C0A
:1008F000C0B2DC273754401CC0B22D273754401CEF
:10090000C0B23E273754401CC0B200E0AAE2C8275C
:1009100084E0401CC0B236E09DF80A80B8F14E0F6A
:1009200003D0B8F1490F5ED02DE04FF0CF0C06F8A0
:1009300000C0401CC0B24FF0D00806F80080401C38
:10094000C0B24FF0C80C06F800C0401CC0B24FF057
:10095000CE0C06F800C0401CC0B206F80080401C57
:10096000C0B23154401CC0B23754401CC0B2D22770
:1009700006F800E0401CC0B23754401CC7B2DC206F
:10098000F0557F1CF8B2C8463154401C9DF80070E9
:10099000B9F83CC0C0B267457FF453AF9DF8017011
:1009A00098F838C06745F7D19DF8027098F82CC0C8
:1009B0006745F1D13254401CC0B23454401CC0B21F
:1009C00006F800A0401CC0B23254401CC0B23354E0
:1009D000401CC0B206F800A0401CC0B23254401CFB
:1009E000C0B2355435E1CF273754401CC0B24FF068
:1009F000D00E06F800E0401CC0B2C8273754401C97
:100A0000C0B24FF0CE0806F80080401CC0B206F815
:100A100000E0401CC0B23154401CC0B23754401CEE
:100A2000C0B2CD273754401CC0B206F800C070E7F2
:100A30004FF0CF0C06F800C0401CC0B23754401C29
:100A4000C0B23154401CC0B2F6E6544EC8273754E9
:100A5000401CC0B2ED273754401CC0B2E2273754C7
:100A6000401C9DF80960C0B2092E0ED24B4F3136A2
:100A70003E54401CC0B2E22607F800C0401CC0B281
:100A80003E54401CC0B2395422E0A6F109075A2F47
:100A900020D2761C0A27B6FBF7F8404FCDF80C8021
:100AA00008F1300807F80080401CC0B28646DDF827
:100AB0000C800A2000FB18660EF101003036C0B22F
:100AC00007F80E6007F800C0401CC0B2E2263E5492
:100AD000401CC0B2314EC3E19DF80A704E2F04D0C5
:100AE0004F2F36D0492F64D0DFE006F800C0401CFD
:100AF000C0B2552706F800E0401CC0B2B0463754DB
:100B0000401CC0B2F1273754401CC0B2E52737540F
:100B1000401CC0B2F2273754401CC0B2FC2708F872
:100B20000070401C9DF80960C0B2012E09D0022E51
:100B300009D0032E0BD008F80010401CC6B2404666
:100B400031E1412600E0422608F80060F5E743263F
:100B5000FAE706F800C0401CC0B24FF0550C06F88A
:100B600000E0401CC0B2FB2706F800C0401CC0B229
:100B7000B04606F800E0401CC0B23754401CC0B27A
:100B8000F52708F80070401C9DF80960C0B2012EDE
:100B900072D0022E71D001E10040024018C207203D
:100BA000DC5A020008F8006034E100BF08F80010C9
:100BB00030E106F800C0401CC0B24FF0550C06F8FA
:100BC00000E0401CC0B2B04606F800C0401CC0B2F5
:100BD0004FF0E80C06F800C0401CC0B24FF0ED0C1E
:100BE00006F800C0401CC0B208F800E0401C9DF8A8
:100BF0000960C0B2012E24D0022E24D0032E26D0AC
:100C000008F80010401CC6B2404608F80610761CD2
:100C1000F6B24F4608F80610761C9DF800C0B9F8E9
:100C20003C80F6B2C44529D19DF801C097F83880C0
:100C3000C44523D19DF802C097F82C70BC457ED0E6
:100C40001CE0412600E0422608F80060DAE743266F
:100C5000FAE79DF8040000222121FFF736FD9DF8F8
:100C6000050000224021FFF730FD9DF8060000221C
:100C70002321FFF72AFD04E6C7E0C4E08155761C76
:100C8000F6B28255761CF6B28455761CF4B2035542
:100C9000641CE3B2C1545B1CDBB2C1545B1CD9B20F
:100CA0004254491CC9B245544DE1542FE3D1C127E8
:100CB0003754401CC0B24FF0E00C06F800C0401C96
:100CC000C0B2E9273754401CC0B2EF273754401C4C
:100CD000C0B206F800C0401CC7B2F120F0557F1C1E
:100CE000F8B29DF80970012F05D0022F05D0032F0F
:100CF00005D0315405E0412702E0422700E04327B8
:100D00003754401CC0B24F463154401CC0B231541D
:100D1000401C9DF800C0B9F83C80C0B2C4457FF4C7
:100D200090AD9DF801C097F83880C445F7D19DF883
:100D300002C097F82C70BC453FF43CAE81E549E019
:100D40009DF80A70552F3FF404AF4F2FFBD0492F69
:100D5000ABD106F800C0401CC0B24FF0550C06F8ED
:100D600000E0401CC0B2B04606F800C0401CC0B253
:100D70004FF0E80C06F800C0401CC0B24FF0ED0C7C
:100D800006F800C0401CC0B208F800E0401C9DF806
:100D90000960C0B2012E38D0022E38D0032E7FF465
:100DA00005AF4326FEE68155761C9DF80070B9F824
:100DB0003CC0F6B2C84667457FF442AF9DF801706B
:100DC00098F838C06745F7D19DF8027098F82CC0A4
:100DD0006745F1D18255761CF1B24454491CC9B221
:100DE00000F801A0491CC9B24254491CC9B243547D
:100DF000491CC9B200F801A0491CC9B24254491C9F
:100E0000C9B2455425E74226CCE64126CAE6422728
:100E100008F80070401CC6B2404608F80610761C60
:100E2000F6B2C0E79DF80A70552F7FF424AF06F89C
:100E300000C0401CC0B206F800E0401CC0B23754ED
:100E4000401CC0B264273754401CC0B263273754DB
:100E5000401CC0B23154401CC0B23154401CC0B21E
:100E6000315456E5A0F109065A2E16D2401C0A2626
:100E7000B0FBF6F6B04630360EF80C600A270CF1DF
:100E8000010607FB180006F0FF0C30300EF80C00CE
:100E90000CF1010C0CF0FF0608E00EF80C100CF140
:100EA0000100C0B20EF80010401CC6B270460EF829
:100EB0000610761CF6B2C8460EF80610761C9DF891
:100EC0000070B9F83CC0F6B2674525D19DF80170B5
:100ED00098F838C067451FD19DF8027098F82CC06B
:100EE000674519D18255761CF1B24454491CC9B2E8
:100EF00000F801A0491CC9B24254491CC9B243546C
:100F0000491CC9B200F801A0491CC9B24254491C8D
:100F1000C9B20EF801509CE68155761CF6B2825596
:100F2000761CF6B28455761CF4B20355641CE3B209
:100F3000C1545B1CDBB2C1545B1CD9B24254491C86
:100F4000C9B20EF801509DF8020000222121FFF7DE
:100F5000BCFB9DF8000000222321FFF7B6FB9DF8A3
:100F60000100401E0C28FFF483AC8DF801B07FE433
:100F700070B50446084615461E46FFF7CFF9FF4BED
:100F80000146FF2804D106E01A54641C401CC0B27C
:100F90002278002AF8D1FA480078002804D0002EE0
:100FA00002D029445F20585470BDF0B5074614465E
:100FB0000E460846FFF7B2F905460022314638468C
:100FC000FFF79DFA002C08D0ED480078002804D0E7
:100FD0005F20EA4A291B11444870F0BD2DE9FF4FFC
:100FE0008146DDE90D048A469346FFF797F92022F2
:100FF000DFF88C83E1490A234FF0640C012C09D1FE
:1010000098F8005035B10D18A5F10E05AA706A7058
:101010002A7020E099FBF3F603FB16970D18303782
:10102000A5F10E05022CAF7096FBF3F703FB1766D4
:1010300006F130066E7099FBFCF606F1300605F8F5
:101040000E6B08D198F800602EB1A5F10A05AA70C0
:101050006A702A7021E09AFBF3F603FB16A70D18BD
:101060003037A5F10A05032CAF7096FBF3F703FBAD
:10107000176606F130066E709AFBFCF606F1300634
:10108000674605F80A6B08D198F800602EB1A5F103
:101090000605AA706A702A7022E09BFBF3F603FB38
:1010A00016B70D183037A5F10605042CAF7096FB66
:1010B000F3F703FB176606F130066E709BFBFCF638
:1010C00006F13006674605F8066B09D198F800402E
:1010D00034B1A5F102050A546A702A70BDE8FF8F89
:1010E000039C94FBF3F203FB124430340C5492FB48
:1010F000F3F403FB14220844A0F1020030324270E2
:10110000039991FBF7F101F130010170E6E717B5A2
:1011100001EB810002EB8000C2B29DF800309948DB
:1011200003F00F0100EB1313445C94498C54521EDE
:10113000D2B21B788B549DF80130521E03F00F047D
:10114000D2B2045D8C54521E00EB1313D2B21B7842
:101150008B549DF80230521E03F00F04D2B2045D8E
:101160008C54521E00EB1313D2B21B788B549DF893
:101170000330521E03F00F04D2B2045D8C54521E91
:1011800000EB1310D2B2007888541EBD10B504468F
:101190000846FFF7C3F87B4904F00F028B5C774ADF
:1011A00001EB14111354401EC0B20978115410BD44
:1011B00001EB810102EB8101724A10B500F00F03CF
:1011C000C9B2D45C6D4B02EB10105C54491EC9B21D
:1011D0000078585410BD01EB810102EB8101CBB2C4
:1011E000684910B500F00F028C5C644AD4540409BD
:1011F0005B1E04F00F00DBB2085CD0545B1ED8B25B
:10120000230903F00F040C5D1454401E1B09C0B2E7
:10121000C95C115410BD01EB810102EB8101CBB21D
:10122000584910B500F001028C5C544AD45444086B
:101230005B1E04F00100DBB2085CD0545B1ED8B228
:10124000630803F001045B080C5D1454401E03F0B6
:101250000104C0B20C5D14545B08401E03F001048D
:10126000C0B20C5D14545B08401E03F00104C0B210
:101270000C5D14545B08401E03F00104C0B20C5D09
:101280001454401EC4B25808085C105510BD30B547
:101290003D490123394D91F9012091F9041000EBEA
:1012A00080048A4202D105F8243030BD334D4C1CF5
:1012B00000EB800005EB8000A24201D1037530BD38
:1012C0008C1CA24202D180F8283030BDCC1CA24236
:1012D00002D180F83C3030BD0C1DA24202D180F812
:1012E000503030BD4C1DA24202D180F8643030BD78
:1012F0008C1DA24202D180F8783030BDC91D8A42CF
:10130000FBD180F88C3030BD204B1A88521E10441F
:1013100000B218801E4A00EB800002441A4813688D
:101320000360127902714278114441707047F0B540
:10133000164D174FB5F9004004EB8406641C2C8051
:10134000114C3E44256835602579357120706170F7
:101350002271A370F0BDF0B505460E461746FEF7A4
:10136000D4FF064C5FF00000401C15F8011BC0B212
:1013700004F8011B1428F7D300200BE018C2072043
:101380003DC007205A5B020094C107205EC00720C1
:10139000A0600010401C16F8011BC0B204F8011B2D
:1013A0001428EAD35FF00000401C17F8011BC0B2FC
:1013B00004F8011B1428F7D35FF00000401C13F859
:1013C000011BC0B204F8011B1428F7D3F0BD10B5FF
:1013D000029CFFF7C0FF4448C378827841787A20A6
:1013E000FFF7A5FF642094FBF0F0BDE81040C0B209
:1013F000FEF75BBF2DE9FE4340010D4600F580601E
:10140000044602A91CF061F9694604F108001CF0C9
:101410005CF901A904F10C001CF057F92846FEF70D
:101420007DFF324C202530262554401CC0B24FF0A1
:1014300021082654401CC0B24FF0400C04F8008034
:10144000401CC0B2232104F800C0401CC0B20022DE
:101450002554401CC0B22554401CC0B22654401C28
:10146000C0B22154401CC7B29DF802002121FFF7F1
:101470002CF99DF8000000222321FFF726F99DF8A2
:101480000100401E0C2802D301208DF801009DF8B8
:1014900001001749002201EB80004021FFF702F90B
:1014A000E5557F1CF8B23A212654401CC0B20022F8
:1014B00004F80080401CC0B22154401CC0B221215D
:1014C0002654401CC0B204F800C0401CC6B29DF8AF
:1014D0000400FFF7FAF89DF8050000224021FFF70D
:1014E000F4F8A555BDE8FE8394C1072018C2072073
:1014F000DC5A02002DE9FF4105460027FF4C01217F
:101500006776A07D022805D0FD4A525D552A04D099
:1015100065200EE06176BDE8FF8105EB450202EB38
:101520000513F84A02EB830696F83D20D30702D054
:1015300066206076EFE796F83F309B0701D567207D
:10154000F7E7920701D56820F3E7EF4AB6F90830CC
:10155000B2F90020934201DD6920EAE7524293424A
:1015600001DA6A20E5E7012804D1E07D00287ED079
:1015700001287DD064206076A17521864FF4F87033
:101580001BF074FFE575294665864FF4FA701BF071
:101590006DFFDE48B761002130F915001BF066FFD2
:1015A0002776A78639464FF4FB701BF05FFFD848BB
:1015B000D84D0088401C00F0070006EB4000008C6E
:1015C000ADF80000A88B8DF804004FF063024FF0D7
:1015D000010101A802F003FDC84C9DF804004C3441
:1015E0002070287E8DF804000C22012101A802F051
:1015F000F6FC9DF804006070287B8DF804001F2223
:10160000012101A802F0EBFC9DF80400A0709DF8F8
:101610000000E0704FF4FC7021681CF011F9287A8A
:101620008DF804001722002101A802F0D8FC9DF8D3
:101630000400207128798DF804003B22002101A8C4
:1016400002F0CDFC9DF80400607128788DF804004C
:101650003B22002101A802F0C2FC9DF80400A07109
:101660009DF80100E0714FF4FE70616801E003E055
:1016700004E01CF0E5F84EE76B205AE76C2058E7D1
:101680007047704770B5A34C203C94F83800A24DC9
:10169000297808440C2803D9A08F401C01B201E02E
:1016A000B4F93C10B8201BF0E1FE94F8381028780B
:1016B00001440C2994F8381000D90C380144B620A4
:1016C0001BF0D4FE94F82C001C2801D91C2101E049
:1016D00094F82C10B4201BF0C9FE04F12004217AE8
:1016E0004FF0AE001BF0C2FE2179B0201BF0BEFE11
:1016F0002178BDE87040B2201BF0B8BE87486FF07B
:101700003B010088C0EB001001EB80007B4948855D
:1017100070477A4940F2F9600885704770B5774C98
:10172000208D401C00B22085B0F5E16F02DB002067
:10173000208570BDB0F5DF6F11D90F230122642120
:10174000D22002F0E9FB0F230022D821D72002F09B
:10175000E3FB0F230022D821DC2002F0DDFBB4F9EB
:101760002800A0F5E0610739E3D16D4E6D4C6E4D58
:1017700030882188884205D0B4F90010B5F90000FE
:101780001BF074FE708861888842D2D0B4F90210D0
:10179000B5F90200BDE870401BF068BE10B55C4CA6
:1017A000082200212088401C2080204602F02DFCC9
:1017B0005448B4F9001000EB410142880A84B0F8A3
:1017C0004E00A1F86C0010BD2DE9F04F57485B4961
:1017D000574CB0F90030574F5748B1F90050584AAC
:1017E000002113B1012D0FD018E0012D16D1554E57
:1017F00036882680544CB4F900400480002C00DA6E
:1018000001805248006808E056882680B2F90040FE
:101810000480002C00DA0180506838604C48DFF802
:1018200034A14FF0010BB0F900C0BCF1000F63D040
:1018300000208146AAF800100446DFF81CE1BDE054
:10184000C4EB041000EB44170EEB870090F81780F0
:10185000B8F1050F51D21EF82760477806EB07262E
:10186000C6618778C67807EB062636B20686002E54
:1018700000DA01860679477906EB072686618679C4
:10188000066290F8078080F83A80067A477A18F066
:101890001A0F06EB07268662867AC77A06EB0726BA
:1018A0004662067B477B06EB0726C662867B80F88E
:1018B0003B6002D080F83CB001E080F83C105FEA69
:1018C00048660AD5C67B7F2E60D0802E61D090F905
:1018D0000F6006F5FA76AAF800605FEA886601D51F
:1018E0000126B14600F15A00467C4670867C86701F
:1018F000C67CC670067D31E068E04EE00000001056
:10190000B8C00720383C0010B40000106454020036
:1019100020C107202040024043C00720BA00001029
:101920009A0000103A35001084540200B0C007201D
:1019300022C1072080C1072024C10720B2C0072090
:10194000A85B0010DA00001098C30720DC0000102C
:10195000A6C00720C2C30720D03C00100671467DF8
:101960004671867DC77D06EB0726C680067E067219
:10197000467E4672867E8672C67EC672067F067375
:10198000467F877F06EB0726C68115E040F2EE27EB
:1019900000E0FA27AAF800709FE7C1610186816123
:1019A000016280F83A1041628162C16280F83C10A5
:1019B00080F84C1080F83B10641CE4B26445FFF6DC
:1019C0003FAFB9F1000F01D1AAF80010FD48FC4C5F
:1019D000012B807D02DB0A2801D209E043B9118086
:1019E000516051801175517511815181117621809D
:1019F000022B04DB92F832600A2E05D200E01BB104
:101A00000A280CD3032D0AD122F81C1F51605180E3
:101A100011755175118151811176A2F11C02032BB0
:101A200004DB92F84E600A2E05D200E01BB10A28B2
:101A30000AD3032D08D122F8381F51605180117547
:101A40005175118151811176DF48E04D40F6B7366E
:101A5000B0F90420B5F900506A434FF4FA7592FBCF
:101A6000F5F2DB4D2A80B0F90A00DA4AA0F22135FE
:101A7000B54201D2116001E0C2F800B0D64AB2F915
:101A80000020424344F6206092FBF0F0D34AA0F2DB
:101A900011101080D24833B1D24A128802B1218885
:101AA0000180BDE8F08FBAF80010F9E7CE4ACF48C0
:101AB0001178042901D0012905D1517819B9CC49EF
:101AC0000978552902D0CB49098803E0017800291B
:101AD00001D0491E01707047C748416821F4402178
:101AE00041F480214160416821F4403141F480316A
:101AF0004160416821F4404141F480414160416CC2
:101B000021F4402141F400214164416C21F4403131
:101B100041F400314164416C21F4404141F4004101
:101B20004164B648016821F0E0610160016841F458
:101B300000110160016821F480310160016821F425
:101B40007F4141F4807101608115C160AC48890317
:101B5000016070472DE9F041AA4C60882188401A45
:101B600000B203F07BFBA51D2880A0886188401A85
:101B700000B203F073FB6880A0882188401A00B28D
:101B800003F06CFB4FF49672A880A4F13E019042E2
:101B900001DAA0880AE0B5F90200904201DA608813
:101BA00004E0B5F90000904201DA2088888391F8BA
:101BB00002C00023BCF1000F23D08348B1F91C20E0
:101BC0002030046814440460446814444460846809
:101BD00014448460C4682244C2608A8C521C12B2CD
:101BE0008A84B2F5805F00DB8B84B1F924209405F0
:101BF0002DD1921250F8224024124C8340F822300A
:101C000025E0814FC8780C7907EB8015B1F91C20CD
:101C100045F82420A2070ED100252A4607EB80169E
:101C200056F82270521CD2B23D44102AF8D32A1121
:101C3000654D25F81020401CC0B2C870102806D38E
:101C4000641CE0B2CB700871102800D30B710CF14A
:101C5000010C4B701CF00100684A887005D01068B8
:101C600020F0FF00001D106034E0C978080700284C
:101C7000106820F0FF0002DB00F1010001E000F13C
:101C8000020010606148036843F080530360036AF8
:101C900043F080430362036E43F080630366CB0727
:101CA000436908D043F0805343618B07436B05D4ED
:101CB00023F0804304E023F08053F5E743F08043B2
:101CC00043634907416F02D421F0806101E041F094
:101CD00080614167106840F080701060BDE8F0815D
:101CE0002DE9F041474C60882188401A00B203F08A
:101CF000B5FAA51D2880A0886188401A00B203F0BB
:101D0000ADFA6880A0882188401A00B203F0A6FAD4
:101D10004FF49672A880A4F13E01904201DAA088A7
:101D20000AE0B5F90200904201DA608804E0B5F9F2
:101D30000000904201DA208888838E780020F6B374
:101D4000214A4C7920328CB1B1F91C30156805EB71
:101D5000A3051560556805EBA3055560956805EB6F
:101D6000A3059560D56805EBA303D360B1F91C30DA
:101D7000642B0EDA0B8C4FF4FA655B1C1BB20B84E0
:101D8000AB4208DB0D84106050609060D0604883E7
:101D90007BE0088479E0052B77D1CCB3CB8B5B1C3F
:101DA0001BB2CB83B3F5007F00DBC883B1F91E30D3
:101DB0005D0631D1DB1152F823502D1229E039E0B4
:101DC00004010010A85B0010883B0010AC0000105C
:101DD00026C1072008600010A2000010DAC1072009
:101DE0004CC10720C4C3072094C1072022C007208C
:101DF00094C30720CAC0072000C00240004003402F
:101E000000E100E03E0000108837001000C009200B
:101E100002E04D8342F82300B1F92220962A01DD29
:101E200004B148711F3A272A2FD24A790AB90122F0
:101E30004A712AE0B1F91C30FF4FCA7891F804C00A
:101E400007EB821444F82C305FEA8C730FD1002426
:101E5000234607EB821500BF55F823705B1CDBB2ED
:101E60003C44102BF8D32311F44C24F81230521CAC
:101E7000D2B2CA70102A08D30CF1010C0CF0FF0288
:101E8000C8700A71102A00D308714870761C16F0C9
:101E90000100EB4A887005D0106820F0FF00001D9B
:101EA000106032E0C97808070028106820F0FF00B1
:101EB00001DB401C00E0801C1060E248036843F036
:101EC00080530360036A43F080430362036E43F070
:101ED00080630366CB07436908D043F080534361B6
:101EE0008B07436B05D423F0804304E023F0805339
:101EF000F5E743F0804343634907416F02D421F083
:101F0000806101E041F080614167106840F08070BD
:101F10001060E3E62DE9F047CB480168CB4A114059
:101F20000160C849086840F47C700860C94B002013
:101F3000C74AB3F9003001E0401CC0B29842FBDB55
:101F4000C54A0020C94B1478C44A06464FF0010A1E
:101F500092F800C0C24A1578C24A92F80080C24A7C
:101F600012789146C24A16542CB133F81070FF070C
:101F700001D002F800A0BCF1000F05D033F81070BA
:101F8000BF0701D502F800A02DB133F810707F070C
:101F900001D502F800A0B8F1000F05D033F8107099
:101FA0003F0701D502F800A0B9F1000F05D033F8C2
:101FB0001070FF0601D502F800A0401CC0B2022834
:101FC000D1D3AA481378B0F9000013B1012B03D084
:101FD00009E0000402D406E0000404D4C86940F01B
:101FE0002000C86103E0886940F0200088619F48B4
:101FF0005278B0F9020012B1012A03D00AE00004BD
:1020000002D407E0000405D4C86940F01000C8619C
:10201000BDE8F087886940F010008861F8E72DE995
:10202000FF5F944E0027B07A0A2807D2401CC0B246
:10203000B0720A2802D3B7720120F072B785F78513
:10204000CD2001F0A0FFD8B18B494FF6FF72086890
:10205000CE2808D0CF2808D0D12808D0D22809D03F
:10206000D02809D00CE0F2850AE0486807E048680B
:10207000B08505E0B28503E04868B085C043F085CF
:1020800000207C4960F30F048246C87200900190E2
:1020900002904872363183460870487088706D49E6
:1020A00060F31F4460F30F05814686460023B1F9B3
:1020B000002079E0C3EB031101EB4316644901EB07
:1020C0008601CE7D0396052E59D291F83A60B60668
:1020D00055D59A4253DD674E777A7F1C7772D1F8D7
:1020E0001C8008EB0A0636B2B246B1F9306006EB46
:1020F0000B07BB460327B3FBF7FC07FB1C3727B1D5
:10210000012F15D0022F27D039E05A4F30443637EF
:1021100097F800C00CF1010C87F800C0009FD1F8BF
:1021200024C06744009704EB080767F30F0426E018
:10213000504F4E443637B14697F801C00CF1010CB0
:1021400087F801C0019FD1F824C06744019708EBCC
:10215000244767F31F4412E0464F76443637B646AD
:1021600097F802C00CF1010C87F802C0029FD1F869
:1021700024C06744029705EB080767F30F0591F841
:102180003A6016F0BF0F19D191F83B60F60715D1F0
:10219000039E052E12D291F8BB60642E02D2761CEB
:1021A00081F8BB605B1CDBB2934283DB0021DFF86C
:1021B000C4C088460B468CF809101AE00026EFE7E9
:1021C000C3EB031606EB4317214E06EB8707FE7D94
:1021D000052E0CD297F83A60B60608D59A4206DD6D
:1021E0007E6AB0449CF80960761C8CF809605B1C20
:1021F000DBB29342E4DB9CF80930204E98FBF3F30A
:102200003380BAF1000300DA00231E461C4B1E8007
:10221000BBF1000300DA00231E461A4B1E60154E68
:10222000009B3636377893FBF7F3174F3B8023B28A
:10223000002B2DDA2AE0000088370010883B0010C0
:102240000040034000C0092000C00240FF00F0FF32
:10225000D03C0010A6C007200001001055C0072088
:1022600056C0072057C00720BEC307205AC1072009
:10227000FE0000100000001018C00720DA00001057
:1022800098C30720DC000010CEC1072061F30F04C3
:10229000FF4B00281C8000DA08468446FD48C0F841
:1022A00000C096F80180DDF804C09CFBF8FCA7F89C
:1022B00002C05FEA244C01D561F31F4424145C8002
:1022C000B9F1000F00DA8946C0F80490B678029C94
:1022D00094FBF6F4BC802CB2002C01DA61F30F05FC
:1022E0009D80BEF1000F00DA8E46EB49C0F808E091
:1022F0000988022965D1E9490988002961D1E8499D
:10230000B1F93040B1F9EC502C440460B1F9A84166
:10231000B1F96452B1F9DC632C44B1F9205335446E
:102320002C444460D1F8D840C86920441880D1F8C2
:102330005042D1F89401D1F8C8530444D1F80C03A9
:102340002844204458804FF0000423464FEA0400FC
:10235000C0EB001505EB401501EB850595F83A60DB
:10236000B60609D5EE7D052E06D2824204DD6D6AE1
:102370005B1C2C4424B2DBB2401CC0B20228E7D361
:1023800094FBF3F00024388023460220C0EB0015B4
:1023900005EB401501EB850595F83A60B60609D5C1
:1023A000EE7D052E06D2824204DD6D6A5B1C2C4454
:1023B00024B2DBB2401CC0B20628E7D394FBF3F092
:1023C0007880BDE8FF9F2DE9F047B64E30880028A1
:1023D0007DD000254FF00109A846B14F68E100BF4C
:1023E000C5EB051000EB451007EB800494F83A00AC
:1023F00010F0BF0F94F83B004FEAC07001D0D0B18D
:1024000034E080BB94F84C0068B3B4F958009628C7
:102410000DDA401C00B2A4F85800962826DB94F888
:102420005A0000BB002384F85A90012217E096203E
:10243000A4F858001AE094F84C00A0B1B4F9580080
:10244000002811DDC01E00B2A4F8580000280DDCE1
:1024500094F85A0038B1002384F85A801A46532160
:10246000284602F097FA01E0A4F8588094F83A0060
:10247000000794F84C0012D528B394F95000322884
:1024800021DA401C40B284F8500032281BDB94F85B
:102490005100C0B984F851900122A3690FE090B1B6
:1024A00094F9500078B1401E40B284F8500050B901
:1024B00094F8510038B1002384F851801A464F2116
:1024C000284602F067FA94F83A00C00600E0F4E00B
:1024D00094F84C0012D528B394F94F00322821DA31
:1024E000401C40B284F84F0032281BDB94F85100A6
:1024F000C0B984F851900122A3690FE090B194F91A
:102500004F0078B1401E40B284F84F0050B994F8A3
:10251000510038B1002384F851801A466F212846B3
:1025200002F038FA94F83A00810714D594F84C1068
:1025300089B194F95200322826DA401C40B284F85E
:102540005200322820DB94F85300E8B984F8539005
:102550000122236A14E010F0060F15D194F84C0004
:1025600090B194F9520078B1401E40B284F8520004
:1025700050B994F8530038B1002384F853801A46B8
:102580005421284602F006FA94F83A00C00794F85D
:102590004C0012D088B394F95400322824DA401C3D
:1025A00040B284F8540032281EDB94F85500D8B9A4
:1025B000002384F8559001220FE0F0B194F9540003
:1025C00090B1401E40B284F8540068B994F85500A8
:1025D00050B1002384F855801A464C21284602F059
:1025E000D9F994F84C0040B194F9560018B3401E44
:1025F00040B284F8560098B11DE0FFE794F9560008
:10260000322818DA401C40B284F85600322812DB17
:1026100094F8570078B9002384F85790012206E017
:1026200094F8570038B1002384F857801A464321A4
:10263000284602F0AFF994F83B00C00794F84C002C
:1026400012D020B394F94D0032282FDA401C40B24A
:1026500084F84D00322829DB94F84E00B8B90023E5
:1026600084F84E9001220FE088B194F94D0070B1CA
:10267000401E40B284F84D0048B994F84E0030B185
:10268000002384F84E801A46492128460CE00DE0CC
:10269000D4C10720FC5B0010B2C00720B0C00720E7
:1026A000D03C0010A6C0072002F074F96D1CEDB2FA
:1026B000B6F900008542FFF693AEA9E42DE9F05F7C
:1026C000FA48002213461146DFF8DC83B0F90060B7
:1026D00023E000BFC1EB011000EB411008EB8000CC
:1026E00090F8514074B990F853405CB990F8574055
:1026F00044B990F85A402CB990F8554014B990F864
:102700004E4004B10122C47D052C04D290F83A0059
:10271000800600D50123491CC9B2B142DADBE44886
:10272000E4490270E448B0F900006BB9002209E006
:10273000C2EBC20401EB8404A47D052C00D201236A
:10274000521CD2B28242F3DBDC4ADFF874C3DFF8FA
:102750007CA31370DB4B9CF80D204FF001091A701D
:10276000DB4BD94A0024B3F9003010B1A4466546CA
:1027700025E0012B08D0D24FFD7C3F7D3D43022B4D
:102780000BD0032B0CD01FE09CF8125005E000BFCB
:1027900082F8009018E0147016E0002DFBD0F7E7E7
:1027A0009CF815703D43F8E7C5EBC50701EB8707BB
:1027B000FF7B17B14FF0010C03E06D1CEDB29D42A1
:1027C000F2DB82F800C0C0B9C24A1288AAB1002365
:1027D0001A460DE0C2EB021505EB421508EB850524
:1027E00095F83B50AD0701D4012303E0521CD2B24F
:1027F000B242EFDB8AF8003010E000252A4609E0FB
:10280000C2EBC20601EB8606767B0EB1012503E022
:10281000521CD2B29A42F3DB8AF80050DFF8B8A219
:10282000DFF8C082DFF8B4C29AF80060DFF8B0B217
:1028300098F8002010B100252B4610E08CF80040DD
:102840008BF8004037E000BFC3EBC30701EB8707FD
:102850007F7D3F0601D4012503E05B1CDBB2834290
:10286000F2DB00278CF800503B460CE0C3EBC30CB6
:1028700001EB8C0C9CF815C05FEA4C6C01D401276D
:1028800003E05B1CDBB28342F0DB8BF8007095B198
:10289000052A0CD2521CD0B288F80000052817D1A6
:1028A00055460EB901F0E7FC85F8009010E00520D0
:1028B00088F800000CE05AB1521E12F0FF0088F8B0
:1028C000000005D15546012E01D101F062FD2C70AA
:1028D0009BF8001084480029844D017811D0052907
:1028E0000CD2491CC9B20170052905D1287808B954
:1028F00001F0F1FD85F80090BDE8F09F0521017021
:10290000FAE70029F8D0491E11F0FF010170F3D158
:102910002878012801D101F06CFE2C70ECE7744896
:1029200030B4B0F900100A2091FBF0F17148B0F911
:1029300000406348A142437B90F90C2004DA6E4CBE
:10294000B4F90040A1420CDC322A18DA521C52B20F
:102950000273322A13DB002B11D10122427310467D
:102960000AE0002A0BD0521E51B20173002906D191
:10297000002B04D04173084630BC02F02DB930BCA6
:1029800070472DE9F05F4C48008800287ED1DFF8C1
:1029900040810125DFF864B1B8F80000584E0027E7
:1029A000474C4FF00A0901282BD15648BBF900309B
:1029B000B0F90010204691FBF9F1827C90F90E00ED
:1029C000994203DCB6F9003099420BDA32285DDA1D
:1029D000401C40B2A073322858DB002A56D1A5749F
:1029E00001200CE0002851D0401E40B2A073002806
:1029F0004CD1002A4AD00022A7741146104602F09A
:102A000008FA3348B0F90000022801D003283DD16C
:102A1000DFF8F480BBF90000B8F9001091FBF9F180
:102A2000814203DCB6F9000081420EDA94F90F000E
:102A3000322819DA401C40B2E073322814DBE07C03
:102A400090B90122E57410460CE094F90F0058B1DA
:102A5000401E40B2E07338B9E07C28B10021E77431
:102A60000122084602F0D5F9B8F90210BBF90000BE
:102A700091FBF9F1CA46D946814203DCB6F9000060
:102A8000814243DA94F91000322800E081E04CDA08
:102A9000401C40B22074322847DB207D18B9022246
:102AA000257501203FE040E0D03C0010A6C0072083
:102AB00000010010A85B0010B0C0072058C007201C
:102AC0000000001055C0072056C0072057C007203F
:102AD000B2C00720B4C0072095000010BEC3072075
:102AE000BFC30720010100100201001047C30720E7
:102AF00026C10720A0C00720A2C0072098C0072039
:102B00009AC00720DA000010CEC1072094F9100007
:102B100058B1401E40B2207438B9207D28B1002140
:102B200027750222084602F074F9F8480088032845
:102B30002FD1B8F90410B9F9000091FBFAF18142E4
:102B400003DCB6F9000081420FDA94F91100322853
:102B50001FDA401C40B2607432281ADB607D002806
:102B600017D10322657501200FE094F911000028A8
:102B70000FD0401E40B2607400280AD1607D00284A
:102B800007D00322002167750846BDE8F05F02F018
:102B900040B9B1E62DE9F05FDD4800260088002845
:102BA0006FD0DA480188032900D101260025DFF81B
:102BB00064B3DFF864830A27DFF860A38146E1E0AD
:102BC000D748C5EBC50100EB8104BBF90010B4F98F
:102BD000020090FBF7F0884204DAD24AB2F90020F2
:102BE000904213DC227E8AB194F90E10322928DA41
:102BF000491C49B2A173322923DBE17B09BB0121C6
:102C000003B2A819E173C0B20A4617E0884218DA85
:102C1000C449B1F90010884213DD207E88B194F9CF
:102C20000E0070B1401E40B2A07350B9E07B40B1BD
:102C30000020E073A8190023C0B21A464F2102F009
:102C4000F6F9B4F90800B8F9001090FBF7F08842E3
:102C500003DABAF90020904214DC227E92B194F992
:102C60000C10322928DA491C49B22173322923DB9E
:102C7000617B09BB012103B2A8196173C0B20A4686
:102C800017E084E0884217DABAF90010884213DDB1
:102C9000207E88B194F90C0070B1401E40B22073C0
:102CA00050B9607B40B100206073A8190023C0B206
:102CB0001A464E2102F0BBF9B4F90A00B8F9001027
:102CC00090FBF7F0884203DABAF90020904213DC57
:102CD000227E8AB194F91010322927DA491C49B2B0
:102CE0002174322922DB617C01BB012103B2A819C6
:102CF0006174C0B20A4616E0884217DABAF90010C9
:102D0000884213DD207E88B194F9100070B1401E16
:102D100040B2207450B9607C40B100206074A819A2
:102D20000023C0B21A46492102F081F9607D800774
:102D3000207E12D520B394F91200322820DA401CEC
:102D400040B2A07432281BDBE07CC8B90120E074DB
:102D5000A819237DC0B201220FE088B194F91200B6
:102D600070B1401E40B2A07450B9E07C40B1002068
:102D7000E074A8190023C0B21A46542102F057F992
:102D80006D1CEDB2B9F900008542FFF619AFB3E54D
:102D900070B5044607220121634801F020F9C4EB15
:102DA000041000EB4411614800EB8105604895F880
:102DB0003D1095F83A20514000D041700A4000D0B3
:102DC000827001EA0203DB071ED0C178491CC17082
:102DD00034B1012C09D0022C0CD0032C0FD0FFE110
:102DE00001231A460E2153A0F8E1012302220E21ED
:102DF00057A0F3E1012303220E215CA0EEE10123A1
:102E000004220E2160A0E9E18B0720D593071ED58F
:102E1000C178491CC17034B1012C09D0022C0CD0EE
:102E2000032C0FD0DCE1022301220E215DA0D5E1AD
:102E300002231A460E2162A0D0E1022303220E21B2
:102E400066A0CBE1022304220E216BA0C6E14B0752
:102E500020D553071ED5C178491CC17034B1012C4F
:102E600009D0022C0CD0032C0FD0B9E1032301228E
:102E70000E2168A0B2E1032302220E216CA0ADE175
:102E800003231A460E2171A0A8E1032304220E2178
:102E900075A0A3E10B0720D513071ED5C178491CE7
:102EA000C17034B1012C09D0022C0CD0032C0FD0EE
:102EB00096E1042301220E2172A08FE10423022255
:102EC0000E2179A08AE1042303220E217FA085E14F
:102ED00004231A460E2186A080E1CB0611D5D30625
:102EE0000FD5C178491CC17034B1012C0AD0022C15
:102EF00009D0032C08D073E1052301220E2185A0FF
:102F00006CE128E118E11CE120E10000B2C00720DB
:102F1000B0C0072098C007209CC007209EC0072093
:102F2000A85B00109AC0072021C00720D03C0010E9
:102F300039000010496E766572746F72202331205B
:102F4000416C61726D2C206F7665726C6F616400EC
:102F5000496E766572746F7220233220416C617203
:102F60006D2C206F7665726C6F616400496E7665BA
:102F700072746F7220233320416C61726D2C206F4C
:102F80007665726C6F616400496E766572746F72FB
:102F900020233420416C61726D2C206F7665726C39
:102FA0006F616400496E766572746F722023312000
:102FB000416C61726D2C206F76657268656174007A
:102FC000496E766572746F7220233220416C617293
:102FD0006D2C206F7665726865617400496E766548
:102FE00072746F7220233320416C61726D2C206FDC
:102FF0007665726865617400496E766572746F7289
:1030000020233420416C61726D2C206F76657268CC
:1030100065617400496E766572746F722023312089
:10302000416C61726D2C206973207761726D0000B4
:10303000496E766572746F7220233220416C617222
:103040006D2C206973207761726D0000496E766582
:1030500072746F7220233320416C61726D2C206971
:1030600073207761726D0000496E766572746F72BD
:1030700020233420416C61726D2C206973207761AC
:10308000726D0000496E766572746F722023312074
:10309000416C61726D2C20766F6C7461676520697C
:1030A0007320757000000000496E766572746F724F
:1030B00020233220416C61726D2C20766F6C74611C
:1030C000676520697320757000000000496E7665A1
:1030D00072746F7220233320416C61726D2C2076E4
:1030E0006F6C746167652069732075700000000063
:1030F000496E766572746F7220233420416C617260
:103100006D2C20766F6C7461676520697320757013
:1031100000000000496E766572746F7220233120C2
:10312000416C61726D2C20766F6C746167652069EB
:103130007320646F776E0000052302220E21D8A051
:103140004CE0052303220E21DEA047E005230422E4
:103150000E21E5A042E08B0620D593061ED5C1784E
:10316000491CC17034B1012C09D0022C0CD0032CA5
:103170000FD035E0062301220E21E4A02EE0062325
:1031800002220E21EAA029E0062303220E21F1A04B
:1031900024E0062304220E21F7A01FE001B3FAB9B0
:1031A000C178491CC17034B1012C09D0022C0CD05B
:1031B000032C0FD014E0002301220E21F7A00DE014
:1031C000002302220E21FAA008E0002303220E2190
:1031D000FCA003E0002304220E21FFA018F082FCD3
:1031E00015F83A0FE87070BD70B50020FF4903462E
:1031F000B1F90C200121FE4D01FA00F4224201D068
:10320000295400E02B54401CC0B20C28F4D3F94CD4
:103210002878F94E217881420CD0B6F900100129A6
:1032200008DB01287ED0002301220B21F3A000BF80
:1032300018F058FC6178687881420BD0B6F900101C
:10324000022907DB01286ED0002302220B21F0A007
:1032500018F048FCA178A87881420BD0B6F900108C
:10326000032907DB01287CD0002303220B21EDA0DA
:1032700018F038FCE178E87881420BD0B6F90010FC
:10328000042907DB012872D0002304220B21EAA0C5
:1032900018F028FC2179287981420BD0B6F900106A
:1032A000052907DB012867D0002305220B21E7A0B1
:1032B00018F018FC6179687981420BD0B6F90010DA
:1032C000062907DB01285CD0002306220B21E4A09D
:1032D00018F008FCA179A87981420BD0B6F900104A
:1032E000072907DB012851D0002307220B21E1A089
:1032F00018F0F8FBE179E87981420BD0B6F90010BB
:10330000082907DB012846D0002308220B21DEA074
:1033100018F0E8FB217A287A81420FD0B6F9001024
:10332000092901E013E017E008DB012838D0002369
:1033300009220B21D9A000BF18F0D4FB0020295C82
:103340002154401CC0B20C28F9D370BD09E0012300
:103350001A460B21D6A06BE7012302220B21D9A02C
:1033600076E7012303220B21DBA081E7FFE701239E
:1033700004220B21DDA08BE7012305220B21E0A015
:1033800096E7012306220B21E2A0A1E701230722F1
:103390000B21E5A0ACE7012308220B21E7A0B7E74A
:1033A000012309220B21EAA0C6E72DE9F041ED4FE8
:1033B000ED48EE4CB7F90010B0F90020B4F9000068
:1033C000914202DD00F1010002E002DAA0F1010009
:1033D000208006220021E54800F00CFEB4F9001020
:1033E000E3480126052900DD06700024012900DAE2
:1033F0000470E048B7F90010E04DB0F90020DE4855
:10340000931E99420BDA90F900201E2A16DA521CFC
:1034100052B202701E2A11DB2A88521E0CE0914221
:103420000BDD90F900201E2A08DA521C52B20270FD
:103430001E2A03DB2A88521C2A800470D048B84612
:10344000B0F90000814201DD142203E0CD4800887C
:10345000093002B20021C94800F0CCFDF02000F094
:1034600092FD28B1C8480168F12901D1406828803F
:10347000B5F90010C548012901DC067000E00470B0
:10348000C348C44FB0F90000A0F13201282905D883
:10349000B8F90010C04D814201DD7FE195E180E186
:1034A000496E766572746F7220233220416C6172AE
:1034B0006D2C20766F6C7461676520697320646F72
:1034C000776E0000496E766572746F722023332028
:1034D000416C61726D2C20766F6C74616765206938
:1034E0007320646F776E0000496E766572746F7238
:1034F00020233420416C61726D2C20766F6C7461D6
:10350000676520697320646F776E0000496E766589
:1035100072746F7220233120416C61726D2C206FA8
:103520007574707574206973206F66666564000039
:10353000496E766572746F7220233220416C61721D
:103540006D2C206F7574707574206973206F6666BA
:1035500065640000496E766572746F7220233320B3
:10356000416C61726D2C206F757470757420697375
:10357000206F666665640000496E766572746F72CE
:1035800020233420416C61726D2C206F757470752E
:1035900074206973206F666665640000496E766505
:1035A00072746F72202331206973206E6F726D0008
:1035B000496E766572746F72202332206973206EB3
:1035C0006F726D00496E766572746F7220233320BE
:1035D0006973206E6F726D00496E766572746F72DA
:1035E000202334206973206E6F726D00180F08203D
:1035F000806000102C0F0820ACC007204176746F4B
:103600006D6174202331206973204F46460000000D
:103610004176746F6D6174202332206973204F46A8
:10362000460000004176746F6D6174202333206979
:1036300073204F46460000004176746F6D61742020
:103640002334206973204F46460000004176746F92
:103650006D6174202335206973204F4646000000B9
:103660004176746F6D6174202336206973204F4654
:10367000460000004176746F6D6174202337206925
:1036800073204F46460000004176746F6D617420D0
:103690002338206973204F46460000004176746F3E
:1036A0006D6174202339206973204F464600000065
:1036B0004176746F6D6174202331206973204F4E01
:1036C000200000004176746F6D6174202332206900
:1036D00073204F4E200000004176746F6D6174209E
:1036E0002333206973204F4E200000004176746F11
:1036F0006D6174202334206973204F4E2000000038
:103700004176746F6D6174202335206973204F4EAC
:10371000200000004176746F6D61742023362069AB
:1037200073204F4E200000004176746F6D6174204D
:103730002337206973204F4E200000004176746FBC
:103740006D6174202338206973204F4E20000000E3
:103750004176746F6D6174202339206973204F4E58
:103760002000000038C1072076C00720BAC3072018
:1037700046C3072078C0072044C3072046C107205E
:103780007AC0072040C1072018C00720930000100E
:1037900080C0072045C30720FC0000102888401C7B
:1037A0002880FF48B0F90000814202DA2888401ED4
:1037B000288006220021FB4800F01CFCB5F900001F
:1037C000052800DD3E70012800DA3C70F648F74F0E
:1037D000B0F90000A0F132011E291BD8B8F9001081
:1037E000F34D814202DD2888401C2880F148B0F961
:1037F0000000814202DA2888401E2880062200212B
:10380000EB4800F0F7FBB5F90000052800DD3E703D
:10381000012800DA3C70BDE8F081F8B5E64C0021E3
:10382000A0790A2807D2401CC0B2A0710A2802D38E
:10383000A17101202072E079052805D2401CC0B298
:10384000E071052800D1E171BE2000F09CFBDB494E
:1038500028B1DB480268BF2A5BD1406858E0207A73
:1038600088B3D84A1078552805D05078552802D00A
:10387000D54800884CE0D54D00204FF0140C6B4625
:103880006FF01307165C552E0FD023F81070401CF4
:10389000C0B20228F6D3BDF90030BDF90220CC48F1
:1038A000934215DD1A46036013E000EB400606EB79
:1038B000001605EB860696F80CE0BEF1000F03D06B
:1038C00023F810C0E3E724E0768923F81060DEE7F0
:1038D0000260C04B002A02DAB3F9000012E0282A85
:1038E00001DD28220260BC4AB3F900300068B2F959
:1038F0000020D21A02EB820252004243C82092FBFF
:10390000F0F01844A27D022A02D1B448B0F90000B8
:103910000880B1F9000062214143642291FBF2F179
:10392000AF4B19806621484390FBF2F0AD49088007
:10393000F8BD2DE9F05FAD4E0020AB494FF0010A14
:103940008146AB4DB6F9003023E0AA4AAA4C125C7E
:1039500034F91220B2F5FA6F0A560CDA0A2A07DA9D
:10396000521C52B20A540A2A11DB05F800A00EE0DC
:103970000A220A540BE0002A07DB521E52B20A54F4
:10398000002A04DC05F8009001E001F80090401CDA
:10399000C0B29842D9DB0024DFF860B2984FDFF85C
:1039A000648272E0984830F814000028285D01D045
:1039B00078B101E001280CD01BF90410002919DBB3
:1039C000491E49B20BF80410002915DC07F80490D1
:1039D00012E01BF904000A2808DA401C40B20BF878
:1039E00004000A2808DB07F804A005E00A200BF809
:1039F000040001E00BF8049018F80410385D8142CF
:103A00003ED06D4AD18C491CD184012807D014B313
:103A1000012C25D0022C28D0032C2BD030E034B13F
:103A2000012C09D0022C0CD0032C0FD028E001234C
:103A30001A460F2175A021E0012302220F2176A052
:103A40001CE0012303220F2176A017E001230422AA
:103A50000F2177A012E0002301220F2177A00DE0B3
:103A6000002302220F217AA008E0002303220F2165
:103A70007CA003E0002304220F217FA018F032F87D
:103A8000385D08F80400641CE4B2B6F90000844212
:103A900088DB7E48A0F80090297851B1012906D131
:103AA000697801290BD0002901D103210180BDE8EB
:103AB000F09F69780129FAD1A0F800A0F7E7022168
:103AC000F4E77349734A0120087010704870507011
:103AD00070472DE9F05F4348DFF8BCE1DFF8ECC048
:103AE000B0F90070BEF90000334CC0EB0011BCF916
:103AF00002506FF01D0A6FF0950B0026DFF89081E1
:103B0000B4F92A000AEB81020BEB8103BD4204DC0D
:103B1000334FB7F90070BD4205DA824203DD8342BC
:103B200001DA88F800605D4DE146BCF908C0B5F9DE
:103B30000050584FBCEB450F03DC6D42BCEB450F0A
:103B400004DA824202DD834200DA3E706FF009023D
:103B500002EB81017546814220D1A07DF0B998F831
:103B6000000001281AD13878012817D14FF4D670F7
:103B700019F0D2FC4A49B1F9001088420ED04948E8
:103B8000008858B199F83D00C00707D14FF4D670AE
:103B900019F06CFC44480178491C0170484685E0E6
:103BA00082C00720FC0000107CC007209400001099
:103BB000BCC307207EC0072000000010ACC3072054
:103BC00018C00720B8C00720B8000010383C00100B
:103BD000EC000010AE0000105EC3072064C3072095
:103BE000AEC30720EA000010A3C30720AAC0072025
:103BF00051C107205B540200883B0010E400001014
:103C000055C10720A7C30720F8C10720534B202325
:103C10003120416C61726D00534B20233220416C86
:103C200061726D00534B20233320416C61726D0033
:103C3000534B20233420416C61726D00534B202381
:103C40003120416C61726D206973206F66660000DF
:103C5000534B20233220416C61726D206973206FB9
:103C600066660000534B20233320416C61726D2047
:103C70006973206F66660000534B20233420416C2B
:103C800061726D206973206F66660000E8000010A5
:103C9000F0000010B0C30720BA000010B4000010FC
:103CA00078C10720A4C00720F20000107D49B9F9AF
:103CB0000220B1F900108A4206DC7B49B0F94E209F
:103CC000B1F900108A420FDAB5F90010B4F92A20D0
:103CD000C1EB01110AEB8103934205DD0BEB81017E
:103CE000914201DA88F801607049B9F95400B1F9DC
:103CF0000010B0EB410F03DC4942B0EB410F0EDA8C
:103D0000B5F90000B4F92A10C0EB00100AEB8002EC
:103D10008A4204DD0BEB8000884200DA7E70B5F940
:103D20000000C0EB00116FF0090000EB8100B4F956
:103D30002A10884222D1A07D00BB98F801000128FA
:103D40001CD17878012819D14FF4E576304619F066
:103D5000E3FB02465648B0F902108A420ED055489D
:103D6000008802280AD199F88900C00706D1304698
:103D700019F07CFB50480178491C0170B5F900002E
:103D80006FF00101C0EB001001EB8000B4F92A10C4
:103D9000884202D1BDE8F05F93E688E62DE9F04F56
:103DA0004648DFF81C8148490378464898F90020C6
:103DB000B1F90010B0F900004FF0000E4FF0010B08
:103DC00023B1022B23D0012B31D01EE03F4E404BBC
:103DD00034787778B3F90A5093F80CC0B3F9566089
:103DE00093F8583022B1012A11D1552C16D110E088
:103DF000552C04D1854208DCBCF1000F05D1552FAC
:103E000005D1864201DC002B01D088F800B0BDE866
:103E1000F08F8D42FBDABCF1000FF8D1552F03D1A2
:103E20008E42F4DA002BF2D188F800E0EFE72A4C5A
:103E3000284BB4F90050B4F90260AA46274DB3F9F3
:103E40000030B4F90440D5E900C7AD68B9468BB17C
:103E50008245DADCBCF1000FD7D1012B04DD8642AC
:103E6000D3DCB9F1000FD0D1022B03DD8442CCDCCE
:103E7000002DCAD1012ACAD1002BD5D08A45C6DA75
:103E8000BCF1000FC3D1022B04DB8E42BFDAB9F1C3
:103E9000000FBCD1032BC7DB8C42B8DA002DC3D096
:103EA000B5E70000EA000010AEC30720B400001020
:103EB00078C10720A4C00720F2000010C400001041
:103EC0000000001070C30720C2000010B8C0072017
:103ED000383C0010A8C00720DAC107200860001095
:103EE00070B5374A0020A2F11401064601F10A0319
:103EF0000C5C54B11D5CAC4207D1145C2CB1641E47
:103F000014F0FF04145400D10E540C5C1C54401CDB
:103F1000C0B20A28ECD370BD70B5294D0024143D01
:103F2000641CE4B22E5D1EB1864201D00A2CF7D388
:103F3000285523480C3040F82410283040F824201D
:103F40003438035570BD1E4A0021143A491CC9B2C9
:103F5000535C834201D00A29F8D3DBB2834210D1EB
:103F600017480C3050F8213016480360144B343396
:103F700053F82130436000205054114A505401201E
:103F80007047002070470E4A0021143A491CC9B2FC
:103F9000535C834201D00A29F8D3DAB282420CD1B1
:103FA00007480C3050F8212006480260044A343299
:103FB00052F8211041600120704700207047000036
:103FC000DC3B001018C0072090F900308B4200DA6B
:103FD000027090F90030934200DD0170704790F953
:103FE00000308B4200DA017090F90010914200DD40
:103FF00002707047B0F900308B4200DA0180B0F9EE
:104000000010914200DD02807047B0F900308B4211
:1040100000DA0280B0F90030934200DD0180704781
:1040200003688B4201DB194600E00160914200DD2C
:104030000260704703688B4200DA026003689342B3
:1040400000DD01607047000070B5FF480278FF484E
:10405000016812B141F0010101E021F001010160AC
:104060000021FB4C5FF0010301EB410202EB011266
:1040700004EB820292F83D20D20706D04D1C03FAD1
:1040800005F205689543154304E04A1C056803FAE8
:1040900002F29543491CC9B205600229E4D32946BE
:1040A000EA4D00221435AC5C34B102F10F0603FA7C
:1040B00006F4A143214304E002F10F0403FA04F4DF
:1040C000A143521CD2B2062AEDD3E24D0022016078
:1040D000AC5C012C2FD002F1190403FA04F4A143C3
:1040E000521CD2B2042AF3D30160836821EA03028E
:1040F000C26044681443D84A4460158815B124F05E
:104100000074446054881CB1446824F080644460A6
:1041100094881CB1446824F000644460D2881AB1C9
:10412000426822F0805242608B43DA43CB4B0261FB
:104130001B883BB109E002F1190603FA06F4A1431A
:104140002143CDE762F001020261036942681A402F
:10415000C0E9012170BDF8B54FF46065284619F03B
:10416000DBF9401C04463F2800D9002421B2284630
:1041700019F07CF940F60266304619F0CDF93F2877
:1041800000D0204601B2304619F070F9284619F0E7
:10419000C3F94FF4806101EB401555208DF8000004
:1041A00000248DF8014052208DF802008DF8034064
:1041B0006946284619F087FB6946281D009419F0C6
:1041C00082FBA74E308B8DF80000307D8DF801000A
:1041D000307A8DF802008DF80340694605F1080039
:1041E00019F071FB30798DF8000030789D4E8DF814
:1041F000010030688DF802008DF80340694605F132
:104200000C0019F060FB41248DF800408DF801404E
:104210008DF802408DF80340694605F1100019F051
:1042200052FB8DF800408DF801408DF802408DF86A
:104230000340694605F1140019F045FB8DF8004074
:104240008DF801408DF802408DF80340694605F174
:10425000180019F038FB8DF800408DF801408DF8FA
:1042600002408DF80340694605F11C0019F02BFB54
:10427000FF203060F8BDF8B54FF46065284619F0AE
:104280004BF9401C04463F2800D9002421B228469F
:1042900019F0ECF840F60266304619F03DF93F2877
:1042A00000D0204601B2304619F0E0F8284619F057
:1042B00033F94FF4806101EB4010054657208DF82B
:1042C000000000268DF801604E208DF802008DF868
:1042D00003606946284619F0F6FA6946281D0096DB
:1042E00019F0F1FA604CA08B8DF80000207E8DF85B
:1042F0000100207B8DF802008DF80360694605F10E
:10430000080019F0E0FA207A8DF8000020798DF885
:10431000010020788DF802008DF80360694605F1F0
:104320000C0019F0D0FA41248DF800408DF80140BE
:104330008DF802408DF80340694605F1100019F030
:10434000C2FA8DF800408DF801408DF802408DF8DA
:104350000340694605F1140019F0B5FA8DF80040E4
:104360008DF801408DF802408DF80340694605F153
:10437000180019F0A8FA8DF800408DF801408DF86A
:1043800002408DF80340694605F11C0019F09BFAC4
:10439000F8BDF8B54FF46065284619F0BDF8401C2B
:1043A00004463F2800D9002421B2284619F05EF8BF
:1043B00040F60266304619F0AFF83F2800D020469C
:1043C00001B2304619F052F8284619F0A5F84FF41A
:1043D000806101EB4010054657208DF80000002653
:1043E0008DF8016049208DF802008DF80360694660
:1043F000284619F068FA6946281D009619F063FAF4
:10440000194CA08B8DF80000207E8DF80100207BD8
:104410008DF802008DF80360694605F1080019F077
:1044200052FA207A8DF8000020798DF8010020786A
:104430008DF802008DF80360694605F10C0019F053
:1044400042FA412412E00000A2C3072078000010C5
:10445000383C001055C1072008C2072070C0072053
:104460002440024080C10F40204002408DF80040AF
:104470008DF801408DF802408DF80340694605F142
:10448000100019F020FA8DF800408DF801408DF8E9
:1044900002408DF80340694605F1140019F013FA43
:1044A0008DF800408DF801408DF802408DF80340F2
:1044B000694605F1180019F006FA8DF800408DF8EC
:1044C00001408DF802408DF80340694605F11C005B
:1044D00019F0F9F9F8BDF8B54FF46065284619F000
:1044E0001BF8401C04463F2800D9002421B228466E
:1044F00018F0BCFF40F60266304619F00DF83F2870
:1045000000D0204601B2304618F0B0FF284619F01E
:1045100003F84FF4806101EB4010054654208DF8FC
:10452000000000268DF801604E208DF802008DF805
:1045300003606946284619F0C6F96946281D0096A9
:1045400019F0C1F9FF4CA08B8DF80000207E8DF88A
:104550000100207B8DF802008DF80360694605F1AB
:10456000080019F0B0F9207A8DF8000020798DF854
:10457000010020788DF802008DF80360694605F18E
:104580000C0019F0A0F941248DF800408DF801408D
:104590008DF802408DF80340694605F1100019F0CE
:1045A00092F98DF800408DF801408DF802408DF8A9
:1045B0000340694605F1140019F085F98DF80040B3
:1045C0008DF801408DF802408DF80340694605F1F1
:1045D000180019F078F98DF800408DF801408DF839
:1045E00002408DF80340694605F11C0019F06BF993
:1045F000F8BDF8B54FF46065284618F08DFF401CF3
:1046000004463F2800D9002421B2284618F02EFF86
:1046100040F60266304618F07FFF3F2800D0204663
:1046200001B2304618F022FF284618F075FF4FF40B
:10463000806101EB4010054654208DF800000026F3
:104640008DF8016049208DF802008DF803606946FD
:10465000284619F038F96946281D009619F033F9F3
:10466000B84CA08B8DF80000207E8DF80100207BD7
:104670008DF802008DF80360694605F1080019F015
:1046800022F9207A8DF8000020798DF80100207839
:104690008DF802008DF80360694605F10C0019F0F1
:1046A00012F941248DF800408DF801408DF8024048
:1046B0008DF80340694605F1100019F004F98DF8F2
:1046C00000408DF801408DF802408DF803406946A6
:1046D00005F1140019F0F7F88DF800408DF801404D
:1046E0008DF802408DF80340694605F1180019F075
:1046F000EAF88DF800408DF801408DF802408DF801
:104700000340694605F11C0019F0DDF8F8BD2DE9FC
:10471000F8438C4D8C4A203D00262F154FF46061E4
:10472000012802D000287DD031E101201070884698
:10473000084618F0F1FE401C04463F2800D900242A
:1047400021B2404618F092FE40F60269484618F041
:10475000E3FE3F2800D0204601B2484618F086FE0E
:10476000404618F0D9FE07EB401750208DF80000A6
:104770008DF8016041248DF802408DF80360694690
:10478000384619F0A0F86946381D009619F09BF8D4
:1047900005F12005A88B8DF80000287E8DF801001A
:1047A000287B8DF802008DF80360694607F1080048
:1047B00019F089F8287A8DF8000028798DF8010021
:1047C00028788DF802008DF80360694607F10C0027
:1047D00019F079F88DF800408DF801408DF802400D
:1047E0008DF80340694607F1100019F06CF88DF858
:1047F00000408DF801408DF802408DF80340694675
:1048000007F1140019F05FF88DF800408DF80140B1
:104810008DF802408DF80340694607F1180019F041
:1048200052F800E011E08DF800408DF801408DF85D
:1048300002408DF80340694607F11C0019F043F867
:1048400000230122022141A09FE045481670B04696
:10485000026822F001020260424A12881AB14268DC
:1048600022F001024260084618F056FE0646344621
:104870004FEA070909EB44176946384618F025FF47
:104880009DF80000502822D19DF80100F8B99DF84C
:10489000020041281BD105E0641E00E03F24B44221
:1048A000E8D174E0694607F1100018F00EFF9DF89A
:1048B000000041280BD19DF80100412807D19DF847
:1048C0000200412803D19DF80300412802D0002CAA
:1048D000E4D0E1E705F12005A88B8DF80000287EE3
:1048E0008DF80100287B8DF8020044468DF8038086
:1048F000694607F1100018F0E6FF287A8DF80000ED
:1049000028798DF8010028788DF802008DF8034091
:10491000694607F1140018F0D6FF134842240178C5
:104920008DF8001040788DF801008DF802408DF868
:104930000340694607F1180018F0C5FF8DF80040E4
:1049400014E0000020400240A2C307204D61696EC0
:1049500020706F776572206973206F6666000000B3
:104960007800001070C00720E20000108DF80140B0
:104970008DF802408DF80340694607F11C0018F0DD
:10498000A2FF01231A460221FFA017F0ABF800BFD7
:10499000BDE8F8832DE9F84F4F2581461C464F2985
:1049A00012D06F290FD0432908D054290BD04929A0
:1049B00009D04C2907D0532905D005E00D46F74909
:1049C0000F20088000E00D46DFF8D4A34FF46060AC
:1049D0004FF4806B012A13D0002A7DD118F09CFD82
:1049E00084B2A0465FF000070BEB441086B2694624
:1049F000304618F06AFE9DF8000049286DD17BE032
:104A0000074618F089FD401C86B23F2E00D90026CB
:104A100031B2384618F02AFD40F60268404618F0D8
:104A20007BFD80B23F2800D0304601B2404618F0EE
:104A30001DFD384618F070FD0BEB401086B2492082
:104A40008DF800008DF801908DF8025000258DF84A
:104A500003506946304618F036FF8DF800402012AA
:104A60008DF801008DF802508DF803506946301D15
:104A700018F029FFBAF83C000AF120048DF8000074
:104A8000207E8DF80100207B8DF802008DF8035008
:104A9000694606F1080018F016FF207A8DF800002C
:104AA00020798DF8010020788DF802008DF80350F0
:104AB000694606F10C0018F006FF41248DF800400D
:104AC0008DF801408DF802408DF80340694606F1EB
:104AD000100018F0F8FE01E06DE07AE08DF800407B
:104AE0008DF801408DF802408DF80340694606F1CB
:104AF000140018F0E8FE44E09DF80110494568D123
:104B00009DF80200A84264D1694606F1100018F031
:104B1000DCFD9DF8000041285BD14EE0641EA4B28C
:104B200000E03F24444546D07F1CFFB23F2FFFF4F6
:104B30005BAF002E3FD0BAF83C000AF120048DF89C
:104B40000000207E8DF80100207B8DF802004FF0E0
:104B500000058DF80350694606F1100018F0B3FE09
:104B6000207A8DF8000020798DF8010020788DF8EA
:104B700002008DF80350694606F1140018F0A3FEF8
:104B800042248DF800408DF801408DF802408DF8E8
:104B90000340694606F1180018F095FE8DF80040B4
:104BA0008DF801408DF802408DF80340694606F10A
:104BB0001C0018F088FEBDE8F88F9DF80100412820
:104BC00007D19DF80200412803D19DF80300412838
:104BD000AAD0002CA5D0A1E72DE9F84F0E4655210B
:104BE000DFF8BCB188464FF000094FF460674FF41E
:104BF0008065012814D000287ED1384618F08CFC3E
:104C000087B23C460026AA460AEB441085B26946A4
:104C1000284618F05AFD9DF8000044286DD17BE02D
:104C2000384618F079FC401C84B23F2C00D900248F
:104C300021B2384618F01AFC40F6026A504618F0C5
:104C40006BFC80B23F2800D0204601B2504618F0DD
:104C50000DFC384618F060FC05EB401085B244208E
:104C60008DF800008DF801908DF802804C468DF88B
:104C700003906946284618F026FE8DF80060301231
:104C80008DF801008DF802408DF803406946281D1B
:104C900018F019FEBBF83C000BF120068DF800005F
:104CA000307E8DF80100307B8DF802008DF80340D6
:104CB000694605F1080018F006FE307A8DF800000C
:104CC00030798DF8010030788DF802008DF80340BE
:104CD000694605F10C0018F0F6FD41248DF80040FE
:104CE0008DF801408DF802408DF80340694605F1CA
:104CF000100018F0E8FD01E07BE044E08DF8004092
:104D00008DF801408DF802408DF80340694605F1A9
:104D1000140018F0D8FD52E09DF8010098BB9DF8F2
:104D20000210414572D1694605F1100018F0CDFC22
:104D30009DF80000412869D15CE0641EA4B200E047
:104D40003F24BC4255D0761CF6B23F2EFFF45CAF38
:104D5000002D4ED0BBF83C000BF120048DF8000074
:104D6000207E8DF80100207B8DF802004E468DF8E4
:104D70000390694605F1100018F0A5FD207A8DF822
:104D8000000020790EE041E04D61696E20706F7780
:104D90006572206973206F6E000000006EC00720EE
:104DA000004002408DF8010020788DF802008DF857
:104DB0000360694605F1140018F085FD42248DF862
:104DC00000408DF801408DF802408DF8034069469F
:104DD00005F1180018F077FD8DF800408DF80140BE
:104DE0008DF802408DF80340694605F11C0018F06B
:104DF0006AFDE0E69DF80100412807D19DF8020018
:104E0000412803D19DF8030041289CD0002C97D065
:104E100093E72DE9F84F0E465521DFF830A491466F
:104E200088464FF460654FF4806B012814D0002849
:104E30007ED1284618F070FB87B23C465FF0000632
:104E40000BEB441085B26946284618F03EFC9DF8ED
:104E500000004F286DD17BE0284618F05DFB401C18
:104E600084B23F2C00D9002421B2284618F0FEFA63
:104E700040F60267384618F04FFB80B23F2800D05A
:104E8000204601B2384618F0F1FA284618F044FBE3
:104E90000BEB401085B24F208DF800008DF801908B
:104EA0008DF8028000248DF803406946284618F0EA
:104EB0000AFD8DF8006030128DF801008DF8024077
:104EC0008DF803406946281D18F0FDFCBAF83C0037
:104ED0000AF120068DF80000307E8DF80100307B4D
:104EE0008DF802008DF80340694605F1080018F0BE
:104EF000EAFC307A8DF8000030798DF801003078C6
:104F00008DF802008DF80340694605F10C0018F099
:104F1000DAFC41248DF800408DF801408DF8024004
:104F20008DF80340694605F1100018F0CCFC01E053
:104F30006DE079E08DF800408DF801408DF8024079
:104F40008DF80340694605F1140018F0BCFC44E0FC
:104F50009DF80110494567D19DF80210414563D184
:104F6000694605F1100018F0B0FB9DF800004128DB
:104F70005AD14DE0641EA4B200E03F24BC4246D0AA
:104F8000761CF6B23F2EFFF45BAF002D3FD0BAF88F
:104F90003C000AF120048DF80000207E8DF801000D
:104FA000207B8DF802004FF000068DF80360694603
:104FB00005F1100018F087FC207A8DF800002079A8
:104FC0008DF8010020788DF802008DF803606946A5
:104FD00005F1140018F077FC42248DF800408DF89C
:104FE00001408DF802408DF80340694605F1180034
:104FF00018F069FC8DF800408DF801408DF80240F2
:105000008DF80340694605F11C0018F05CFCD2E500
:105010009DF80100412807D19DF80200412803D1E5
:105020009DF803004128ABD0002CA6D0A2E72DE9C3
:10503000F84F4F2581461F464F2906D0492903D0F6
:105040004E2901D0542900D10D464FF0000A4FF4EB
:1050500060604FF4806B012A12D0002A7ED118F0D4
:105060005BFA84B2A04600270BEB441086B2694677
:10507000304618F02AFB9DF8000042286FD179E0F5
:10508000064618F049FA401C84B23F2C00D900248F
:1050900021B2304618F0EAF940F60268404618F0AE
:1050A0003BFA80B23F2800D0204601B2404618F0BB
:1050B000DDF9304618F030FA0BEB401086B2422092
:1050C0008DF800008DF801908DF8025054468DF84F
:1050D00003A06946304618F0F6FB8DF800703812D0
:1050E0008DF801008DF802408DF803406946301DAF
:1050F00018F0E9FB564DA88B8DF80000287E8DF83E
:105100000100287B8DF802008DF80340694606F106
:10511000080018F0D8FB287A8DF8000028798DF85F
:10512000010028788DF802008DF80340694606F1E9
:105130000C0018F0C8FB41248DF800408DF80140A8
:105140008DF802408DF80340694606F1100018F012
:10515000BAFB8DF800408DF8014001E066E072E096
:105160008DF802408DF80340694606F1140018F0EE
:10517000AAFB41E09DF80110494564D19DF8020069
:10518000A84260D1694606F1100018F09EFA9DF819
:105190000000412857D14AE0641EA4B200E03F2439
:1051A000444543D07F1CFFB23F2FFFF45DAF002E7C
:1051B0003CD0274CA08B8DF80000207E8DF801009C
:1051C000207B8DF8020055468DF803A0694606F154
:1051D000100018F078FB207A8DF8000020798DF807
:1051E000010020788DF802008DF80350694606F121
:1051F000140018F068FB42248DF800408DF801403F
:105200008DF802408DF80340694606F1180018F049
:105210005AFB8DF800408DF801408DF802408DF862
:105220000340694606F11C0018F04DFBC3E49DF8ED
:105230000100412807D19DF80200412803D19DF8C3
:1052400003004128AED0002CA9D0A5E700400240C1
:10525000204002401120FB4908727047002801DA03
:10526000404200B2704710B54FF4347018F054F952
:10527000F54C207040F2D22018F04EF960704FF4D7
:10528000357018F049F9A07040F2D62018F044F9B2
:10529000E0704FF4367018F03FF9207240F2DA20D7
:1052A00018F03AF960724FF4377018F035F9A072BF
:1052B00040F2DE2018F030F9E0724FF4437018F03D
:1052C0002BF9207140F20E3018F026F960714FF47E
:1052D000447018F021F9A07140F2123018F01CF956
:1052E000E07110BDD94810B5016821F0E06101609E
:1052F0004168D84AC1F30B13D54C117824F811300A
:10530000491CC9B21170032903D2016841F08071B0
:10531000016010BD2DE9F0470746DDE90A090E4698
:10532000DDE9085A01B214469846982018F09EF814
:1053300000219A2018F09AF80121CA2018F096F856
:105340003C21C22018F092F839B2782018F08EF87B
:1053500004EBD470401001B2C82018F087F831B2C5
:105360007A2018F083F821B27C2018F07FF84621CB
:10537000C62018F07BF850217E2018F077F80FFA3D
:1053800088F1822018F072F8BB21842018F06EF8A2
:105390000021862018F06AF80A21882018F066F8A3
:1053A0000FFA89F1DE2018F061F829B28C2018F08C
:1053B0005DF8E8000A2190FBF1F001B28E2018F0B0
:1053C00055F80121A02018F051F80121A22018F071
:1053D0004DF80121A42018F049F8A021922018F0DE
:1053E00045F80FFA8AF1942018F040F8032196202E
:1053F00018F03CF83221CC2018F038F82821CE20C3
:1054000018F034F85521BC2018F030F81E21BE20C9
:1054100018F02CF80121802018F028F84621D0201F
:1054200018F024F83C21D42018F020F81921D220BB
:1054300018F01CF85021D62018F018F84621D82072
:1054400018F014F85B21DA2018F010F85021DC2055
:1054500018F00CF8804C0021B4F9000018F006F8A0
:105460007E4D0021B5F9000018F000F87C4E4FF099
:10547000FF373946B6F9000017F0F8FFB4F902001B
:10548000002117F0F3FFB5F90200002117F0EEFF3D
:10549000B6F90200394617F0E9FFB4F9040000211B
:1054A00017F0E4FFB5F90400002117F0DFFFB6F9AB
:1054B0000400394617F0DAFFB4F90600002117F0AE
:1054C000D5FFB5F90600002117F0D0FFB6F90600A8
:1054D000394617F0CBFF0A214FF4197017F0C6FFB9
:1054E000BDE8F0470B214FF4187017F0BFBF2DE94E
:1054F000FF4700210723182809D064224FF41674AF
:10550000302810D03C2819D0DC2823D04FE0F024DC
:105510009622CDE90024CDE9023102461623114638
:105520004FF4967013E04FF4F075CDE90025CDE906
:10553000023102462C231146204608E0CDE9002422
:10554000CDE9023102463723114640F2EE20FFF743
:10555000E1FE2CE040F6980440F62A110220CDE945
:105560000024CDE90201BB2340F60B1240F63E11A8
:1055700040F69210FFF7CEFE40F2BD11C82017F0A2
:1055800075FF2146C42017F071FF1421922017F0F7
:105590006DFF45F211614FF49E7017F067FF012116
:1055A000CA2017F063FFAA21BC2017F05FFF2D4D22
:1055B000AA21B5F9000017F059FF2B4C21782B4E8A
:1055C000B6F9000017F052FF217B294FB7F9000010
:1055D00017F04CFFB4F91010DFF898A0BAF90000EA
:1055E00017F044FFDFF890800021B8F9000017F0B1
:1055F0003DFFDFF888900021B9F9000017F036FF71
:10560000B5F90200AA2117F031FF2178B6F902009E
:1056100017F02CFF217BB7F9020017F027FFB4F930
:105620001010BAF9020017F021FFB8F902000021AA
:1056300017F01CFFB9F9020004B00021BDE8F047E3
:1056400017F014BF004002408C3E08200040034089
:105650003E00001001000010B8540200C0540200C7
:10566000D0540200705402002C40024074540200D6
:10567000785402006C540200685402007C5402000A
:10568000FF4910B5B1F92A00642801DA401C4885A9
:10569000488D022809D1082017F03EFF401C01B2B6
:1056A000BDE81040082017F0E1BE10BD70B506201F
:1056B00017F032FF002804DB062017F02DFF022828
:1056C00003DD0021062017F0D1FEEE49EE4C012546
:1056D0000878401CC0B208700A2805D3EB4800685F
:1056E000C00701D1E07828B1E948B0F9000078B1ED
:1056F00001280DD0062017F00FFF022808DA062037
:1057000017F00AFF401C01B2062017F0AFFEE5704B
:10571000B4F93C00B0F5616F07D3062017F0FCFE2A
:1057200018B10021062017F0A1FEDA4881687F2217
:10573000B2EB116F00D1E5708068C0F307407F289D
:1057400000D1E57070BD7FB5CD4D803DA5F154040D
:10575000E8881C30C0B220722178491CC9B204F814
:105760002C19814221D9B4F84E00F0B104F138046B
:10577000002004F80C0CA08FE18FA28E638FC0B2C2
:10578000C9B2D2B2DBB2CDE90210CDE90032E08E6F
:10579000A0F13200C3B2208FC2B2608EA4F13804EF
:1057A000C1B24FF0F1001AF0B6FD94F82C001428A5
:1057B00016D3B5F906101431884211DAC0EB001186
:1057C00001EB4012B44901EB8201A1F5805191F83F
:1057D00067213C2A01D2521C00E03C2281F867215B
:1057E000298A002915D0142813D1AC48817D3C2981
:1057F00001D2491C817590F832103C2902D2491C13
:1058000080F8321090F84E103C2902D2491C80F8E2
:105810004E107FBD9A4900202E3108704870887064
:105820004631487070472DE9F04F00209B4A85B003
:105830004FF4F471044660321454401C00B28842A4
:10584000FADB914EB07858B906F18008B8F9040037
:10585000A8B1012804D106F19800007855280ED08F
:1058600000214FF0140C7A2301FB03F001EB8103BC
:105870009B0001EB81041BB20CEB8404BBE1834869
:10588000DFF81CB24FF0320A00684FF00307C00780
:1058900017D0707FA8B18348CDE90204CDE900A7F5
:1058A0000321554618233222084614F036FFCDE96D
:1058B00002B4CDE90057032118233222084614F020
:1058C0002CFFB8F8040001254FF00A0900282CD05D
:1058D00000941423232200213220019414F061FE4D
:1058E00000940223032214213520019414F059FE60
:1058F00000940223032214214F20019414F051FE3E
:10590000DFF89481A8F1980898F83D00C0070DD001
:10591000707F0028DBD0CDE902B4CDE900A71823C1
:10592000322200212B2014F0F8FE95E00B230022F8
:1059300014214220009414F019FC002322221F217C
:105940004220009414F012FCB8F90800002805DA8F
:10595000307A042300221330C1B205E0307A0423E8
:10596000C0F12200C1B20222422014F057FEF07AA8
:105970000F285CD242485830B0F90000A0F5AA4187
:10598000553969D0B8F91000052190FBF1F0ADF858
:1059900010001422002104A8FEF72CFBCDE90054CE
:1059A000BDF9103020220021332014F0FAFDB8F8A0
:1059B000101002200A2911D2CDE9005009230C222F
:1059C00005213D2014F0EDFDB8F9100002238DE80B
:1059D0003100052134A23D20039513E0C24664291D
:1059E00013D28046CDE900580923122205213A201E
:1059F00014F0D7FDBAF9101003958DE812010323B6
:105A00002AA220E014F0B5FE26E0CDE900500923DB
:105A100018220521372014F0C4FDBAF910000395AF
:105A20008DE891000423052121A23720EAE7B8F987
:105A300008101E2891FBF9F000B28DE8A100039533
:105A400004D204231CA205213A20DBE705231CA273
:105A50001946352014F030FF00940E231B22042138
:105A60005C20019414F09DFD00231A1F0A215C2084
:105A7000009414F07BFB002304220A21762023E00B
:105A800020C10720BAE4072020C0072078000010BA
:105A90008C60001000400440D03C0010A85B001057
:105AA000015C02006B5B0200202500002020250025
:105AB00020202025000000002020204100000000C0
:105AC000414343C8CC000000009414F04FFB002376
:105AD00027221F214320009414F048FB6FF00D0390
