:020000040000FA
:10000000C07F0010CD010000D1010000D30100002D
:10001000D5010000D7010000D90100000000000058
:10002000000000000000000000000000DB010000F4
:10003000DD01000000000000DF0100002998010040
:10004000E3010000DBCD010007CE0100E301000069
:10005000E301000077FF0100E3010000E30100007D
:10006000E3010000E3010000E3010000E301000000
:10007000E3010000E3010000E3010000E3010000F0
:10008000E3010000E3010000E3010000E3010000E0
:10009000E3010000E3010000514D0000E301000016
:1000A000E30100002BFA0100E3010000E30100007E
:1000B000ED2A0200E3010000E3010000E30100007B
:1000C000E3010000E3010000E301000000F002F89A
:1000D00000F06DF80AA090E8000C82448344AAF175
:1000E0000107DA4501D100F062F8AFF2090EBAE873
:1000F0000F0013F0010F18BFFB1A43F0010318475C
:10010000A47D0200E47D02000A444FF0000C10F8C8
:10011000013B13F0070408BF10F8014B1D1108BF85
:1001200010F8015B641E05D010F8016B641E01F825
:10013000016BF9D113F0080F1EBF10F8014BAD1C75
:100140000C1B09D16D1E58BF01F801CBFAD505E093
:1001500014F8016B01F8016B6D1EF9D59142D6D3ED
:10016000704700000023002400250026103A28BF15
:1001700078C1FBD8520728BF30C148BF0B60704719
:10018000642922F08785732922F0EB8700207047CD
:100190001FB526F02FFE23F0A1F804000020002157
:1001A00026F012FE401C60601FBD10B510BD23F08C
:1001B00070F81146FFF7ECFF19F0F7FB23F0A2F8F7
:1001C00003B4FFF7F2FF03BC23F0A6F8084800478A
:1001D000FEE7FEE7FEE7FEE7FEE7FEE7FEE7FEE7F7
:1001E000FEE7FEE703480449044A054B7047000058
:1001F000CD000000C06F0010C07F0010C07700105D
:10020000C0770010FEE710B524F0D0FC24F05CFDB0
:1002100024F04EFD24F0DCFCAFF30080BDE810407C
:1002200024F018BD10B525F029FB26F099F925F02A
:100230007DFBBDE8104025F0F5BC25F03DBA25F06A
:1002400005B809B10020704723F05ABD002070475F
:100250001E4BDA601870597070471C48C16800293D
:100260000DD0491EC1600AD1194902780A7042783E
:100270004A700A710021C17001714171817170472A
:10028000124A1161907070471048016900290BD023
:10029000491E016108D10E4A817811700021517008
:1002A000C1700171417181717047084908817047BF
:1002B0000648B0F90810002907D0491E09B201818B
:1002C000002902D1084600F002BF70471800001054
:1002D000C801001070B5064600F00CF80468054629
:1002E00030460A22002122F040FF2C6070BD70478A
:1002F0007047704700487047606F0010FFFFFFFFB6
:10030000002801DA404200B270470020F94A20215B
:100310001154401CC0B2C828FAD370470146F54AB0
:100320000020401CC0B2135C8B4201D0C828F8D317
:10033000704710B50021F04C0A2200BFB0FBF2F369
:1003400002FB13006054491CC9B218460529F5D3B5
:1003500010BDF0B5E94B0121202719700521E64AAF
:10036000002601E01C7844B1541814F8015C25B94A
:10037000814202D904F8017C05E0541814F8015DAB
:10038000303525701E70491E11F0FF01EAD1F0BD15
:1003900070B50D461446002802DAC043401C00B276
:1003A000FFF7C7FF601CC0B2FFF7D3FF2846FFF777
:1003B000B5FFFF2819D0D04ACE4B0021A14201D26F
:1003C000555C13E004D14FF02E051D54555C03E03D
:1003D000555C202D03D04CB11E1806F8015C401E60
:1003E000491CC9B2C0B20529E8D370BD1D54F6E757
:1003F000F0B50D461446002801DA404200B2FFF77E
:1004000098FF601CC0B2FFF7A4FF2846FFF786FFE5
:10041000B94AB84B002164B9555C202D09D0561853
:100420007678202E03D12D261F1807F8016C1D5455
:100430000FE0A14201D2555CF9E704D14FF02E053F
:100440001D54555C02E0555C202D02D01E1806F8A4
:10045000015C401E491CC9B2C0B20529DBD3F0BD06
:10046000FEB52B23002802DA404200B22D230025DE
:100470000A266C4690FBF6F706FB170060556D1CCC
:100480006DB238B20A2DF5DB0126002509202027A0
:1004900000E046B114F800C0BCF1000F03D1904257
:1004A00001DD275405E0265C3036265400266D1CFD
:1004B000EDB2401E40B20028EBDA2D2B02D163557D
:1004C0006D1CEDB26AB168B205E0231813F8013C67
:1004D0002354401E40B29042F7DC2E206D1CA054E5
:1004E000EDB20846FFF71AFF0021824A04E0635C80
:1004F000461A491C935549B2A942F8DBFEBDFEB528
:100500002B23002801DA40422D2300250A266C46C1
:10051000074690FBF6F006FB107767556D1C6DB231
:100520000A2DF5DB012600250920202700E046B131
:1005300014F800C0BCF1000F03D1904201DD275434
:1005400005E0265C3036265400266D1CEDB2401EB8
:1005500040B20028EBDA2D2B02D163556D1CEDB2B1
:100560006AB168B205E0231813F8013C2354401E19
:1005700040B29042F7DC2E206D1CA054EDB208462C
:10058000FFF7CCFE00215B4A04E0635C461A491C7D
:10059000935549B2A942F8DBFEBDFEB52B260028D3
:1005A00001DA40422D2600240A276D46844690FB3E
:1005B000F7F007FB10CC05F804C0641C64B20A2CE9
:1005C000F4DB0127002009244FF0200C00E04FB19C
:1005D00015F804E0BEF1000F04D19C4202DD05F8DD
:1005E00004C005E02F5D30372F550027401CC0B2F6
:1005F000641E64B2002CEADA2D2E02D12E54401C67
:10060000C0B26BB144B205E02E1916F8016C2E553C
:10061000641E64B29C42F7DC2E24401CEC54C0B231
:1006200001EB810102EB8101CAB20021314B04E0F0
:100630006C5C561A491C9C5549B28142F8DBFEBDE0
:1006400070B50D4616461C46FFF773FE601CC0B21F
:10065000FFF77FFE05EB850006EB8000C1B2264A5E
:10066000244B0020A04201D2155C5D5406D3155CDA
:10067000202D03D04CB15E1806F8015C491E401CC9
:10068000C0B2C9B20528EDD370BD5D54F6E710B510
:100690000C46FFF743FE17490CB1032200E0042289
:1006A0000A5410BD30B5044608461546FFF736FE1D
:1006B000FF2809D00F4A2178002905D04319641C6E
:1006C000401CD154C0B2F6E730BD70B50D4614469B
:1006D000FFF72FFE601CC0B2FFF73BFE2846FFF776
:1006E0001DFE054B034A002154B95D5C202D07D047
:1006F000155415E040020010BC030010C1030010A7
:10070000A14201D25D5CF3E704D14FF02E051554F0
:100710005D5C02E05D5C202D02D0161806F8015CDD
:10072000401E491CC9B2C0B20529DDD370BD801876
:1007300001D5084402E0884200DB401AC0B270478D
:100740002DE9F04F044685B00D464FF460601DF072
:1007500037F962424021FFF7EAFF400100F580606F
:10076000044602A91DF0A9F9694604F108001DF02C
:10077000A4F901A904F10C001DF09FF92846FFF728
:10078000CDFD9DF808C04022302121232324DFF82D
:10079000E4A3F94D20264FF03A0BBCF1550F32D0AF
:1007A000CF27BCF1500F65D04FF0C00E4FF0E208DC
:1007B000BCF1490F69D0BCF1420F7ED0BCF1440FAF
:1007C0007CD0BCF1530F52D14FF0C10C05F800C0E2
:1007D000401CC0B2A9462F54401CC0B2D1272F5490
:1007E000401C00F0FF0C9DF80900092867D2313049
:1007F00005F80C000CF1010C0CF0FF0009F800608A
:10080000401CC5B261E29DF80A70522F0AD1C2277E
:100810002F54401CC0B2EA272F54401CC0B2EB2713
:100820002F542FE02E54401CC0B22E54EEE12E5413
:10083000401CC0B22954401CC0B22B54401CC0B252
:100840002A54401CC0B22E54401CC0B22E54401C2E
:10085000C0B22954401CC0B22C54ABE19DF8011029
:10086000C648002200EB81004021FFF71BFF05B0C6
:10087000BDE8F08F2F54401CC0B2D1272F54401C2C
:10088000C0B22E54401CC0B2CCE7C8272F54401C25
:10089000C0B2ED272F54401CC0B2A94605F8008015
:1008A000401C00F0FF0C9DF80900092815D23130DA
:1008B00005F80C000CF1010C02E066E090E1E0E1CB
:1008C0000CF0FF0005F800E0401CC0B205F8008005
:1008D000401CC0B209F8006021E0A0F109055A2DC2
:1008E00020D2401C0A27B0FBF7F5CDE903053035CF
:1008F00009F80C50DDE903050CF1010C07FB1500AC
:100900000CF0FF0C303009F80C000CF1010C0CF06D
:10091000FF0009F800E0401CC0B209F80080401C4C
:1009200000F0FF0C484609F80C600CF1010C0CF0CB
:10093000FF05CFE19DF8040000222121FFF7C5FE4D
:100940009DF8050000224021FFF7BFFE9DF806003C
:1009500000222321FFF7B9FE89E746556D1CEDB251
:1009600041556D1CEDB243556D1CEBB2C2545B1C7E
:10097000DAB28654521CD2B28654521CD2B281547E
:10098000521CD1B209F8014014E19DF80A704FF0F1
:1009900041094E2F33D04F2F7ED0492F7DD0542F79
:1009A000DAD1C1272F54401CC0B2E0272F54401C7D
:1009B000C0B24FF0E90C05F800C0401CC0B24FF0C7
:1009C000EF0C05F800C0401CC0B2A8462F54401CD4
:1009D000C0B2F12708F80070401C9DF80950C0B261
:1009E000012D72D0022D71D0032D70D008F8006057
:1009F000401CC5B2404646556D1CEDB22AE005F8D4
:100A000000E0401CC0B2552705F80080401CC0B271
:100A1000AC462F54401CC0B2F1272F54401CC0B22A
:100A2000E5272F54401CC0B2F2272F54401CC0B2FF
:100A3000FC270CF80070401C9DF80950C0B2012D35
:100A40003AD0022D3BD0032D3BD00CF80060401C67
:100A5000C5B26046D04646556D1C9DF80070BAF888
:100A60003CC0EDB267457BD19DF8017098F838C065
:100A7000674575D19DF8027098F82CC067456FD115
:100A800041556D1CEDB243556D1CEBB200F803B03F
:100A90005B1CDBB2C15401E01AE043E05B1CDBB23B
:100AA000C2545B1CDAB200F802B0521CD2B28154BC
:100AB000521CD1B244543DE70CF80090C7E74225E0
:100AC00000E043250CF80050C1E74EE050E057E04D
:100AD00005F800E0401CC0B2552705F80080401C16
:100AE000C0B2AC462F54401CC0B2FB2705F80080B2
:100AF000401CC0B22F54401CC0B2F5270CF8007047
:100B000027E000BF0CF8009008E0022D29D0032D4B
:100B100029D00CF8006001E00CF80050401CC5B270
:100B2000604668E705F800E0401CC0B2552705F8AC
:100B30000080401CC0B2AC462F54401CC0B2E82715
:100B40002F54401CC0B2ED272F54401CC0B20CF8EB
:100B50000080401C9DF80950C0B2012DD5D1D1E7CD
:100B600012E04225D8E74325D6E708F800903FE792
:100B7000422506E0004002404002001010750200CD
:100B8000432508F8005033E746556D1CEDB241553A
:100B90006D1CEDB243556D1CEBB2C2545B1CDAB256
:100BA0008654521CD2B28654521CD2B28154521C6A
:100BB000D1B244549DF8020000222121FFF785FDA7
:100BC0009DF8000000222321FFF77FFD9DF8010022
:100BD000401E0C28FFF442AE01208DF801003DE6D6
:100BE0009DF80A70552F7FF4B7AE05F800E0401C61
:100BF000C0B205F80080401CC0B22F54401CC0B2E7
:100C000064272F54401CC0B263272F54401CC0B22D
:100C1000D0462E54401CC0B22E54401CC0B22E549C
:100C2000401CC0B22E54401C9DF80070BAF83CC065
:100C3000C0B267457FF4FBAD9DF8017098F838C0ED
:100C40006745F7D19DF8027098F82CC06745F1D13F
:100C50002954401CC0B22B54401CC0B205F800B04F
:100C6000401CC0B22954401CC0B22A54401CC0B21F
:100C700005F800B0401CC0B22954401CC0B22C542E
:100C800058E6A0F109055A2D15D2401C0A27B0FBE1
:100C9000F7F5A846303509F80C500CF1010C07FBAC
:100CA00018000CF0FF0C303009F80C000CF1010CAE
:100CB0000CF0FF0509E009F80C600CF1010C0CF0D8
:100CC000FF0509F805606D1CEDB2484609F805609E
:100CD0006D1CEDB2D04646556D1C9DF80070BAF8FB
:100CE0003CC0EDB267457FF438AE9DF8017098F8CE
:100CF00038C06745F7D19DF8027098F82CC0674559
:100D0000F1D141556D1CEDB243556D1CEBB200F8AD
:100D100003B05B1CDBB2C1545B1CDBB2C2545B1C76
:100D2000DAB200F802B0521CD2B28154521CD1B2D5
:100D300009F80140FEE570B50446084615461E4612
:100D4000FFF7ECFAFE4B0146FF2804D106E01A54E7
:100D5000641C401CC0B22278002AF8D1F9480078FF
:100D6000002804D0002E02D029445F20585470BDC2
:100D7000F0B5074614460E460846FFF7CFFA05467B
:100D8000002231463846FFF7BAFB002C08D0ED4868
:100D90000078002804D05F20E94A291B11444870DC
:100DA000F0BD2DE9FF4F8146DDE90D048A469346EB
:100DB000FFF7B4FA2022DFF88C83E1490A234FF0D1
:100DC000640C012C09D198F8005035B10D18A5F12B
:100DD0000E05AA706A702A7020E099FBF3F603FBF7
:100DE00016970D183037A5F10E05022CAF7096FB43
:100DF000F3F703FB176606F130066E7099FBFCF6FD
:100E000006F1300605F80E6B08D198F800602EB197
:100E1000A5F10A05AA706A702A7021E09AFBF3F620
:100E200003FB16A70D183037A5F10A05032CAF7088
:100E300096FBF3F703FB176606F130066E709AFB1C
:100E4000FCF606F13006674605F80A6B08D198F8FB
:100E500000602EB1A5F10605AA706A702A7022E022
:100E60009BFBF3F603FB16B70D183037A5F106050B
:100E7000042CAF7096FBF3F703FB176606F1300600
:100E80006E709BFBFCF606F13006674605F8066BB4
:100E900009D198F8004034B1A5F102050A546A70EE
:100EA0002A70BDE8FF8F039C94FBF3F203FB12440E
:100EB00030340C5492FBF3F403FB14220844A0F1E9
:100EC000020030324270039991FBF7F101F13001D9
:100ED0000170E6E717B501EB810002EB8000C2B2BA
:100EE0009DF80030984803F00F0100EB1313445CA9
:100EF00093498C54521ED2B21B788B549DF801300A
:100F0000521E03F00F04D2B2045D8C54521E00EB4B
:100F10001313D2B21B788B549DF80230521E03F08B
:100F20000F04D2B2045D8C54521E00EB1313D2B2E4
:100F30001B788B549DF80330521E03F00F04D2B27D
:100F4000045D8C54521E00EB1310D2B2007888540A
:100F50001EBD10B504460846FFF7E0F97A4904F0D3
:100F60000F028B5C764A01EB14111354401EC0B281
:100F70000978115410BD01EB810102EB8101724A25
:100F800010B500F00F03C9B2D45C6D4B02EB10102A
:100F90005C54491EC9B20078585410BD01EB810160
:100FA00002EB8101CBB2684910B500F00F028C5CF6
:100FB000634AD45404095B1E04F00F00DBB2085CE2
:100FC000D0545B1ED8B2230903F00F040C5D1454F7
:100FD000401E1B09C0B2C95C115410BD01EB810158
:100FE00002EB8101CBB2584910B500F001028C5CD4
:100FF000534AD45444085B1E04F00100DBB2085C81
:10100000D0545B1ED8B2630803F001045B080C5D8A
:101010001454401E03F00104C0B20C5D14545B086C
:10102000401E03F00104C0B20C5D14545B08401E66
:1010300003F00104C0B20C5D14545B08401E03F0C1
:101040000104C0B20C5D1454401EC4B25808085CC0
:10105000105510BD30B53D490123394D91F901209E
:1010600091F9041000EB80048A4202D105F8243083
:1010700030BD334D4C1C00EB800005EB8000A242DC
:1010800001D1037530BD8C1CA24202D180F82830FA
:1010900030BDCC1CA24202D180F83C3030BD0C1DCA
:1010A000A24202D180F8503030BD4C1DA24202D184
:1010B00080F8643030BD8C1DA24202D180F87830B7
:1010C00030BDC91D8A42FBD180F88C3030BD204B29
:1010D0001A88521E104400B218801E4A00EB80008D
:1010E00002441A481368036012790271427811446D
:1010F00041707047F0B5164D164FB5F9004004EB3E
:101100008406641C2C80114C3E442568356025798A
:101110003571207061702271A370F0BDF0B5054685
:101120000E461746FFF7F1F8054C0020401C15F855
:10113000011BC0B204F8011B1428F7D300200BE0F8
:1011400040020010660000108E750200C8010010F9
:101150008800001018100820401C16F8011BC0B2AF
:1011600004F8011B1428EAD35FF00000401C17F8B4
:10117000011BC0B204F8011B1428F7D35FF0000074
:10118000401C13F8011BC0B204F8011B1428F7D34C
:10119000F0BD10B5029CFFF7C1FF4448C3788278C8
:1011A00041787A20FFF7A6FF642094FBF0F0BDE8B9
:1011B0001040C0B2FFF779B82DE9FE4340010D465B
:1011C00000F58060044602A91CF077FC694604F132
:1011D00008001CF072FC01A904F10C001CF06DFC6D
:1011E0002846FFF79BF8324C202530262554401C1A
:1011F000C0B24FF021082654401CC0B24FF0400C42
:1012000004F80080401CC0B2232104F800C0401C38
:10121000C0B200222554401CC0B22554401CC0B2AC
:101220002654401CC0B22154401CC7B29DF8020095
:101230002121FFF74AFA9DF8000000222321FFF741
:1012400044FA9DF80100401E0C2802D301208DF8BD
:1012500001009DF801001749002201EB80004021A8
:10126000FFF720FAE5557F1CF8B23A212654401CBE
:10127000C0B2002204F80080401CC0B22154401CBF
:10128000C0B221212654401CC0B204F800C0401C4A
:10129000C6B29DF80400FFF718FA9DF80500002279
:1012A0004021FFF712FAA555BDE8FE83C8010010E2
:1012B00040020010107502002DE9FF41FC4C002790
:1012C00005466774A07B0121022805D0F94A525DCA
:1012D000552A04D065200EE06174BDE8FF8105EB5E
:1012E000450202EB0513F44A02EB830696F83D2013
:1012F000D30702D066206074EFE796F83F309B0773
:1013000001D56720F7E7920701D56820F3E7EB4A9C
:10131000B6F90830B2F90020934201DD6920EAE70E
:101320005242934201DA6A20E5E7012804D1E07BCA
:1013300000287ED001287DD064206074A17361856F
:101340004FF4F8701CF06AFCE5732946A5854FF44C
:10135000FA701CF063FCDA48B761002130F915001F
:101360001CF05CFC2774E78539464FF4FB701CF0D9
:1013700055FCD448D44D0088401C00F0070006EB13
:101380004000008CADF80000A88B8DF804004FF0F1
:1013900063024FF0010101A802F01BFCC44C9DF850
:1013A000040040342070287E8DF804000C220121B6
:1013B00001A802F00EFC9DF804006070287B8DF8F7
:1013C00004001F22012101A802F003FC9DF8040083
:1013D000A0709DF80000E0704FF4FC7021681CF0D4
:1013E00060FC287A8DF804001722002101A802F081
:1013F000F0FB9DF80400207128798DF804003B2251
:10140000002101A802F0E5FB9DF804006071287836
:101410008DF804003B22002101A802F0DAFB9DF8C0
:101420000400A0719DF80100E0714FF4FE70616846
:1014300001E003E004E01CF034FC4EE76B205AE7C7
:101440006C2058E77047704770B59F4C203C94F86B
:1014500038009E4D297808440C2803D9A08F401CE1
:1014600001B201E0B4F93C10B8201CF0D7FB94F8AD
:101470003810287801440C2994F8381000D90C3819
:101480000144B6201CF0CAFB94F82C001C2801D99A
:101490001C2101E094F82C10B4201CF0BFFB04F1D7
:1014A0002004217A4FF0AE001CF0B8FB2179B02067
:1014B0001CF0B4FB2178BDE87040B2201CF0AEBB3C
:1014C00083486FF03B010088C0EB001001EB800007
:1014D000774988847047764940F2F96048847047BC
:1014E00070B5734C608C401C00B26084B0F5E16F45
:1014F00002DB0020608470BDB0F5DF6F11D90F23CF
:1015000001226421D22002F001FB0F230022D82106
:10151000D72002F0FBFA0F230022D821DC2002F0B2
:10152000F5FAB4F92200A0F5E0610739E3D1694E7C
:10153000694C6A4D30882188884205D0B4F9001082
:10154000B5F900001CF06AFB708861888842D2D02F
:10155000B4F90210B5F90200BDE870401CF05EBBA2
:1015600010B5584C082200212088401C20802046BD
:1015700002F045FB5048B4F9001000EB41014288ED
:101580000A84B0F84E00A1F86C0010BD2DE9F84FA8
:10159000534F544B4FF4FA64B7F90010B3F90000FD
:1015A000DFF81481484390FBF4F04F4AA8F802009A
:1015B000B7F90810B2F9000048434FF42F7190FBBF
:1015C000F1F0A8F80400B7F91800B3F9023043436A
:1015D00093FBF4F0A8F84E00B7F90230B2F902001C
:1015E000584390FBF1F0A8F85000DC2002F0C5FA57
:1015F000F0BB394BDFF8DC90DFF8F0A01888B9F8C1
:10160000001045F63865401ABAF9001045F69262A6
:10161000414337484FF4967B45F2FA56008845F22D
:10162000136EA84201D0904202D191FBFBF10FE072
:10163000B04206D0704504D0A0F5AC4CBCF1110C02
:1016400002D191FBF4F103E04FF47A7C91FBFCF1C1
:10165000A8F808105988B9F80230CB1ABAF9021064
:101660005943A84201D0904203D191FBFBF00FE017
:1016700010E0B04205D0704503D0A0F5AC42113A5D
:1016800002D191FBF4F003E04FF47A7091FBF0F09B
:10169000A8F85400B7F90C2040F6B731A2F2213374
:1016A000012500208B4225D288F80C0024E00000A0
:1016B00004C00720E6000010A8E5072088030010FA
:1016C000886E020050010010204002406C000010A3
:1016D0008E0300106E03001012350010B06E020071
:1016E0000C62001068C007206CC0072070C0072083
:1016F000E800001088F80C50FF4EB6F90030534354
:1017000044F6206293FBF2F3A3F21113A8F80A3017
:10171000B7F90E30A3F221348C4202D288F8580077
:1017200001E088F85850B6F9024092465C4394FBB9
:10173000FAF2A2F21112A8F85620F04AB2F90030DB
:10174000EF4A33B9EF4CF04E24883480EF4C2488B4
:101750001480B2F90040002C00DA10801BB9EC4A6A
:10176000EC4C12682260B7F90A200E46A2F221342E
:10177000E949A346B44201D2086000E00D60DFF8F9
:101780009CC3B9465746BCF90040DFF894A35443C4
:1017900094FBF7F2A2F2111212B20092AAF8002002
:1017A000B9F91420A2F22134B44201D2486000E019
:1017B0004D60BCF9024040F6B736544394FBF7F253
:1017C000A2F2111212B2AAF802209646B9F9062026
:1017D000A2F22134B44201D2886000E08D60BCF9ED
:1017E0000440DFF84093544394FBF7F2A2F2111245
:1017F000CB4C12B2CC4EA2809246B9F80040B6F95A
:1018000000204FF47A6C624392FBFCF2C74C92B218
:10181000C74F2280642A01D3C64A12883A80B9F899
:101820000220B6F90260DFF81493564396FBFCF2EF
:101830006280C14AB9F90060C14FB2F90040664305
:1018400041F2707496FBF4F63E80B2F902C0B9F929
:10185000026006FB0CF696FBF4F67E80B9F9046094
:10186000B2F904C0DFF8DC9206FB0CF696FBF4F646
:10187000BE80B2F90670B9F900607E4396FBF4F6BB
:10188000B14F3E80B2F908C0B9F9026006FB0CF610
:1018900096FBF4F67E80B2F90A60B9F90420894615
:1018A000724392FBF4F2BA80A84E0EF2111212B2F9
:1018B0000AF21114328024B274800F46496811F084
:1018C000FF013172BF68FFB27772A14E04D00129C7
:1018D0000ED011B10DD020E017B1012F10D01CE0B7
:1018E000111901EBD1716FF4887202EB610113E001
:1018F00017B1012F08D010E0A4F2111434800CE0CD
:10190000A2F21112328008E092490978052902D228
:101910009149098800E014213180904A9049147857
:10192000552C06D1B8F90240C82C02DDB8F80840A1
:101930000C845278552A0AD1B8F94E20C82A06DDFF
:10194000B8F95420B8F90840A24200DD0A84854A5B
:101950001288A2F5AC442F3C03D0283401D0143CAB
:1019600002D1814A12880A8480490022B1F90040DC
:101970002EE000BF7E4902EB820601EB0611CE7815
:10198000192E1CD28E79CF7906EB07264E620E7A7D
:101990004F7A06EB07260E628E7ACF7A06EB072681
:1019A000CE610E7B8E624E7B81F84C608E7B81F81F
:1019B00042600E7C4F7C06EB07268E6406E0C86111
:1019C00048620862886281F842008864521CD2B280
:1019D000A242CFDB674906224A60674AB2F900108B
:1019E00029B1491E09B2118009B9644908806449C6
:1019F000B1F900C0BCF1000F7CD0DFF888E1002114
:101A00008A46AEF800000C4671E000BF584904EB6E
:101A1000840201EB021191F84326052A4FD291F876
:101A2000462691F8476604EB041702EB0626514A56
:101A300002EB8702966091F8487691F8496607EBC9
:101A4000062636B29683002E00DA908301F24A61B0
:101A50000E784F7806EB072656608E78D66091F8A0
:101A6000038082F826800E794F7918F01A0F06EB62
:101A7000072656618E79CF7906EB072616610E7A16
:101A80004F7A06EB072696618E7A82F82760A1F2DC
:101A90004A61907002D082F8285001E082F8280054
:101AA0005FEA486205D591F8551601F5FA71AEF86E
:101AB00000105FEA886118D501218A4615E02D499A
:101AC00004EB041201EB82011922886088834860CC
:101AD000C86081F826000861486188618A7081F8D1
:101AE000280081F83C0081F82700641CE4B26445BA
:101AF0008CDB49E04DE0000072030010DE000010B6
:101B000054010010B0C0072052010010B6030010AD
:101B1000B8030010B4010010940F082076C007200D
:101B20000202001008020010760300100E020010DE
:101B3000700100105A01001068100820D403001032
:101B400014020010C6C007201A020010EE0F082071
:101B5000680100107C00001074010010E600001005
:101B600004C00720E8000010B4030010D0000010EB
:101B700040E6072040FA0720800100107E01001097
:101B8000D20000107C010010BAF1000F01D1AEF8B4
:101B90000000FF49012B03DB8A7D3C2A01D208E0CB
:101BA0003BB90880486048800875487508814881BD
:101BB0000876022B04DB91F832203C2A01D20BE09C
:101BC00053B921F81C0F4860488008754875088192
:101BD00048810876A1F11C01032B04DB91F84E200B
:101BE0003C2A01D209E043B921F8380F4860488007
:101BF00008754875088148810876E649E64AB1F9D2
:101C00000410B2F9002051434FF4FA7291FBF2F143
:101C1000E24A118040F6B732934502D2C9F800007B
:101C200001E0C9F80050DE4900980880BDE8F88F4F
:101C3000DC4ADD481178042901D0012905D1517809
:101C400019B9DA490978552902D0D949098803E038
:101C50000178002901D0491E01707047D5484168BC
:101C600021F4402141F480214160416821F4403158
:101C700041F480314160416821F4404141F48041A8
:101C80004160416C21F4402141F400214164416CE8
:101C900021F4403141F400314164416C21F4404170
:101CA00041F400414164C448016821F0E0610160F1
:101CB000016841F400110160016821F48031016084
:101CC000016821F47F4141F4807101608115C16098
:101CD000BA488903016070472DE9F041B84C60882B
:101CE0002188401A00B202F0EFFFA51D2880A088CD
:101CF0006188401A00B202F0E7FF6880A08821885E
:101D0000401A00B202F0E0FF4FF49672A880A4F1EE
:101D10003401904201DAA0880AE0B5F9020090424D
:101D200001DA608804E0B5F90000904201DA208809
:101D3000888291F802C00023BCF1000F23D095489F
:101D4000B1F9142020300468144404604468144439
:101D50004460846814448460C4682244C2608A8BEE
:101D6000521C12B28A83B2F5805F00DB8B83B1F91B
:101D70001C2094052DD1921250F8224024124C823E
:101D800040F8223025E08F4FC8780C7907EB80159A
:101D9000B1F9142045F82420A2070ED100252A46C7
:101DA00007EB801656F82270521CD2B23D44102A1E
:101DB000F8D32A11774D25F81020401CC0B2C87006
:101DC000102806D3641CE0B2CB700871102800D331
:101DD0000B710CF1010C4B701CF00100764A8870FD
:101DE00005D0106820F0FF00001D106034E0C978B5
:101DF00008070028106820F0FF0002DB00F1010056
:101E000001E000F1020010606F48036843F0805366
:101E10000360036A43F080430362036E43F0806310
:101E20000366CB07436908D043F0805343618B07B7
:101E3000436B05D423F0804304E023F08053F5E79F
:101E400043F0804343634907416F02D421F080612E
:101E500001E041F080614167106840F080701060DF
:101E6000BDE8F0812DE9F041554C60882188401A89
:101E700000B202F029FFA51D2880A0886188401AC1
:101E800000B202F021FF6880A0882188401A00B2C9
:101E900002F01AFF4FF49672A880A4F13401904228
:101EA00001DAA0880AE0B5F90200904201DA608800
:101EB00004E0B5F90000904201DA208888828E782B
:101EC0000020F6B3334A4C7920328CB1B1F914308A
:101ED000156805EBA3051560556805EBA30555606E
:101EE000956805EBA3059560D56805EBA303D36062
:101EF000B1F91430642B0EDA0B8B4FF4FA655B1CCE
:101F00001BB20B83AB4208DB0D8310605060906006
:101F1000D060488271E008836FE0052B6DD1A4B1D9
:101F2000CB8A5B1C1BB2CB82B3F5007F00DBC8827F
:101F3000B1F916305D0608D1DB1152F823502D128D
:101F400000E010E04D8242F82300B1F91A20962AF1
:101F500001DD04B148711F3A272A4ED24A79AABB43
:101F600001224A7149E0174FCA7891F804C007EB83
:101F70008214B1F9143044F82C305FEA8C732ED1FE
:101F80000024234607EB821555F823703C441EE0DD
:101F9000400B08200C620010800300105601001056
:101FA00002020010C80100104A000010ACC0072057
:101FB000F800001000C002400040034000E100E0D3
:101FC00038C007200C5E001000C0092015E05B1C23
:101FD000DBB2102BD8D32311F84C24F81230521C4A
:101FE000D2B2CA70102A08D30CF1010C0CF0FF0217
:101FF000C8700A71102A00D308714870761C16F058
:102000000100EF4A887005D0106820F0FF00001D25
:10201000106032E0C97808070028106820F0FF003F
:1020200001DB401C00E0801C1060E648036843F0C0
:1020300080530360036A43F080430362036E43F0FE
:1020400080630366CB07436908D043F08053436144
:102050008B07436B05D423F0804304E023F08053C7
:10206000F5E743F0804343634907416F02D421F011
:10207000806101E041F080614167106840F080704C
:102080001060EDE62DE9F047CF480168CF4A1140D6
:102090000160CC49086840F47C700860CD4B00209A
:1020A000CB4AB3F9003001E0401CC0B29842FBDBE0
:1020B000C94A0020CD4B1478C84A06464FF0010AA1
:1020C00092F800C0C64A1578C64A92F80080C64AFF
:1020D00012789146C64A16542CB133F81070FF0797
:1020E00001D002F800A0BCF1000F05D033F8107049
:1020F000BF0701D502F800A02DB133F810707F079B
:1021000001D502F800A0B8F1000F05D033F8107027
:102110003F0701D502F800A0B9F1000F05D033F850
:102120001070FF0601D502F800A0401CC0B20228C2
:10213000D1D3AE481378B0F9000013B1012B03D00E
:1021400009E0000402D406E0000404D4C86940F0A9
:102150002000C86103E0886940F020008861A3483E
:102160005278B0F9020012B1012A03D00AE000044B
:1021700002D407E0000405D4C86940F01000C8612B
:10218000BDE8F087886940F010008861F8E72DE924
:10219000F041984C01260025A07A0A2806D2401C5E
:1021A000C0B2A0720A2801D3A572E672E584258523
:1021B000CD2001F0E2FC9049DFF840E2E0B1904828
:1021C0004FF6FF730268CE2A08D0CF2A08D0D12A52
:1021D00008D0D22A09D0D02A09D04DE023854BE07F
:1021E000406807E04068E08446E0E38444E04068FB
:1021F000E084C04320853FE0E07A90B3002210469F
:10220000BEF9003008E000BF00EB800701EB0717C4
:10221000401C87F82C60C0B29842F5DD794E002052
:10222000B6F9006012E000BF00EB800701EB071772
:1022300097F802C0BCF1020F02D0BCF1010F03D12C
:10224000521C87F82C50D2B2401CC0B2984201DA1E
:10225000B242E9DB6C48B0F900003C280CDA0020FF
:1022600008E009E000EB800201EB0212401C82F85A
:102270002C50C0B29842F5DD00206326BEF90070F4
:102280000CE000BF00EB800201EB0212D36B1BB12C
:1022900082F82C605B1ED363401CC0B2B842F1DBF5
:1022A000E572657200204B4D034601460246DFF899
:1022B00020C1B5F9006014E002EB02150CEB8505B6
:1022C00095F82670BF060AD5677A7F1C67726F681B
:1022D0003B44AF68B5F91C50384400B22944521C45
:1022E000D2B2B242E8DB627A002893FBF2F2474BAB
:1022F0001A8000DA0020464A0029108000DA002106
:1023000044480160ACE52DE9F047324E30880028A2
:1023100052D000254FF00108A9462D4FBBE000BF69
:1023200005EB051007EB800494F8260010F0180F59
:1023300094F83C0012D028B394F93D00322821DAF9
:10234000401C40B284F83D0032281BDB94F83E006C
:10235000C0B984F83E80012263680FE090B194F91F
:102360003D0078B1401E40B284F83D0050B994F869
:102370003E0038B1002384F83E901A464F2128468B
:1023800002F08DF894F82600800794F83C0043D5BD
:1023900088B194F93F00322855DA401C40B284F8E5
:1023A0003F0032284FDB94F8400030B984F8408079
:1023B0000122E36840E04FE072E044E00C6200106C
:1023C0000040034000C0092000C00240FF00F0FFB1
:1023D00040FA0720D2000010D0C007207F00001074
:1023E0008000001081000010DE0300108E0100103C
:1023F000CEC0072004C0072040E60720D000001010
:102400005CC00720CA03001086000010B0C007207F
:10241000B6030010B8030010F0B194F93F0090B17A
:10242000401E40B284F83F0068B994F8400050B1B3
:10243000002384F840901A465421284602F02FF8D1
:1024400094F83C0040B194F9410010B3401E40B2F2
:1024500084F8410090B11CE094F94100322818DA68
:10246000401C40B284F84100322812DB94F842004C
:1024700078B9002384F84280012206E094F84200F3
:1024800038B1002384F842901A464321284602F0CE
:1024900006F86D1CEDB2B6F900008542FFF640AFBC
:1024A0006EE6F0B5FA4B00221146F848B3F9004049
:1024B00010E000BF01EB011300EB830393F83E50E3
:1024C0002DB993F8405015B993F8423003B1012269
:1024D000491CC9B2A142EDDBEE49F24EF24B0A7043
:1024E000ED49EE4A4FF00005497B1170EC492A4650
:1024F000B1F9001059B116E002EB021700EB8707A3
:1025000097F83E700FB101250FE0521CD2B2A242E3
:10251000F2DB0AE0C2EBC20703EB8707FF7B002F69
:10252000F1D1521CD2B28A42F4DB3570DF4EA9B928
:10253000DF4A128892B100252A460BE002EB02170F
:1025400000EB870797F82770BF0701D4012503E048
:10255000521CD2B2A242F1DB357010E000221046CC
:102560000AE000BFC0EBC00403EB8404647B0CB141
:10257000012203E0401CC0B28842F3DB3270CD4C34
:1025800011B1002210460EE000202070F0BD00BF07
:10259000C0EBC00503EB85056D7D2D0601D401223E
:1025A00003E0401CC0B28842F2DB2270F0BDC2489A
:1025B00030B4B0F900100A2091FBF0F1BF48B0F937
:1025C0000040B548A142437B90F90C2004DABC4C92
:1025D000B4F90040A1420CDC322A18DA521C52B283
:1025E0000273322A13DB002B11D1012242731046F1
:1025F0000AE0002A0BD0521E51B20173002906D105
:10260000002B04D04173084630BC02F022B930BC24
:1026100070472DE9F05FA24800260088002870D09E
:10262000A8480188032900D101260025DFF898B2C7
:10263000DFF898820A27DFF898A28146E2E000BF1F
:102640009948C5EBC50100EB8104BBF90010B4F952
:10265000020090FBF7F0884204DA9E4AB2F90020AB
:10266000904213DC227E8AB194F90E10322928DAC6
:10267000491C49B2A173322923DBE17B09BB01214B
:1026800003B2A819E173C0B20A4617E0884218DA0B
:102690009049B1F90010884213DD207E88B194F989
:1026A0000E0070B1401E40B2A07350B9E07B40B143
:1026B0000020E073A8190023C0B21A464F2102F08F
:1026C000D8F9B4F90800B8F9001090FBF7F0884287
:1026D00003DABAF90020904214DC227E92B194F918
:1026E0000C10322928DA491C49B22173322923DB24
:1026F000617B09BB012103B2A8196173C0B20A460C
:1027000017E084E0884217DABAF90010884213DD36
:10271000207E88B194F90C0070B1401E40B2207345
:1027200050B9607B40B100206073A8190023C0B28B
:102730001A464E2102F09DF9B4F90A00B8F90010CA
:1027400090FBF7F0884203DABAF90020904213DCDC
:10275000227E8AB194F91010322927DA491C49B235
:102760002174322922DB617C01BB012103B2A8194B
:102770006174C0B20A4616E0884217DABAF900104E
:10278000884213DD207E88B194F9100070B1401E9C
:1027900040B2207450B9607C40B100206074A81928
:1027A0000023C0B21A46492102F063F9607D800718
:1027B000207E12D520B394F91200322820DA401C72
:1027C00040B2A07432281BDBE07CC8B90120E07461
:1027D000A819237DC0B201220FE088B194F912003C
:1027E00070B1401E40B2A07450B9E07C40B10020EE
:1027F000E074A8190023C0B21A46542102F039F936
:102800006D1CEDB2B9F900008542FFF619AFBDE8C5
:10281000F09F70B50446072201212F4801F0D9F935
:102820001A4804EB041100EB81051B4895F82910A8
:1028300095F8262000F13000514000D041700A4048
:1028400000D0827001EA0203DB077FD0C178491C07
:10285000C17034B1012C09D0022C0CD0032C0FD044
:1028600045E101231A460E211CA03EE1012302226C
:102870000E2121A039E1012303220E2125A034E1FC
:10288000012304220E212AA02FE15FE040FA072055
:10289000D2000010D0C0072004C007207F00001025
:1028A000DE00001080000010400B082081000010A6
:1028B000E2000010DE03001056010010CA000010F4
:1028C000CC000010E0000010C2000010C600001094
:1028D000C8000010C400001049000010496E766561
:1028E00072746F7220233120416C61726D2C206FE5
:1028F0007665726C6F616400496E766572746F7292
:1029000020233220416C61726D2C206F7665726CD1
:102910006F616400496E766572746F722023332094
:10292000416C61726D2C206F7665726C6F61640012
:10293000496E766572746F7220233420416C617227
:102940006D2C206F7665726C6F6164008B0720D5EB
:1029500093071ED5C178491CC17034B1012C09D030
:10296000022C0CD0032C0FD0C1E0022301220E2137
:10297000A9A0BAE002231A460E21AEA0B5E00223B8
:1029800003220E21B2A0B0E0022304220E21B7A040
:10299000ABE04B0720D553071ED5C178491CC17049
:1029A00034B1012C09D0022C0CD0032C0FD09EE0A6
:1029B000032301220E21B4A097E0032302220E215B
:1029C000B8A092E003231A460E21BDA08DE0032398
:1029D00004220E21C1A088E00B0720D513071ED5C5
:1029E000C178491CC17034B1012C09D0022C0CD023
:1029F000032C0FD07BE0042301220E21BEA074E043
:102A0000042302220E21C5A06FE0042303220E211D
:102A1000CBA06AE004231A460E21D2A065E0CB06C3
:102A200020D5D3061ED5C178491CC17034B1012C04
:102A300009D0022C0CD0032C0FD058E00523012222
:102A40000E21D1A051E0052302220E21D7A04CE097
:102A5000052303220E21DEA047E0052304220E21D8
:102A6000E4A042E08B0620D593061ED5C178491C10
:102A7000C17034B1012C09D0022C0CD0032C0FD022
:102A800035E0062301220E21E3A02EE006230222D8
:102A90000E21EAA029E0062303220E21F0A024E063
:102AA000062304220E21F7A01FE001B3FAB9C17872
:102AB000491CC17034B1012C09D0022C0CD0032C5C
:102AC0000FD014E0002301220E21F7A00DE0002317
:102AD00002220E21F9A008E0002303220E21FCA00F
:102AE00003E0002304220E21FEA018F0F5FF15F8E4
:102AF000260FE87070BD70B5FF490020FF4DB1F999
:102B00000C200121034600BF01FA00F4224201D04B
:102B1000295400E02B54401CC0B20C28F4D3F84CCC
:102B20002878F84E217881420CD0B6F9001001299E
:102B300008DB012869D0002301220B21F2A000BF8D
:102B400018F0CAFF6178687881420BD0B6F900109E
:102B5000022907DB012859D0002302220B21EFA014
:102B600018F0BAFFA178A87881420BD0B6F900100E
:102B7000032907DB01284AD0002303220B21ECA004
:102B800018F0AAFFE178E87881420BD0B6F900107E
:102B9000042907DB01283BD0002304220B21E9A0F4
:102BA00018F09AFF2179287981420BD0B6F90010EC
:102BB000052907DB01282CD0002305220B21E6A0E4
:102BC00018F08AFF6179687981420BD0B6F900105C
:102BD000062907DB01281DD0002306220B21E3A0D4
:102BE00018F07AFFA179A87981420BD0B6F90010CC
:102BF000072907DB01280ED0002307220B21E0A0C4
:102C000018F06AFFE179E879C4E1E9E1EDE1F1E189
:102C1000F5E1F9E1FDE101E2496E766572746F72EA
:102C200020233120416C61726D2C206F76657268B3
:102C300065617400496E766572746F72202332206C
:102C4000416C61726D2C206F7665726865617400ED
:102C5000496E766572746F7220233320416C617205
:102C60006D2C206F7665726865617400496E7665BB
:102C700072746F7220233420416C61726D2C206F4E
:102C80007665726865617400496E766572746F72FC
:102C900020233120416C61726D2C20697320776193
:102CA000726D0000496E766572746F722023322057
:102CB000416C61726D2C206973207761726D000028
:102CC000496E766572746F7220233320416C617295
:102CD0006D2C206973207761726D0000496E7665F6
:102CE00072746F7220233420416C61726D2C2069E4
:102CF00073207761726D0000496E766572746F7231
:102D000020233120416C61726D2C20766F6C7461D0
:102D1000676520697320757000000000496E766554
:102D200072746F7220233220416C61726D2C207698
:102D30006F6C746167652069732075700000000016
:102D4000496E766572746F7220233320416C617214
:102D50006D2C20766F6C74616765206973207570C7
:102D600000000000496E766572746F722023342073
:102D7000416C61726D2C20766F6C7461676520699F
:102D80007320757000000000496E766572746F7272
:102D900020233120416C61726D2C20766F6C746140
:102DA000676520697320646F776E0000496E7665F1
:102DB00072746F7220233220416C61726D2C207608
:102DC0006F6C7461676520697320646F776E0000B3
:102DD000496E766572746F7220233320416C617284
:102DE0006D2C20766F6C7461676520697320646F49
:102DF000776E0000496E766572746F7220233420FE
:102E0000416C61726D2C20766F6C7461676520690E
:102E10007320646F776E0000496E766572746F720E
:102E200020233120416C61726D2C206F7574707598
:102E300074206973206F666665640000496E76656C
:102E400072746F7220233220416C61726D2C206F7E
:102E50007574707574206973206F66666564000010
:102E6000496E766572746F7220233320416C6172F3
:102E70006D2C206F7574707574206973206F666691
:102E800065640000496E766572746F722023342089
:102E9000416C61726D2C206F75747075742069734C
:102EA000206F666665640000496E766572746F72A5
:102EB000202331206973206E6F726D00496E766534
:102EC00072746F72202332206973206E6F726D00EE
:102ED000496E766572746F72202333206973206E99
:102EE0006F726D00496E766572746F7220233420A4
:102EF0006973206E6F726D00681008200C10082036
:102F0000BC620010DA0000104176746F6D617420AD
:102F10002331206973204F46460000004176746FCC
:102F20006D6174202332206973204F4646000000F3
:102F30004176746F6D6174202333206973204F468E
:102F4000460000004176746F6D617420233420695F
:102F500073204F46460000004176746F6D61742007
:102F60002335206973204F46460000004176746F78
:102F70006D6174202336206973204F46460000009F
:102F80004176746F6D6174202337206973204F463A
:102F90004600000081420BD0B6F90010082907DB7B
:102FA000012840D0002308220B21E7A018F094FD4F
:102FB000217A287A81420BD0B6F90010092907DB63
:102FC000012835D0002309220B21E4A018F084FD4C
:102FD0000020295C2154401CC0B20C28F9D370BDDC
:102FE00001231A460B21E2A0AAE5012302220B21AC
:102FF000E4A0B5E5012303220B21E7A0C0E50123EE
:1030000004220B21E9A0CBE5012305220B21ECA032
:10301000D6E5012306220B21EEA0E1E501230722DC
:103020000B21F1A0ECE5012308220B21F3A0BDE761
:10303000012309220B21F6A0C8E72DE9F041F94F41
:10304000F948FA4CB7F90010B0F90020B4F90000C3
:10305000914202DD00F1010002E002DAA0F101007C
:10306000208006220021F14800F0BEFDB4F90010D6
:10307000EF480126052900DD06700024012900DA49
:103080000470EC48B7F90010EC4DB0F90020EA48A4
:10309000931E99420BDA90F900201E2A16DA521C70
:1030A00052B202701E2A11DB2A88521E0CE0914295
:1030B0000BDD90F900201E2A08DA521C52B2027071
:1030C0001E2A03DB2A88521C2A800470DC48B8467A
:1030D000B0F90000814201DD142203E0D9480088E4
:1030E000093002B20021D54800F07EFDF02000F04A
:1030F00044FD28B1D4480168F12901D140682880F5
:10310000B5F90010D148012901DC067000E0047017
:10311000CF48D04FB0F90000A0F1320128291BD8C8
:10312000B8F90010CC4D814202DD2888401C28806F
:10313000CA48B0F90000814202DA2888401E28807F
:1031400006220021C44800F04FFDB5F90000052813
:1031500000DD3E70012800DA3C70C148C14FB0F973
:103160000000A0F132011E291BD8B8F90010BE4D95
:10317000814202DD2888401C2880BC48B0F900004C
:10318000814202DA2888401E288006220021B648A3
:1031900000F02AFDB5F90000052800DD3E70012889
:1031A00000DA3C70BDE8F081F8B5B14C0021A0799F
:1031B0000A2807D2401CC0B2A0710A2802D3A1710C
:1031C00001202072E079052805D2401CC0B2E071D0
:1031D000052800D1E171BE2000F0CFFCA54928B13F
:1031E00099480268BF2A5BD1406858E0207A88B3CA
:1031F000A14A1078552805D05078552802D09F480C
:1032000000884CE09E4D00204FF0140C6B466FF090
:103210001307165C552E0FD023F81070401CC0B257
:103220000228F6D3BDF90030BDF90220954893423B
:1032300015DD1A46036013E000EB400606EB0016AE
:1032400005EB860696F80CE0BEF1000F03D023F8DC
:1032500010C0E3E724E0768923F81060DEE702601F
:10326000894B002A02DAB3F9000012E0282A01DDB6
:1032700028220260854AB3F900300068B2F90020C4
:10328000D21A02EB820252004243C82092FBF0F0B5
:103290001844A27B022A02D17D48B0F900000880C0
:1032A000B1F9000062214143642291FBF2F1794BB4
:1032B00019806621484390FBF2F077490880F8BDF9
:1032C0002DE9F05F764E002074494FF0010A8146E7
:1032D000744DB6F9003023E0734A744C125C34F933
:1032E0001220B2F5FA6F0A560CDA0A2A07DA521CD3
:1032F00052B20A540A2A11DB05F800A00EE00A2295
:103300000A540BE0002A07DB521E52B20A54002A6C
:1033100004DC05F8009001E001F80090401CC0B208
:103320009842D9DB0024DFF888B1624FDFF888814A
:1033300031E1624830F814000028285D02D000B165
:10334000C0E0CCE0BCE000004176746F6D61742099
:103350002338206973204F46460000004176746F81
:103360006D6174202339206973204F4646000000A8
:103370004176746F6D6174202331206973204F4E44
:10338000200000004176746F6D6174202332206943
:1033900073204F4E200000004176746F6D617420E1
:1033A0002333206973204F4E200000004176746F54
:1033B0006D6174202334206973204F4E200000007B
:1033C0004176746F6D6174202335206973204F4EF0
:1033D000200000004176746F6D61742023362069EF
:1033E00073204F4E200000004176746F6D61742091
:1033F0002337206973204F4E200000004176746F00
:103400006D6174202338206973204F4E2000000026
:103410004176746F6D6174202339206973204F4E9B
:103420002000000068010010A0000010DA03001066
:1034300066C00720A200001064C0072078010010B9
:10344000A4000010720100105CC007206C03001083
:10345000AA00001065C00720CCC00720AC000010F7
:10346000A60000106D030010DC030010A80000107F
:1034700004C007206A010010E60000108C03001051
:10348000A8E50720CC0300108203001082C00720AB
:1034900088C00720C0C00720C8030010B5C007209F
:1034A000D6000010850100107F6E02000C62001033
:1034B000C403001089010010B9C0072020020010C9
:1034C00001280CD01BF90410002919DB491E49B250
:1034D0000BF80410002915DC07F8049012E01BF922
:1034E00004000A2808DA401C40B20BF804000A283D
:1034F00008DB07F804A005E00A200BF8040001E04F
:103500000BF8049018F80410385D81423ED0FF4A51
:10351000D18B491CD183012807D014B3012C25D0AD
:10352000022C28D0032C2BD030E034B1012C09D050
:10353000022C0CD0032C0FD028E001231A460F21B7
:10354000F3A021E0012302220F21F4A01CE00123BB
:1035500003220F21F4A017E0012304220F21F5A07C
:1035600012E0002301220F21F5A00DE0002302222A
:103570000F21F8A008E0002303220F21FAA003E0A6
:10358000002304220F21FDA018F0A6FA385D08F8E8
:103590000400641CE4B2B6F900008442FFF6C9AE30
:1035A000FB48A0F80090297851B1012906D169782B
:1035B00001290BD0002901D103210180BDE8F09F32
:1035C00069780129FAD1A0F800A0F7E70221F4E711
:1035D000F049F14A0120087010704870507070472F
:1035E0002DE9F05FEE48DFF8BCE3DFF8B0C3B0F9D7
:1035F0000070BEF90000C54CC0EB0011BCF90250D0
:103600006FF01D0A6FF0950B0026DFF88883B4F980
:1036100024000AEB81020BEB8103BD4204DCE24F84
:10362000B7F90070BD4205DA824203DD834201DA58
:1036300088F80060DD4DE146BCF908C0B5F90050DE
:10364000D54FBCEB450F03DC6D42BCEB450F04DAF4
:10365000824202DD834200DA3E706FF0090202EB23
:1036600081017546814220D1A07BF0B998F8000015
:1036700001281AD13878012817D14FF4D6701AF0E2
:103680009FF9CB49B1F9001088420ED0C948008893
:1036900058B199F83D00C00707D14FF4D6701AF021
:1036A000BDFAC5480178491C0170BD49B9F902202D
:1036B0004846B1F900108A4206DCBB49B0F94E20F9
:1036C000B1F900108A420FDAB5F90010B4F92420DC
:1036D000C1EB01110AEB8103934205DD0BEB810184
:1036E000914201DA88F80160B049B9F95400B1F9A2
:1036F0000010B0EB410F03DC4942B0EB410F0EDA92
:10370000B5F90000B4F92410C0EB00100AEB8002F8
:103710008A4204DD0BEB8000884200DA7E70B5F946
:103720000000C0EB00116FF0090000EB8100B4F95C
:103730002410884222D1A07B00BB98F80100012808
:103740001CD17878012819D14FF4E57630461AF06B
:1037500037F902469648B0F902108A420ED09548D1
:10376000008802280AD199F88900C00706D130469E
:103770001AF054FA90480178491C0170B5F900001C
:103780006FF00101C0EB001001EB8000B4F92410D0
:10379000884202D1BDE8F05F1AE70FE72DE9F04F4C
:1037A0008648DFF8688187490378854898F90020C2
:1037B000B1F90010B0F9000088B023B1022B34D069
:1037C000012B7ED066E1804E744B347896F801C0B0
:1037D000B3F90A501F7BB3F9566093F8583022B101
:1037E000012A0FD1552C14D10FE0552C03D185425D
:1037F00068DC002F66D1BCF1550F03D1864261DC35
:10380000002B5FD108B0BDE8F08F8D42FADA002FAF
:10381000F8D1BCF1550F76D18E42F3DA002B72D07D
:10382000F0E700BF88F80000ECE7694C674B94F8BC
:1038300003C0B3F90030A76AA56F009594F8535000
:103840000195D4F8C850029594F8A3500395D4F884
:103850001851049594F8F3500595D4F868510695DD
:1038600094F84351AE46D4F8B851079594F8935163
:10387000D4F85862AB46D4F80852B146AA4694F838
:10388000E35194F83342DBB387421BDCBCF11E0FDB
:1038900018D2012B05DD009E864213DC019E1E2EF0
:1038A00010D2022B05DD029E86420BDC039E1E2EEB
:1038B00008D2032B08DD049E864203DC059E1E2EE3
:1038C00001E0C5E020E01FD2042B05DD069E864204
:1038D0001ADCBEF11E0F17D2052B05DD079E8642AE
:1038E00012DCBBF11E0F0FD2062B03DD82450BDC71
:1038F0001E2D09D2072B03DD814505DC1E2C03D2CA
:10390000012A8DD166E0A2E0C4E0000004C00720D7
:10391000534B20233120416C61726D00534B2023A7
:103920003220416C61726D00534B20233320416C77
:1039300061726D00534B20233420416C61726D0025
:10394000534B20233120416C61726D206973206FCD
:1039500066660000534B20233220416C61726D205B
:103960006973206F66660000534B20233320416C3F
:1039700061726D206973206F66660000534B2023CF
:103980003420416C61726D206973206F666600009F
:10399000BEC00720C2C00720D0030010A8E5072042
:1039A000C80300108E030010C0C007208803001059
:1039B000AC010010CE000010D203001098030010DC
:1039C00094C0072096030010E6000010D0000010FD
:1039D00040E60720DBB38F42BFF622AFBCF10A0FEF
:1039E000BFF41EAF022B2BDB00988842F4DA01985B
:1039F0000A28F5D2032B23DB02988842ECDA0398DD
:103A00000A28EDD2042B1BDB04988842E4DA0598DF
:103A10000A28E5D2052B13DB06988842DCDABEF1D2
:103A20000A0FDDD2062B0BDB07988842D4DABBF1F4
:103A30000A0FD5D2072B03DB8A45CDDA0A2DCFD268
:103A4000082B3EDB8945C7DA0A2C3AD3DAE638E0A0
:103A50001E4C1D4BB4F90050B4F90260AA461C4D2F
:103A6000B3F90030B4F90440D5E900C7AD68B946F0
:103A700093B182450EDCBCF1000F0BD1012B04DDAC
:103A8000864207DCB9F1000F04D1022B04DD844229
:103A900000DC0DB10120C5E6012AD7D18BB18A45E2
:103AA000D4DABCF1000FD1D1022B04DB8E42CDDA87
:103AB000B9F1000FCAD1032B03DB8C42C6DA002D0B
:103AC000C4D10020AEE60000D400001002020010B5
:103AD000940F082070B5374A0020A2F11401064661
:103AE00001F10A030C5C54B11D5CAC4207D1145CBB
:103AF0002CB1641E14F0FF04145400D10E540C5C5D
:103B00001C54401CC0B20A28ECD370BD70B5294DBE
:103B10000024143D641CE4B22E5D1EB1864201D027
:103B20000A2CF7D3285523480C3040F824102830AD
:103B300040F824203438035570BD1E4A0021143A41
:103B4000491CC9B2535C834201D00A29F8D3DBB2C5
:103B5000834210D117480C3050F8213016480360CA
:103B6000144B343353F82130436000205054114A31
:103B7000505401207047002070470E4A0021143A2B
:103B8000491CC9B2535C834201D00A29F8D3DAB286
:103B900082420CD107480C3050F8212006480260C0
:103BA000044A343252F8211041600120704700204D
:103BB00070470000606200105CC0072090F9003080
:103BC0008B4200DA027090F90030934200DD017000
:103BD000704790F900308B4200DA017090F90010C4
:103BE000914200DD02707047B0F900308B4200DA7C
:103BF0000180B0F90010914200DD02807047B0F9F9
:103C000000308B4200DA0280B0F90030934200DDD0
:103C10000180704703688B4201DB194600E00160B8
:103C2000914200DD0260704703688B4200DA026057
:103C30000368934200DD01607047000070B5F948E9
:103C40000278F948016812B141F0010101E021F068
:103C5000010101600021F54C5FF0010301EB41021D
:103C600002EB011204EB820292F83D20D20706D04B
:103C70004D1C03FA05F205689543154304E04A1C00
:103C8000056803FA02F29543491CC9B2056002298E
:103C9000E4D3E74C002100BF01EB810204EB0212E8
:103CA000527832B1CD1C03FA05F2056895431543ED
:103CB00003E0CA1C03FA02F29543491CC9B205602D
:103CC0000C29E9D32946D84D00221435AC5C34B117
:103CD00002F10F0603FA06F4A143214304E002F1C6
:103CE0000F0403FA04F4A143521CD2B2062AEDD306
:103CF000D04D00220160AC5C012C2FD002F11904E0
:103D000003FA04F4A143521CD2B2042AF3D3016093
:103D1000836821EA0302C26044681443C64A4460CF
:103D2000158815B124F00074446054881CB14468AF
:103D300024F08064446094881CB1446824F00064DA
:103D40004460D2881AB1426822F0805242608B43AC
:103D5000DA43BA4B02611B883BB109E002F1190654
:103D600003FA06F4A1432143CDE762F001020261A8
:103D7000036942681A40C0E9012170BDF8B54FF4EB
:103D80006065284619F01CFE401C04463F2800D9F7
:103D9000002421B2284619F041FF40F60266304661
:103DA00019F00EFE3F2800D0204601B2304619F02F
:103DB00035FF284619F004FE4FF4806101EB4015F1
:103DC00055208DF8000000248DF8014052208DF818
:103DD00002008DF803406946284619F0A4FF6946A1
:103DE000281D009419F09FFF954E308B8DF8000030
:103DF000307D8DF80100307A8DF802008DF8034097
:103E0000694605F1080019F08EFF30798DF8000041
:103E100030788C4E8DF8010030688DF802008DF8F6
:103E20000340694605F10C0019F07DFF41248DF82F
:103E300000408DF801408DF802408DF8034069463E
:103E400005F1100019F06FFF8DF800408DF801406A
:103E50008DF802408DF80340694605F1140019F011
:103E600062FF8DF800408DF801408DF802408DF81A
:103E70000340694605F1180019F055FF8DF8004020
:103E80008DF801408DF802408DF80340694605F138
:103E90001C0019F048FFFF203060F8BD2DE9F84301
:103EA000674D604A243D00262F154FF460610128BC
:103EB00002D000287DD036E10120107088460846E7
:103EC00019F07EFD401C04463F2800D9002421B291
:103ED000404619F0A3FE40F60269484619F070FD0D
:103EE0003F2800D0204601B2484619F097FE4046D0
:103EF00019F066FD07EB401750208DF800008DF893
:103F0000016041248DF802408DF80360694638460F
:103F100019F009FF6946381D009619F004FF05F1F4
:103F20002005A88B8DF80000287E8DF80100287BE5
:103F30008DF802008DF80360694607F1080019F05A
:103F4000F2FE287A8DF8000028798DF80100287893
:103F50008DF802008DF80360694607F10C0019F036
:103F6000E2FE8DF800408DF801408DF802408DF89A
:103F70000340694607F1100019F0D5FE8DF80040A6
:103F80008DF801408DF802408DF80340694607F135
:103F9000140019F0C8FE8DF800408DF801408DF82E
:103FA00002408DF80340694607F1180019F0BBFE86
:103FB00000E011E08DF800408DF801408DF80240DE
:103FC0008DF80340694607F11C0019F0ACFE002390
:103FD000012202211CA0A4E013481670B04602681A
:103FE00022F001020260154A12881AB1426822F0DA
:103FF00001024260084619F0E3FC06463446B94621
:1040000009EB44176946384619F057FD9DF8000042
:1040100050283ED19DF80100D8BB9DF802004128F0
:1040200037D121E0B4C007202C000010A8E50720FC
:1040300040E6072089010010300200109A000010AD
:104040002440024080C10F404D61696E20706F773F
:104050006572206973206F6666000000641E00E0D0
:104060003F24B442CCD15EE0694607F1100019F05C
:1040700024FD9DF8000041280BD19DF80100412846
:1040800007D19DF80200412803D19DF80300412883
:1040900002D0002CE4D0E1E705F12005A88B8DF8D3
:1040A0000000287E8DF80100287B8DF80200444630
:1040B0008DF80380694607F1100019F034FE287A64
:1040C0008DF8000028798DF8010028788DF802001D
:1040D0008DF80340694607F1140019F024FEF948F1
:1040E000422401788DF8001040788DF801008DF899
:1040F00002408DF80340694607F1180019F013FEDD
:104100008DF800408DF801408DF802408DF8034095
:10411000694607F11C0019F006FE01231A46022128
:10412000E9A017F0D9FC00BFBDE8F8832DE9F84FEE
:1041300005460C004FF054060BD0012C04D0022C85
:1041400004D0032C04D004E0552602E0752600E0DC
:104150004C26E349DFF884A305EB85034FF0000B01
:104160004FF460604FF4806901EB0311012A02D023
:10417000002A7DD090E134B1012C08D0022C0AD065
:10418000032C0CD00FE04A7842F001020AE04A7892
:1041900042F0020206E04A7842F0040202E04A7865
:1041A00042F008024A7081F84D40804619F008FC40
:1041B000401C87B23F2F00D9002739B2404619F082
:1041C0002DFD40F6026019F0FBFB80B23F2800D0C5
:1041D000384601B240F6026019F020FD404619F061
:1041E000EFFB09EB401087B253208DF800008DF8EB
:1041F00001508DF80260D8468DF803B06946384604
:1042000019F091FD6946381DCDF8008019F08BFD3D
:10421000BAF83C000AF120068DF80000307E8DF8D7
:104220000100307B8DF802008DF80380694607F1AC
:10423000080019F078FD307A8DF8000030798DF89B
:10424000010030788DF802008DF80380694607F18F
:104250000C0019F068FD41268DF800608DF80160B2
:104260008DF802608DF80360694607F1100000E0E8
:1042700084E019F058FD8DF800608DF801608DF82C
:1042800002608DF80360694607F1140019F04BFDD8
:104290008DF800608DF801608DF802608DF8036084
:1042A000694607F1180019F03EFD8DF800608DF8A1
:1042B00001608DF802608DF80360694607F11C000B
:1042C00019F031FD25B1012D20D0022D3AD0E3E0C7
:1042D00034B1012C09D0022C0CD0032C0FD0DBE020
:1042E0000023012204217FA00DE001231A460421AE
:1042F00082A008E002230122042187A003E0032317
:10430000012204218CA017F0E7FBC5E034B1012C99
:1043100009D0022C0CD0032C0FD0BDE000230222C8
:1043200004218DA0EFE701230222042190A0EAE7F7
:1043300002231A46042195A0E5E703230222042163
:104340009AA0E0E734B1012C09D0022C0CD0032C48
:104350000FD0A1E00023032204219CA0D3E7012376
:10436000032204219FA0CEE7022303220421A4A05C
:10437000C9E703231A460421A9A0C4E734B1012CDC
:1043800008D0022C0AD0032C0CD00FE04A7822F07F
:1043900001020AE04A7822F0020206E04A7822F09E
:1043A000040202E04A7822F008024A7019F008FB81
:1043B00084B2A04609EB441087B26946384619F02A
:1043C0007CFB9DF80000532824D19DF80100A842F1
:1043D00020D19DF80200B0421CD1694607F11000BF
:1043E00019F06BFB9DF80000412813D106E0641E14
:1043F000A4B200E03F244445DCD14DE09DF801002B
:10440000412807D19DF80200412803D19DF80300FF
:10441000412802D0002CEDD0E9E7BAF83C000AF1BF
:1044200020048DF80000207E8DF80100207B8DF89F
:1044300002005D468DF803B0694607F1100019F0DF
:1044400072FC207A8DF8000020798DF80100207828
:104450008DF802008DF80350694607F1140019F039
:1044600062FC42248DF800408DF801408DF8024036
:104470008DF80340694607F1180019F054FC8DF8D7
:1044800000408DF801408DF802408DF803406946E8
:1044900007F11C0019F047FC00BFBDE8F88F2DE9BB
:1044A000F84F4F2581461F464F2903D0432902D09C
:1044B000542905D0C7E00D4661490F200880C2E0AD
:1044C000C0E00000B2C007204D61696E20706F77B8
:1044D0006572206973206F6E00000000004002408A
:1044E00040E6072042505320233120416C61726D19
:1044F0002C206F766572686561740000425053200D
:10450000233120416C61726D2C20766F6C74616771
:10451000652069732075700042505320233120417B
:104520006C61726D2C20766F6C74616765206973A5
:1045300020646F776E0000004250532023312041E9
:104540006C61726D2C20636F6E6E6563742069738D
:10455000206C6F73740000004250532023322041BE
:104560006C61726D2C206F766572686561740000F5
:1045700042505320233220416C61726D2C20766FA3
:104580006C74616765206973207570004250532018
:10459000233220416C61726D2C20766F6C746167E0
:1045A0006520697320646F776E00000042505320CD
:1045B000233220416C61726D2C20636F6E6E6563D7
:1045C00074206973206C6F73740000004250532094
:1045D000233320416C61726D2C206F7665726865A3
:1045E0006174000042505320233320416C61726D8E
:1045F0002C20766F6C74616765206973207570007C
:1046000042505320233320416C61726D2C20766F11
:104610006C7461676520697320646F776E000000B9
:1046200042505320233320416C61726D2C20636F04
:104630006E6E656374206973206C6F737400000084
:10464000980000100D46DFF848A64FF460604FF464
:10465000806B012A12D0002A7ED119F0B1F984B200
:10466000A04600270BEB441086B26946304619F08D
:1046700024FA9DF8000049286FD17BE0064619F026
:104680009FF9401C84B23F2C00D9002421B230464F
:1046900019F0C4FA40F60268404619F091F980B268
:1046A0003F2800D0204601B2404619F0B7FA304604
:1046B00019F086F90BEB401086B249208DF8000006
:1046C0008DF801908DF8025000248DF80340694662
:1046D000304619F028FB8DF8007038128DF8010073
:1046E0008DF802408DF803406946301D19F01BFB20
:1046F000BAF83C000AF120058DF80000287E8DF8FC
:104700000100287B8DF802008DF80340694606F110
:10471000080019F008FB287A8DF8000028798DF838
:10472000010028788DF802008DF80340694606F1F3
:104730000C0019F0F8FA41248DF800408DF8014082
:104740008DF802408DF80340694606F1100019F01B
:10475000EAFA8DF8004001E06BE077E08DF8014067
:104760008DF802408DF80340694606F1140019F0F7
:10477000DAFA44E09DF80110494567D19DF802003E
:10478000A84263D1694606F1100019F096F99DF828
:10479000000041285AD14DE0641EA4B200E03F243D
:1047A000444546D07F1CFFB23F2FFFF45BAF002E85
:1047B0003FD0BAF83C000AF120048DF80000207EBA
:1047C0008DF80100207B8DF802004FF000058DF878
:1047D0000350694606F1100019F0A5FA207A8DF809
:1047E000000020798DF8010020788DF802008DF806
:1047F0000350694606F1140019F095FA42248DF829
:1048000000408DF801408DF802408DF80340694664
:1048100006F1180019F087FA8DF800408DF8014074
:104820008DF802408DF80340694606F11C0019F02E
:104830007AFA32E69DF80100412807D19DF802007E
:10484000412803D19DF803004128ABD0002CA6D00D
:10485000A2E72DE9F84F0E465521DFF834B488461B
:104860004FF000094FF460674FF48065012815D0C0
:1048700000287DD1384619F0A3F887B23C460026BF
:104880004FEA050A0AEB441085B26946284619F03A
:1048900014F99DF8000044286BD17BE0384619F0EC
:1048A0008FF8401C84B23F2C00D9002421B2384636
:1048B00019F0B4F940F6026A504619F081F880B256
:1048C0003F2800D0204601B2504619F0A7F93846DB
:1048D00019F076F805EB401085B244208DF8000001
:1048E0008DF801908DF802804C468DF80390694652
:1048F000284619F018FA8DF8006030128DF8010082
:104900008DF802408DF803406946281D19F00BFA16
:10491000BBF83C000BF120068DF80000307E8DF8CE
:104920000100307B8DF802008DF80340694605F1E7
:10493000080019F0F8F9307A8DF8000030798DF818
:10494000010030788DF802008DF80340694605F1CA
:104950000C0019F0E8F941248DF800408DF8014071
:104960008DF802408DF80340694605F1100001E022
:104970006FE050E019F0D7F98DF800408DF8014054
:104980008DF802408DF80340694605F1140019F0D6
:10499000CAF944E09DF80100E8BB9DF802104145CA
:1049A00064D1694605F1100019F087F89DF8000000
:1049B00041285BD14EE0641EA4B200E03F24BC421B
:1049C00047D0761CF6B23F2EFFF45CAF002D40D0EE
:1049D000BBF83C000BF120048DF80000207E8DF820
:1049E0000100207B8DF802004E468DF80390694649
:1049F00005F1100019F097F9207A8DF80000207960
:104A00008DF8010020788DF802008DF8036069466A
:104A100005F1140000E029E019F085F942248DF831
:104A200000408DF801408DF802408DF80340694642
:104A300005F1180019F077F98DF800408DF8014064
:104A40008DF802408DF80340694605F11C0019F00D
:104A50006AF922E59DF80100412807D19DF802007E
:104A6000412803D19DF803004128AAD0002CA5D0ED
:104A7000A1E72DE9F84F4F2581461F464F2906D063
:104A8000492903D04E2901D0542900D10D464FF0B9
:104A9000000A4FF460604FF4806B012A12D0002AA4
:104AA0007ED118F08DFF84B2A04600270BEB441096
:104AB00086B26946304619F000F89DF80000422899
:104AC0006FD179E0064618F07BFF401C84B23F2C82
:104AD00000D9002421B2304619F0A0F840F602684F
:104AE000404618F06DFF80B23F2800D0204601B24A
:104AF000404619F093F8304618F062FF0BEB401077
:104B000086B242208DF800008DF801908DF8025099
:104B100054468DF803A06946304619F004F98DF823
:104B2000007038128DF801008DF802408DF80340B6
:104B30006946301D19F0F7F8564DA88B8DF8000026
:104B4000287E8DF80100287B8DF802008DF8034047
:104B5000694606F1080019F0E6F8287A8DF8000099
:104B600028798DF8010028788DF802008DF803402F
:104B7000694606F10C0019F0D6F841248DF8004082
:104B80008DF801408DF802408DF80340694606F12A
:104B9000100019F0C8F88DF800408DF8014001E0D0
:104BA00066E072E08DF802408DF80340694606F138
:104BB000140019F0B8F841E09DF80110494564D19E
:104BC0009DF80200A84260D1694606F1100018F075
:104BD00074FF9DF80000412857D14AE0641EA4B23A
:104BE00000E03F24444543D07F1CFFB23F2FFFF439
:104BF0005DAF002E3CD0274CA08B8DF80000207EAE
:104C00008DF80100207B8DF8020055468DF803A039
:104C1000694606F1100019F086F8207A8DF8000038
:104C200020798DF8010020788DF802008DF803506E
:104C3000694606F1140019F076F842248DF8004018
:104C40008DF801408DF802408DF80340694606F169
:104C5000180019F068F88DF800408DF801408DF8C3
:104C600002408DF80340694606F11C0019F05BF81C
:104C700013E49DF80100412807D19DF80200412866
:104C800003D19DF803004128AED0002CA9D0A5E7A0
:104C900000400240204002401120FF490872704746
:104CA000FE490820FE4A4870002000BF00EB800348
:104CB00002EB03131B78052B04D0401CC0B20C2858
:104CC000F4D3704748707047002801DA404200B2C0
:104CD000704710B54FF4347018F072FEF14C20702C
:104CE00040F2D22018F06CFE60704FF4357018F06E
:104CF00067FEA07040F2D62018F062FEE0704FF41C
:104D0000367018F05DFE207240F2DA2018F058FE7E
:104D100060724FF4377018F053FEA07240F2DE203C
:104D200018F04EFEE0724FF4437018F049FE207107
:104D300040F20E3018F044FE60714FF4447018F0E9
:104D40003FFEA07140F2123018F03AFEE07110BD43
:104D5000D54810B5016821F0E06101604168D44A8E
:104D6000C1F30B13D14C117824F81130491CC9B28E
:104D70001170032903D2016841F08071016010BDF8
:104D80002DE9F0470746DDE90A090E46DDE9085A34
:104D900001B214469846982018F040FF00219A204E
:104DA00018F03CFF0121CA2018F038FF3C21C22036
:104DB00018F034FF39B2782018F030FF04EBD470CB
:104DC000401001B2C82018F029FF31B27A2018F043
:104DD00025FF21B27C2018F021FF4621C62018F0C3
:104DE0001DFF50217E2018F019FF0FFA88F1822054
:104DF00018F014FFBB21842018F010FF002186203A
:104E000018F00CFF0A21882018F008FF0FFA89F12A
:104E1000DE2018F003FF29B28C2018F0FFFEE80016
:104E20000A2190FBF1F001B28E2018F0F7FE01216B
:104E3000A02018F0F3FE0121A22018F0EFFE0121BE
:104E4000A42018F0EBFEA021922018F0E7FE0FFA44
:104E50008AF1942018F0E2FE0321962018F0DEFE7D
:104E60003221CC2018F0DAFE2821CE2018F0D6FE10
:104E70005521BC2018F0D2FE1E21BE2018F0CEFE17
:104E80000121802018F0CAFE4621D02018F0C6FE6D
:104E90003C21D42018F0C2FE1921D22018F0BEFE09
:104EA0005021D62018F0BAFE4621D82018F0B6FEC0
:104EB0005B21DA2018F0B2FE5021DC2018F0AEFEA3
:104EC0007C4C0021B4F9000018F0A8FE7A4D0021B6
:104ED000B5F9000018F0A2FE784E4FF0FF373946C2
:104EE000B6F9000018F09AFEB4F90200002118F09B
:104EF00095FEB5F90200002118F090FEB6F9020007
:104F0000394618F08BFEB4F90400002118F086FE33
:104F1000B5F90400002118F081FEB6F90400394605
:104F200018F07CFEB4F90600002118F077FEB5F900
:104F30000600002118F072FEB6F90600394618F096
:104F40006DFE0A214FF4197018F068FEBDE8F047B5
:104F50000B214FF4187018F061BE2DE9FF470021B6
:104F60000723182809D064224FF41674302810D073
:104F70003C2819D0DC2823D04FE0F0249622CDE93C
:104F80000024CDE902310246162311464FF49670F3
:104F900013E04FF4F075CDE90025CDE9023102466A
:104FA0002C231146204608E0CDE90024CDE902314A
:104FB00002463723114640F2EE20FFF7E1FE2CE0D7
:104FC00040F6980440F62A110220CDE90024CDE9EC
:104FD0000201BB2340F60B1240F63E1140F6921040
:104FE000FFF7CEFE40F2BD11C82018F017FE214693
:104FF000C42018F013FE1421922018F00FFE45F281
:1050000011614FF49E7018F009FE0121CA2018F0BA
:1050100005FEAA21BC2018F001FE294DAA21B5F9F0
:10502000000018F0FBFD274C2178274EB6F9000050
:1050300018F0F4FD217B254FB7F9000018F0EEFDC4
:10504000B4F91010DFF888A0BAF9000018F0E6FDF6
:10505000DFF880800021B8F9000018F0DFFDDFF8EC
:1050600078900021B9F9000018F0D8FDB5F90200D8
:10507000AA2118F0D3FD2178B6F9020018F0CEFD70
:10508000217BB7F9020018F0C9FDB4F91010BAF984
:10509000020018F0C3FD21E000400240480000106B
:1050A00040E60720246F00100040034038C007206E
:1050B00005C00720EC6E0200F46E0200046F0200CF
:1050C000946E02002C400240986E02009C6E02001A
:1050D000906E02008C6E0200A06E0200B8F9020011
:1050E000002118F09BFDB9F9020004B00021BDE8D1
:1050F000F04718F093BD70B5062018F061FC002849
:1051000004DB062018F05CFC022803DD00210620E9
:1051100018F084FDFF490878401CC0B20870FE4CAE
:1051200001250A2813D3FD480068C0070FD1E07895
:1051300068B9062018F044FC022808DA062018F0A6
:105140003FFC401C01B2062018F068FDE570B4F980
:105150003E00B0F5616F07D3062018F031FC18B19E
:105160000021062018F05AFDED4881687F22B2EB3D
:10517000116F00D1E5708068C0F307407F2800D12F
:10518000E57070BDE4488030B0F90A0000F11C0100
:10519000CBB2E1492D314B720A78521CD2B201F8E0
:1051A0002D299A4203D9142281F82D2001E0142AD6
:1051B0001BD3D1B21430814217DADA4801EB8101F6
:1051C00000EB0110C1783C2905D2491CC9B2C1705D
:1051D000032902D207E03C21C1700179032902D2E0
:1051E0004179491C4171C178017170472DE9FF4136
:1051F000C94F8037A7F1530478891C30607220783A
:10520000401CC0B204F82D09322821D9B4F850004E
:10521000F0B104F13A04002004F80D0CA08FE18FE6
:10522000A28E638FC0B2C9B2D2B2DBB2CDE9021096
:10523000CDE90032E08EA0F13200C3B2208FC2B2BD
:10524000608EA4F13A04C1B24FF0F1001BF0AFF947
:1052500094F82D00142837D3B7F90A101431884276
:1052600032DA94F83510DFF8BC82A1B9B4F85010E6
:1052700089B100EB800208EB021101F12C010A79DF
:105280004E7A0D7A4B798DE86C000B784FF0ED0279
:1052900001461BF08CF994F82D0000EB800108EB1F
:1052A0000110C1783C2905D2491CC9B2C17003293B
:1052B00002D207E03C21C1700179032902D2417971
:1052C000491C4171C1780171F88A002817D094F8FF
:1052D0002D00142813D19448817D3C2901D2491C0A
:1052E000817590F832103C2902D2491C80F83210A6
:1052F00090F84E103C2902D2491C80F84E10BDE8AF
:10530000FF818A49002008704870887046314870D3
:1053100070472DE9F04F0020834A85B04FF4F471B7
:10532000044654321454401C00B28842FADB7A4DD1
:10533000A87858B905F1800ABAF90600A8B1012881
:1053400004D105F19E00007855280ED000214FF0C1
:10535000140C7A2301FB03F001EB81039B0001EBAA
:1053600081041BB20CEB84046BE26C484FF0020624
:105370004FF003070068C0071BD0A87F002817D094
:105380006B494FF03208CDE90214CDE900870321C3
:1053900018234246084615F0D6F86648CDE90204BF
:1053A000CDE90087032118233222084615F0CBF8F7
:1053B000CEE0BAF90800DFF880B1DFF868914FF06D
:1053C0000F08012852DB1423002100941A460846D6
:1053D000019414F0FCFF1223012100941A460846A0
:1053E000019414F0F4FF99F80200042807D05349FF
:1053F000CDE902140F2302211A46032018E099F880
:105400000100C10708D0A87F80B30F23CDE902B403
:1054100002211A4603200BE010F0060F26D0A87FC9
:1054200020B347480F23CDE9020402211A4608465B
:10543000CDE9008615F087F899F80200012815D10A
:105440000B23002214210920009414F0A5FD002351
:105450005B221F210920009414F09EFD687A04232A
:105460001330C1B20022092014F0EEFFBAF908008F
:1054700002286DDB142300941A46002117200194A2
:1054800014F0A5FF122300941A460121182001945C
:1054900014F09DFF99F85200042806D02949CDE95F
:1054A00002140F231A46022117E099F85100C10790
:1054B00008D0A87F68B30F23CDE902B402211A46B1
:1054C00019200BE010F0060F42D0A87F08B31C484B
:1054D0000F23CDE902041A4602211920CDE90086E6
:1054E00015F031F899F85200012831D10B23002230
:1054F00014212020009414F04FFD002344221F218A
:105500002020009414F048FD687A04230022133010
:105510001AE01DE01A350010480000102C000010A1
:105520000040044040E60720400B082082010010A4
:105530009F7502003576020007770200CB760200E5
:1055400025770200E9760200C1B2202014F07CFF2A
:10555000BAF80600DFF848B44FF001094FF00A0A24
:1055600000282BD000941423232200213220019400
:1055700014F02DFF009402230322142135200194FE
:1055800014F025FF00940223032214214F200194DC
:1055900014F01DFF9BF83D00D846C0070FD0A87F30
:1055A00000280BD03221FF48CDE90017CDE90204D5
:1055B0000A46182300212B2014F0C5FF96E00B2388
:1055C000002214214220009414F0E6FC0023222241
:1055D0001F214220009414F0DFFCB8F908000028D5
:1055E00005DA687A042300221330C1B205E0687A34
:1055F0000423C0F12200C1B20222422014F024FF91
:10560000287B0F2859D2E848B0F90000A0F5AA413C
:1056100055396BD0B8F91000052190FBF1F0ADF8C9
:1056200010001422002104A8FEF7DEFACDE9009450
:10563000BDF9103020220021332014F0C8FEB8F844
:1056400010000A2813D2CDE9009609230C22052167
:105650003D2014F0BCFEB8F910100091CDE90149CD
:1056600002230521D1A23D20CDF80C9012E0642840
:105670004FF0090311D2CDE90096122205213A20FC
:1056800014F0A5FEB8F9101003238DE85202C8A249
:10569000052121E014F083FF28E0CDE900961822CF
:1056A0000521372014F093FEB8F9101004238DE87B
:1056B00092020521BFA23720ECE7B8F908101E2896
:1056C00091FBFAF001B2CDE90019484606D2CDE9C6
:1056D00002700423B9A205213A20DBE7CDE902706C
:1056E0000523B8A21946352014F0FCFF00940E23C0
:1056F0001B2204215C20019414F069FE00231A1F70
:105700000A215C20009414F047FC002304220A21A3
:105710007620009414F040FC002327221F21432010
:10572000009414F039FC6FF00D0300221F21692052
:10573000009414F031FCE87AA846C0F12200C1B20E
:1057400004230222692014F07FFE974E4D46643EEA
:105750000523B6F90A10CDF80C9091FBFAF000B2CF
:1057600000900421CDE9014198A21621462014F0B1
:1057700016FFB6F90C00642807DA8DE8A1000423AF
:1057800007218EA25D20039509E090FBFAF000B29C
:1057900003958DE89100042388A207215A2014F074
:1057A000FEFE98F808104046491CC9B288F8081057
:1057B000032923D30472417A491CC9B241720D29CD
:1057C00000D34472817A491CC9B28172202900D366
:1057D0008472C17A491CC9B2C1720F2900D3C47244
:1057E000017B01F10101C9B201739BF83D209207D1
:1057F00007D52D2902D300BF88F80C4005B0BDE8BD
:10580000F08F1E29F8D2F9E7674D724F9435ED5CA1
:1058100005EB450517F81560165407EB4505401CC8
:105820006E781654401CAE781654401CEE78165410
:10583000401C2E791654401C6D791554401C5B1C7D
:105840001BB29C42E0DC491C09B20429FFF681AD81
:10585000D4E72DE9F04F604BADF50B7D05211A68BB
:105860000020D40752AD03D05CA052900120062145
:10587000604EF47944B160A445F8204000F1010085
:1058800001F10101C0B2C9B2140708D560A445F8FE
:10589000204000F1010001F10101C0B2C9B2D406FB
:1058A00008D561A445F8204000F1010001F1010193
:1058B000C0B2C9B2940608D561A445F8204000F1F1
:1058C000010001F10101C0B2C9B2540608D562A4B9
:1058D00045F8204000F1010001F10101C0B2C9B258
:1058E000140608D562A445F8204000F1010001F13A
:1058F0000101C0B2C9B2D40508D563A445F820405F
:1059000000F1010001F10101C0B2C9B2940508D54E
:1059100063A445F8204000F1010001F10101C0B28B
:10592000C9B2520506D564A245F82020401C491C86
:10593000C0B2C9B21C4A233A02F1AF03A2F1C10BB3
:1059400092F800C0B3F90040BBF90E308393BCF16C
:10595000010F08D13BB134B95DA345F82030401C9C
:10596000491CC0B2C9B25378012B0DD1839B012BC6
:105970000ADD0D4B8C335B8833B95BA345F82030CF
:10598000401C491CC0B2C9B29378012B06D1839B3D
:10599000022B03DD044B8C339B88B1E0B8E00000A0
:1059A000A8E5072035760200AC0100102025000094
:1059B000202025002020202500000000202020415C
:1059C00000000000414343C8CC00000020202020FC
:1059D00042000000106F02002C000010202020C0A8
:1059E000E2E0F0E8FF20F1E5F2E82121212020208B
:1059F00000000000480000102020C0E2E0F0E8FFB6
:105A000020E1E0F2E0F0E5E82020202000000000A6
:105A1000202020C0E2E0F0E8FF20C1CFD120B93142
:105A20002020202000000000202020C0E2E0F0E83C
:105A3000FF20C1CFD120B93220202020000000005B
:105A4000202020C0E2E0F0E8FF20C1CFD120B93310
:105A50002020202000000000202020C0E2E0F0E80C
:105A6000FF20C1CFD120B934202020200000000029
:105A7000202020C0E2E0F0E8FF20C1CFD120B935DE
:105A80002020202000000000202020C0E2E0F0E8DC
:105A9000FF20C1CFD120B9362020202000000000F7
:105AA000202020C0E2E0F0E8FF20C1CFD120B937AC
:105AB0002020202000000000202020C0E2E0F0E8AC
:105AC000FF20C1CFD120B9382020202000000000C5
:105AD000202020D1F0E0E1EEF2E0EB20D1CAB93194
