:020000040000FA
:10000000687F0010CD010000D1010000D301000085
:10001000D5010000D7010000D90100000000000058
:10002000000000000000000000000000DB010000F4
:10003000DD01000000000000DF0100006B4C01004A
:10004000E3010000F77B0100237C0100E3010000D5
:10005000E3010000F7AC0100E3010000E301000050
:10006000E3010000E3010000E3010000E301000000
:10007000E3010000E3010000E3010000E3010000F0
:10008000E3010000E3010000E3010000E3010000E0
:10009000E3010000E301000067500000E3010000FD
:1000A000E3010000B3A70100E3010000E301000049
:1000B00031C80100E3010000E3010000E30100009A
:1000C000E3010000E3010000E301000000F002F89A
:1000D00000F06DF80AA090E8000C82448344AAF175
:1000E0000107DA4501D100F062F8AFF2090EBAE873
:1000F0000F0013F0010F18BFFB1A43F0010318475C
:10010000C41A0200041B02000A444FF0000C10F84D
:10011000013B13F0070408BF10F8014B1D1108BF85
:1001200010F8015B641E05D010F8016B641E01F825
:10013000016BF9D113F0080F1EBF10F8014BAD1C75
:100140000C1B09D16D1E58BF01F801CBFAD505E093
:1001500014F8016B01F8016B6D1EF9D59142D6D3ED
:10016000704700000023002400250026103A28BF15
:1001700078C1FBD8520728BF30C148BF0B60704719
:1001800064291CF0298473291CF08D860020704797
:100190001FB520F0D1FC1CF043FF0400002000211B
:1001A00020F0B4FC401C60601FBD10B510BD1CF0F9
:1001B00012FF1146FFF7ECFF14F012FE1CF044FF93
:1001C00003B4FFF7F2FF03BC1CF048FF08480047E8
:1001D000FEE7FEE7FEE7FEE7FEE7FEE7FEE7FEE7F7
:1001E000FEE7FEE703480449044A054B7047000058
:1001F000CD00000070370820687F0010703F082095
:1002000068770010FEE710B51EF072FB1EF0FEFBD3
:100210001EF0F0FB1EF07EFBAFF30080BDE8104047
:100220001EF0BABB10B51FF0CBF920F03BF81FF061
:100230001FFABDE810401FF097BB1FF0DFB81EF09B
:10024000A7BE09B1002070471DF0FCBB002070471D
:100250001E4BDA601870597070471C48C16800293D
:100260000DD0491EC1600AD1194902780A7042783E
:100270004A700A710021C17001714171817170472A
:10028000124A1161907070471048016900290BD023
:10029000491E016108D10E4A817811700021517008
:1002A000C1700171417181717047084908817047BF
:1002B0000648B0F90810002907D0491E09B201818B
:1002C000002902D1084601F066B870471C000010F2
:1002D000F0C1072070B5064600F00CF8046805462A
:1002E00030460A2200211CF0E2FD2C6070BD7047F0
:1002F000704770470048704704770010FFFFFFFF0A
:10030000002801DA404200B270470020F94A20215B
:100310001154401CC0B2C828FAD370470146F54AB0
:100320000020401CC0B2135C8B4201D0C828F8D317
:10033000704710B50021F04C0A2200BFB0FBF2F369
:1003400002FB13006054491CC9B218460529F5D3B5
:1003500010BDF0B5E94B0121202719700521E64AAF
:10036000002601E01C7844B1541814F8015C25B94A
:10037000814202D904F8017C05E0541814F8015DAB
:10038000303525701E70491E11F0FF01EAD1F0BD15
:1003900070B50D461446002802DAC043401C00B276
:1003A000FFF7C7FF601CC0B2FFF7D3FF2846FFF777
:1003B000B5FFFF2819D0D04ACE4B0021A14201D26F
:1003C000555C13E004D14FF02E051D54555C03E03D
:1003D000555C202D03D04CB11E1806F8015C401E60
:1003E000491CC9B2C0B20529E8D370BD1D54F6E757
:1003F000F0B50D461446002801DA404200B2FFF77E
:1004000098FF601CC0B2FFF7A4FF2846FFF786FFE5
:10041000B94AB84B002164B9555C202D09D0561853
:100420007678202E03D12D261F1807F8016C1D5455
:100430000FE0A14201D2555CF9E704D14FF02E053F
:100440001D54555C02E0555C202D02D01E1806F8A4
:10045000015C401E491CC9B2C0B20529DBD3F0BD06
:10046000FEB52B23002802DA404200B22D230025DE
:100470000A266C4690FBF6F706FB170060556D1CCC
:100480006DB238B20A2DF5DB0126002509202027A0
:1004900000E046B114F800C0BCF1000F03D1904257
:1004A00001DD275405E0265C3036265400266D1CFD
:1004B000EDB2401E40B20028EBDA2D2B02D163557D
:1004C0006D1CEDB26AB168B205E0231813F8013C67
:1004D0002354401E40B29042F7DC2E206D1CA054E5
:1004E000EDB20846FFF71AFF0021824A04E0635C80
:1004F000461A491C935549B2A942F8DBFEBDFEB528
:100500002B23002801DA40422D2300250A266C46C1
:10051000074690FBF6F006FB107767556D1C6DB231
:100520000A2DF5DB012600250920202700E046B131
:1005300014F800C0BCF1000F03D1904201DD275434
:1005400005E0265C3036265400266D1CEDB2401EB8
:1005500040B20028EBDA2D2B02D163556D1CEDB2B1
:100560006AB168B205E0231813F8013C2354401E19
:1005700040B29042F7DC2E206D1CA054EDB208462C
:10058000FFF7CCFE00215B4A04E0635C461A491C7D
:10059000935549B2A942F8DBFEBDFEB52B260028D3
:1005A00001DA40422D2600240A276D46844690FB3E
:1005B000F7F007FB10CC05F804C0641C64B20A2CE9
:1005C000F4DB0127002009244FF0200C00E04FB19C
:1005D00015F804E0BEF1000F04D19C4202DD05F8DD
:1005E00004C005E02F5D30372F550027401CC0B2F6
:1005F000641E64B2002CEADA2D2E02D12E54401C67
:10060000C0B26BB144B205E02E1916F8016C2E553C
:10061000641E64B29C42F7DC2E24401CEC54C0B231
:1006200001EB810102EB8101CAB20021314B04E0F0
:100630006C5C561A491C9C5549B28142F8DBFEBDE0
:1006400070B50D4616461C46FFF773FE601CC0B21F
:10065000FFF77FFE05EB850006EB8000C1B2264A5E
:10066000244B0020A04201D2155C5D5406D3155CDA
:10067000202D03D04CB15E1806F8015C491E401CC9
:10068000C0B2C9B20528EDD370BD5D54F6E730B5F0
:10069000044608461546FFF741FEFF2809D0154AD3
:1006A0002178002905D04319641C401CD154C0B2E4
:1006B000F6E730BD70B50D461446FFF73AFE601CF4
:1006C000C0B2FFF746FE2846FFF728FE0A4B094A4C
:1006D000002124B95D5C202D01D0155416E0A14203
:1006E00001D25D5CF9E70BD14FF02E0515545D5C2E
:1006F00009E0000070C207207C000010810000109B
:100700005D5C202D02D0161806F8015C401E491CC5
:10071000C9B2C0B20529DCD370BD801801D5084428
:1007200002E0884200DB401AC0B270472DE9FE4F5C
:1007300004460D464FF4606018F050F862424021C4
:10074000FFF7EBFF400100F58060044602A918F0B6
:10075000C2F8694604F1080018F0BDF801A904F1D7
:100760000C0018F0B8F82846FFF7D8FD06469DF8AB
:10077000080040273025DFF8F0B4DFF8F0A420248B
:100780004FF0210C4FF02309552820D0CF22D12340
:10079000502878D0422874D0532873D0492862D189
:1007A000C8210AF80610761CF1B2ED220AF80120E1
:1007B000491CC9B2E2220AF80120491C9DF809200F
:1007C0005046C9B2092A78D231324254FDE39DF82D
:1007D0000A0052280ED1C2210AF80610761CF1B286
:1007E000EA220AF80120491CC9B2EB220AF80120CA
:1007F000491CCEB25046B5E39DF8012096F838303A
:100800009A4267D19DF8022096F82C309A42F8D18E
:100810004554491CC9B23A2200F801C0491CC9B26A
:100820004254491CC9B24554491CC9B24754491CD9
:10083000C9B24254491CC9B200224554491CC9B22C
:100840000AF801909DF804002121FFF733FF9DF87D
:10085000050000224021FFF72DFF9DF80600002231
:100860002321FFF727FFBDE8FE8F00BF9DF8011091
:10087000FF48002200EB81004021FFF708FFF2E76C
:1008800001E028E045E30AF80620761CF1B2504664
:100890000AF80130491CC9B20AF80140491CC9B222
:1008A0000AF80140491CC9B20AF80140491CC9B202
:1008B0000AF80140491CC9B21FE397E39DF80130D3
:1008C00092F83860B3429CD19DF8023092F82C2007
:1008D00093429DD05AE39DF80A0043287CD1C12160
:1008E0000AF80610761CF1B2E0220AF80120491C31
:1008F000C9B2F2220AF80120491CCEB29DF80910B3
:100900005046092906D231318155761CF1B2C022F8
:10091000425419E0A1F109025A2A11D2491C0A23B2
:10092000B1FBF3F2904630328255761C03FB18116E
:10093000F6B230318155761CF1B2C022425406E045
:100940008455761CF1B24454491CC9B24454491C24
:10095000C9B25E464454491C9DF80020BBF83C30A7
:10096000C9B29A4239D19DF8012096F838309A429E
:1009700033D19DF8022096F82C309A422DD145545F
:10098000491CC9B23A2200F801C0491CC9B24254FC
:10099000491CC9B24554491CC9B24754491CC9B283
:1009A0004254491CC9B200224554491CC9B20AF834
:1009B0000190491CCEB29DF804002121FFF77AFE78
:1009C0009DF8050000224021FFF774FE9DF8060007
:1009D00000222321FFF76EFE36E04454491CC9B2C1
:1009E00000224554491CC9B200F801C0491CC9B2D3
:1009F0004754491CC9B24454491CC9B24454491C07
:100A0000C9B24554491CC9B20AF80190491CCEB27A
:100A10009DF802002121FFF74DFE9DF80000002205
:100A20002321FFF747FE9DF80100401E0C2802D34A
:100A300001208DF801009DF801108D48002200EB87
:100A400081004021FFF723FE9DF80A00532873D14F
:100A5000C1210AF80610761CF1B2E0220AF8012042
:100A6000491CC9B2F2220AF80120491C9DF809204C
:100A700043235046C9B2092A09D231324254491C93
:100A8000C9B2C0224254491CC9B243540FE0093ACA
:100A90005A2A05D2C0224254491CC9B2435403E029
:100AA0004454491CC9B24454491CC9B24454491C59
:100AB000C9B25E464454491C9DF80020BBF83C3046
:100AC000C9B29A4239D19DF8012096F838309A423D
:100AD00033D19DF8022096F82C309A422DD14554FE
:100AE000491CC9B23A2200F801C0491CC9B242549B
:100AF000491CC9B24554491CC9B24754491CC9B222
:100B00004254491CC9B200224554491CC9B20AF8D2
:100B10000190491CCEB29DF804002121FFF7CAFDC7
:100B20009DF8050000224021FFF7C4FD9DF8060056
:100B300000222321FFF7BEFD36E04454491CC9B210
:100B400000224554491CC9B200F801C0491CC9B271
:100B50004754491CC9B24454491CC9B24454491CA5
:100B6000C9B24554491CC9B20AF80190491CCEB219
:100B70009DF802002121FFF79DFD9DF80000002255
:100B80002321FFF797FD9DF80100401E0C2802D39A
:100B900001208DF801009DF801103548002200EB7E
:100BA00081004021FFF773FD9DF80A005A2863D1A8
:100BB000C2210AF80610761CF1B2C7220AF80120F9
:100BC000491CC9B250460AF80140491CC9B25E46E8
:100BD0000AF80140491CC9B20AF80140491CC9B2CF
:100BE0004454491CC9B24454491C9DF80020BBF828
:100BF0003C30C9B29A4240D19DF8012096F8383075
:100C00009A423AD19DF8022096F82C309A4234D17B
:100C10004554491CC9B23A2200F801C0491CC9B266
:100C20004254491CC9B24554491CC9B24754491CD5
:100C3000C9B24254491CC9B200224554491CC9B228
:100C40000AF80190491CCEB29DF804002121FFF75B
:100C500031FD9DF8050000224021FFF72BFD002209
:100C60009DF80600232105E00040024070C20720E5
:100C700058120200FFF71EFD36E04454491CC9B269
:100C800000224554491CC9B200F801C0491CC9B230
:100C90004754491CC9B24454491CC9B24454491C64
:100CA000C9B24554491CC9B20AF80190491CCEB2D8
:100CB0009DF802002121FFF7FDFC9DF800000022B5
:100CC0002321FFF7F7FC9DF80100401E0C2802D3FA
:100CD00001208DF801009DF80110FF48002200EB73
:100CE00081004021FFF7D3FC9DF80A0057287DD1F1
:100CF000C1210AF80610761CF1B2E0220AF80120A0
:100D0000491CC9B2F2220AF80120491CCEB29DF852
:100D1000091050464FF0F00E092906D231318155A5
:100D2000761CF1B200F801E019E0A1F109025A2A9B
:100D300011D2491C0A23B1FBF3F29046303282559E
:100D4000761C03FB1811F6B230318155761CF1B2D6
:100D500000F801E006E08455761CF1B24454491CC9
:100D6000C9B24454491CC9B25E464454491C9DF85A
:100D70000020BBF83C30C9B29A423BD19DF801201B
:100D800096F838309A4235D19DF8022096F82C30EA
:100D90009A422FD14554491CC9B23A2200F801C0E9
:100DA000491CC9B24254491CC9B24554491CC9B274
:100DB0004754491CC9B24254491CC9B20022455487
:100DC000491CC9B20AF80190491CCEB29DF8040032
:100DD0002121FFF76FFC9DF8050000224021FFF75D
:100DE00069FC00229DF80600232100E039E0FFF7AE
:100DF00061FC36E04454491CC9B200224554491CE8
:100E0000C9B200F801C0491CC9B24754491CC9B253
:100E10004454491CC9B24454491CC9B24554491CE4
:100E2000C9B20AF80190491CCEB29DF802002121F6
:100E3000FFF740FC9DF8000000222321FFF73AFC59
:100E40009DF80100401E0C2802D301208DF80100FE
:100E50009DF80110A048002200EB81004021FFF71F
:100E600016FC9DF80A004B287FF409ADC1210AF851
:100E70000610761CF1B2E0220AF80120491CC9B222
:100E8000F2220AF80120491C9DF80900C9B209287C
:100E90000BD231300AF80100491CC8B2EA210AF825
:100EA0000010401CC0B2E52115E0A0F109025A2A49
:100EB00016D2401C0A23B0FBF3F2904630320AF8F7
:100EC0000120491C03FB1800C9B230300AF80100A8
:100ED000491CC8B2EA210AF80010401CC1B20BE05C
:100EE0000AF80140491CC9B20AF80140491CC9B2BC
:100EF0000AF80140491CC9B250465A464454491C9C
:100F00009DF80030BBF83C60C9B2B3423FF4D6ACA8
:100F10003CE0C1210AF80610761CF1B250460AF8EE
:100F20000120491CC9B20AF80130491CCEB29DF813
:100F30000910092902D23131815514E0A1F10902C9
:100F40005A2A0FD2491C0A23B1FBF3F290463032E1
:100F50008255761C03FB1811F6B230318155761C90
:100F6000F1B205E08455761CF1B24454491CC9B273
:100F70005E464454491CC9B24454491C9DF80020A3
:100F8000BBF83C30C9B29A423FF436AC4454491CD9
:100F9000C9B200224554491CC9B200F801C0491C1D
:100FA000C9B24754491CC9B24454491CC9B244543B
:100FB000491CC9B24554491CC9B20AF801909DF8B0
:100FC00002002121FFF776FB00E022E09DF80000FF
:100FD00000222321FFF76EFB9DF80100401E0C2824
:100FE000FFF444AC01208DF801003FE4A2F10903B5
:100FF0005A2B0DD2521C0A25B2FBF5F303F1300631
:101000004654491C05FB1322C9B23032425403E056
:101010004454491CC9B24454491CC9B20AF801409D
:1010200021E470B50446084615461E46FFF776F9DA
:101030002A4B0146FF2804D106E01A54641C401CC8
:10104000C0B22278002AF8D125480078002804D0C0
:10105000002E02D029445F20585470BD2DE9FF4F67
:101060008146DDE90D048A469346FFF757F92022B1
:10107000DFF86C8019490A234FF0640C012C09D168
:1010800098F8005035B10D18A5F10E05AA706A70D8
:101090002A7027E099FBF3F603FB16970D183037FB
:1010A000A5F10E05022CAF7096FBF3F703FB176654
:1010B00006F130066E7099FBFCF606F1300605F875
:1010C0000E6B0FD198F8006066B1A5F10A05AA7001
:1010D0006A702A7028E000005812020070C20720CF
:1010E000B5C007209AFBF3F603FB16A70D1830379F
:1010F000A5F10A05032CAF7096FBF3F703FB176607
:1011000006F130066E709AFBFCF606F13006674673
:1011100005F80A6B08D198F800602EB1A5F1060514
:10112000AA706A702A7022E09BFBF3F603FB16B7E5
:101130000D183037A5F10605042CAF7096FBF3F7B8
:1011400003FB176606F130066E709BFBFCF606F19A
:101150003006674605F8066B09D198F8004034B1AF
:10116000A5F102050A546A702A70BDE8FF8F039C3E
:1011700094FBF3F203FB124430340C5492FBF3F46F
:1011800003FB14220844A0F102003032427003999C
:1011900091FBF7F101F130010170E6E717B501EBC2
:1011A000810002EB8000C2B29DF80030EB4803F0F2
:1011B0000F0100EB1313445CE9498C54521ED2B268
:1011C0001B788B549DF80130521E03F00F04D2B2ED
:1011D000045D8C54521E00EB1313D2B21B788B5457
:1011E0009DF80230521E03F00F04D2B2045D8C54FD
:1011F000521E00EB1313D2B21B788B549DF80330B0
:10120000521E03F00F04D2B2045D8C54521E00EB48
:101210001310D2B2007888541EBD10B5044608469B
:10122000FFF77CF8CD4904F00F028B5CCC4A01EB50
:1012300014111354401EC0B20978115410BD01EBB3
:10124000810102EB8101C54A10B500F00F03C9B25C
:10125000D45CC34B02EB10105C54491EC9B2007839
:10126000585410BD01EB810102EB8101CBB2BB49A7
:1012700010B500F00F028C5CB94AD45404095B1E0F
:1012800004F00F00DBB2085CD0545B1ED8B2230917
:1012900003F00F040C5D1454401E1B09C0B2C95C5E
:1012A000115410BD01EB810102EB8101CBB2AB49BE
:1012B00010B500F001028C5CA94AD45444085B1EAE
:1012C00004F00100DBB2085CD0545B1ED8B26308A6
:1012D00003F001045B080C5D1454401E03F001048C
:1012E000C0B20C5D14545B08401E03F00104C0B290
:1012F0000C5D14545B08401E03F00104C0B20C5D89
:1013000014545B08401E03F00104C0B20C5D145479
:10131000401EC4B25808085C105510BD30B5914944
:1013200001238F4D91F9012091F9041000EB800405
:101330008A4202D105F8243030BD894D4C1C00EBA7
:10134000800005EB8000A24201D1037530BD8C1CEA
:10135000A24202D180F8283030BDCC1CA24202D17A
:1013600080F83C3030BD0C1DA24202D180F85030D4
:1013700030BD4C1DA24202D180F8643030BD8C1DBE
:10138000A24202D180F8783030BDC91D8A42FBD11B
:1013900080F88C3030BD744B1A88521E104400B255
:1013A0001880724A00EB800002446E4813680360A4
:1013B000127902714278114441707047F0B56A4D5C
:1013C0006A4FB5F9004004EB8406641C2C80654C20
:1013D0003E44256835602579357120706170227131
:1013E000A370F0BDF0B505460E461746FEF78DFF1B
:1013F0005B4C0020401C15F8011BC0B204F8011B17
:101400001428F7D35FF00000401C16F8011BC0B28F
:1014100004F8011B1428F7D35FF00000401C17F8F4
:10142000011BC0B204F8011B1428F7D35FF00000C1
:10143000401C13F8011BC0B204F8011B1428F7D399
:10144000F0BD10B5029CFFF7CDFF4648C378827807
:1014500041787820FFF7B2FF642094FBF0F0BDE8FC
:101460001040C0B2FEF721BF2DE9FE4340010D46FA
:1014700000F58060044602A917F02DFA694604F1D0
:10148000080017F028FA01A904F10C0017F023FA5C
:101490002846FEF743FF324C202530262554401CB9
:1014A000C0B24FF021082654401CC0B24FF0400C8F
:1014B00004F80080401CC0B2232104F800C0401C86
:1014C000C0B200222554401CC0B22554401CC0B2FA
:1014D0002654401CC0B22154401CC7B29DF80200E3
:1014E0002121FFF7E7F89DF8000000222321FFF7F4
:1014F000E1F89DF80100401E0C2802D301208DF870
:1015000001009DF801001A49002201EB80004021F2
:10151000FFF7BDF8E5557F1CF8B23A212654401C70
:10152000C0B2002204F80080401CC0B22154401C0C
:10153000C0B221212654401CC0B204F800C0401C97
:10154000C6B29DF80400FFF7B5F89DF8050000222B
:101550004021FFF7AFF8A555BDE8FE83D612020083
:1015600070C20720F0C10720D4C00720180C082043
:10157000581202002DE9FF4105460027FF4C0121CA
:10158000A774A07B022805D0FD4A525D552A04D0DD
:1015900065200EE0A174BDE8FF8105EB450202EB7A
:1015A0000513F84A02EB830696F83D20D30702D0D4
:1015B0006620A074EFE796F83F309B0701D56720BF
:1015C000F7E7920701D56820F3E7EF4AB6F908304C
:1015D000B2F90020934201DD6920EAE752429342CA
:1015E00001DA6A20E5E7012804D1E07B00287ED0FB
:1015F00001287DD06420A074A173A1874FF4F870F6
:1016000017F01AFAE5732946E5874FF4FA7017F0D8
:1016100013FADE48B761002130F9150017F00CFA13
:101620002774A4F8407039464FF4FB7017F004FAA1
:10163000D748D84D0088401C00F0070006EB40005A
:10164000008CADF80000A88B8DF804004FF0630209
:101650004FF0010101A802F0D2FAC84C9DF8040035
:1016600068342070287E8DF804000C22012101A826
:1016700002F0C5FA9DF804006070287B8DF8040024
:101680001F22012101A802F0BAFA9DF80400A070FF
:101690009DF80000E0704FF4FC70216817F00FFA1D
:1016A000287A8DF804001722002101A802F0A7FA79
:1016B0009DF80400207128798DF804003B22002158
:1016C00001A802F09CFA9DF80400607128788DF85A
:1016D00004003B22002101A802F091FA9DF80400C9
:1016E000A0719DF80100E0714FF4FE7001E004E08C
:1016F00005E0616817F0E3F94DE76B2059E76C20CE
:1017000057E72DE9F0479D4CA07B01287DD120466D
:101710000127C07B217CC0F1010207FA02F09B4E39
:10172000984D02B211B1012933D037E01423CA21F8
:10173000C82002F001FA14234FF0FF32CE21CD2051
:1017400002F0FAF9E07B00EB400101EB001005EB41
:101750008000B0F90800FEF7D3FDE17B01EB410208
:1017600002EB011205EB82029369184448F6A0438C
:101770009061984212DBC01A906136F8110017F0A0
:101780002DF8401C01B2E07B36F9100017F054F937
:1017900004E01423CA21C82002F0CEF9E07BA84659
:1017A00000EB400101EB001205EB82017A4AB1F92E
:1017B00002100025B2F900204FF4F87902EB820202
:1017C000B1EB420F40DA218F491C09B221871E2953
:1017D0003BDBA17B012921D1217CF9B936F810002E
:1017E00016F0FCFF01B26D48E27B30F9120017F0F1
:1017F00023F9E07B36F8100016F0F0FF81B2E07BB1
:1018000003F036FA6648E17B00E03EE030F9110073
:10181000002117F011F93220A082E082E07B5849C4
:10182000C0F10100085C552807D0A573A5870021E9
:101830004FEA090017F000F907E02774A4F8407098
:1018400001214FF4FB70F5E72587E17B01EB4100B7
:1018500000EB0112C1F1010101EB410303EB0111A6
:1018600008EB820208EB8100B2F90220B0F9020015
:1018700082420ADB207C012807D1A573A587484650
:10188000BDE8F047002117F0D7B8BDE8F08770B584
:101890003A4C05460026A07BE0B90221A173A1873E
:1018A0004FF4F87017F0C8F8C5EB05108100A58655
:1018B0000D4661874FF4F97017F0BEF829464FF4D2
:1018C000FF7017F0B9F80020E086608601263046E8
:1018D00003F05CFA304670BD10B5284CA07B02289E
:1018E0000FD1A08E03F052FA00206086A086E08619
:1018F000A073A0870146BDE810404FF4F87017F0C0
:101900009BB810BD70B5234C203C94F83800254D91
:10191000297808440C2803D9A08F401C01B201E0AB
:10192000B4F93C10B82017F087F894F838102878EC
:1019300001440C2994F8381000D90C380144B62021
:1019400017F07AF894F82C001C2801D91C2101E02A
:1019500094F82C10B42017F06FF804F12004217AC9
:101960004FF0AE0017F068F82179B02017F064F856
:101970002178BDE87040B22016E0000004C00720C6
:1019800022C10720D4EE0720BAC30720CC0B0200E7
:1019900084C1072020400240B8C30720E80B0200A2
:1019A000C80B0200BCC0072017F046B810B5FF48AE
:1019B000FF4C007830B3FF48818FFF4A1288914274
:1019C00020D190F83810FD4A128891421AD190F82F
:1019D0002C10FB4A1288914214D190F82810F94A31
:1019E000128891420ED190F82410F74A1288914241
:1019F00008D190F82000F5490988884202D10120D9
:101A0000607402E0607C00280BD0F1480088C0B20E
:101A1000FFF73DFF002804D000206074BDE81040AF
:101A200070E710BDEB486FF03B010088C0EB001081
:101A300001EB8000DE4988857047DD4940F2F9609E
:101A40004885704770B5DA4C608D401C00B26085E7
:101A5000B0F5E16F02DB0020608570BDB0F5DF6F8F
:101A600011D90F2301226421D22002F065F80F233F
:101A70000022D821D72002F05FF80F230022D821BE
:101A8000DC2002F059F8B4F92A00A0F5E06107392A
:101A9000E3D1D14ED14CD24D30882188884205D037
:101AA000B4F90010B5F9000016F0C6FF708861881F
:101AB0008842D2D0B4F90210B5F90200BDE87040F6
:101AC00016F0BABF10B5C74C082200212088401C70
:101AD0002080204602F0A9F8C348B4F9001000EBBA
:101AE000410142880A84B0F84E00A1F86C0010BD94
:101AF0002DE9F05FDFF8F482BD4E4FF4FA65B8F9D6
:101B00000010B6F90000B84C484390FBF5F0B94915
:101B10006080B8F90820B1F900004FF42F735043EA
:101B200090FBF3F0A080B8F91820B6F902005043FA
:101B300090FBF5F0A4F84E00B8F90220B1F90200CC
:101B4000504390FBF3F0A4F85000DC2002F02BF897
:101B5000DFF8A4E2F0BBDFF88492DFF87CA245F264
:101B60001366B9F80000BAF8001045F6386B401A51
:101B7000A249B71E45F69263B1F9001045F2FA5238
:101B80004143BEF80000584501D0984202D14FF4BD
:101B9000967C0AE0904203D0B04201D0B84202D114
:101BA00091FBF5F103E04FF47A7C91FBFCF121818C
:101BB000B9F80210BAF802C05845A1EB0C0C8F49D5
:101BC000B1F9021001FB0CF101D0984203D14FF49E
:101BD00096700BE00EE0904203D0B04201D0B842C4
:101BE00002D191FBF5F003E04FF47A7091FBF0F035
:101BF000A4F85400B8F90C3040F6B731A3F22135FF
:101C0000012200208D4201D2207300E022737C4E1D
:101C100044F6206CB6F900505D4395FBFCF3A3F24B
:101C200011136381B8F90E30A3F221358D4202D22F
:101C300084F8580001E084F85820B6F902505D435A
:101C400095FBFCF3A3F21113A4F856306D4BB3F9D6
:101C500000506D4B35B96D4E6D4F36883E806D4EE0
:101C600036881E80B3F90060002E00DA18801DB996
:101C7000694B6A4E1B683360B8F90A300F46A3F20D
:101C800021366749BE4201D2086000E00A60DFF8F1
:101C900094B1DFF89491BBF900605E4396FBFCF3CE
:101CA000A3F21113A9F80030B8F91430A3F22136C9
:101CB000BE4201D2486000E04A60BBF902605E4368
:101CC00096FBFCF3A3F211131BB2A9F802309A465B
:101CD000B8F90630A3F22136BE4201D2886000E096
:101CE0008A60BBF90420514E5A4392FBFCF2A2F2E7
:101CF000111212B2A9F80420DFF834C191463388DA
:101D0000BCF900204FF47A685A4392FBF8F2494B31
:101D100092B2494F1A80642A01D3484A12883A8005
:101D20007288BCF90260DFF820C1564396FBF8F2D6
:101D30005A80434ADFF80C81B2F90030B8F90060EC
:101D40005E4341F2707396FBF3F6ACF80060B2F9B3
:101D50000270B8F902607E4396FBF3F6ACF80260BD
:101D6000B8F90460B2F90470DFF8E0807E4396FBB6
:101D7000F3F6ACF80460B2F90670B8F90060DFF869
:101D8000D0C07E4396FBF3F6ACF80060B2F9087061
:101D9000B8F902607E4396FBF3F6ACF80260B2F944
:101DA0000A20B8F90460564354E00000BCC0072084
:101DB00004C007200040024030C107202EC1072088
:101DC0002CC1072026C1072028C107202AC10720CF
:101DD00032C10720C2C307203600001012EC0720D2
:101DE000F40B020084C10720D4EE07202067001006
:101DF00032000010A0C3072024C10720A4C307207D
:101E00003A0000101EC1072088C10720E4C3072044
:101E100086C107207600001078000010DCC1072082
:101E2000940B0820AAC307202AC2072030C207202B
:101E30003E00001036C20720A2C107208CC1072037
:101E4000680C0820960000103CC20720F8C3072049
:101E500042C2072096FBF3F2ACF804200AF21112FA
:101E600013B2FF4F09F2111216B23B807E804A680E
:101E700012F0FF023A728968C9B27972F94F04D040
:101E8000012A0ED012B10DD020E011B1012910D0DD
:101E90001CE0991901EBD1716FF4887202EB6101BA
:101EA00013E011B1012908D010E0A6F211163E800E
:101EB0000CE0A3F211133B8008E0EB4909780529F7
:101EC00002D2EA49098800E014213980E84AE94948
:101ED0001378552B05D1B4F90230C82B01DD2389C5
:101EE0000B855278552A0AD1B4F94E20C82A06DD4E
:101EF000B4F95420B4F908309A4200DD0A85BEF8DE
:101F00000020A2F5AC432F3B03D0283301D0143B73
:101F100002D1D94A12880A85D9490022DFF85C83A8
:101F2000B1F900302FE000BFC2EBC20101EB41016B
:101F300008EB8101CC78192C1CD28C79CE7904EB7A
:101F400006244C620C7A4E7A04EB06240C628C7ADE
:101F5000CE7A04EB0624CC610C7B8C624C7B81F83E
:101F600052408C7B81F842400C7C4E7C04EB062472
:101F7000CC6406E0C86148620862886281F8420069
:101F8000C864521CD2B29A42CEDBDFF8F8C20621F6
:101F9000CCF81810BC49B1F90040C4B3002349E0A3
:101FA000C3EBC30101EB410108EB810191F89326DA
:101FB000192A2DD201F296610A784E7802EB062694
:101FC00003EB430202EBC3020CEBC202D6618F7833
:101FD000CE7807EB062616860E794F7906EB072694
:101FE00096618E791662CE7982F846600E7A4F7AC3
:101FF00006EB072696628E7ACF7A06EB07265662A4
:102000000E7B497B06EB0121D162907010E013E05A
:1020100003EB430101EBC3010CEBC1011922C861C1
:1020200008868861086281F84600486288628A7082
:102030005B1CDBB2A342B3DB944915B18A7B3C2A1B
:1020400006D3088048604880087348730881488137
:10205000BDE8F09F8E4A8F481178042901D00129EC
:1020600005D1517819B98C490978552902D08B4985
:10207000098803E00178002901D0491E01707047EA
:102080008748416821F4402141F480214160416842
:1020900021F4403141F480314160416821F44041F4
:1020A00041F480414160416C21F4402141F4002120
:1020B0004164416C21F4403141F400314164416C90
:1020C00021F4404141F4004141647648016821F027
:1020D000E0610160016841F400110160016821F4D0
:1020E00080310160016821F47F4141F48071016019
:1020F0008115C1606C488903016070472DE9F0418A
:102100005C4C5C3460882188401A00B202F067FFA2
:10211000A51D2880A0886188401A00B202F05FFFE8
:102120006880A0882188401A00B202F058FF4FF45E
:1021300096725049A880904201DAA0880AE0B5F969
:102140000200904201DA608804E0B5F90000904294
:1021500001DA2088888391F802C00023BCF1000FC7
:1021600022D05248B1F91C20046814440460446829
:1021700014444460846814448460C4682244C26087
:102180008A8C521C12B28A84B2F5805F00DB8B8489
:10219000B1F9242094052FD1921250F82240241234
:1021A0004C8340F8223027E0414FC8780C7907EB88
:1021B0008015B1F91C2045F82420A20710D1002574
:1021C0002A4607EB801600BF56F82270521CD2B286
:1021D0003D44102AF8D32A11344D203D25F8102013
:1021E000401CC0B2C870102806D3641CE0B2CB708B
:1021F0000871102800D30B710CF1010C4B701CF00E
:102200000100284A887005D0106820F0FF00001DEA
:10221000106060E0C97808070028106820F0FF000F
:1022200002DB00F1010001E000F102001060214832
:10223000036843F080530360036A43F08043036202
:10224000036E43F080630366CB07436934D043F0E9
:10225000805343618B07436B31D423F0804330E0DC
:10226000EE0B08209AC10720CCC00720A6C107208A
:1022700022C1072004C007207400001014F00720BA
:1022800010C1072034FD072012C107208407082051
:10229000F0C107209AC00720E0C3072034C10720FF
:1022A00000C002400040034000E100E04067001031
:1022B0002063001000C0092023F08053C9E743F0D9
:1022C000804343634907416F02D421F0806101E0FC
:1022D00041F080614167106840F080701060BDE897
:1022E000F0812DE9F041FE4C60882188401A00B24F
:1022F00002F075FEA51D2880A0886188401A00B2F2
:1023000002F06DFE6880A0882188401A00B202F0B9
:1023100066FE4FF49672A880A4F15C01904201DA47
:10232000A0880AE0B5F90200904201DA608804E072
:10233000B5F90000904201DA208888838E78002069
:10234000F6B34C79E74A8CB1B1F91C30156805EB4E
:10235000A3051560556805EBA3055560956805EB69
:10236000A3059560D56805EBA303D360B1F91C30D4
:10237000642B0EDA0B8C4FF4FA655B1C1BB20B84DA
:10238000AB4208DB0D84106050609060D0604883E1
:1023900052E0088450E0052B4ED1A4B1CB8B5B1CDE
:1023A0001BB2CB83B3F5007F00DBC883B1F91E30CD
:1023B0005D0608D1DB1152F823502D124D8300E049
:1023C0000FE042F82300B1F92220962A01DD04B182
:1023D00048711F3A272A2FD24A796ABB01224A71D3
:1023E0002AE0C14FCA7891F804C007EB8214B1F912
:1023F0001C3044F82C305FEA8C730FD10024234644
:1024000007EB821555F823705B1CDBB23C44102BA4
:10241000F8D32311B34C203C24F81230521CD2B212
:10242000CA70102A08D30CF1010C0CF0FF02C8701E
:102430000A71102A00D308714870761C16F001004A
:10244000AA4A887005D0106820F0FF00001D1060B7
:1024500032E0C97808070028106820F0FF0001DB8F
:10246000401C00E0801C1060A148036843F08053CA
:102470000360036A43F080430362036E43F08063AA
:102480000366CB07436908D043F0805343618B0751
:10249000436B05D423F0804304E023F08053F5E739
:1024A00043F0804343634907416F02D421F08061C8
:1024B00001E041F080614167106840F08070106079
:1024C0000DE7F0B586485C38B0F9181019B1A1F1E4
:1024D0000101018385E00022874C82721346854901
:1024E000B4F9004011E000BFC3EBC30505EB45059F
:1024F00001EB8505AE78012E05D1ED78142D02D2C1
:10250000857A6D1C85725B1CDBB2A342ECDB867A9C
:10251000022E66D341F28833C0E911230023C2643E
:1025200017E000BFC3EBC30505EB450501EB8505CF
:10253000AF78012F0BD16D6A476CBD4200DD456459
:10254000876CBD4200DA8564C76C3D44C5645B1C82
:10255000DBB2A342E6DBC36C012593FBF6F707650C
:10256000836C03B98564436C64267343866C93FB68
:10257000F6F34365A02B00DD4572782B01DA427239
:102580002FE0407A01282CD100226FF0310326E0A1
:10259000C2EBC20000EB400001EB80008578012D0A
:1025A0001BD1456ABD4205DDB0F85050A5F10105CB
:1025B000A0F8505005DAB0F8505005F10105A0F828
:1025C0005050B0F950509D4202DAA0F8503004E06B
:1025D000322D02DD3225A0F85050521CD2B2A24258
:1025E000D6DB00BFF0BD45480168454A1140016097
:1025F0003F4A116841F47C711160C16921F44021A6
:10260000C161116E41F000711166416821F04061B5
:102610004160106840F0005010603A4991F846005F
:1026200083063948B0F9000002D58B781E2B01D9FA
:1026300000284FDC91F89E309B0603D591F85A3064
:102640001E2B01D9012845DC91F8F6309B0603D5F5
:1026500091F8B2301E2B01D902283BDC91F84E31A3
:102660009B0603D591F80A311E2B01D9032831DCD2
:1026700091F8A6319B0603D591F862311E2B01D942
:10268000042827DC91F8FE319B0603D591F8BA3176
:102690001E2B01D905281DDC91F856329B0603D567
:1026A00091F812321E2B01D9062813DC91F8AE32B4
:1026B0009B0603D591F86A321E2B01D9072809DC45
:1026C00091F806339B0603D591F8C2121E291DD935
:1026D00008281BDD906940F01000906170470000F1
:1026E00060C00720406700102063001000400340D6
:1026F00000C0092014F0072010C1072000C00240CC
:10270000FF00F0FF34FD072012C10720D06940F020
:102710001000D061E2E72DE9F041FE4C01260025D2
:10272000207B0A2806D2401CC0B220730A2801D39D
:1027300025736673E5852586CD2001F034FAF649C8
:10274000DFF8D8E3E0B1F6484FF6FF730268CE2A0F
:1027500008D0CF2A08D0D12A08D0D22A09D0D02A2E
:1027600009D053E0238651E0406807E04068E085E7
:102770004CE0E3854AE04068E085C043208645E0C0
:10278000607BB0B300221046BEF900300AE000BF03
:10279000C0EBC00707EB470701EB8707401C87F832
:1027A0002C60C0B29842F3DDDE4E0020B6F9006026
:1027B00014E000BFC0EBC00707EB470701EB87073A
:1027C00097F802C0BCF1020F02D0BCF1010F03D197
:1027D000521C87F82C50D2B2401CC0B2984201DA89
:1027E000B242E7DBD048B0F900003C280EDA002006
:1027F0000AE00BE0C0EBC00202EB420201EB8202F6
:10280000401C82F82C50C0B29842F3DD00206326B1
:10281000BEF900700EE000BFC0EBC00202EB420246
:1028200001EB8202D36B1BB182F82C605B1ED36379
:10283000401CC0B2B842EFDB6573E5720020BC4DAE
:10284000034601460246DFF8E4C2B5F9006016E02F
:1028500002EB420505EBC2050CEBC50595F8467089
:10286000BF060AD5E77A7F1CE772AF693B44EF6980
:10287000B5F93050384400B22944521CD2B2B242A9
:10288000E6DBE27A002893FBF2F2AA4B1A8000DA28
:102890000020A94A0029108000DA0021A748016021
:1028A0001DE570B5044607220121A54801F0A7F9EE
:1028B00004EB440000EBC4019C4800EBC1059548C3
:1028C00095F8471095F8462000F15800514000D087
:1028D00041700A4000D0827001EA0203DB071ED07B
:1028E000C178491CC17034B1012C09D0022C0CD024
:1028F000032C0FD0E4E001231A460E2191A0DDE065
:10290000012302220E2196A0D8E0012303220E21EA
:102910009AA0D3E0012304220E219FA0CEE08B07D2
:1029200020D593071ED5C178491CC17034B1012C44
:1029300009D0022C0CD0032C0FD0C1E002230122BD
:102940000E219CA0BAE002231A460E21A0A0B5E0F9
:10295000022303220E21A5A0B0E0022304220E21AF
:10296000A9A0ABE04B0720D553071ED5C178491C61
:10297000C17034B1012C09D0022C0CD0032C0FD023
:102980009EE0032301220E21A6A097E0032302224A
:102990000E21ABA092E003231A460E21AFA08DE0DA
:1029A000032304220E21B4A088E00B0720D51307CF
:1029B0001ED5C178491CC17034B1012C09D0022C3C
:1029C0000CD0032C0FD07BE0042301220E21B1A0F8
:1029D00074E0042302220E21B7A06FE00423032237
:1029E0000E21BEA06AE004231A460E21C4A065E0B1
:1029F000CB0620D5D3061ED5C178491CC17034B191
:102A0000012C09D0022C0CD0032C0FD058E0052348
:102A100001220E21C3A051E0052302220E21CAA0EB
:102A20004CE0052303220E21D0A047E00523042219
:102A30000E21D7A042E08B0620D593061ED5C17883
:102A4000491CC17034B1012C09D0022C0CD0032CCC
:102A50000FD035E0062301220E21D6A02EE006235A
:102A600002220E21DCA029E0062303220E21E3A08E
:102A700024E0062304220E21E9A01FE001B3FAB9E5
:102A8000C178491CC17034B1012C09D0022C0CD082
:102A9000032C0FD014E0002301220E21E9A00DE049
:102AA000002302220E21ECA008E0002303220E21C5
:102AB000EEA003E0002304220E21F1A014F0AFF8F1
:102AC00015F8460F687070BD70B5F2490020F24DE0
:102AD000B1F90C200121034601FA00F4224201D091
:102AE000295400E02B54401CC0B20C28F4D3EB4C0A
:102AF0002878EB4E217881420AD0B6F900100129DE
:102B000006DB012805D0002301220B21E5A0D3E13B
:102B1000D4E15DE204C0072014F0072010C10720B3
:102B200014000010F4C30720D2C0072034FD072092
:102B300012C10720E4C307207600001078000010BF
:102B400099C00720496E766572746F722023312018
:102B5000416C61726D2C206F7665726C6F616400E0
:102B6000496E766572746F7220233220416C6172F7
:102B70006D2C206F7665726C6F616400496E7665AE
:102B800072746F7220233320416C61726D2C206F40
:102B90007665726C6F616400496E766572746F72EF
:102BA00020233420416C61726D2C206F7665726C2D
:102BB0006F616400496E766572746F7220233120F4
:102BC000416C61726D2C206F76657268656174006E
:102BD000496E766572746F7220233220416C617287
:102BE0006D2C206F7665726865617400496E76653C
:102BF00072746F7220233320416C61726D2C206FD0
:102C00007665726865617400496E766572746F727C
:102C100020233420416C61726D2C206F76657268C0
:102C200065617400496E766572746F72202331207D
:102C3000416C61726D2C206973207761726D0000A8
:102C4000496E766572746F7220233220416C617216
:102C50006D2C206973207761726D0000496E766576
:102C600072746F7220233320416C61726D2C206965
:102C700073207761726D0000496E766572746F72B1
:102C800020233420416C61726D2C206973207761A0
:102C9000726D0000496E766572746F722023312068
:102CA000416C61726D2C20766F6C74616765206970
:102CB0007320757000000000496E766572746F7243
:102CC00020233220416C61726D2C20766F6C746110
:102CD000676520697320757000000000496E766595
:102CE00072746F7220233320416C61726D2C2076D8
:102CF0006F6C746167652069732075700000000057
:102D0000496E766572746F7220233420416C617253
:102D10006D2C20766F6C7461676520697320757007
:102D200000000000496E766572746F7220233120B6
:102D3000416C61726D2C20766F6C746167652069DF
:102D40007320646F776E0000496E766572746F72DF
:102D500020233220416C61726D2C20766F6C74617F
:102D6000676520697320646F776E0000496E766531
:102D700072746F7220233320416C61726D2C207647
:102D80006F6C7461676520697320646F776E0000F3
:102D9000496E766572746F7220233420416C6172C3
:102DA0006D2C20766F6C7461676520697320646F89
:102DB000776E0000496E766572746F722023312041
:102DC000416C61726D2C206F75747075742069731D
:102DD000206F666665640000496E766572746F7276
:102DE00020233220416C61726D2C206F75747075D8
:102DF00074206973206F666665640000496E7665AD
:102E000072746F7220233320416C61726D2C206FBD
:102E10007574707574206973206F66666564000050
:102E2000496E766572746F7220233420416C617232
:102E30006D2C206F7574707574206973206F6666D1
:102E400065640000496E766572746F7220233120CC
:102E50006973206E6F726D00496E766572746F7261
:102E6000202332206973206E6F726D00496E766583
:102E700072746F72202333206973206E6F726D003D
:102E8000496E766572746F72202334206973206EE8
:102E90006F726D00680C08200C0C08206067001031
:102EA0001AC107204176746F6D6174202331206947
:102EB00073204F464600000013F0B1FE6178687839
:102EC00081420BD0B6F90010022907DB01287DD022
:102ED000002302220B21FDA013F0A1FEA178A87807
:102EE00081420BD0B6F90010032907DB012879D005
:102EF000002303220B21FAA013F091FEE178E87879
:102F000081420BD0B6F90010042907DB01286ED0EE
:102F1000002304220B21F7A013F081FE21792879E8
:102F200081420BD0B6F90010052907DB012863D0D8
:102F3000002305220B21F4A013F071FE617968795A
:102F400081420BD0B6F90010062907DB012858D0C2
:102F5000002306220B21F1A013F061FEA179A879CC
:102F600081420BD0B6F90010072907DB01284DD0AC
:102F7000002307220B21EEA013F051FEE179E8793E
:102F800081420BD0B6F90010082907DB012842D096
:102F9000002308220B21EBA013F041FE217A287AAE
:102FA00081420BD0B6F90010092907DB012837D080
:102FB000002309220B21E8A013F031FE0020295C38
:102FC0002154401CC0B20C28F9D370BD05E009E0C3
:102FD00001231A460B21E5A099E5012302220B21CA
:102FE000E7A079E7012303220B21EAA084E701236C
:102FF00004220B21ECA08FE7012305220B21EFA077
:103000009AE7012306220B21F1A0A5E7012307225D
:103010000B21F4A0B0E7012308220B21F6A0BBE7A7
:10302000012309220B21F9A0C6E72DE9F041FC4F4D
:10303000FC48FD4CB7F90010B0F90020B4F90000CD
:10304000914202DD00F1010002E002DAA0F101008C
:10305000208006220021F44800F0DCFDB4F90010C5
:10306000F2480126052900DD06700024012900DA56
:103070000470EF48B7F90010EF4DB0F90020ED48AB
:10308000931E99420BDA90F900201E2A16DA521C80
:1030900052B202701E2A11DB2A88521E0CE09142A5
:1030A0000BDD90F900201E2A08DA521C52B2027081
:1030B0001E2A03DB2A88521C2A800470DF48B84687
:1030C000B0F90000814201DD142203E0DC480088F1
:1030D000093002B20021D84800F09CFDF02000F039
:1030E00062FD28B1D7480168F12901D140682880E4
:1030F000B5F90010D448012901DC067000E0047025
:10310000D248D34FB0F90000A0F1320128291BD8D2
:10311000B8F90010CF4D814202DD2888401C28807C
:10312000CD48B0F90000814202DA2888401E28808C
:1031300006220021C74800F06DFDB5F90000052802
:1031400000DD3E70012800DA3C70C448C44FB0F97D
:103150000000A0F132011E291BD8B8F90010C14DA2
:10316000814202DD2888401C2880BF48B0F9000059
:10317000814202DA2888401E288006220021B948B0
:1031800000F048FDB5F90000052800DD3E7001287B
:1031900000DA3C70BDE8F081F8B5B44C0021A079AC
:1031A0000A2807D2401CC0B2A0710A2802D3A1711C
:1031B00001202072E079052805D2401CC0B2E071E0
:1031C000052800D1E171BE2000F0EDFCA84928B12E
:1031D0009C480268BF2A5BD1406858E0207A88B3D7
:1031E000A44A1078552805D05078552802D0A24816
:1031F00000884CE0A14D00204FF0140C6B466FF09E
:103200001307165C552E0FD023F81070401CC0B267
:103210000228F6D3BDF90030BDF902209848934248
:1032200015DD1A46036013E000EB400606EB0016BE
:1032300005EB860696F80CE0BEF1000F03D023F8EC
:1032400010C0E3E724E0768923F81060DEE702602F
:103250008C4B002A02DAB3F9000012E0282A01DDC3
:1032600028220260884AB3F900300068B2F90020D1
:10327000D21A02EB820252004243C82092FBF0F0C5
:103280001844A27B022A02D18048B0F900000880CD
:10329000B1F9000062214143642291FBF2F17C4BC1
:1032A00019806621484390FBF2F07A490880F8BD06
:1032B0002DE9F05F7A4E00207749DFF8E0814FF08A
:1032C0000A0B8246B6F9003011E100004176746FB6
:1032D0006D6174202332206973204F464600000040
:1032E0004176746F6D6174202333206973204F46DB
:1032F000460000004176746F6D61742023342069AC
:1033000073204F46460000004176746F6D61742053
:103310002335206973204F46460000004176746FC4
:103320006D6174202336206973204F4646000000EB
:103330004176746F6D6174202337206973204F4686
:10334000460000004176746F6D6174202338206957
:1033500073204F46460000004176746F6D61742003
:103360002339206973204F46460000004176746F70
:103370006D6174202331206973204F4E20000000BE
:103380004176746F6D6174202332206973204F4E33
:10339000200000004176746F6D6174202333206932
:1033A00073204F4E200000004176746F6D617420D1
:1033B0002334206973204F4E200000004176746F43
:1033C0006D6174202335206973204F4E200000006A
:1033D0004176746F6D6174202336206973204F4EDF
:1033E000200000004176746F6D61742023372069DE
:1033F00073204F4E200000004176746F6D61742081
:103400002338206973204F4E200000004176746FEE
:103410006D6174202339206973204F4E2000000015
:103420009AC10720ECC00720FEC307209EC30720D7
:10343000EEC007209CC30720AAC10720F0C00720C8
:10344000A4C107201400001030000010F6C00720AF
:103450009DC307209C000010F8C00720F2C0072081
:103460003100001000C40720F4C0072004C007206A
:103470009CC1072022C10720C0C30720D4EE07202B
:103480008C000010B4C307204A0000105000001048
:1034900088000010F2C30720E9C30720B1C107204C
:1034A00016C10720FF4A125CFF4C34F91220B2F516
:1034B000FA6F0A560DDA0A2A08DA521C52B20A5476
:1034C0000A2A12DB012208F800200EE001F800B001
:1034D0000BE0002A07DB521E52B20A54002A04DC19
:1034E00008F800A001E001F800A0401CC0B298421A
:1034F000D8DB0024DFF8B493ED4DEE4F70E0EE48DA
:1035000030F81400002818F8040001D078B101E068
:1035100001280CD019F90400002818DB401E40B225
:1035200009F80400002814DC05F804A011E019F9DA
:1035300004100A2908DA491C49B209F804100A29BA
:1035400007DB0120285504E009F804B001E009F880
:1035500004A0395D285D81423ED0D84AD18C491CF7
:10356000D184012807D014B3012C25D0022C28D0F7
:10357000032C2BD030E034B1012C09D0022C0CD01C
:10358000032C0FD028E001231A460F21CCA021E004
:10359000012302220F21CDA01CE0012303220F21D1
:1035A000CDA017E0012304220F21CEA012E00023BA
:1035B00001220F21CEA00DE0002302220F21D1A075
:1035C00008E0002303220F21D3A003E000230422FC
:1035D0000F21D6A013F023FB285D3855641CE4B2FC
:1035E000B6F9000084428ADBBDE8F09FD449D54A91
:1035F0000120087010704870507070472DE9F05F1E
:10360000D248DFF84CE3DFF840C3B0F90070BEF9F0
:103610000000AA4CC0EB0011BCF902506FF01D0A6B
:103620006FF0950B0026DFF81883B4F92C000AEB35
:1036300081020BEB8103BD4204DCC64FB7F9007079
:10364000BD4205DA824203DD834201DA88F8006078
:10365000C14DE146BCF908C0B5F90050B94FBCEB0B
:10366000450F03DC6D42BCEB450F04DA824202DDFC
:10367000834200DA3E706FF0090202EB8101754669
:10368000814220D1A07BF0B998F8000001281AD11E
:103690003878012817D14FF4D67015F09FF8AF494C
:1036A000B1F9001088420ED0AD48008858B199F8A1
:1036B0003D00C00707D14FF4D67015F0BDF9A948F9
:1036C0000178491C0170A149B9F902204846B1F9B5
:1036D00000108A4206DC9F49B0F94E20B1F9001073
:1036E0008A420FDAB5F90010B4F92C20C1EB0111B0
:1036F0000AEB8103934205DD0BEB8101914201DA74
:1037000088F801609449B9F95400B1F90010B0EBA0
:10371000410F03DC4942B0EB410F0EDAB5F900006E
:10372000B4F92C10C0EB00100AEB80028A4204DDD1
:103730000BEB8000884200DA7E70B5F90000C0EB28
:1037400000116FF0090000EB8100B4F92C108842E1
:1037500022D1A07B00BB98F8010001281CD1787809
:10376000012819D14FF4E576304615F037F80246B6
:103770007A48B0F902108A420ED0794800880228AF
:103780000AD199F88900C00706D1304615F054F9DE
:1037900074480178491C0170B5F900006FF001010F
:1037A000C0EB001001EB8000B4F92C10884202D16C
:1037B000BDE8F05F1AE717E72DE9F04F6A48DFF838
:1037C000FC806B490378694898F90020B1F9001032
:1037D000B0F9000088B023B1022B34D0012B5ED0A9
:1037E0006FE1644E584B347896F801C0B3F90A5033
:1037F0001F7BB3F9566093F8583022B1012A0FD1DC
:10380000552C14D10FE0552C03D1854248DC002FF4
:1038100046D1BCF1550F03D1864241DC002B3FD18C
:1038200008B0BDE8F08F8D42FADA002FF8D1BCF174
:10383000550F36D18E42F3DA002B32D0F0E700BFBD
:1038400088F80000ECE74D4C4B4B94F803C0B3F9FB
:103850000030A76AE56F009594F857500195D4F8A9
:10386000D050029594F8AB500395D4F824510495A8
:1038700094F8FF500595D4F87851069594F8535173
:10388000AE46D4F8CC51079594F8A751D4F8746299
:10389000AB46D4F82052AA4694F8FB5170E0EEE013
:1038A000ECE0EAE0C30B0200206700108400001087
:1038B000B5C10720EDC3072048C2072004C0072078
:1038C000534B20233120416C61726D00534B2023F8
:1038D0003220416C61726D00534B20233320416CC8
:1038E00061726D00534B20233420416C61726D0076
:1038F000534B20233120416C61726D206973206F1E
:1039000066660000534B20233220416C61726D20AB
:103910006973206F66660000534B20233320416C8F
:1039200061726D206973206F66660000534B20231F
:103930003420416C61726D206973206F66660000EF
:1039400090000010F6C30720D4EE0720F2C3072032
:10395000C2C3072088000010BAC30720D4C10720C3
:103960000EC107209200001060000010C8C307209D
:103970005E00001022C1072010C1072014F00720AC
:1039800094F84F42B146C3B3874277DCBCF11E0FB7
:1039900074D2012B05DD009E86426FDC019E1E2E37
:1039A0006CD2022B05DD029E864267DC039E1E2E32
:1039B00064D2032B05DD049E86425FDC059E1E2E2D
:1039C0007FD2042B05DD069E86427ADCBEF11E0FF7
:1039D00077D2052B05DD079E864272DCBBF11E0FF8
:1039E0006FD2062B03DD82456BDC1E2D69D2072BBF
:1039F00003DD814565DC1E2C63D2012A7FF41EAFF6
:103A0000DBB38F42BFF61AAFBCF10A0FBFF416AF9B
:103A1000022B2BDB00988842F4DA01980A28F5D2B1
:103A2000032B23DB02988842ECDA03980A28EDD2B4
:103A3000042B1BDB04988842E4DA05980A28E5D2B7
:103A4000052B13DB06988842DCDABEF10A0FDDD2C3
:103A5000062B0BDB07988842D4DABBF10A0FD5D2CC
:103A6000072B03DB8A45CDDA0A2DCFD2082B3FDBAB
:103A70008945C7DA0A2C3BD3D2E639E021E01E4C57
:103A80001C4BB4F90050B4F90260AA461B4DB3F9BF
:103A90000030B4F90440D5E900C7AD68B94693B128
:103AA00082450EDCBCF1000F0BD1012B04DD8642F8
:103AB00007DCB9F1000F04D1022B04DD844200DCE5
:103AC0000DB10120BCE6012AD6D18BB18A45D3DAEB
:103AD000BCF1000FD0D1022B04DB8E42CCDAB9F15D
:103AE000000FC9D1032B03DB8C42C5DA002DC3D1F3
:103AF0000020A5E614C107202AC20720940B082045
:103B000070B5374A0020A2F11401064601F10A03FC
:103B10000C5C54B11D5CAC4207D1145C2CB1641E2A
:103B200014F0FF04145400D10E540C5C1C54401CBF
:103B3000C0B20A28ECD370BD70B5294D0024143DE5
:103B4000641CE4B22E5D1EB1864201D00A2CF7D36C
:103B5000285523480C3040F82410283040F8242001
:103B60003438035570BD1E4A0021143A491CC9B2AD
:103B7000535C834201D00A29F8D3DBB2834210D1CF
:103B800017480C3050F8213016480360144B34337A
:103B900053F82130436000205054114A5054012002
:103BA0007047002070470E4A0021143A491CC9B2E0
:103BB000535C834201D00A29F8D3DAB282420CD195
:103BC00007480C3050F8212006480260044A34327D
:103BD00052F821104160012070470020704700001A
:103BE00078EE07201400001090F900308B4200DAC4
:103BF000027090F90030934200DD0170704790F937
:103C000000308B4200DA017090F90010914200DD23
:103C100002707047B0F900308B4200DA0180B0F9D1
:103C20000010914200DD02807047B0F900308B42F5
:103C300000DA0280B0F90030934200DD0180704765
:103C400003688B4200DA02600368934200DD016082
:103C50007047000070B5FA480278FA48016812B15E
:103C600041F0010101E021F001010022F64C016068
:103C70005FF0010102EB420303EB021304EB830349
:103C800093F83D30DB0706D0551C01FA05F30568B3
:103C90009D431D4304E0531C056801FA03F39D4353
:103CA000521CD2B20560022AE4D3E84C002200BFC5
:103CB000C2EBC20303EB430304EB83035B7833B132
:103CC000D51C01FA05F305689D431D4303E0D31C91
:103CD00001FA03F39D43521CD2B205600C2AE7D3CC
:103CE0002A46D84D00231435EC5C34B103F10F069D
:103CF00001FA06F4A243224304E003F10F0401FA9F
:103D000004F4A2435B1CDBB2062BEDD3D04D0023A1
:103D10000260EC5C012C2FD003F1190401FA04F4C9
:103D2000A2435B1CDBB2042BF3D30260836822EA5C
:103D30000301C16044680C43C64944600D8815B155
:103D400024F0007444604C881CB1446824F0806402
:103D500044608C881CB1446824F000644460C988C5
:103D600019B1416821F0805141609343D943BA4B66
:103D700001611B883BB109E003F1190601FA06F461
:103D8000A2432243CDE761F001010161036941686B
:103D90001940C0E9011270BDF8B54FF460652846BE
:103DA00014F01CFD401C04463F2800D9002421B219
:103DB000284614F041FE40F60266304614F00EFD2F
:103DC0003F2800D0204601B2304614F035FE284688
:103DD00014F004FD4FF4806101EB401555208DF87F
:103DE000000000248DF8014052208DF802008DF86B
:103DF00003406946284614F0A4FE6946281D009435
:103E000014F09FFE954E308B8DF80000307D8DF8BC
:103E10000100307A8DF802008DF80340694605F103
:103E2000080014F08EFE30798DF8000030788C4E4A
:103E30008DF8010030688DF802008DF80340694666
:103E400005F10C0014F07DFE41248DF800408DF842
:103E500001408DF802408DF80340694605F11000DD
:103E600014F06FFE8DF800408DF801408DF802408F
:103E70008DF80340694605F1140014F062FE8DF8D8
:103E800000408DF801408DF802408DF803406946EE
:103E900005F1180014F055FE8DF800408DF8014032
:103EA0008DF802408DF80340694605F11C0014F0BE
:103EB00048FEFF203060F8BD2DE9F843674D604AA9
:103EC000243D00262F154FF46061012802D0002800
:103ED0007DD036E1012010708846084614F07EFC43
:103EE000401C04463F2800D9002421B2404614F06B
:103EF000A3FD40F60269484614F070FC3F2800D04C
:103F0000204601B2484614F097FD404614F066FC86
:103F100007EB401750208DF800008DF80160412418
:103F20008DF802408DF803606946384614F009FEAA
:103F30006946381D009614F004FE05F12005A88B93
:103F40008DF80000287E8DF80100287B8DF8020096
:103F50008DF80360694607F1080014F0F2FD287A35
:103F60008DF8000028798DF8010028788DF802007E
:103F70008DF80360694607F10C0014F0E2FD8DF83E
:103F800000408DF801408DF802408DF803406946ED
:103F900007F1100014F0D5FD8DF800408DF80140B8
:103FA0008DF802408DF80340694607F1140014F0C3
:103FB000C8FD8DF800408DF801408DF802408DF865
:103FC0000340694607F1180014F0BBFD00E011E062
:103FD0008DF800408DF801408DF802408DF80340C7
:103FE000694607F11C0014F0ACFD002301220221F8
:103FF0001CA0A4E013481670B046026822F001022B
:104000000260154A12881AB1426822F00102426029
:10401000084614F0E3FB06463446B94609EB44175C
:104020006946384614F057FC9DF8000050283ED1F0
:104030009DF80100D8BB9DF80200412837D121E04E
:10404000E8C307207CC00720D4EE072014F0072027
:10405000B5C1072058C20720E4C007202440024011
:1040600080C10F404D61696E20706F776572206965
:1040700073206F6666000000641E00E03F24B442B7
:10408000CCD15EE0694607F1100014F024FC9DF8E5
:10409000000041280BD19DF80100412807D19DF86F
:1040A0000200412803D19DF80300412802D0002CD2
:1040B000E4D0E1E705F12005A88B8DF80000287E0B
:1040C0008DF80100287B8DF8020044468DF80380AE
:1040D000694607F1100014F034FD287A8DF80000CD
:1040E00028798DF8010028788DF802008DF80340BA
:1040F000694607F1140014F024FDFF4842240178BA
:104100008DF8001040788DF801008DF802408DF890
:104110000340694607F1180014F013FD8DF80040C4
:104120008DF801408DF802408DF80340694607F193
:104130001C0014F006FD01231A460221EFA012F024
:104140006EFD00BFBDE8F8832DE9F84F05460C0071
:104150004FF054060BD0012C04D0022C04D0032CB9
:1041600004D004E0552602E0752600E04C26E9491B
:10417000C5EBC503DFF898A303EB43034FF0000B37
:104180004FF460604FF4806901EB8301012A02D093
:10419000002A7DD090E134B1012C08D0022C0AD045
:1041A000032C0CD00FE04A7842F001020AE04A7872
:1041B00042F0020206E04A7842F0040202E04A7845
:1041C00042F008024A7081F85340804614F006FB22
:1041D000401C87B23F2F00D9002739B2404614F067
:1041E0002BFC40F6026014F0F9FA80B23F2800D0B0
:1041F000384601B240F6026014F01EFC404614F04E
:10420000EDFA09EB401087B253208DF800008DF8CD
:1042100001508DF80260D8468DF803B069463846E3
:1042200014F08FFC6946381DCDF8008014F089FC2D
:10423000BAF83C000AF120068DF80000307E8DF8B7
:104240000100307B8DF802008DF80380694607F18C
:10425000080014F076FC307A8DF8000030798DF883
:10426000010030788DF802008DF80380694607F16F
:104270000C0014F066FC41268DF800608DF801609A
:104280008DF802608DF80360694607F1100000E0C8
:1042900084E014F056FC8DF800608DF801608DF814
:1042A00002608DF80360694607F1140014F049FCC0
:1042B0008DF800608DF801608DF802608DF8036064
:1042C000694607F1180014F03CFC8DF800608DF889
:1042D00001608DF802608DF80360694607F11C00EB
:1042E00014F02FFC25B1012D20D0022D3AD0E3E0AF
:1042F00034B1012C09D0022C0CD0032C0FD0DBE000
:1043000000230122042184A00DE001231A46042188
:1043100087A008E00223012204218CA003E00323EC
:104320000122042191A012F07AFCC5E034B1012CE5
:1043300009D0022C0CD0032C0FD0BDE000230222A8
:10434000042192A0EFE701230222042195A0EAE7CD
:1043500002231A4604219AA0E5E70323022204213E
:104360009FA0E0E734B1012C09D0022C0CD0032C23
:104370000FD0A1E0002303220421A1A0D3E7012351
:1043800003220421A4A0CEE7022303220421A9A032
:10439000C9E703231A460421AEA0C4E734B1012CB7
:1043A00008D0022C0AD0032C0CD00FE04A7822F05F
:1043B00001020AE04A7822F0020206E04A7822F07E
:1043C000040202E04A7822F008024A7014F006FA69
:1043D00084B2A04609EB441087B26946384614F00F
:1043E0007AFA9DF80000532824D19DF80100A842D4
:1043F00020D19DF80200B0421CD1694607F110009F
:1044000014F069FA9DF80000412813D106E0641EFB
:10441000A4B200E03F244445DCD14DE09DF801000A
:10442000412807D19DF80200412803D19DF80300DF
:10443000412802D0002CEDD0E9E7BAF83C000AF19F
:1044400020048DF80000207E8DF80100207B8DF87F
:1044500002005D468DF803B0694607F1100014F0C4
:1044600070FB207A8DF8000020798DF8010020780B
:104470008DF802008DF80350694607F1140014F01E
:1044800060FB42248DF800408DF801408DF8024019
:104490008DF80340694607F1180014F052FB8DF8BF
:1044A00000408DF801408DF802408DF803406946C8
:1044B00007F11C0014F045FB00BFBDE8F88F2DE9A3
:1044C000FC41064600EB460000EB0611694800EB94
:1044D0008104E08B05280DD367484FF4606700889E
:1044E000801D00F0070004EB4000008CADF80400D4
:1044F0003846C3E030E10000E6C307204D61696E35
:1045000020706F776572206973206F6E0000000065
:104510000040024014F00720425053202331204134
:104520006C61726D2C206F76657268656174000035
:1045300042505320233120416C61726D2C20766FE4
:104540006C74616765206973207570004250532058
:10455000233120416C61726D2C20766F6C74616721
:104560006520697320646F776E000000425053200D
:10457000233120416C61726D2C20636F6E6E656318
:1045800074206973206C6F737400000042505320D4
:10459000233220416C61726D2C206F7665726865E4
:1045A0006174000042505320233220416C61726DCF
:1045B0002C20766F6C7461676520697320757000BC
:1045C00042505320233220416C61726D2C20766F53
:1045D0006C7461676520697320646F776E000000FA
:1045E00042505320233220416C61726D2C20636F46
:1045F0006E6E656374206973206C6F7374000000C5
:1046000042505320233320416C61726D2C206F7611
:104610006572686561740000425053202333204165
:104620006C61726D2C20766F6C74616765206973A4
:104630002075700042505320233320416C61726D0D
:104640002C20766F6C7461676520697320646F77C6
:104650006E00000042505320233320416C61726D84
:104660002C20636F6E6E656374206973206C6F73AA
:1046700074000000D4EE072084C1072014F0AEF8C7
:10468000401C85B23F2D00D9002529B2384614F0D0
:10469000D3F940F60268404614F0A0F880B23F28F3
:1046A00000D0284601B2404614F0C6F9384614F04E
:1046B00095F84FF4806101EB401085B242208DF8EF
:1046C00000008DF8016057208DF8020000268DF85B
:1046D00003606946284614F034FAA07F8DF8000084
:1046E000E07F8DF801009DF804008DF802009DF830
:1046F00005008DF803006946281D14F022FA04F124
:10470000340105F1080014F01CFA04F1380105F138
:104710000C0014F016FAFF4CA08B8DF80000207EE0
:104720008DF80100207B8DF802008DF8036069464A
:1047300005F1100014F005FA207A8DF800002079B8
:104740008DF8010020788DF802008DF8036069462D
:1047500005F1140014F0F5F900BFBDE8FC812DE966
:10476000F84F0646EC48DFF8AC9306EB460202EB46
:1047700006124FF0000B4FF0420AA9F120094FF446
:1047800060674FF4806500EB8200012902D00029A8
:104790007ED01DE110F83D1F41F001010170384647
:1047A00014F01CF8401C84B23F2C00D9002421B224
:1047B000384614F041F940F60268404614F00EF80D
:1047C00080B23F2800D0204601B2404614F034F9B0
:1047D000384614F003F805EB401085B28DF800A0C0
:1047E0008DF8016043208DF802005F468DF803B01C
:1047F0006946284614F0A5F96946281D009714F06B
:10480000A0F9B9F83C0009F120048DF80000207EE1
:104810008DF80100207B8DF802008DF80370694649
:1048200005F1080014F08DF9207A8DF80000207948
:104830008DF8010020788DF802008DF8037069462C
:1048400005F10C0014F07DF941248DF800408DF83D
:1048500001408DF802408DF80340694605F11000D3
:1048600014F06FF98DF800408DF801408DF802408A
:104870008DF80340694605F1140014F062F98DF8D3
:1048800000408DF801408DF802408DF8034000E0B3
:1048900021E0694605F1180014F053F98DF8004045
:1048A0008DF801408DF802408DF80340694605F10E
:1048B0001C0014F046F916B1012E05D088E0012342
:1048C0001A46052195A003E001230222052198A0A4
:1048D00012F0A5F97CE010F83D1F21F001010170F4
:1048E000384613F07BFF87B23C46A84608EB4410DD
:1048F00085B26946284613F0EEFF9DF80000422875
:1049000024D19DF80100B04220D19DF80200432837
:104910001CD106E0641EA4B200E03F24BC42E5D1F5
:1049200056E0694605F1100013F0D5FF9DF8000030
:1049300041280BD19DF80100412807D19DF80200C4
:10494000412803D19DF80300412802D0002CE4D077
:10495000E0E7B9F83C0009F120048DF80000207E62
:104960008DF80100207B8DF802005E468DF803B0C3
:10497000694605F1100014F0E4F8207A8DF8000083
:1049800020798DF8010020788DF802008DF8036001
:10499000694605F1140014F0D4F88DF800A08DF8E4
:1049A00001A08DF802A054468DF803A0694605F1D8
:1049B000180014F0C6F88DF800408DF801408DF80D
:1049C00002408DF80340694605F11C0014F0B9F867
:1049D00000BF72E52DE9F84FDFF8388106464FF049
:1049E000000A4FF04209A8F120084FF460604FF42C
:1049F0008065012902D000297DD037E106EB460110
:104A000001EB06124449074601EB820111F83D2FE4
:104A100042F002020A7013F0E1FE401C84B23F2C07
:104A200000D9002421B2384614F006F840F6026B93
:104A3000584613F0D3FE80B23F2800D0204601B282
:104A4000584613F0F9FF384613F0C8FE05EB401046
:104A500085B28DF800908DF8016053208DF802002A
:104A600057468DF803A06946284614F06AF869464F
:104A7000281D009714F065F8B8F83C0008F12004F0
:104A80008DF80000207E8DF80100207B8DF802005B
:104A90008DF80370694605F1080014F052F8207A89
:104AA0008DF8000020798DF8010020788DF8020043
:104AB0008DF80370694605F10C0014F042F84124AA
:104AC0008DF800408DF801408DF802408DF80340CC
:104AD000694605F1100014F034F88DF800408DF8A7
:104AE00001408DF802408DF80340694605F114003D
:104AF00014F027F800E042E08DF800408DF8014006
:104B00008DF802408DF80340694605F1180014F055
:104B100018F817E020400240D4EE0720424154200C
:104B2000233120416C61726D2C206C6F7374000016
:104B300042415420233220416C61726D2C206C6FF5
:104B4000737400008DF800408DF801408DF802402C
:104B50008DF80340694605F11C0013F0F2FF16B111
:104B6000012E05D082E0022301220521FBA003E0F3
:104B700002231A460521FFA012F051F876E013F047
:104B80002DFE87B23C46AB460BEB441085B269461E
:104B9000284613F0A0FE9DF80000422824D19DF87D
:104BA0000100B04220D19DF8020043281CD106E04C
:104BB000641EA4B200E03F24BC42E5D156E0694641
:104BC00005F1100013F087FE9DF8000041280BD17D
:104BD0009DF80100412807D19DF80200412803D12A
:104BE0009DF80300412802D0002CE4D0E0E7B8F89B
:104BF0003C0008F120048DF80000207E8DF80100B3
:104C0000207B8DF8020056468DF803A0694605F119
:104C1000100013F096FF207A8DF8000020798DF8AF
:104C2000010020788DF802008DF80360694605F1D7
:104C3000140013F086FF8DF800908DF801908DF828
:104C400002904C468DF80390694605F1180013F068
:104C500078FF8DF800408DF801408DF802408DF806
:104C60000340694605F11C0013F06BFF00BF24E40C
:104C7000F3B5054600EB4500C44900EB051001EB18
:104C80008000C34983B04FF46066B1F9001000EBB7
:104C90004100B0F922000190304613F09FFD401C06
:104CA00004463F2800D9002421B2304613F0C4FE48
:104CB00040F60267384613F091FD3F2800D02046A9
:104CC00001B2384613F0B8FE304613F087FD4FF4BA
:104CD000806101EB401442208DF800008DF80150F6
:104CE0004B208DF8020000268DF8036069462046AF
:104CF00013F027FF9DF810008DF800009DF81100BB
:104D00008DF801009DF804008DF802009DF8050063
:104D10008DF803006946201D13F013FF4FF4FC705B
:104D200013F095FD9B4D2946286004F1080013F00F
:104D300008FF4FF4FE7013F08AFD6860291D04F12E
:104D40000C0013F0FEFE944DA88B8DF80000287E19
:104D50008DF80100287B8DF802008DF8036069460C
:104D600004F1100013F0EDFE287A8DF80000287988
:104D70008DF8010028788DF802008DF803606946EF
:104D800004F1140013F0DDFE05B0F0BD2DE9F84F7D
:104D9000814E0027203E35153C46BA464FF0420969
:104DA000012802D0002871D0FCE04FF4606738463B
:104DB00013F014FD401C04463F2800D9002421B202
:104DC000384613F039FE40F60268404613F006FDFF
:104DD0003F2800D0204601B2404613F02DFE384651
:104DE00013F0FCFC05EB40158DF800908DF801A048
:104DF0005A208DF8020054468DF803A069462846D3
:104E000013F09FFE6946281D009413F09AFE06F1E8
:104E10002006B08B8DF80000307E8DF80100307BCD
:104E20008DF802008DF80340694605F1080013F083
:104E300088FE307A8DF8000030798DF801003078E6
:104E40008DF802008DF80340694605F10C0013F05F
:104E500078FE41248DF800408DF801408DF8024025
:104E60008DF80340694605F1100013F06AFE8DF8D5
:104E700000408DF801408DF802408DF803406946EE
:104E800005F1140013F05DFE4EE0FFE74FEA050860
:104E900008EB44156946284613F01DFD9DF80000F7
:104EA000422803D19DF802005A2804D0ECB3641EB6
:104EB000BC42EDD176E0694605F1100013F00BFD20
:104EC0009DF800004128F1D19DF801004128EDD165
:104ED0009DF802004128E9D19DF803004128E5D161
:104EE00006F12006B08B8DF80000307E8DF80100B1
:104EF000307B8DF8020054468DF803A0694605F119
:104F0000100013F01EFE307A8DF8000030798DF815
:104F1000010030788DF802008DF80340694605F1F4
:104F2000140013F00EFE4C4600E03DE08DF800400A
:104F30008DF801408DF802408DF80340694605F177
:104F4000180013F0FEFD8DF800408DF801408DF83B
:104F500002408DF80340694620E0000042415420A1
:104F6000233120416C61726D2C20617373696D6512
:104F70007472790042415420233220416C61726D79
:104F80002C20617373696D6574727900D4EE07200B
:104F900084C107206CC007202040024005F11C009E
:104FA00013F0CFFD00BF14E53F2471E7FF49112046
:104FB00008727047FE490820FE4A4870002000BF72
:104FC000C0EBC00303EB430312F82330052B04D0DE
:104FD000401CC0B20C28F3D37047487070470028BB
:104FE00001DA404200B2704710B54FF4347013F04C
:104FF000F5FBF14C207040F2D22013F0EFFB607013
:105000004FF4357013F0EAFBA07040F2D62013F095
:10501000E5FBE0704FF4367013F0E0FB207240F2D5
:10502000DA2013F0DBFB60724FF4377013F0D6FB1D
:10503000A07240F2DE2013F0D1FBE0724FF4437017
:1050400013F0CCFB207140F20E3013F0C7FB6071FF
:105050004FF4447013F0C2FBA07140F2123013F011
:10506000BDFBE07110BDD54810B5016821F0E061CD
:1050700001604168D34AC1F30B13D14C117824F875
:105080001130491CC9B21170032903D2016841F0E3
:105090008071016010BD2DE9F0470746DDE90A097E
:1050A0000E46DDE9085A01B214469846982013F0DE
:1050B000C3FC00219A2013F0BFFC0021762013F0DE
:1050C000BBFC0121CA2013F0B7FC3C21C22013F025
:1050D000B3FC39B2782013F0AFFC04EBD47040106D
:1050E00001B2C82013F0A8FC31B27A2013F0A4FC5E
:1050F00021B27C2013F0A0FC4621C62013F09CFCBA
:1051000050217E2013F098FC0FFA88F1822013F0D2
:1051100093FCBB21842013F08FFC0021862013F028
:105120008BFC0A21882013F087FC0FFA89F1DE201E
:1051300013F082FC29B28C2013F07EFCE8000A21D7
:1051400090FBF1F001B28E2013F076FC0121A0203B
:1051500013F072FC0121A22013F06EFC0121A420A7
:1051600013F06AFCA021922013F066FC0FFA8AF17A
:10517000942013F061FC0321962013F05DFC322192
:10518000CC2013F059FC2821CE2013F055FC5521DA
:10519000BC2013F051FC1E21BE2013F04DFC012158
:1051A000802013F049FC4621D02013F045FC3C211F
:1051B000D42013F041FC1921D22013F03DFC5021E2
:1051C000D62013F039FC4621D82013F035FC5B21A2
:1051D000DA2013F031FC5021DC2013F02DFC7A4C46
:1051E0000021B4F9000013F027FC784D0021B5F937
:1051F000000013F021FC764E4FF0FF373946B6F928
:10520000000013F019FCB4F90200002113F014FCA3
:10521000B5F90200002113F00FFCB6F9020039467F
:1052200013F00AFCB4F90400002113F005FCB5F9F1
:105230000400002113F000FCB6F90400394613F015
:10524000FBFBB4F90600002113F0F6FBB5F90600EC
:10525000002113F0F1FBB6F90600394613F0ECFB20
:105260000A214FF4197013F0E7FBBDE8F0470B215A
:105270004FF4187013F0E0BB2DE9FF47002107231E
:10528000182809D064224FF41674302810D03C2816
:1052900019D0DC2823D04FE0F0249622CDE9002459
:1052A000CDE902310246162311464FF4967013E001
:1052B0004FF4F075CDE90025CDE9023102462C23EB
:1052C0001146204608E0CDE90024CDE9023102462E
:1052D0003723114640F2EE20FFF7DDFE2CE040F6CA
:1052E000980440F62A110220CDE90024CDE90201FC
:1052F000BB2340F60B1240F63E1140F69210FFF72A
:10530000CAFE40F2BD11C82013F096FB2146C4200E
:1053100013F092FB1421922013F08EFB45F21161E1
:105320004FF49E7013F088FB0121CA2013F084FB18
:10533000AA21BC2013F080FB264DAA21B5F900005C
:1053400013F07AFB244C2178244EB6F9000013F0B8
:1053500073FB217B224FB7F9000013F06DFBB4F90A
:105360001010DFF880A0BAF9000013F065FBDFF839
:1053700078800021B8F9000013F05EFBDFF86C9034
:105380000021B9F9000013F057FBB5F90200AA217A
:1053900013F052FB2178B6F9020013F04DFB217B8C
:1053A000B7F9020013F048FB22E000000040024081
:1053B00098C0072014F00720C87600100040034072
:1053C00060C0072005C00720300C0200380C020026
:1053D000480C0200D80B02002C400240DC0B0200FB
:1053E000E00B0200D40B0200D00B0200E40B020021
:1053F000B4F91010BAF9020013F01EFBB8F902005C
:10540000002113F019FBB9F9020004B00021BDE836
:10541000F04713F011BB70B5062013F0DFF9002838
:1054200004DB062013F0DAF9022803DD0021062050
:1054300013F002FBFF490878401CC0B20870FE4C14
:1054400001250A2813D3FD480068C0070FD1E07872
:1054500068B9062013F0C2F9022808DA062013F012
:10546000BDF9401C01B2062013F0E6FAE570B4F96C
:105470003A00B0F5616F07D3062013F0AFF918B109
:105480000021062013F0D8FAED4881687F22B2EBA4
:10549000116F00D1E5708068C0F307407F2800D10C
:1054A000E57070BDE4482C30B0F84E101C31C9B224
:1054B00081724278521CD2B24270A0F12C008A4212
:1054C00002D9142180F82D1090F82D00A0F11401BC
:1054D0000F2919D2C0EBC00000EB4001D94800EB06
:1054E0008100C1783C2905D2491CC9B2C170032989
:1054F00002D207E03C21C1700179032902D241792F
:10550000491C4171C178017170472DE9FF41CA4CB6
:105510002C34B4F84E001C30A0726078401CC0B22D
:105520006070A4F12C0432281CD904F13604002048
:1055300004F8090CA08FE18FA28E638FC0B2C9B2AC
:10554000D2B2DBB2CDE90210CDE90032E08EC3B2B7
:10555000208FC2B2608EA4F13604C1B24FF0F100C8
:1055600015F0E5FE94F82D00A0F114010F2932D2B8
:1055700094F83510B34F99B9C0EBC00101EB41016C
:1055800007EB810101F12C010A794E7A0D7A4B79F2
:105590008DE86C000B784FF0ED02014615F0C7FE68
:1055A00094F82D00C0EBC00000EB400007EB80003A
:1055B000C1783C2905D2491CC9B2C170032902D265
:1055C00007E03C21C1700179032902D24179491CCD
:1055D0004171C178017198488030C088002809D095
:1055E00094F82D00142805D19749887B3C2801D2D6
:1055F000401C8873BDE8FF81944900200870487002
:1056000088704231487070472DE9F04F00208E4A73
:1056100085B04FF4F471044610321454401C00B2AB
:105620008842FADB8448817851B98046B0F9760027
:10563000A0B1012804D180488A30007855280DD0C7
:1056400000214FF0140C7A20484301EB81039B00AA
:1056500001EB81041BB20CEB840474E277484FF039
:1056600002054FF003060068C0071BD098F81D0024
:10567000002816D076483227CDE90204CDE900761D
:10568000032118233A46084610F04DF97148CDE938
:105690000204CDE90076032118233222084610F0D7
:1056A00042F9B8E0B8F97800DFF8ACA10F27DFF8CD
:1056B000ACB1DFF89091012854DB14230021009451
:1056C0001A460846019410F072F812230121009442
:1056D0001A460846019410F06AF899F80200042866
:1056E00007D05F48CDE902040F2302211A460320A8
:1056F00019E099F80100C10709D098F81D0088B396
:105700000F23CDE902A402211A4603200BE010F07A
:10571000060F27D098F81D0020B30F23CDE902B45F
:1057200002211A460846CDE9007510F0FCF899F8F8
:105730000200012816D10B23002214210920009415
:105740000FF01AFE00235B221F21092000940FF0A6
:1057500013FE98F8090004231330C1B20022092077
:1057600010F062F8B8F97800022854DB1423009492
:105770001A4600211720019410F019F81223009402
:105780001A4601211820019410F011F899F85600DA
:10579000042807D03348CDE902040F2302211A461A
:1057A000192019E099F85500C10709D098F81D0093
:1057B00088B30F23CDE902A402211A4619200BE079
:1057C00010F0060F27D098F81D0020B30F23CDE965
:1057D00002B402211A461920CDE9007510F0A3F891
:1057E00099F85600012816D10B23002214212020FD
:1057F00000940FF0C1FD002344221F2120200094BB
:105800000FF0BAFD98F8090004231330C1B200224A
:10581000202010F009F8B8F87600DFF84CA04746D1
:105820004FF001094FF00A0B002848D014230094D0
:1058300023221BE01AEC072098C007207CC0072019
:105840000040044014F0072084070820AEC1072060
:10585000E71202007D1302004F1402006D140200D3
:105860001314020031140200D4EE0720002132206C
:1058700001940FF09CFF0094022303221421352091
:1058800001940FF094FF00940223032214214F206F
:1058900001940FF08CFF9AF83D00D046C0070FD05E
:1058A000787F00280BD03221FE48CDE90016CDE9E3
:1058B00002040A46182300212B2010F034F897E048
:1058C0000B2300221421422000940FF055FD0023E9
:1058D00022221F21422000940FF04EFDB8F908004B
:1058E000002805DA787A042300221330C1B205E0DB
:1058F000787A0423C0F12200C1B2022242200FF0C4
:1059000093FF387B0F285AD2E748B0F90000A0F582
:10591000AA4155396CD0B8F91000052190FBF1F07F
:10592000ADF81000C2461422002104A8FEF772F957
:10593000CDE90094C846BDF9103020220021332063
:105940000FF035FFBAF810000A2812D2CDE9008511
:1059500009230C2205213D200FF029FFBAF9100080
:1059600002238DE811010521D0A23D20CDF80C8045
:1059700012E064284FF0090311D2CDE9008512220C
:1059800005213A200FF013FFBAF9101003238DE818
:105990003201C7A2052121E00FF0F1FF28E0CDE997
:1059A00000851822052137200FF001FFBAF91010E9
:1059B00004238DE852010521BEA23720ECE7B8F997
:1059C00008101E2891FBFBF001B2CDE900194846F2
:1059D00006D2CDE902600423B8A205213A20DBE714
:1059E000CDE902600523B7A21946352010F06AF808
:1059F00000940E231B2204215C2001940FF0D7FE9B
:105A000000231A1F0A215C2000940FF0B5FC00232C
:105A100004220A21762000940FF0AEFC00232722F6
:105A20001F21432000940FF0A7FC6FF00D0300220C
:105A30001F21692000940FF09FFCF87AB846C0F14E
:105A40002200C1B20423022269200FF0EDFE964F1E
:105A50004D46BC3F0523B7F96E10CDF80C9091FB75
:105A6000FBF000B200900421CDE9014197A216217C
:105A700046200FF084FFB7F97000642807DA8DE83C
:105A80006100042307218DA25D20039509E090FBAE
:105A9000FBF000B203958DE85100042387A2072193
:105AA0005A200FF06CFF98F808104046491CC9B204
:105AB00088F80810032923D30472417A491CC9B21B
:105AC00041720D2900D34472817A491CC9B2817296
:105AD000202900D38472C17A491CC9B2C1720F292E
