:020000040000FA
:10000000B87F0010CD010000D1010000D301000035
:10001000D5010000D7010000D90100000000000058
:10002000000000000000000000000000DB010000F4
:10003000DD01000000000000DF010000A58A0100D2
:10004000E301000017C0010043C00100E30100000C
:10005000E3010000FBF00100E3010000E301000008
:10006000E3010000E3010000E3010000E301000000
:10007000E3010000E3010000E3010000E3010000F0
:10008000E3010000E3010000E3010000E3010000E0
:10009000E3010000E3010000AD4C0000E3010000BB
:1000A000E3010000BFEB0100E3010000E3010000F9
:1000B000E1180200E3010000E3010000E301000099
:1000C000E3010000E3010000E301000000F002F89A
:1000D00000F06DF80AA090E8000C82448344AAF175
:1000E0000107DA4501D100F062F8AFF2090EBAE873
:1000F0000F0013F0010F18BFFB1A43F0010318475C
:10010000A06B0200E06B02000A444FF0000C10F8F4
:10011000013B13F0070408BF10F8014B1D1108BF85
:1001200010F8015B641E05D010F8016B641E01F825
:10013000016BF9D113F0080F1EBF10F8014BAD1C75
:100140000C1B09D16D1E58BF01F801CBFAD505E093
:1001500014F8016B01F8016B6D1EF9D59142D6D3ED
:10016000704700000023002400250026103A28BF15
:1001700078C1FBD8520728BF30C148BF0B60704719
:10018000642921F08184732921F0E58600207047DD
:100190001FB525F029FD21F09BFF04000020002160
:1001A00025F00CFD401C60601FBD10B510BD21F096
:1001B0006AFF1146FFF7ECFF18F035FD21F09CFFB8
:1001C00003B4FFF7F2FF03BC21F0A0FF084800478B
:1001D000FEE7FEE7FEE7FEE7FEE7FEE7FEE7FEE7F7
:1001E000FEE7FEE703480449044A054B7047000058
:1001F000CD000000B86F0010B87F0010B877001075
:10020000B8770010FEE710B523F0CAFB23F056FCC8
:1002100023F048FC23F0D6FBAFF30080BDE810408C
:1002200023F012BC10B524F023FA25F093F824F043
:1002300077FABDE8104024F0EFBB24F037B923F083
:10024000FFBE09B10020704722F054BC0020704767
:100250001E4BDA601870597070471C48C16800293D
:100260000DD0491EC1600AD1194902780A7042783E
:100270004A700A710021C17001714171817170472A
:10028000124A1161907070471048016900290BD023
:10029000491E016108D10E4A817811700021517008
:1002A000C1700171417181717047084908817047BF
:1002B0000648B0F90810002907D0491E09B201818B
:1002C000002902D1084600F002BF70471800001054
:1002D000C001001070B5064600F00CF80468054631
:1002E00030460A22002121F03AFE2C6070BD704792
:1002F0007047704700487047546F0010FFFFFFFFC2
:10030000002801DA404200B270470020F94A20215B
:100310001154401CC0B2C828FAD370470146F54AB0
:100320000020401CC0B2135C8B4201D0C828F8D317
:10033000704710B50021F04C0A2200BFB0FBF2F369
:1003400002FB13006054491CC9B218460529F5D3B5
:1003500010BDF0B5E94B0121202719700521E64AAF
:10036000002601E01C7844B1541814F8015C25B94A
:10037000814202D904F8017C05E0541814F8015DAB
:10038000303525701E70491E11F0FF01EAD1F0BD15
:1003900070B50D461446002802DAC043401C00B276
:1003A000FFF7C7FF601CC0B2FFF7D3FF2846FFF777
:1003B000B5FFFF2819D0D04ACE4B0021A14201D26F
:1003C000555C13E004D14FF02E051D54555C03E03D
:1003D000555C202D03D04CB11E1806F8015C401E60
:1003E000491CC9B2C0B20529E8D370BD1D54F6E757
:1003F000F0B50D461446002801DA404200B2FFF77E
:1004000098FF601CC0B2FFF7A4FF2846FFF786FFE5
:10041000B94AB84B002164B9555C202D09D0561853
:100420007678202E03D12D261F1807F8016C1D5455
:100430000FE0A14201D2555CF9E704D14FF02E053F
:100440001D54555C02E0555C202D02D01E1806F8A4
:10045000015C401E491CC9B2C0B20529DBD3F0BD06
:10046000FEB52B23002802DA404200B22D230025DE
:100470000A266C4690FBF6F706FB170060556D1CCC
:100480006DB238B20A2DF5DB0126002509202027A0
:1004900000E046B114F800C0BCF1000F03D1904257
:1004A00001DD275405E0265C3036265400266D1CFD
:1004B000EDB2401E40B20028EBDA2D2B02D163557D
:1004C0006D1CEDB26AB168B205E0231813F8013C67
:1004D0002354401E40B29042F7DC2E206D1CA054E5
:1004E000EDB20846FFF71AFF0021824A04E0635C80
:1004F000461A491C935549B2A942F8DBFEBDFEB528
:100500002B23002801DA40422D2300250A266C46C1
:10051000074690FBF6F006FB107767556D1C6DB231
:100520000A2DF5DB012600250920202700E046B131
:1005300014F800C0BCF1000F03D1904201DD275434
:1005400005E0265C3036265400266D1CEDB2401EB8
:1005500040B20028EBDA2D2B02D163556D1CEDB2B1
:100560006AB168B205E0231813F8013C2354401E19
:1005700040B29042F7DC2E206D1CA054EDB208462C
:10058000FFF7CCFE00215B4A04E0635C461A491C7D
:10059000935549B2A942F8DBFEBDFEB52B260028D3
:1005A00001DA40422D2600240A276D46844690FB3E
:1005B000F7F007FB10CC05F804C0641C64B20A2CE9
:1005C000F4DB0127002009244FF0200C00E04FB19C
:1005D00015F804E0BEF1000F04D19C4202DD05F8DD
:1005E00004C005E02F5D30372F550027401CC0B2F6
:1005F000641E64B2002CEADA2D2E02D12E54401C67
:10060000C0B26BB144B205E02E1916F8016C2E553C
:10061000641E64B29C42F7DC2E24401CEC54C0B231
:1006200001EB810102EB8101CAB20021314B04E0F0
:100630006C5C561A491C9C5549B28142F8DBFEBDE0
:1006400070B50D4616461C46FFF773FE601CC0B21F
:10065000FFF77FFE05EB850006EB8000C1B2264A5E
:10066000244B0020A04201D2155C5D5406D3155CDA
:10067000202D03D04CB15E1806F8015C491E401CC9
:10068000C0B2C9B20528EDD370BD5D54F6E710B510
:100690000C46FFF743FE17490CB1032200E0042289
:1006A0000A5410BD30B5044608461546FFF736FE1D
:1006B000FF2809D00F4A2178002905D04319641C6E
:1006C000401CD154C0B2F6E730BD70B50D4614469B
:1006D000FFF72FFE601CC0B2FFF73BFE2846FFF776
:1006E0001DFE054B034A002154B95D5C202D07D047
:1006F000155415E040020010B8C00720B4030010E4
:10070000A14201D25D5CF3E704D14FF02E051554F0
:100710005D5C02E05D5C202D02D0161806F8015CDD
:10072000401E491CC9B2C0B20529DDD370BD801876
:1007300001D5084402E0884200DB401AC0B270478D
:100740002DE9F04F044685B00D464FF460601CF073
:1007500055FA62424021FFF7EAFF400100F5806050
:10076000044602A91CF0C7FA694604F108001CF00F
:10077000C2FA01A904F10C001CF0BDFA2846FFF7EB
:10078000CDFD9DF808C04022302121232324DFF82D
:10079000E4A3F94D20264FF03A0BBCF1550F32D0AF
:1007A000CF27BCF1500F65D04FF0C00E4FF0E208DC
:1007B000BCF1490F69D0BCF1420F7ED0BCF1440FAF
:1007C0007CD0BCF1530F52D14FF0C10C05F800C0E2
:1007D000401CC0B2A9462F54401CC0B2D1272F5490
:1007E000401C00F0FF0C9DF80900092867D2313049
:1007F00005F80C000CF1010C0CF0FF0009F800608A
:10080000401CC5B261E29DF80A70522F0AD1C2277E
:100810002F54401CC0B2EA272F54401CC0B2EB2713
:100820002F542FE02E54401CC0B22E54EEE12E5413
:10083000401CC0B22954401CC0B22B54401CC0B252
:100840002A54401CC0B22E54401CC0B22E54401C2E
:10085000C0B22954401CC0B22C54ABE19DF8011029
:10086000C648002200EB81004021FFF71BFF05B0C6
:10087000BDE8F08F2F54401CC0B2D1272F54401C2C
:10088000C0B22E54401CC0B2CCE7C8272F54401C25
:10089000C0B2ED272F54401CC0B2A94605F8008015
:1008A000401C00F0FF0C9DF80900092815D23130DA
:1008B00005F80C000CF1010C02E066E090E1E0E1CB
:1008C0000CF0FF0005F800E0401CC0B205F8008005
:1008D000401CC0B209F8006021E0A0F109055A2DC2
:1008E00020D2401C0A27B0FBF7F5CDE903053035CF
:1008F00009F80C50DDE903050CF1010C07FB1500AC
:100900000CF0FF0C303009F80C000CF1010C0CF06D
:10091000FF0009F800E0401CC0B209F80080401C4C
:1009200000F0FF0C484609F80C600CF1010C0CF0CB
:10093000FF05CFE19DF8040000222121FFF7C5FE4D
:100940009DF8050000224021FFF7BFFE9DF806003C
:1009500000222321FFF7B9FE89E746556D1CEDB251
:1009600041556D1CEDB243556D1CEBB2C2545B1C7E
:10097000DAB28654521CD2B28654521CD2B281547E
:10098000521CD1B209F8014014E19DF80A704FF0F1
:1009900041094E2F33D04F2F7ED0492F7DD0542F79
:1009A000DAD1C1272F54401CC0B2E0272F54401C7D
:1009B000C0B24FF0E90C05F800C0401CC0B24FF0C7
:1009C000EF0C05F800C0401CC0B2A8462F54401CD4
:1009D000C0B2F12708F80070401C9DF80950C0B261
:1009E000012D72D0022D71D0032D70D008F8006057
:1009F000401CC5B2404646556D1CEDB22AE005F8D4
:100A000000E0401CC0B2552705F80080401CC0B271
:100A1000AC462F54401CC0B2F1272F54401CC0B22A
:100A2000E5272F54401CC0B2F2272F54401CC0B2FF
:100A3000FC270CF80070401C9DF80950C0B2012D35
:100A40003AD0022D3BD0032D3BD00CF80060401C67
:100A5000C5B26046D04646556D1C9DF80070BAF888
:100A60003CC0EDB267457BD19DF8017098F838C065
:100A7000674575D19DF8027098F82CC067456FD115
:100A800041556D1CEDB243556D1CEBB200F803B03F
:100A90005B1CDBB2C15401E01AE043E05B1CDBB23B
:100AA000C2545B1CDAB200F802B0521CD2B28154BC
:100AB000521CD1B244543DE70CF80090C7E74225E0
:100AC00000E043250CF80050C1E74EE050E057E04D
:100AD00005F800E0401CC0B2552705F80080401C16
:100AE000C0B2AC462F54401CC0B2FB2705F80080B2
:100AF000401CC0B22F54401CC0B2F5270CF8007047
:100B000027E000BF0CF8009008E0022D29D0032D4B
:100B100029D00CF8006001E00CF80050401CC5B270
:100B2000604668E705F800E0401CC0B2552705F8AC
:100B30000080401CC0B2AC462F54401CC0B2E82715
:100B40002F54401CC0B2ED272F54401CC0B20CF8EB
:100B50000080401C9DF80950C0B2012DD5D1D1E7CD
:100B600012E04225D8E74325D6E708F800903FE792
:100B7000422506E000400240400200100C630200E3
:100B8000432508F8005033E746556D1CEDB241553A
:100B90006D1CEDB243556D1CEBB2C2545B1CDAB256
:100BA0008654521CD2B28654521CD2B28154521C6A
:100BB000D1B244549DF8020000222121FFF785FDA7
:100BC0009DF8000000222321FFF77FFD9DF8010022
:100BD000401E0C28FFF442AE01208DF801003DE6D6
:100BE0009DF80A70552F7FF4B7AE05F800E0401C61
:100BF000C0B205F80080401CC0B22F54401CC0B2E7
:100C000064272F54401CC0B263272F54401CC0B22D
:100C1000D0462E54401CC0B22E54401CC0B22E549C
:100C2000401CC0B22E54401C9DF80070BAF83CC065
:100C3000C0B267457FF4FBAD9DF8017098F838C0ED
:100C40006745F7D19DF8027098F82CC06745F1D13F
:100C50002954401CC0B22B54401CC0B205F800B04F
:100C6000401CC0B22954401CC0B22A54401CC0B21F
:100C700005F800B0401CC0B22954401CC0B22C542E
:100C800058E6A0F109055A2D15D2401C0A27B0FBE1
:100C9000F7F5A846303509F80C500CF1010C07FBAC
:100CA00018000CF0FF0C303009F80C000CF1010CAE
:100CB0000CF0FF0509E009F80C600CF1010C0CF0D8
:100CC000FF0509F805606D1CEDB2484609F805609E
:100CD0006D1CEDB2D04646556D1C9DF80070BAF8FB
:100CE0003CC0EDB267457FF438AE9DF8017098F8CE
:100CF00038C06745F7D19DF8027098F82CC0674559
:100D0000F1D141556D1CEDB243556D1CEBB200F8AD
:100D100003B05B1CDBB2C1545B1CDBB2C2545B1C76
:100D2000DAB200F802B0521CD2B28154521CD1B2D5
:100D300009F80140FEE570B50446084615461E4612
:100D4000FFF7ECFAFE4B0146FF2804D106E01A54E7
:100D5000641C401CC0B22278002AF8D1F9480078FF
:100D6000002804D0002E02D029445F20585470BDC2
:100D7000F0B5074614460E460846FFF7CFFA05467B
:100D8000002231463846FFF7BAFB002C08D0ED4868
:100D90000078002804D05F20E94A291B11444870DC
:100DA000F0BD2DE9FF4F8146DDE90D048A469346EB
:100DB000FFF7B4FA2022DFF88C83E1490A234FF0D1
:100DC000640C012C09D198F8005035B10D18A5F12B
:100DD0000E05AA706A702A7020E099FBF3F603FBF7
:100DE00016970D183037A5F10E05022CAF7096FB43
:100DF000F3F703FB176606F130066E7099FBFCF6FD
:100E000006F1300605F80E6B08D198F800602EB197
:100E1000A5F10A05AA706A702A7021E09AFBF3F620
:100E200003FB16A70D183037A5F10A05032CAF7088
:100E300096FBF3F703FB176606F130066E709AFB1C
:100E4000FCF606F13006674605F80A6B08D198F8FB
:100E500000602EB1A5F10605AA706A702A7022E022
:100E60009BFBF3F603FB16B70D183037A5F106050B
:100E7000042CAF7096FBF3F703FB176606F1300600
:100E80006E709BFBFCF606F13006674605F8066BB4
:100E900009D198F8004034B1A5F102050A546A70EE
:100EA0002A70BDE8FF8F039C94FBF3F203FB12440E
:100EB00030340C5492FBF3F403FB14220844A0F1E9
:100EC000020030324270039991FBF7F101F13001D9
:100ED0000170E6E717B501EB810002EB8000C2B2BA
:100EE0009DF80030984803F00F0100EB1313445CA9
:100EF00093498C54521ED2B21B788B549DF801300A
:100F0000521E03F00F04D2B2045D8C54521E00EB4B
:100F10001313D2B21B788B549DF80230521E03F08B
:100F20000F04D2B2045D8C54521E00EB1313D2B2E4
:100F30001B788B549DF80330521E03F00F04D2B27D
:100F4000045D8C54521E00EB1310D2B2007888540A
:100F50001EBD10B504460846FFF7E0F97A4904F0D3
:100F60000F028B5C764A01EB14111354401EC0B281
:100F70000978115410BD01EB810102EB8101724A25
:100F800010B500F00F03C9B2D45C6D4B02EB10102A
:100F90005C54491EC9B20078585410BD01EB810160
:100FA00002EB8101CBB2684910B500F00F028C5CF6
:100FB000634AD45404095B1E04F00F00DBB2085CE2
:100FC000D0545B1ED8B2230903F00F040C5D1454F7
:100FD000401E1B09C0B2C95C115410BD01EB810158
:100FE00002EB8101CBB2584910B500F001028C5CD4
:100FF000534AD45444085B1E04F00100DBB2085C81
:10100000D0545B1ED8B2630803F001045B080C5D8A
:101010001454401E03F00104C0B20C5D14545B086C
:10102000401E03F00104C0B20C5D14545B08401E66
:1010300003F00104C0B20C5D14545B08401E03F0C1
:101040000104C0B20C5D1454401EC4B25808085CC0
:10105000105510BD30B53D490123394D91F901209E
:1010600091F9041000EB80048A4202D105F8243083
:1010700030BD334D4C1C00EB800005EB8000A242DC
:1010800001D1037530BD8C1CA24202D180F82830FA
:1010900030BDCC1CA24202D180F83C3030BD0C1DCA
:1010A000A24202D180F8503030BD4C1DA24202D184
:1010B00080F8643030BD8C1DA24202D180F87830B7
:1010C00030BDC91D8A42FBD180F88C3030BD204B29
:1010D0001A88521E104400B218801E4A00EB80008D
:1010E00002441A481368036012790271427811446D
:1010F00041707047F0B5164D164FB5F9004004EB3E
:101100008406641C2C80114C3E442568356025798A
:101110003571207061702271A370F0BDF0B5054685
:101120000E461746FFF7F1F8054C0020401C15F855
:10113000011BC0B204F8011B1428F7D300200BE0F8
:1011400040020010660000108A630200C001001017
:101150008800001048100820401C16F8011BC0B27F
:1011600004F8011B1428EAD35FF00000401C17F8B4
:10117000011BC0B204F8011B1428F7D35FF0000074
:10118000401C13F8011BC0B204F8011B1428F7D34C
:10119000F0BD10B5029CFFF7C1FF4448C3788278C8
:1011A00041787A20FFF7A6FF642094FBF0F0BDE8B9
:1011B0001040C0B2FFF779B82DE9FE4340010D465B
:1011C00000F58060044602A91BF095FD694604F114
:1011D00008001BF090FD01A904F10C001BF08BFD31
:1011E0002846FFF79BF8324C202530262554401C1A
:1011F000C0B24FF021082654401CC0B24FF0400C42
:1012000004F80080401CC0B2232104F800C0401C38
:10121000C0B200222554401CC0B22554401CC0B2AC
:101220002654401CC0B22154401CC7B29DF8020095
:101230002121FFF74AFA9DF8000000222321FFF741
:1012400044FA9DF80100401E0C2802D301208DF8BD
:1012500001009DF801001749002201EB80004021A8
:10126000FFF720FAE5557F1CF8B23A212654401CBE
:10127000C0B2002204F80080401CC0B22154401CBF
:10128000C0B221212654401CC0B204F800C0401C4A
:10129000C6B29DF80400FFF718FA9DF80500002279
:1012A0004021FFF712FAA555BDE8FE83C0010010EA
:1012B000400200100C6302002DE9FF41FC4C0027A6
:1012C00005466774A07B0121022805D0F94A525DCA
:1012D000552A04D065200EE06174BDE8FF8105EB5E
:1012E000450202EB0513F44A02EB830696F83D2013
:1012F000D30702D066206074EFE796F83F309B0773
:1013000001D56720F7E7920701D56820F3E7EB4A9C
:10131000B6F90830B2F90020934201DD6920EAE70E
:101320005242934201DA6A20E5E7012804D1E07BCA
:1013300000287ED001287DD064206074A17361856F
:101340004FF4F8701BF088FDE5732946A5854FF42E
:10135000FA701BF081FDDA48B761002130F9150001
:101360001BF07AFD2774E78539464FF4FB701BF0BC
:1013700073FDD448D44D0088401C00F0070006EBF4
:101380004000008CADF80000A88B8DF804004FF0F1
:1013900063024FF0010101A802F0C9FBC44C9DF8A3
:1013A000040040342070287E8DF804000C220121B6
:1013B00001A802F0BCFB9DF804006070287B8DF84A
:1013C00004001F22012101A802F0B1FB9DF80400D6
:1013D000A0709DF80000E0704FF4FC7021681BF0D5
:1013E0007EFD287A8DF804001722002101A802F062
:1013F0009EFB9DF80400207128798DF804003B22A3
:10140000002101A802F093FB9DF804006071287888
:101410008DF804003B22002101A802F088FB9DF812
:101420000400A0719DF80100E0714FF4FE70616846
:1014300001E003E004E01BF052FD4EE76B205AE7A9
:101440006C2058E77047704770B59F4C203C94F86B
:1014500038009E4D297808440C2803D9A08F401CE1
:1014600001B201E0B4F93C10B8201BF0F5FC94F88F
:101470003810287801440C2994F8381000D90C3819
:101480000144B6201BF0E8FC94F82C001C2801D97C
:101490001C2101E094F82C10B4201BF0DDFC04F1B9
:1014A0002004217A4FF0AE001BF0D6FC2179B02049
:1014B0001BF0D2FC2178BDE87040B2201BF0CCBC00
:1014C00083486FF03B010088C0EB001001EB800007
:1014D000774988847047764940F2F96048847047BC
:1014E00070B5734C608C401C00B26084B0F5E16F45
:1014F00002DB0020608470BDB0F5DF6F11D90F23CF
:1015000001226421D22002F0AFFA0F230022D82159
:10151000D72002F0A9FA0F230022D821DC2002F004
:10152000A3FAB4F92200A0F5E0610739E3D1694ECE
:10153000694C6A4D30882188884205D0B4F9001082
:10154000B5F900001BF088FC708861888842D2D011
:10155000B4F90210B5F90200BDE870401BF07CBC84
:1015600010B5584C082200212088401C20802046BD
:1015700002F0F3FA5048B4F9001000EB4101428840
:101580000A84B0F84E00A1F86C0010BD2DE9F84FA8
:10159000534F544D4FF4FA64B7F90010B5F90000F9
:1015A000DFF81481484390FBF4F04F49A8F802009B
:1015B000B7F90820B1F900004FF42F73504390FBA6
:1015C000F3F0A8F80400B7F91820B5F90200504369
:1015D00090FBF4F0A8F84E00B7F90220B1F9020030
:1015E000504390FBF3F0A8F85000DC2002F073FAAF
:1015F000F0BB394BDFF8DC90DFF8F0A01888B9F8C1
:10160000001045F63866401ABAF9001045F69265A2
:10161000414337484FF4967B45F2FA52008845F231
:10162000136EB04201D0A84202D191FBFBF10FE052
:10163000904206D0704504D0A0F5AC4CBCF1110C22
:1016400002D191FBF4F103E04FF47A7C91FBFCF1C1
:10165000A8F808105988B9F80230CB1ABAF9021064
:101660005943B04201D0A84203D191FBFBF00FE0F7
:1016700010E0904205D0704503D0A0F5AC42113A7D
:1016800002D191FBF4F003E04FF47A7091FBF0F09B
:10169000A8F85400B7F90C2040F6B731A2F2213374
:1016A000012500208B4225D288F80C0024E00000A0
:1016B0000CC00720E6000010D8E507208AC00720EC
:1016C0007C5C02004E010010204002406C000010C3
:1016D00090C0072070C00720FA340010A45C0200FC
:1016E000306200106CC007206E03001072030010FF
:1016F000E800001088F80C50F84C44F62066B4F965
:101700000030534393FBF6F2A2F21112A8F80A201C
:10171000B7F90E20A2F221338B4202D288F858008A
:1017200001E088F85850B4F90230B246534393FBB5
:10173000F6F2A2F21112A8F85620E94AB2F90030E6
:10174000E84A33B9E84CE94E24883480E84C2488D0
:101750001480B2F90040002C00DA10801BB9E54A71
:10176000E54C12682260B7F90A200E46A2F2213435
:10177000E249A346B44201D2086000E00D60DFF800
:1017800080C3B9465746BCF90040DFF878E35443BC
:1017900094FBF7F2A2F2111212B20092AEF80020FE
:1017A000B9F91420A2F22134B44201D2486000E019
:1017B0004D60BCF9024040F6B736544394FBF7F253
:1017C000A2F2111212B2AEF802209646B9F9062022
:1017D000A2F22134B44201D2886000E08D60BCF9ED
:1017E0000440DFF82493544394FBF7F2A2F2111261
:1017F000C44C12B2C54EA2809246B9F80040B6F968
:1018000000204FF47A6C624392FBFCF2C04C92B21F
:10181000C04F2280642A01D3BF4A12883A80B9F8A7
:101820000220B6F90260DFF8F892564396FBFCF20C
:101830006280BA4AB9F90060BA4FB2F90040664313
:1018400041F2707496FBF4F63E80B2F902C0B9F929
:10185000026006FB0CF696FBF4F67E80B9F9046094
:10186000B2F904C0DFF8C09206FB0CF696FBF4F662
:10187000BE80B2F90670B9F900607E4396FBF4F6BB
:10188000AA4F3E80B2F908C0B9F9026006FB0CF617
:1018900096FBF4F67E80B2F90A60B9F90420894615
:1018A000724392FBF4F2BA80A14E0EF2111212B200
:1018B0000AF21114328024B274800F46496811F084
:1018C000FF013172BF68FFB277729A4E04D00129CE
:1018D0000ED011B10DD020E017B1012F10D01CE0B7
:1018E000111901EBD1716FF4887202EB610113E001
:1018F00017B1012F08D010E0A4F2111434800CE0CD
:10190000A2F21112328008E08B490978052902D22F
:101910008A49098800E014213180894A894914786C
:10192000552C06D1B8F90240C82C02DDB8F80840A1
:101930000C845278552A0AD1B8F94E20C82A06DDFF
:10194000B8F95420B8F90840A24200DD0A847E4A62
:101950001288A2F5AC442F3C03D0283401D0143CAB
:1019600002D17A4A12880A847A490022DFF8E0E13B
:10197000B1F900402DE000BF02EB82060EEB06112C
:10198000CE78192E1CD28E79CF7906EB07264E62BF
:101990000E7A4F7A06EB07260E628E7ACF7A06EB26
:1019A0000726CE610E7B8E624E7B81F84C608E7B6B
:1019B00081F842600E7C4F7C06EB07268E6406E0C1
:1019C000C86148620862886281F842008864521CDB
:1019D000D2B2A242D0DBDFF880A160490622CAF869
:1019E0000420B1F900C0BCF1000F5FD000245BE01F
:1019F00004EB84020EEB021191F84326052A3ED235
:101A000091F8462691F8476604EB041702EB062688
:101A10000AEB8702966091F8487691F8496607EBE1
:101A2000062636B29683002E00DA908301F24A61D0
:101A30000E784F7806EB072656608E78D66091F8C0
:101A4000038082F826800E794F7918F01A0F06EB82
:101A5000072656618E79CF7906EB072616610E7A36
:101A60004F7A06EB07269661897A82F827109070E4
:101A700002D082F8285015E082F8280012E004EB2A
:101A800004120AEB82011922886088834860C860CA
:101A900081F826000861486188618A7081F8280011
:101AA00081F83C00641CE4B26445A1DB2C49012BA5
:101AB00003DB8A7D3C2A01D208E03BB908804860FC
:101AC000488008754875088148810876022B49DBF3
:101AD00091F832203C2A46D250E0000074C0072022
:101AE000DE00001052010010B2030010500100107F
:101AF000B0C00720B4C00720AC010010C40F0820FC
:101B000078030010FA0100100002001078C00720CE
:101B1000060200106E0100105801001098100820F5
:101B2000D0C007200C020010C803001012020010E1
:101B30001E100820660100107C00001072010010C9
:101B4000E60000100CC00720E8000010AEC007201F
:101B500070E60720D000001070FA0720D2000010B5
:101B6000700B082053B921F81C0F48604880087595
:101B70004875088148810876A1F11C01032B04DB1C
:101B800091F84E203C2A01D209E043B921F8380FE0
:101B90004860488008754875088148810876FB4987
:101BA000FB4AB1F90410B2F9002051434FF4FA7224
:101BB00091FBF2F1F74A118040F6B732934502D219
:101BC000C9F8000001E0C9F80050F3490098088006
:101BD000BDE8F88FF14AF2481178042901D00129B3
:101BE00005D1517819B9EF490978552902D0EE4944
:101BF000098803E00178002901D0491E017070476F
:101C0000EA48416821F4402141F480214160416863
:101C100021F4403141F480314160416821F4404178
:101C200041F480414160416C21F4402141F40021A4
:101C30004164416C21F4403141F400314164416C14
:101C400021F4404141F400414164D948016821F048
:101C5000E0610160016841F400110160016821F454
:101C600080310160016821F47F4141F4807101609D
:101C70008115C160CF488903016070472DE9F041AB
:101C8000CD4C60882188401A00B202F0CBFFA51D20
:101C90002880A0886188401A00B202F0C3FF6880E3
:101CA000A0882188401A00B202F0BCFF4FF496725F
:101CB000A880A4F13401904201DAA0880AE0B5F9C5
:101CC0000200904201DA608804E0B5F90000904219
:101CD00001DA2088888291F802C00023BCF1000F4D
:101CE00023D0AA48B1F914202030046814440460B9
:101CF000446814444460846814448460C468224482
:101D0000C2608A8B521C12B28A83B2F5805F00DBFC
:101D10008B83B1F91C2094052DD1921250F82240EA
:101D200024124C8240F8223025E0A44FC8780C7968
:101D300007EB8015B1F9142045F82420A2070ED135
:101D400000252A4607EB801656F82270521CD2B2A4
:101D50003D44102AF8D32A118C4D25F81020401C40
:101D6000C0B2C870102806D3641CE0B2CB700871F2
:101D7000102800D30B710CF1010C4B701CF001000A
:101D80008B4A887005D0106820F0FF00001D10609D
:101D900034E0C97808070028106820F0FF0002DB53
:101DA00000F1010001E000F10200106084480368C6
:101DB00043F080530360036A43F080430362036E81
:101DC00043F080630366CB07436908D043F0805338
:101DD00043618B07436B05D423F0804304E023F079
:101DE0008053F5E743F0804343634907416F02D4D2
:101DF00021F0806101E041F080614167106840F0AE
:101E000080701060BDE8F0812DE9F0416A4C608877
:101E10002188401A00B202F005FFA51D2880A08885
:101E20006188401A00B202F0FDFE6880A088218817
:101E3000401A00B202F0F6FE4FF49672A880A4F1A8
:101E40003401904201DAA0880AE0B5F9020090421C
:101E500001DA608804E0B5F90000904201DA2088D8
:101E600088828E780020F6B3484A4C7920328CB1B3
:101E7000B1F91430156805EBA3051560556805EB3D
:101E8000A3055560956805EBA3059560D56805EB3E
:101E9000A303D360B1F91430642B0EDA0B8B4FF42B
:101EA000FA655B1C1BB20B83AB4208DB0D83106031
:101EB00050609060D060488251E008834FE0052B6D
:101EC0004DD1A4B1CB8A5B1C1BB2CB82B3F5007F92
:101ED00000DBC882B1F916305D0608D1DB1152F87B
:101EE00023502D1200E010E04D8242F82300B1F99A
:101EF0001A20962A01DD04B148711F3A272A2ED2F2
:101F00004A7962BB01224A7129E02C4FCA7891F8C4
:101F100004C007EB8214B1F9143044F82C305FEAA6
:101F20008C730ED10024234607EB821555F82370DD
:101F30005B1CDBB23C44102BF8D32311134C24F868
:101F40001230521CD2B2CA70102A08D30CF1010C04
:101F50000CF0FF02C8700A71102A00D30871487093
:101F6000761C16F00100124A887005D0106820F027
:101F7000FF00001D10604FE0C978080700281068B6
:101F800020F0FF001EDB401C1DE00000306200104E
:101F900082C0072054010010FA010010C001001097
:101FA0004A000010ACC00720F800001000C002403A
:101FB0000040034000E100E040C00720305E001018
:101FC00000C00920801C1060FC48036843F0805367
:101FD0000360036A43F080430362036E43F080634F
:101FE0000366CB07436908D043F0805343618B07F6
:101FF000436B05D423F0804304E023F08053F5E7DE
:1020000043F0804343634907416F02D421F080616C
:1020100001E041F080614167106840F0807010601D
:10202000F0E62DE9F047E6480168E64A1140016014
:10203000E249086840F47C700860E44B0020E24A02
:10204000B3F9003001E0401CC0B29842FBDBE04A2B
:102050000020E44B1478DF4A06464FF0010A92F85C
:1020600000C0DD4A1578DD4A92F80080DC4A12781B
:102070009146DD4A16542CB133F81070FF0701D099
:1020800002F800A0BCF1000F05D033F81070BF07B4
:1020900001D502F800A02DB133F810707F0701D5EB
:1020A00002F800A0B8F1000F05D033F810703F0718
:1020B00001D502F800A0B9F1000F05D033F8107077
:1020C000FF0601D502F800A0401CC0B20228D1D3FF
:1020D000C4481378B0F9000013B1012B03D009E014
:1020E000000402D406E0000404D4C86940F02000D3
:1020F000C86103E0886940F020008861B9485278DF
:10210000B0F9020012B1012A03D00AE0000402D49F
:1021100007E0000405D4C86940F01000C861BDE8BC
:10212000F087886940F010008861F8E72DE9F041F8
:10213000AE4C01260025A07A0A2806D2401CC0B267
:10214000A0720A2801D3A572E672E5842585CD2008
:1021500001F0C1FCA649DFF89CE2E0B1A6484FF6C9
:10216000FF730268CE2A08D0CF2A08D0D12A08D01F
:10217000D22A09D0D02A09D04CE023854AE0406811
:1021800007E04068E08445E0E38443E04068E084A1
:10219000C04320853EE0E07A88B300221046BEF9B5
:1021A000003007E000EB800701EB0717401C87F8C1
:1021B0002C60C0B29842F5DD904E0020B6F9006068
:1021C00012E000BF00EB800701EB071797F802C091
:1021D000BCF1020F02D0BCF1010F03D1521C87F8F1
:1021E0002C50D2B2401CC0B2984201DAB242E9DBB4
:1021F0008348B0F900003C280CDA002008E009E030
:1022000000EB800201EB0212401C82F82C50C0B29D
:102210009842F5DD00206326BEF900700CE000BF97
:1022200000EB800201EB0212D36B1BB182F82C6031
:102230005B1ED363401CC0B2B842F1DBE57265722D
:102240000020624D034601460246DFF87CC1B5F925
:10225000006014E002EB02150CEB850595F8267082
:10226000BF060AD5677A7F1C67726F683B44AF6808
:10227000B5F91C50384400B22944521CD2B2B242C3
:10228000E8DB627A002893FBF2F25E4B1A8000DAF8
:1022900000205D4A0029108000DA00215B480160BF
:1022A000B0E52DE9F047494E3088002872D000256E
:1022B0004FF00108A946444FB8E000BF05EB0510F8
:1022C00007EB800494F8260010F0180F94F83C00F7
:1022D00012D028B394F93D00322821DA401C40B2D4
:1022E00084F83D0032281BDB94F83E00C0B984F826
:1022F0003E80012263680FE090B194F93D0078B10F
:10230000401E40B284F83D0050B994F83E0038B108
:10231000002384F83E901A464F21284602F06DF8BB
:1023200094F82600800794F83C0012D588B394F9FD
:102330003F00322824DA401C40B284F83F003228A3
:102340001EDB94F84000D8B984F840800122E3688D
:102350000FE0F0B194F93F0090B1401E40B284F814
:102360003F0068B994F8400050B1002384F84090D1
:102370001A465421284602F040F894F83C0040B137
:1023800094F94100C8B1401E40B284F84100F8B34E
:102390004AE000E04FE094F94100322844DA401C62
:1023A00040B284F8410032283EDB94F8420020B964
:1023B000002384F84280012232E035E000C0092089
:1023C00000C00240FF00F0FF70FA0720D2000010AA
:1023D000DAC007207F00001080000010810000108C
:1023E000D203001086010010D8C007200CC00720BF
:1023F00070E60720D000001060C00720C203001064
:1024000086000010B2030010B0C00720B4C007203F
:10241000FFE794F8420038B1002384F842901A464E
:102420004321284601F0E9FF6D1CEDB2B6F900002A
:102430008542FFF643AF72E6F0B5FA4B0022114633
:10244000F748B3F900400FE001EB011300EB830301
:1024500093F83E502DB993F8405015B993F8423097
:1024600003B10122491CC9B2A142EDDBEE49F24E93
:10247000F24B0A70ED49EE4A4FF00005497B1170AE
:10248000EC492A46B1F9001059B116E002EB0217E7
:1024900000EB870797F83E700FB101250FE0521C43
:1024A000D2B2A242F2DB0AE0C2EBC20703EB87071B
:1024B000FF7B002FF1D1521CD2B28A42F4DB35707F
:1024C000DF4EA9B9DF4A128892B100252A460BE0F7
:1024D00002EB021700EB870797F82770BF0701D4BC
:1024E000012503E0521CD2B2A242F1DB357010E0AC
:1024F000002210460AE000BFC0EBC00403EB8404D6
:10250000647B0CB1012203E0401CC0B28842F3DBC3
:102510003270CD4C11B1002210460EE00020207028
:10252000F0BD00BFC0EBC00503EB85056D7D2D063A
:1025300001D4012203E0401CC0B28842F2DB2270C9
:10254000F0BDC24830B4B0F900100A2091FBF0F1A0
:10255000BF48B0F90040B548A142437B90F90C2038
:1025600004DABC4CB4F90040A1420CDC322A18DA7F
:10257000521C52B20273322A13DB002B11D10122FA
:10258000427310460AE0002A0BD0521E51B201736A
:10259000002906D1002B04D04173084630BC02F05C
:1025A00006B930BC70472DE9F05FA24800260088CC
:1025B000002870D0A8480188032900D101260025F1
:1025C000DFF898B2DFF898820A27DFF898A28146F0
:1025D000E2E000BF9948C5EBC50100EB8104BBF9FF
:1025E0000010B4F9020090FBF7F0884204DA9E4A2A
:1025F000B2F90020904213DC227E8AB194F90E10C9
:10260000322928DA491C49B2A173322923DBE17B44
:1026100009BB012103B2A819E173C0B20A4617E051
:10262000884218DA9049B1F90010884213DD207E03
:1026300088B194F90E0070B1401E40B2A07350B939
:10264000E07B40B10020E073A8190023C0B21A4615
:102650004F2102F0BCF9B4F90800B8F9001090FB62
:10266000F7F0884203DABAF90020904214DC227EA7
:1026700092B194F90C10322928DA491C49B221731D
:10268000322923DB617B09BB012103B2A8196173E5
:10269000C0B20A4617E084E0884217DABAF900109F
:1026A000884213DD207E88B194F90C0070B1401E81
:1026B00040B2207350B9607B40B100206073A8190C
:1026C0000023C0B21A464E2102F081F9B4F90A0083
:1026D000B8F9001090FBF7F0884203DABAF900204D
:1026E000904213DC227E8AB194F91010322927DA45
:1026F000491C49B22174322922DB617C01BB0121D2
:1027000003B2A8196174C0B20A4616E0884217DA0B
:10271000BAF90010884213DD207E88B194F91000C8
:1027200070B1401E40B2207450B9607C40B10020AE
:102730006074A8190023C0B21A46492102F047F973
:10274000607D8007207E12D520B394F912003228D4
:1027500020DA401C40B2A07432281BDBE07CC8B9F0
:102760000120E074A819237DC0B201220FE088B1D6
:1027700094F9120070B1401E40B2A07450B9E07CD0
:1027800040B10020E074A8190023C0B21A465421B9
:1027900002F01DF96D1CEDB2B9F900008542FFF69B
:1027A00019AFBDE8F09F70B50446072201212F48FC
:1027B00001F0BDF91A4804EB041100EB81051B4838
:1027C00095F8291095F8262000F13000514000D0EE
:1027D00041700A4000D0827001EA0203DB077FD01B
:1027E000C178491CC17034B1012C09D0022C0CD025
:1027F000032C0FD045E101231A460E211CA03EE117
:10280000012302220E2121A039E1012303220E21FE
:1028100025A034E1012304220E212AA02FE15FE04C
:1028200070FA0720D2000010DAC007200CC0072081
:102830007F000010DE00001080000010700B0820E8
:1028400081000010E2000010D203001054010010BB
:10285000CA000010CC000010E0000010C200001000
:10286000C6000010C8000010C4000010490000108D
:10287000496E766572746F7220233120416C6172EB
:102880006D2C206F7665726C6F616400496E7665A1
:1028900072746F7220233220416C61726D2C206F34
:1028A0007665726C6F616400496E766572746F72E2
:1028B00020233320416C61726D2C206F7665726C21
:1028C0006F616400496E766572746F7220233420E4
:1028D000416C61726D2C206F7665726C6F61640063
:1028E0008B0720D593071ED5C178491CC17034B120
:1028F000012C09D0022C0CD0032C0FD0C1E00223F4
:1029000001220E21A9A0BAE002231A460E21AEA090
:10291000B5E0022303220E21B2A0B0E0022304227C
:102920000E21B7A0ABE04B0720D553071ED5C178C9
:10293000491CC17034B1012C09D0022C0CD0032CDD
:102940000FD09EE0032301220E21B4A097E00323C1
:1029500002220E21B8A092E003231A460E21BDA048
:102960008DE0032304220E21C1A088E00B0720D5AF
:1029700013071ED5C178491CC17034B1012C09D090
:10298000022C0CD0032C0FD07BE0042301220E215B
:10299000BEA074E0042302220E21C5A06FE0042330
:1029A00003220E21CBA06AE004231A460E21D2A0F6
:1029B00065E0CB0620D5D3061ED5C178491CC17071
:1029C00034B1012C09D0022C0CD0032C0FD058E0CC
:1029D000052301220E21D1A051E0052302220E2160
:1029E000D7A04CE0052303220E21DEA047E00523FB
:1029F00004220E21E4A042E08B0620D593061ED5CA
:102A0000C178491CC17034B1012C09D0022C0CD002
:102A1000032C0FD035E0062301220E21E3A02EE087
:102A2000062302220E21EAA029E0062303220E211A
:102A3000F0A024E0062304220E21F7A01FE001B33A
:102A4000FAB9C178491CC17034B1012C09D0022CEB
:102A50000CD0032C0FD014E0002301220E21F7A08C
:102A60000DE0002302220E21F9A008E0002303223A
:102A70000E21FCA003E0002304220E21FEA018F08A
:102A8000B1F815F8260FE87070BD70B5FF49002049
:102A9000FF4DB1F90C200121034600BF01FA00F4FB
:102AA000224201D0295400E02B54401CC0B20C2813
:102AB000F4D3F84C2878F84E217881420CD0B6F93E
:102AC0000010012908DB012869D0002301220B2115
:102AD000F2A000BF18F086F86178687881420BD0C8
:102AE000B6F90010022907DB012859D00023022281
:102AF0000B21EFA018F076F8A178A87881420BD0CE
:102B0000B6F90010032907DB01284AD0002303226D
:102B10000B21ECA018F066F8E178E87881420BD040
:102B2000B6F90010042907DB01283BD0002304225A
:102B30000B21E9A018F056F82179287981420BD0B1
:102B4000B6F90010052907DB01282CD00023052247
:102B50000B21E6A018F046F86179687981420BD024
:102B6000B6F90010062907DB01281DD00023062234
:102B70000B21E3A018F036F8A179A87981420BD097
:102B8000B6F90010072907DB01280ED00023072221
:102B90000B21E0A018F026F8E179E879C4E1E9E139
:102BA000EDE1F1E1F5E1F9E1FDE101E2496E766582
:102BB00072746F7220233120416C61726D2C206F12
:102BC0007665726865617400496E766572746F72BD
:102BD00020233220416C61726D2C206F7665726803
:102BE00065617400496E766572746F7220233320BC
:102BF000416C61726D2C206F76657268656174003E
:102C0000496E766572746F7220233420416C617254
:102C10006D2C206F7665726865617400496E76650B
:102C200072746F7220233120416C61726D2C2069A7
:102C300073207761726D0000496E766572746F72F1
:102C400020233220416C61726D2C206973207761E2
:102C5000726D0000496E766572746F7220233320A6
:102C6000416C61726D2C206973207761726D000078
:102C7000496E766572746F7220233420416C6172E4
:102C80006D2C206973207761726D0000496E766546
:102C900072746F7220233120416C61726D2C20762A
:102CA0006F6C7461676520697320757000000000A7
:102CB000496E766572746F7220233220416C6172A6
:102CC0006D2C20766F6C7461676520697320757058
:102CD00000000000496E766572746F722023332005
:102CE000416C61726D2C20766F6C74616765206930
:102CF0007320757000000000496E766572746F7203
:102D000020233420416C61726D2C20766F6C7461CD
:102D1000676520697320757000000000496E766554
:102D200072746F7220233120416C61726D2C207699
:102D30006F6C7461676520697320646F776E000043
:102D4000496E766572746F7220233220416C617215
:102D50006D2C20766F6C7461676520697320646FD9
:102D6000776E0000496E766572746F72202333208F
:102D7000416C61726D2C20766F6C7461676520699F
:102D80007320646F776E0000496E766572746F729F
:102D900020233420416C61726D2C20766F6C74613D
:102DA000676520697320646F776E0000496E7665F1
:102DB00072746F7220233120416C61726D2C206F10
:102DC0007574707574206973206F666665640000A1
:102DD000496E766572746F7220233220416C617285
:102DE0006D2C206F7574707574206973206F666622
:102DF00065640000496E766572746F72202333201B
:102E0000416C61726D2C206F7574707574206973DC
:102E1000206F666665640000496E766572746F7235
:102E200020233420416C61726D2C206F7574707595
:102E300074206973206F666665640000496E76656C
:102E400072746F72202331206973206E6F726D006F
:102E5000496E766572746F72202332206973206E1A
:102E60006F726D00496E766572746F722023332025
:102E70006973206E6F726D00496E766572746F7241
:102E8000202334206973206E6F726D009810082023
:102E90003C10082070620010DA0000104176746F58
:102EA0006D6174202331206973204F464600000075
:102EB0004176746F6D6174202332206973204F4610
:102EC000460000004176746F6D61742023332069E1
:102ED00073204F46460000004176746F6D61742088
:102EE0002334206973204F46460000004176746FFA
:102EF0006D6174202335206973204F464600000021
:102F00004176746F6D6174202336206973204F46BB
:102F1000460000004176746F6D617420233720698C
:102F200073204F464600000081420BD0B6F90010D6
:102F3000082907DB012840D0002308220B21E8A044
:102F400017F050FE217A287A81420BD0B6F9001092
:102F5000092907DB012835D0002309220B21E5A030
:102F600017F040FE0020295C2154401CC0B20C2800
:102F7000F9D370BD01231A460B21E3A0AAE5012372
:102F800002220B21E5A0B5E5012303220B21E8A0D5
:102F9000C0E5012304220B21EAA0CBE50123052291
:102FA0000B21EDA0D6E5012306220B21EFA0E1E5E0
:102FB000012307220B21F2A0ECE5012308220B21BB
:102FC000F4A0BDE7012309220B21F7A0C8E72DE9F2
:102FD000F041FA4FFA48FB4CB7F90010B0F9002065
:102FE000B4F90000914202DD00F1010002E002DAD2
:102FF000A0F10100208006220021F24800F0A2FD8D
:10300000B4F90010F0480126052900DD06700024FF
:10301000012900DA0470ED48B7F90010ED4DB0F960
:103020000020EB48931E99420BDA90F900201E2AEB
:1030300016DA521C52B202701E2A11DB2A88521E66
:103040000CE091420BDD90F900201E2A08DA521C98
:1030500052B202701E2A03DB2A88521C2A80047096
:10306000DD48B846B0F90000814201DD142203E0DA
:10307000DA480088093002B20021D64800F062FD2B
:10308000F02000F028FD28B1D5480168F12901D1D0
:1030900040682880B5F90010D248012901DC06708B
:1030A00000E00470D048D14FB0F90000A0F1320127
:1030B00028291BD8B8F90010CD4D814202DD28889F
:1030C000401C2880CB48B0F90000814202DA2888F1
:1030D000401E288006220021C54800F033FDB5F9C6
:1030E0000000052800DD3E70012800DA3C70C2486F
:1030F000C24FB0F90000A0F132011E291BD8B8F967
:103100000010BF4D814202DD2888401C2880BD4848
:10311000B0F90000814202DA2888401E2880062289
:103120000021B74800F00EFDB5F90000052800DDCC
:103130003E70012800DA3C70BDE8F081F8B5B24C71
:103140000021A0790A2807D2401CC0B2A0710A2829
:1031500002D3A17101202072E079052805D2401C1C
:10316000C0B2E071052800D1E171BE2000F0B3FCCF
:10317000A64928B19A480268BF2A5BD1406858E046
:10318000207A88B3A24A1078552805D0507855285F
:1031900002D0A04800884CE09F4D00204FF0140C56
:1031A0006B466FF01307165C552E0FD023F8107086
:1031B000401CC0B20228F6D3BDF90030BDF9022090
:1031C0009648934215DD1A46036013E000EB400673
:1031D00006EB001605EB860696F80CE0BEF1000F34
:1031E00003D023F810C0E3E724E0768923F81060C9
:1031F000DEE702608A4B002A02DAB3F9000012E02F
:10320000282A01DD28220260864AB3F900300068CE
:10321000B2F90020D21A02EB820252004243C820C7
:1032200092FBF0F01844A27B022A02D17E48B0F94A
:1032300000000880B1F9000062214143642291FB43
:10324000F2F17A4B19806621484390FBF2F07849FD
:103250000880F8BD2DE9F05F784E00207549DFF851
:10326000D8814FF00A0B8246B6F9003024E0744A48
:10327000744C125C34F91220B2F5FA6F0A560DDA6A
:103280000A2A08DA521C52B20A540A2A12DB012214
:1032900008F800200EE001F800B00BE0002A07DB80
:1032A000521E52B20A54002A04DC08F800A001E0C1
:1032B00001F800A0401CC0B29842D8DB0024DFF81F
:1032C0008891624D624F2FE1624830F81400002867
:1032D00018F8040002D000B1C0E0CCE0BCE000006F
:1032E0004176746F6D6174202338206973204F46D6
:1032F000460000004176746F6D61742023392069A7
:1033000073204F46460000004176746F6D61742053
:103310002331206973204F4E200000004176746FE6
:103320006D6174202332206973204F4E200000000D
:103330004176746F6D6174202333206973204F4E82
:10334000200000004176746F6D6174202334206981
:1033500073204F4E200000004176746F6D61742021
:103360002335206973204F4E200000004176746F92
:103370006D6174202336206973204F4E20000000B9
:103380004176746F6D6174202337206973204F4E2E
:10339000200000004176746F6D617420233820692D
:1033A00073204F4E200000004176746F6D617420D1
:1033B0002339206973204F4E200000006601001061
:1033C000A0000010CE0300106AC00720A200001069
:1033D00068C0072076010010A400001070010010E2
:1033E00060C007206C030010AA00001069C007200D
:1033F000D6C00720AC000010A60000106D0300101E
:10340000D0030010A80000100CC0072068010010B5
:10341000E60000108EC00720D8E50720C8C00720AE
:1034200084C00720840300108A030010C6C0072050
:10343000C0030010B80300107D010010D60000107A
:10344000735C020030620010C1C0072081010010CF
:10345000BC0300101802001001280CD019F9040058
:10346000002818DB401E40B209F80400002814DCD4
:1034700005F804A011E019F904100A2908DA491C1A
:1034800049B209F804100A2907DB0120285504E095
:1034900009F804B001E009F804A0395D285D814213
:1034A0003ED0FF4AD18B491CD183012807D014B3E9
:1034B000012C25D0022C28D0032C2BD030E034B1A5
:1034C000012C09D0022C0CD0032C0FD028E00123B2
:1034D0001A460F21F3A021E0012302220F21F4A0BC
:1034E0001CE0012303220F21F4A017E00123042292
:1034F0000F21F5A012E0002301220F21F5A00DE01D
:10350000002302220F21F8A008E0002303220F214C
:10351000FAA003E0002304220F21FDA017F062FBB4
:10352000285D3855641CE4B2B6F900008442FFF609
:10353000CBAEBDE8F09FFB49FB4A0120087010703C
:103540004870507070472DE9F05FF948DFF8E4E308
:10355000DFF8D8C3B0F90070BEF90000D04CC0EB62
:103560000011BCF902506FF01D0A6FF0950B002698
:10357000DFF8B083B4F924000AEB81020BEB81037E
:10358000BD4204DCEC4FB7F90070BD4205DA82425F
:1035900003DD834201DA88F80060E84DE146BCF9BA
:1035A00008C0B5F90050E04FBCEB450F03DC6D429D
:1035B000BCEB450F04DA824202DD834200DA3E7042
:1035C0006FF0090202EB81017546814220D1A07B98
:1035D000F0B998F8000001281AD13878012817D1DD
:1035E0004FF4D67019F00AFBD549B1F900108842A2
:1035F0000ED0D448008858B199F83D00C00707D1D3
:103600004FF4D67019F028FCCF480178491C01709E
:10361000C749B9F902204846B1F900108A4206DCD0
:10362000C549B0F94E20B1F900108A420FDAB5F958
:103630000010B4F92420C1EB01110AEB810393427D
:1036400005DD0BEB8101914201DA88F80160BB498D
:10365000B9F95400B1F90010B0EB410F03DC494255
:10366000B0EB410F0EDAB5F90000B4F92410C0EB4D
:1036700000100AEB80028A4204DD0BEB80008842D6
:1036800000DA7E70B5F90000C0EB00116FF00900A0
:1036900000EB8100B4F92410884222D1A07B00BB4A
:1036A00098F8010001281CD17878012819D14FF42D
:1036B000E576304619F0A2FA0246A148B0F90210A8
:1036C0008A420ED09F48008802280AD199F88900C2
:1036D000C00706D1304619F0BFFB9B480178491C52
:1036E0000170B5F900006FF00101C0EB001001EBB3
:1036F0008000B4F92410884202D1BDE8F05F1AE7D7
:1037000017E72DE9F04F9148DFF89481914903784C
:103710008F4898F90020B1F90010B0F9000088B086
:1037200023B1022B33D0012B7ED061E18A4E7F4B37
:10373000347896F801C0B3F90A501F7BB3F956608C
:1037400093F8583022B1012A0FD1552C14D10FE033
:10375000552C03D1854268DC002F66D1BCF1550F92
:1037600003D1864261DC002B5FD108B0BDE8F08F49
:103770008D42FADA002FF8D1BCF1550F7ED18E427E
:10378000F3DA002B7AD0F0E788F80000EDE7744C0C
:10379000724B94F803C0B3F90030A76AA56F009587
:1037A00094F853500195D4F8C850029594F8A3505A
:1037B0000395D4F81851049594F8F3500595D4F86E
:1037C0006851069594F84351AE46D4F8B851079520
:1037D00094F89351D4F85862AB46D4F80852B146E5
:1037E000AA4694F8E35194F83342DBB387421CDCD9
:1037F000BCF11E0F19D2012B05DD009E864214DCA0
:10380000019E1E2E11D2022B05DD029E86420CDC8B
:10381000039E1E2E09D2032B05DD049E864204DC86
:10382000059E1E2E01D201E0C0E038E0042B05DD2C
:10383000069E864233DCBEF11E0F30D2052B05DD1D
:10384000079E86422BDCBBF11E0F28D2062B03DD20
:10385000824524DC1E2D22D2072B03DD81451EDC90
:103860001E2C1CD2012A80D143B18F428BDABCF1CD
:103870000A0F88D2022B75DB009800E0CFE0884267
:1038800084DA01980A28F4D2032B6BDB0298884271
:10389000ECDA03980A28ECD2042B63DB63E0A7E0A0
:1038A0000CC00720534B20233120416C61726D0006
:1038B000534B20233220416C61726D00534B202307
:1038C0003320416C61726D00534B20233420416CD6
:1038D00061726D00534B20233120416C61726D2069
:1038E0006973206F66660000534B20233220416CC1
:1038F00061726D206973206F66660000534B202350
:103900003320416C61726D206973206F6666000020
:10391000534B20233420416C61726D206973206FFA
:1039200066660000CCC00720C4030010D8E507205D
:10393000C003001090C00720C6C007208AC007201F
:10394000A4010010CE000010C60300109803001060
:103950009603001098C00720E6000010D000001069
:1039600070E607201BE00498884289DA05980A2847
:1039700089D2052B13DB0698884289DABEF10A0F3B
:1039800089D2062B0BDB07988842EEDABBF10A0FCF
:10399000EED2072B03DB8A45E7DA0A2DE8D2082BA3
:1039A0003DDB8945E1DA0A2C39D3DEE61E4C1D4B9E
:1039B000B4F90050B4F90260AA461C4DB3F90030C6
:1039C000B4F90440D5E900C7AD68B94693B1824562
:1039D0000EDCBCF1000F0BD1012B04DD864207DCAD
:1039E000B9F1000F04D1022B04DD844200DC0DB1DB
:1039F0000120C9E6012AD8D18BB18A45D5DABCF1BC
:103A0000000FD2D1022B04DB8E42CEDAB9F1000FC7
:103A1000CBD1032B03DB8C42C7DA002DC5D10020AC
:103A2000B2E60000D4000010FA010010C40F082014
:103A300070B5374A0020A2F11401064601F10A03CD
:103A40000C5C54B11D5CAC4207D1145C2CB1641EFB
:103A500014F0FF04145400D10E540C5C1C54401C90
:103A6000C0B20A28ECD370BD70B5294D0024143DB6
:103A7000641CE4B22E5D1EB1864201D00A2CF7D33D
:103A8000285523480C3040F82410283040F82420D2
:103A90003438035570BD1E4A0021143A491CC9B27E
:103AA000535C834201D00A29F8D3DBB2834210D1A0
:103AB00017480C3050F8213016480360144B34334B
:103AC00053F82130436000205054114A50540120D3
:103AD0007047002070470E4A0021143A491CC9B2B1
:103AE000535C834201D00A29F8D3DAB282420CD166
:103AF00007480C3050F8212006480260044A34324E
:103B000052F82110416001207047002070470000EA
:103B10007CE5072060C0072090F900308B4200DA76
:103B2000027090F90030934200DD0170704790F907
:103B300000308B4200DA017090F90010914200DDF4
:103B400002707047B0F900308B4200DA0180B0F9A2
:103B50000010914200DD02807047B0F900308B42C6
:103B600000DA0280B0F90030934200DD0180704736
:103B700003688B4201DB194600E00160914200DDE1
:103B80000260704703688B4200DA02600368934268
:103B900000DD01607047000070B5F9480278F9480F
:103BA000016812B141F0010101E021F00101016061
:103BB0000021F54C5FF0010301EB410202EB011221
:103BC00004EB820292F83D20D20706D04D1C03FA86
:103BD00005F205689543154304E04A1C056803FA9D
:103BE00002F29543491CC9B205600229E4D3E74CAF
:103BF000002100BF01EB810204EB0212527832B1C6
:103C0000CD1C03FA05F205689543154303E0CA1C71
:103C100003FA02F29543491CC9B205600C29E9D3A5
:103C20002946D84D00221435AC5C34B102F10F06A0
:103C300003FA06F4A143214304E002F10F0403FA5E
:103C400004F4A143521CD2B2062AEDD3D04D002277
:103C50000160AC5C012C2FD002F1190403FA04F4CA
:103C6000A143521CD2B2042AF3D30160836821EA33
:103C70000302C26044681443C64A4460158815B103
:103C800024F00074446054881CB1446824F08064BB
:103C9000446094881CB1446824F000644460D28875
:103CA0001AB1426822F0805242608B43DA43BA4B29
:103CB00002611B883BB109E002F1190603FA06F420
:103CC000A1432143CDE762F001020261036942682A
:103CD0001A40C0E9012170BDF8B54FF4606528466F
:103CE00018F08CFF401C04463F2800D9002421B264
:103CF000284619F0B1F840F60266304618F07EFF0B
:103D00003F2800D0204601B2304619F0A5F82846D9
:103D100018F074FF4FF4806101EB401555208DF8C9
:103D2000000000248DF8014052208DF802008DF82B
:103D300003406946284619F014F96946281D009485
:103D400019F00FF9954E308B8DF80000307D8DF80D
:103D50000100307A8DF802008DF80340694605F1C4
:103D6000080019F0FEF830798DF8000030788C4E9C
:103D70008DF8010030688DF802008DF80340694627
:103D800005F10C0019F0EDF841248DF800408DF894
:103D900001408DF802408DF80340694605F110009E
:103DA00019F0DFF88DF800408DF801408DF80240E1
:103DB0008DF80340694605F1140019F0D2F88DF82A
:103DC00000408DF801408DF802408DF803406946AF
:103DD00005F1180019F0C5F88DF800408DF8014084
:103DE0008DF802408DF80340694605F11C0019F07A
:103DF000B8F8FF203060F8BD2DE9F843674D604A00
:103E0000243D00262F154FF46061012802D00028C0
:103E10007DD036E1012010708846084618F0EEFE8D
:103E2000401C04463F2800D9002421B2404619F026
:103E300013F840F60269484618F0E0FE3F2800D02B
:103E4000204601B2484619F007F8404618F0D6FE61
:103E500007EB401750208DF800008DF801604124D9
:103E60008DF802408DF803606946384619F079F8FC
:103E70006946381D009619F074F805F12005A88BE5
:103E80008DF80000287E8DF80100287B8DF8020057
:103E90008DF80360694607F1080019F062F8287A86
:103EA0008DF8000028798DF8010028788DF802003F
:103EB0008DF80360694607F10C0019F052F88DF88F
:103EC00000408DF801408DF802408DF803406946AE
:103ED00007F1100019F045F88DF800408DF8014009
:103EE0008DF802408DF80340694607F1140019F07F
:103EF00038F88DF800408DF801408DF802408DF8BB
:103F00000340694607F1180019F02BF800E011E0B2
:103F10008DF800408DF801408DF802408DF8034087
:103F2000694607F11C0019F01CF800230122022148
:103F30001CA0A4E013481670B046026822F00102EB
:103F40000260154A12881AB1426822F001024260EA
:103F5000084618F053FE06463446B94609EB4417A6
:103F60006946384618F0C7FE9DF8000050283ED13B
:103F70009DF80100D8BB9DF80200412837D121E00F
:103F8000C0C007202C000010D8E5072070E60720ED
:103F900081010010280200109A0000102440024005
:103FA00080C10F404D61696E20706F776572206926
:103FB00073206F6666000000641E00E03F24B44278
:103FC000CCD15EE0694607F1100018F094FE9DF830
:103FD000000041280BD19DF80100412807D19DF830
:103FE0000200412803D19DF80300412802D0002C93
:103FF000E4D0E1E705F12005A88B8DF80000287ECC
:104000008DF80100287B8DF8020044468DF803806E
:10401000694607F1100018F0A4FF287A8DF8000017
:1040200028798DF8010028788DF802008DF803407A
:10403000694607F1140018F094FFF948422401780A
:104040008DF8001040788DF801008DF802408DF851
:104050000340694607F1180018F083FF8DF800400F
:104060008DF801408DF802408DF80340694607F154
:104070001C0018F076FF01231A460221E9A016F071
:10408000B1FD00BFBDE8F8832DE9F84F05460C00EF
:104090004FF054060BD0012C04D0022C04D0032C7A
:1040A00004D004E0552602E0752600E04C26E349E2
:1040B000DFF884A305EB85034FF0000B4FF460603D
:1040C0004FF4806901EB0311012A02D0002A7DD050
:1040D00090E134B1012C08D0022C0AD0032C0CD072
:1040E0000FE04A7842F001020AE04A7842F0020208
:1040F00006E04A7842F0040202E04A7842F0080200
:104100004A7081F84D40804618F078FD401C87B217
:104110003F2F00D9002739B2404618F09DFE40F6E7
:10412000026018F06BFD80B23F2800D0384601B223
:1041300040F6026018F090FE404618F05FFD09EB73
:10414000401087B253208DF800008DF801508DF893
:104150000260D8468DF803B06946384618F001FF72
:104160006946381DCDF8008018F0FBFEBAF83C0017
:104170000AF120068DF80000307E8DF80100307BBA
:104180008DF802008DF80380694607F1080018F0E9
:10419000E8FE307A8DF8000030798DF80100307833
:1041A0008DF802008DF80380694607F10C0018F0C5
:1041B000D8FE41268DF800608DF801608DF8026010
:1041C0008DF80360694607F1100000E084E018F004
:1041D000C8FE8DF800608DF801608DF802608DF8E2
:1041E0000360694607F1140018F0BBFE8DF800600B
:1041F0008DF801608DF802608DF80360694607F163
:10420000180018F0AEFE8DF800608DF801608DF892
:1042100002608DF80360694607F11C0018F0A1FEEA
:1042200025B1012D20D0022D3AD0E3E034B1012C8C
:1042300009D0022C0CD0032C0FD0DBE0002301228C
:1042400004217FA00DE001231A46042182A008E08A
:1042500002230122042187A003E003230122042179
:104260008CA016F0BFFCC5E034B1012C09D0022CA3
:104270000CD0032C0FD0BDE00023022204218DA01E
:10428000EFE701230222042190A0EAE702231A4665
:10429000042195A0E5E70323022204219AA0E0E788
:1042A00034B1012C09D0022C0CD0032C0FD0A1E08A
:1042B0000023032204219CA0D3E70123032204212D
:1042C0009FA0CEE7022303220421A4A0C9E7032371
:1042D0001A460421A9A0C4E734B1012C08D0022C4D
:1042E0000AD0032C0CD00FE04A7822F001020AE039
:1042F0004A7822F0020206E04A7822F0040202E044
:104300004A7822F008024A7018F078FC84B2A0467D
:1043100009EB441087B26946384618F0ECFC9DF86A
:104320000000532824D19DF80100A84220D19DF817
:104330000200B0421CD1694607F1100018F0DBFC06
:104340009DF80000412813D106E0641EA4B200E0ED
:104350003F244445DCD14DE09DF80100412807D1C0
:104360009DF80200412803D19DF80300412802D0A6
:10437000002CEDD0E9E7BAF83C000AF120048DF8F2
:104380000000207E8DF80100207B8DF802005D4644
:104390008DF803B0694607F1100018F0E2FD207AAD
:1043A0008DF8000020798DF8010020788DF802004A
:1043B0008DF80350694607F1140018F0D2FD42242D
:1043C0008DF800408DF801408DF802408DF80340D3
:1043D000694607F1180018F0C4FD8DF800408DF80B
:1043E00001408DF802408DF80340694607F11C003A
:1043F00018F0B7FD00BFBDE8F88F2DE9F84F4F2545
:1044000081461F464F2903D0432902D0542905D0A5
:10441000C7E00D4661490F200880C2E0C0E00000FF
:10442000B60300104D61696E20706F776572206968
:1044300073206F6E000000000040024070E607200D
:1044400042505320233120416C61726D2C206F76D5
:104450006572686561740000425053202331204129
:104460006C61726D2C20766F6C7461676520697366
:104470002075700042505320233120416C61726DD1
:104480002C20766F6C7461676520697320646F7788
:104490006E00000042505320233120416C61726D48
:1044A0002C20636F6E6E656374206973206C6F736C
:1044B0007400000042505320233220416C61726D21
:1044C0002C206F766572686561740000425053203D
:1044D000233220416C61726D2C20766F6C746167A1
:1044E00065206973207570004250532023322041AB
:1044F0006C61726D2C20766F6C74616765206973D6
:1045000020646F776E000000425053202332204118
:104510006C61726D2C20636F6E6E656374206973BD
:10452000206C6F73740000004250532023332041ED
:104530006C61726D2C206F76657268656174000025
:1045400042505320233320416C61726D2C20766FD2
:104550006C74616765206973207570004250532048
:10456000233320416C61726D2C20766F6C7461670F
:104570006520697320646F776E00000042505320FD
:10458000233320416C61726D2C20636F6E6E656306
:1045900074206973206C6F73740000009800001021
:1045A0000D46DFF848A64FF460604FF4806B012A97
:1045B00012D0002A7ED118F021FB84B2A046002739
:1045C0000BEB441086B26946304618F094FB9DF818
:1045D000000049286FD17BE0064618F00FFB401C15
:1045E00084B23F2C00D9002421B2304618F034FCAC
:1045F00040F60268404618F001FB80B23F2800D028
:10460000204601B2404618F027FC304618F0F6FA72
:104610000BEB401086B249208DF800008DF8019018
:104620008DF8025000248DF803406946304618F09A
:1046300098FC8DF8007038128DF801008DF802405A
:104640008DF803406946301D18F08BFCBAF83C0029
:104650000AF120058DF80000287E8DF80100287BE6
:104660008DF802008DF80340694606F1080018F045
:1046700078FC287A8DF8000028798DF801002878D8
:104680008DF802008DF80340694606F10C0018F021
:1046900068FC41248DF800408DF801408DF80240FF
:1046A0008DF80340694606F1100018F05AFC8DF8A9
:1046B000004001E06BE077E08DF801408DF80240AA
:1046C0008DF80340694606F1140018F04AFC44E0F6
:1046D0009DF80110494567D19DF80200A84263D1B9
:1046E000694606F1100018F006FB9DF8000041280D
:1046F0005AD14DE0641EA4B200E03F24444546D0A8
:104700007F1CFFB23F2FFFF45BAF002E3FD0BAF803
:104710003C000AF120048DF80000207E8DF8010095
:10472000207B8DF802004FF000058DF8035069469C
:1047300006F1100018F015FC207A8DF800002079A1
:104740008DF8010020788DF802008DF8035069463D
:1047500006F1140018F005FC42248DF800408DF895
:1047600001408DF802408DF80340694606F11800BB
:1047700018F0F7FB8DF800408DF801408DF80240ED
:104780008DF80340694606F11C0018F0EAFB32E69A
:104790009DF80100412807D19DF80200412803D16E
:1047A0009DF803004128ABD0002CA6D0A2E72DE94C
:1047B000F84F0E465521DFF834B488464FF0000913
:1047C0004FF460674FF48065012815D000287DD133
:1047D000384618F013FA87B23C4600264FEA050A1D
:1047E0000AEB441085B26946284618F084FA9DF811
:1047F000000044286BD17BE0384618F0FFF9401CDC
:1048000084B23F2C00D9002421B2384618F024FB92
:1048100040F6026A504618F0F1F980B23F2800D005
:10482000204601B2504618F017FB384618F0E6F95A
:1048300005EB401085B244208DF800008DF8019002
:104840008DF802804C468DF803906946284618F092
:1048500088FB8DF8006030128DF801008DF8024061
:104860008DF803406946281D18F07BFBBBF83C001F
:104870000BF120068DF80000307E8DF80100307BB2
:104880008DF802008DF80340694605F1080018F024
:1048900068FB307A8DF8000030798DF801003078AF
:1048A0008DF802008DF80340694605F10C0018F000
:1048B00058FB41248DF800408DF801408DF80240EE
:1048C0008DF80340694605F1100001E06FE050E00B
:1048D00018F047FB8DF800408DF801408DF802403C
:1048E0008DF80340694605F1140018F03AFB44E0E6
:1048F0009DF80100E8BB9DF80210414564D169466E
:1049000005F1100018F0F7F99DF8000041285BD17F
:104910004EE0641EA4B200E03F24BC4247D0761CA7
:10492000F6B23F2EFFF45CAF002D40D0BBF83C0048
:104930000BF120048DF80000207E8DF80100207B13
:104940008DF802004E468DF80390694605F110007F
:1049500018F007FB207A8DF8000020798DF801000F
:1049600020788DF802008DF80360694605F1140087
:1049700000E029E018F0F5FA42248DF800408DF8A7
:1049800001408DF802408DF80340694605F118009A
:1049900018F0E7FA8DF800408DF801408DF80240DC
:1049A0008DF80340694605F11C0018F0DAFA22E59B
:1049B0009DF80100412807D19DF80200412803D14C
:1049C0009DF803004128AAD0002CA5D0A1E72DE92D
:1049D000F84F4F2581461F464F2906D0492903D05D
:1049E0004E2901D0542900D10D464FF0000A4FF452
:1049F00060604FF4806B012A12D0002A7ED118F03B
:104A0000FDF884B2A04600270BEB441086B269463D
:104A1000304618F070F99DF8000042286FD179E017
:104A2000064618F0EBF8401C84B23F2C00D9002455
:104A300021B2304618F010FA40F60268404618F0ED
:104A4000DDF880B23F2800D0204601B2404618F081
:104A500003FA304618F0D2F80BEB401086B2422031
:104A60008DF800008DF801908DF8025054468DF8B5
:104A700003A06946304618F074FA8DF800703812B9
:104A80008DF801008DF802408DF803406946301D15
:104A900018F067FA564DA88B8DF80000287E8DF827
:104AA0000100287B8DF802008DF80340694606F16D
:104AB000080018F056FA287A8DF8000028798DF849
:104AC000010028788DF802008DF80340694606F150
:104AD0000C0018F046FA41248DF800408DF8014092
:104AE0008DF802408DF80340694606F1100018F079
:104AF00038FA8DF800408DF8014001E066E072E080
:104B00008DF802408DF80340694606F1140018F054
:104B100028FA41E09DF80110494564D19DF8020052
:104B2000A84260D1694606F1100018F0E4F89DF83B
:104B30000000412857D14AE0641EA4B200E03F249F
:104B4000444543D07F1CFFB23F2FFFF45DAF002EE2
:104B50003CD0274CA08B8DF80000207E8DF8010002
:104B6000207B8DF8020055468DF803A0694606F1BA
:104B7000100018F0F6F9207A8DF8000020798DF8F1
:104B8000010020788DF802008DF80350694606F187
:104B9000140018F0E6F942248DF800408DF8014029
:104BA0008DF802408DF80340694606F1180018F0B0
:104BB000D8F98DF800408DF801408DF802408DF84D
:104BC0000340694606F11C0018F0CBF913E49DF888
:104BD0000100412807D19DF80200412803D19DF82A
:104BE00003004128AED0002CA9D0A5E70040024028
:104BF000204002401120FF4908727047FE490820FA
:104C0000FE4A4870002000BF00EB800302EB031354
:104C10001B78052B04D0401CC0B20C28F4D370477D
:104C200048707047002801DA404200B2704710B562
:104C30004FF4347017F0E2FFF14C207040F2D220B4
:104C400017F0DCFF60704FF4357017F0D7FFA070DD
:104C500040F2D62017F0D2FFE0704FF4367017F014
:104C6000CDFF207240F2DA2017F0C8FF60724FF4D7
:104C7000377017F0C3FFA07240F2DE2017F0BEFFBE
:104C8000E0724FF4437017F0B9FF207140F20E301C
:104C900017F0B4FF60714FF4447017F0AFFFA071CC
:104CA00040F2123017F0AAFFE07110BDD54810B5E0
:104CB000016821F0E06101604168D44AC1F30B133F
:104CC000D14C117824F81130491CC9B21170032954
:104CD00003D2016841F08071016010BD2DE9F047F9
:104CE0000746DDE90A090E46DDE9085A01B2144615
:104CF0009846982018F0B0F800219A2018F0ACF8E7
:104D00000021762018F0A8F80121CA2018F0A4F894
:104D10003C21C22018F0A0F839B2782018F09CF895
:104D200004EBD470401001B2C82018F095F831B2ED
:104D30007A2018F091F821B27C2018F08DF84621E5
:104D4000C62018F089F850217E2018F085F80FFA57
:104D500088F1822018F080F8BB21842018F07CF8BC
:104D60000021862018F078F80A21882018F074F8BD
:104D70000FFA89F1DE2018F06FF829B28C2018F0B4
:104D80006BF8E8000A2190FBF1F001B28E2018F0D8
:104D900063F80121A02018F05FF80121A22018F08B
:104DA0005BF80121A42018F057F8A021922018F0F8
:104DB00053F80FFA8AF1942018F04EF80321962048
:104DC00018F04AF83221CC2018F046F82821CE20DD
:104DD00018F042F85521BC2018F03EF81E21BE20E4
:104DE00018F03AF80121802018F036F84621D0203A
:104DF00018F032F83C21D42018F02EF81921D220D6
:104E000018F02AF85021D62018F026F84621D8208C
:104E100018F022F85B21DA2018F01EF85021DC206F
:104E200018F01AF87A4C0021B4F9000018F014F8C0
:104E3000784D0021B5F9000018F00EF8764E4FF0CD
:104E4000FF373946B6F9000018F006F8B4F9020049
:104E5000002118F001F8B5F90200002117F0FCFF5D
:104E6000B6F90200394617F0F7FFB4F90400002143
:104E700017F0F2FFB5F90400002117F0EDFFB6F9C5
:104E80000400394617F0E8FFB4F90600002117F0D6
:104E9000E3FFB5F90600002117F0DEFFB6F90600C2
:104EA000394617F0D9FF0A214FF4197017F0D4FFD3
:104EB000BDE8F0470B214FF4187017F0CDBF2DE976
:104EC000FF4700210723182809D064224FF41674E5
:104ED000302810D03C2819D0DC2823D04FE0F02413
:104EE0009622CDE90024CDE902310246162311466F
:104EF0004FF4967013E04FF4F075CDE90025CDE93D
:104F0000023102462C231146204608E0CDE9002458
:104F1000CDE9023102463723114640F2EE20FFF779
:104F2000DDFE2CE040F6980440F62A110220CDE97F
:104F30000024CDE90201BB2340F60B1240F63E11DE
:104F400040F69210FFF7CAFE40F2BD11C82017F0DC
:104F500083FF2146C42017F07FFF1421922017F011
:104F60007BFF45F211614FF49E7017F075FF012130
:104F7000CA2017F071FFAA21BC2017F06DFF274D42
:104F8000AA21B5F9000017F067FF254C2178254EBE
:104F9000B6F9000017F060FF217B234FB7F900003E
:104FA00017F05AFFB4F91010DFF880A0BAF900002A
:104FB00017F052FFDFF878800021B8F9000017F0F1
:104FC0004BFFDFF870900021B9F9000017F044FFA3
:104FD000B5F90200AA2117F03FFF2178B6F90200C7
:104FE00017F03AFF217BB7F9020017F035FFB4F94B
:104FF000101021E0004002404800001070E6072039
:10500000186F00100040034040C007200DC007206B
:10501000E05C0200E85C0200F85C0200885C0200D0
:105020002C4002408C5C0200905C0200845C020018
:10503000805C0200945C0200BAF9020017F00CFFD9
:10504000B8F90200002117F007FFB9F9020004B017
:105050000021BDE8F04717F0FFBE70B5062017F03D
:10506000CDFD002804DB062017F0C8FD022803DD73
:105070000021062017F0F0FEFF490878401CC0B25E
:105080000870FE4C01250A2813D3FD480068C007AC
:105090000FD1E07868B9062017F0B0FD022808DAD1
:1050A000062017F0ABFD401C01B2062017F0D4FE1D
:1050B000E570B4F93E00B0F5616F07D3062017F034
:1050C0009DFD18B10021062017F0C6FEED4881684D
:1050D0007F22B2EB116F00D1E5708068C0F307400A
:1050E0007F2800D1E57070BDE4488030B0F90A0037
:1050F00000F11C01CBB2E1492D314B720A78521CF0
:10510000D2B201F82D299A4203D9142281F82D2018
:1051100001E0142A1BD3D1B21430814217DADA48E5
:1051200001EB810100EB0110C1783C2905D2491C3B
:10513000C9B2C170032902D207E03C21C1700179D4
:10514000032902D24179491C4171C178017170472C
:105150002DE9FF41C94D8035A5F1530468891C3004
:1051600060722078401CC0B204F82D09322821D981
:10517000B4F85000F0B104F13A04002004F80D0C2A
:10518000A08FE18FA28E638FC0B2C9B2D2B2DBB260
:10519000CDE90210CDE90032E08EA0F13200C3B2B9
:1051A000208FC2B2608EA4F13A04C1B24FF0F10078
:1051B0001AF0BFFA94F82D00142838D3B5F90A1064
:1051C0001431884233DAB4F93E100F292FDA94F8FB
:1051D0003510DFF8B48289B900EB800208EB0211C8
:1051E00001F12C010A794F7A0E7A4B798DE8CC00C7
:1051F0000B784FF0ED0201461AF09BFA94F82D005F
:1052000000EB800108EB0110C1783C2905D2491C54
:10521000C9B2C170032902D207E03C21C1700179F3
:10522000032902D24179491C4171C1780171E88A90
:10523000002817D094F82D00142813D19348817DAD
:105240003C2901D2491C817590F832103C2902D2C8
:10525000491C80F8321090F84E103C2902D2491CAB
:1052600080F84E10BDE8FF81894900200870487021
:1052700088704631487070472DE9F04F0020834A0E
:1052800085B04FF4F471044654321454401C00B2FB
:105290008842FADB794DA87858B905F1800ABAF945
:1052A0000600A8B1012804D105F19E000078552818
:1052B0000ED000214FF0140C7A2301FB03F001EB18
:1052C00081039B0001EB81041BB20CEB84046AE2B6
:1052D0006B484FF002064FF003070068C0071BD071
:1052E000A87F002817D06B494FF03208CDE902148F
:1052F000CDE90087032118234246084614F061FADD
:105300006548CDE90204CDE9008703211823322244
:10531000084614F056FACEE0BAF90800DFF87CB17E
:10532000DFF864914FF00F08012852DB14230021AD
:1053300000941A460846019414F087F912230121BB
:1053400000941A460846019414F07FF999F8020077
:10535000042807D05249CDE902140F2302211A462E
:10536000032018E099F80100C10708D0A87F80B396
:105370000F23CDE902B402211A4603200BE010F0FE
:10538000060F26D0A87F20B346480F23CDE902049C
:1053900002211A460846CDE9008614F012FA99F85F
:1053A0000200012815D10B230022142109200094AA
:1053B00013F030FF00235B221F210920009413F01B
:1053C00029FF687A04231330C1B20022092014F0A7
:1053D00079F9BAF9080002286DDB142300941A4603
:1053E00000211720019414F030F9122300941A467A
:1053F00001211820019414F028F999F8520004288A
:1054000006D02949CDE902140F231A46022117E0DC
:1054100099F85100C10708D0A87F60B30F23CDE9E8
:1054200002B402211A4619200BE010F0060F42D0F8
:10543000A87F00B31B480F23CDE902041A460221BE
:105440001920CDE9008614F0BCF999F85200012822
:1054500031D10B23002214212020009413F0DAFE16
:10546000002344221F212020009413F0D3FE0423A4
:105470000022687A1AE01EE0023500104800001091
:105480002C0000100040044070E60720700B08203C
:105490007A0100109B630200316402000365020080
:1054A000C764020021650200E56402001330C1B246
:1054B000202014F007F9BAF80600DFF848B44FF0DE
:1054C00001094FF00A0A00282BD00094142323224C
:1054D00000213220019414F0B8F800940223032232
:1054E00014213520019414F0B0F800940223032213
:1054F00014214F20019414F0A8F89BF83D00D846E1
:10550000C0070FD0A87F00280BD03221FE48CDE97C
:105510000017CDE902040A46182300212B2014F0BD
:1055200050F996E00B23002214214220009413F03E
:1055300071FE002322221F214220009413F06AFEF4
:10554000B8F90800002805DA687A0423002213302D
:10555000C1B205E0687A0423C0F12200C1B2022280
:10556000422014F0AFF8287B0F2859D2E748B0F951
:105570000000A0F5AA4155396BD0B8F910000521FB
:1055800090FBF1F0ADF810001422002104A8FEF702
:10559000D9FACDE90094BDF9103020220021332042
:1055A00014F053F8B8F810000A2813D2CDE9009689
:1055B00009230C2205213D2014F047F8B8F91010FA
:1055C0000091CDE9014902230521D1A23D20CDF86A
:1055D0000C9012E064284FF0090311D2CDE9009637
:1055E000122205213A2014F030F8B8F910100323E4
:1055F0008DE85202C7A2052121E014F00EF928E03F
:10560000CDE9009618220521372014F01EF8B8F9CC
:10561000101004238DE892020521BFA23720ECE789
:10562000B8F908101E2891FBFAF001B2CDE9001973
:10563000484606D2CDE902700423B9A205213A20DA
:10564000DBE7CDE902700523B7A21946352014F037
:1056500087F900940E231B2204215C20019413F08F
:10566000F4FF00231A1F0A215C20009413F0D2FDDE
:10567000002304220A217620009413F0CBFD00239E
:1056800027221F214320009413F0C4FD6FF00D0367
:1056900000221F216920009413F0BCFDE87AA8467F
:1056A000C0F12200C1B204230222692014F00AF8DA
:1056B000964E4D465C3E0523B6F90810CDF80C9089
:1056C00091FBFAF000B200900421CDE9014198A2CB
:1056D0001621462014F0A1F8B6F90A00642807DA6A
:1056E0008DE8A100042307218DA25D20039509E028
:1056F00090FBFAF000B203958DE89100042388A294
:1057000007215A2014F089F898F808104046491CDF
:10571000C9B288F80810032922D30472417A491CBF
:10572000C9B241720D2900D34472817A491CC9B2B1
:105730008172202900D38472C17A491CC9B2C17216
:105740000F2900D3C472017B01F10101C9B20173B9
:105750009BF83D20920706D52D2901D388F80C40EF
:1057600005B0BDE8F08F1E29F8D2F9E7674D724FFA
:105770009C35ED5C05EB450517F81560165407EBF5
:105780004505401C6E781654401CAE781654401CDB
:10579000EE781654401C2E791654401C6D79155421
:1057A000401C5B1C1BB29C42E0DC491C09B2042972
:1057B000FFF682ADD4E72DE9F04F604BADF50B7DE0
:1057C00005211A680020D40752AD4FF0010A03D01A
:1057D0005BA05290012006215F4EF47944B15FA492
:1057E00045F8204000F1010001F10101C0B2C9B249
:1057F000140708D55FA445F8204000F1010001F12D
:105800000101C0B2C9B2D40608D560A445F8204051
:1058100000F1010001F10101C0B2C9B2940608D53E
:1058200060A445F8204000F1010001F10101C0B27F
:10583000C9B2540608D561A445F8204000F1010022
:1058400001F10101C0B2C9B2140608D561A445F83E
:10585000204000F1010001F10101C0B2C9B2D4053C
:1058600008D562A445F8204000F1010001F10101D2
:10587000C0B2C9B2940508D562A445F8204000F131
:10588000010001F10101C0B2C9B2520506D563A2FF
:1058900045F82020401C491CC0B2C9B21B4A233A1B
:1058A00002F1AF03A2F1B90E92F800C0B3F90040C3
:1058B000BEF90E308593BCF1010F08D13BB134B96C
:1058C0005CA345F82030401C491CC0B2C9B25378D3
:1058D000012B0DD1859B012B0ADD0C4B8C335B8892
:1058E00033B95AA345F82030401C491CC0B2C9B294
:1058F0009378012B05D1859B022B02DD034B8C3362
:10590000B0E0B8E0D8E5072031640200A40100103F
:105910002025000020202500202020250000000058
:105920002020204100000000414343C8CC0000007B
:1059300020202020420000000C5D02002C000010FE
:10594000202020C0E2E0F0E8FF20F1E5F2E821218C
:105950002120202000000000480000102020C0E28C
:10596000E0F0E8FF20E1E0F2E0F0E5E82020202090
:1059700000000000202020C0E2E0F0E8FF20C1CFBE
:10598000D120B9312020202000000000202020C09C
:10599000E2E0F0E8FF20C1CFD120B9322020202062
:1059A00000000000202020C0E2E0F0E8FF20C1CF8E
:1059B000D120B9332020202000000000202020C06A
:1059C000E2E0F0E8FF20C1CFD120B9342020202030
:1059D00000000000202020C0E2E0F0E8FF20C1CF5E
:1059E000D120B9352020202000000000202020C038
:1059F000E2E0F0E8FF20C1CFD120B93620202020FE
:105A000000000000202020C0E2E0F0E8FF20C1CF2D
:105A1000D120B9372020202000000000202020C005
:105A2000E2E0F0E8FF20C1CFD120B93820202020CB
:105A300000000000202020D1F0E0E1EEF2E0EB20B9
:105A4000D1CAB9312020202000000000202020D120
:105A5000F0E0E1EEF2E0EB20D1CAB93220202020C4
:105A6000000000009B8833B9FCA345F82030401C9F
:105A7000491CC0B2C9B2D278012A0CD1859A032A36
:105A800009DDFC4AD28832B9FBA245F82020401C2F
:105A9000491CC0B2C9B296F8382032B1FCA245F810
:105AA0002020401C491CC0B2C9B296F8392032B13E
:105AB000FDA245F82020401C491CC0B2C9B296F88E
:105AC0003720B14632B1FEA245F82020401C491CC7
:105AD000C0B2C9B2DFF8008498F8422042B1FFA2F8
