:020000040000FA
:10000000D07E0010CD010000D1010000D30100001E
:10001000D5010000D7010000D90100000000000058
:10002000000000000000000000000000DB010000F4
:10003000DD01000000000000DF0100003F1D0200A4
:10004000E3010000EB52020017530200E30100003D
:10005000E30100003D830200E3010000E301000032
:10006000E3010000E3010000E3010000E301000000
:10007000E3010000E3010000E3010000E3010000F0
:10008000E3010000E3010000E3010000E3010000E0
:10009000E3010000E3010000695F0000E3010000EC
:1000A000E3010000837F0200E3010000E3010000A0
:1000B0007D970200E3010000E3010000E30100007E
:1000C000E3010000E3010000E301000000F002F89A
:1000D00000F06DF80AA090E8000C82448344AAF175
:1000E0000107DA4501D100F062F8AFF2090EBAE873
:1000F0000F0013F0010F18BFFB1A43F0010318475C
:100100000CF902004CF902000A444FF0000C10F800
:10011000013B13F0070408BF10F8014B1D1108BF85
:1001200010F8015B641E05D010F8016B641E01F825
:10013000016BF9D113F0080F1EBF10F8014BAD1C75
:100140000C1B09D16D1E58BF01F801CBFAD505E093
:1001500014F8016B01F8016B6D1EF9D59142D6D3ED
:10016000704700000023002400250026103A28BF15
:1001700078C1FBD8520728BF30C148BF0B60704719
:10018000642929F0CF83732929F033860020704732
:100190001FB52DF077FC29F0E9FE040000200021B6
:1001A0002DF05AFC401C60601FBD10B510BD29F039
:1001B000B8FE1146FFF7ECFF21F077FE29F0EAFECA
:1001C00003B4FFF7F2FF03BC29F0EEFE0848004736
:1001D000FEE7FEE7FEE7FEE7FEE7FEE7FEE7FEE7F7
:1001E000FEE7FEE703480449044A054B7047000058
:1001F000CD000000D06A0010D07E0010D076001034
:10020000D0760010FEE710B52BF018FB2BF0A4FB06
:100210002BF096FB2BF024FBAFF30080BDE81040E1
:100220002BF060BB10B52CF071F92CF0E1FF2CF035
:10023000C5F9BDE810402CF03DBB2CF085B82BF083
:100240004DBE09B1002070472AF0A2BB00207047C4
:100250001E4BDA601870597070471C48C16800293D
:100260000DD0491EC1600AD1194902780A7042783E
:100270004A700A710021C17001714171817170472A
:10028000124A1161907070471048016900290BD023
:10029000491E016108D10E4A817811700021517008
:1002A000C1700171417181717047084908817047BF
:1002B0000648B0F90810002907D0491E09B201818B
:1002C000002902D1084601F074BB704768C00720BE
:1002D000AC01001070B5064600F00CF80468054645
:1002E00030460A22002129F088FD2C6070BD70473D
:1002F0007047704700487047703E0820FFFFFFFFBF
:10030000002801DA404200B270470020F94A20215B
:100310001154401CC0B2C828FAD370470146F54AB0
:100320000020401CC0B2135C8B4201D0C828F8D317
:10033000704710B50021F04C0A2200BFB0FBF2F369
:1003400002FB13006054491CC9B218460529F5D3B5
:1003500010BDF0B5E94B0121202719700521E64AAF
:10036000002601E01C7844B1541814F8015C25B94A
:10037000814202D904F8017C05E0541814F8015DAB
:10038000303525701E70491E11F0FF01EAD1F0BD15
:1003900070B50D461446002802DAC043401C00B276
:1003A000FFF7C7FF601CC0B2FFF7D3FF2846FFF777
:1003B000B5FFFF2819D0D04ACE4B0021A14201D26F
:1003C000555C13E004D14FF02E051D54555C03E03D
:1003D000555C202D03D04CB11E1806F8015C401E60
:1003E000491CC9B2C0B20529E8D370BD1D54F6E757
:1003F000F0B50D461446002801DA404200B2FFF77E
:1004000098FF601CC0B2FFF7A4FF2846FFF786FFE5
:10041000B94AB84B002164B9555C202D09D0561853
:100420007678202E03D12D261F1807F8016C1D5455
:100430000FE0A14201D2555CF9E704D14FF02E053F
:100440001D54555C02E0555C202D02D01E1806F8A4
:10045000015C401E491CC9B2C0B20529DBD3F0BD06
:10046000FEB52B23002802DA404200B22D230025DE
:100470000A266C4690FBF6F706FB170060556D1CCC
:100480006DB238B20A2DF5DB0126002509202027A0
:1004900000E046B114F800C0BCF1000F03D1904257
:1004A00001DD275405E0265C3036265400266D1CFD
:1004B000EDB2401E40B20028EBDA2D2B02D163557D
:1004C0006D1CEDB26AB168B205E0231813F8013C67
:1004D0002354401E40B29042F7DC2E206D1CA054E5
:1004E000EDB20846FFF71AFF0021824A04E0635C80
:1004F000461A491C935549B2A942F8DBFEBDFEB528
:100500002B23002801DA40422D2300250A266C46C1
:10051000074690FBF6F006FB107767556D1C6DB231
:100520000A2DF5DB012600250920202700E046B131
:1005300014F800C0BCF1000F03D1904201DD275434
:1005400005E0265C3036265400266D1CEDB2401EB8
:1005500040B20028EBDA2D2B02D163556D1CEDB2B1
:100560006AB168B205E0231813F8013C2354401E19
:1005700040B29042F7DC2E206D1CA054EDB208462C
:10058000FFF7CCFE00215B4A04E0635C461A491C7D
:10059000935549B2A942F8DBFEBDFEB52B260028D3
:1005A00001DA40422D2600240A276D46844690FB3E
:1005B000F7F007FB10CC05F804C0641C64B20A2CE9
:1005C000F4DB0127002009244FF0200C00E04FB19C
:1005D00015F804E0BEF1000F04D19C4202DD05F8DD
:1005E00004C005E02F5D30372F550027401CC0B2F6
:1005F000641E64B2002CEADA2D2E02D12E54401C67
:10060000C0B26BB144B205E02E1916F8016C2E553C
:10061000641E64B29C42F7DC2E24401CEC54C0B231
:1006200001EB810102EB8101CAB20021314B04E0F0
:100630006C5C561A491C9C5549B28142F8DBFEBDE0
:1006400070B50D4616461C46FFF773FE601CC0B21F
:10065000FFF77FFE05EB850006EB8000C1B2264A5E
:10066000244B0020A04201D2155C5D5406D3155CDA
:10067000202D03D04CB15E1806F8015C491E401CC9
:10068000C0B2C9B20528EDD370BD5D54F6E710B510
:100690000C46FFF743FE17490CB1032200E0042289
:1006A0000A5410BD30B5044608461546FFF736FE1D
:1006B000FF2809D00F4A2178002905D04319641C6E
:1006C000401CD154C0B2F6E730BD70B50D4614469B
:1006D000FFF72FFE601CC0B2FFF73BFE2846FFF776
:1006E0001DFE054B034A002154B95D5C202D07D047
:1006F000155415E030020010E8C00720B0030010C8
:10070000A14201D25D5CF3E704D14FF02E051554F0
:100710005D5C02E05D5C202D02D0161806F8015CDD
:10072000401E491CC9B2C0B20529DDD370BD801876
:1007300001D5084402E0884200DB401AC0B270478D
:100740002DE9FE4F04460D464FF4606025F0D6F8C3
:1007500062424021FFF7EBFF400100F58060044654
:1007600002A925F0A4F9694604F1080025F09FF9D3
:1007700001A904F10C0025F09AF92846FFF7CEFDF7
:100780009DF80860402430232125DFF8F0A3FC49C0
:1007900020224FF0C20C4FF04F094FF0230B552E83
:1007A00025D04FF0D1084FF0410E572E72D0542E65
:1007B00071D0502E70D0E227492E6ED04FF04209F2
:1007C000422E6BD04F2E6AD0442E69D0532E5FD16B
:1007D000BAF80060002E75D0C1260E54401CC0B27D
:1007E000CF260E54401CC0B201F80080FEE39DF8F5
:1007F0000A60522E18D1BAF8006056B101F800C054
:10080000401CC0B2EA260E54401CC0B2EB260E5467
:1008100008E001F80090401CC0B26E260E54401C47
:10082000C0B20A54401CC0B20A54401CC0B20A54A0
:10083000401CC0B20A54401CC0B2E8E30B54401C38
:10084000C0B23A220D54401CC0B20A54401CC0B27F
:100850000B54401CC0B20C54401CC0B20A54401C83
:10086000C0B200220B54401CC0B201F800B09DF889
:1008700004002121FFF729FF9DF8050000224021F7
:10088000FFF723FF9DF8060000222321FFF71DFF3D
:10089000BDE8FE8F0DE09EE076E1F9E188E2F7E346
:1008A000F7E300BF00EB810000224021FFF7FAFED2
:1008B000EEE79DF80A604FF02D094E2E03D0492E29
:1008C0004AD01FE1E7E3BAF800600EB3C8260E5421
:1008D000401CC0B2CD260E54401CC0B23E2601F8CA
:1008E00000C0401CC0B201F80090401CC0B20E54C1
:1008F000401CC0B2C52601F80080401CC0B20E5496
:10090000401CC0B2D2260E54401CC0B2DC2660E0AF
:100910004FF0490C01F800C0401CC0B24E270F54E4
:10092000401CC0B256260E54401CC0B23E2601F8F0
:100930000090401CC0B20E54401CC0B24D260E5454
:10094000401CC0B201F800E0401CC0B201F800C079
:10095000401CC0B20F54D3E0BAF80060CEB101F829
:100960000080401CC0B2C5260E54401CC0B2D22626
:100970000E54401CC0B2DC260E54401CC0B23E26B1
:1009800001F80090401CC0B20E54401CC0B2C826F2
:100990008EE04D260E54401CC0B24FF0490C01F8B9
:1009A00000E0401CC0B24E2701F800C0401CC0B29D
:1009B0003E260F54401CC0B201F80090401CC0B24B
:1009C0000E54401CC0B201F800C0401CC0B20F540D
:1009D00092E00E5494E09DF80A6052274E2E02D009
:1009E000492E4AD091E0BAF800601EB3CF260E54CB
:1009F000401CC0B2D0260E54401CC0B2C8270F54B1
:100A0000401CC0B2CE270F54401CC0B20E54401C34
:100A1000C0B2C5260A54401CC0B201F80080401C78
:100A2000C0B20E54401CC0B2D2260E54401CC0B2FC
:100A3000DC2620E050260E54401CC0B249260F543C
:100A4000401CC0B20E54401CC0B201F80090401CC3
:100A5000C0B20F54401CC0B24D270A54401CC0B253
:100A60000F54401CC0B201F800E0401CC0B20E544C
:100A7000401CC0B24E260E5445E0BAF800600EB3DA
:100A8000CF260E54401CC0B2D0270F54401CC0B219
:100A9000C8260E54401CC0B24FF0CE0801F80080AA
:100AA000401CC0B20F54401CC0B20A54401CC0B21B
:100AB0000E54401CC0B2CD260E54401CC0B201F8EA
:100AC00000C01DE050260E54401CC0B249260F54F1
:100AD000401CC0B20E54401CC0B201F80090401C33
:100AE000C0B20F54401CC0B20A54401CC0B20E54D5
:100AF000401CC0B24E260E54401CC0B2562668E7B9
:100B0000401CC0B20A54401CC0B2DFF878C00A547E
:100B1000401C9DF80060BCF83C70C0B2BE427ED064
:100B20000A54401CC0B20B54401CC0B20D54401CAF
:100B3000C0B20C54401CC0B20A54401CC0B20A548B
:100B4000401CC0B200220B54401CC0B201F800B0DF
:100B50009DF802002121FFF7B8FD9DF8000000225A
:100B60002321FFF7B2FD9DF80100401E0C2802D39F
:100B700001208DF80100BAF8000083E05601001052
:100B80003002001000400240BAF80060D1467EB149
:100B9000CF260E54401CC0B201F80080401CC0B2E9
:100BA0000A54401CC0B20A54401CC0B20A5411E09E
:100BB0004D260E54401CC0B2492601F800E0401CEE
:100BC000C0B20E54401CC0B24E260E54401CC0B2DF
:100BD00053260E54401CC0B2DFF8ACC40A54401C6B
:100BE000C0B20A54401CC0B20A54401CC0B20A54DD
:100BF000401CC0B20A54401CC0B20A54401C9DF8AC
:100C00000060BCF83C70C0B2BE420ED19DF80160DD
:100C10009CF83870BE4208D19DF8026000E0E3E322
:100C20009CF82C70BE423FF409AE0A54401CC0B27E
:100C30000B54401CC0B20D54401CC0B20C54401C9C
:100C4000C0B20A54401CC0B20A54401CC0B20022B8
:100C50000B54401CC0B201F800B09DF802002121E5
:100C6000FFF733FD9DF8000000222321FFF72DFD43
:100C70009DF80100401E0C2802D301208DF80100D0
:100C8000B9F800009DF8011000287ED0FF4809E661
:100C9000BAF80060F6B3C8260E54401CC0B2ED2668
:100CA0000E54401CC0B2B9460F54401C00F0FF0C5B
:100CB0009DF8090009280DD2313001F80C000CF123
:100CC000010C0CF0FF00C0260E54401CC0B201F80D
:100CD00000903EE0A0F109065A2E62D2401C0A277D
:100CE000B0FBF7F606F1300801F80C800CF1010CAE
:100CF00007FB16000CF0FF0C303001F80C000CF173
:100D0000010C0CF0FF00C0260E54401CC0B201F8CC
:100D1000009043E0FFE749260E54401CC0B26E2607
:100D20000E54401CC0B276260E54401C00F0FF0C3E
:100D30009DF80900092810D2313001F80C000CF19F
:100D4000010C0CF0FF0001F800E0401CC0B26C2662
:100D50000E54401CC0B20A5420E0A0F109065A2EDD
:100D60001FD2401C0A27B0FBF7F606F1300801F845
:100D70000C800CF1010C07FB16000CF0FF0C30305E
:100D800001F80C000CF1010C00E0F3E30CF0FF00A3
:100D900001F800E0401CC0B26C260E54401C00F06C
:100DA000FF0C01F80C200CF1010C0CF0FF00B2E27A
:100DB0009DF80A604E2E32D0432E7ED04F2E7DD02D
:100DC000492E7CD0462E7BD0662E7AD0542E79D0F8
:100DD0004FF0D3094D2E76D06D2E7FF469ADBAF861
:100DE0000060002E70D0C8260E54401CC0B2CD2624
:100DF0000E54401CC0B2D02701F800C0401CC0B245
:100E00000A54401CC0B20F54401CC0B2D72701F88E
:100E10000090401CC0B20F54401CC0B278E2BAF837
:100E20000060D0467EB3C0260E54401CC0B255268A
:100E30000F54401CC0B20E54401CC0B2F1260E54D8
:100E4000401CC0B2E5260E54401CC0B2F2260E541F
:100E5000401CC6B2FC208855761CF0B29DF8096093
:100E6000012E04D0022E05D0032E06D095E101F804
:100E700000E004E001F8009001E043260E54401C1D
:100E8000C0B20A5437E0FFE701F800E0401CC0B2EE
:100E90006C270F54401CC0B255270F54401CC0B2E1
:100EA0006D270F54401CC0B261270F54401CC0B2C4
:100EB00069270F547646401C07E02DE04EE0B4E26F
:100EC000CBE00AE135E2BAE107E2C0B26E270F5487
:100ED000401CC7B27320C8557F1CF8B29DF809703A
:100EE000012F04D0022F04D0032FCAD143260E5461
:100EF00001E001F80090401CC0B2DFF88CC10A5438
:100F0000401CC0B20A54401C9DF80060BCF83C7004
:100F1000C0B2BE426BD064E1BAF80060D0462EB1D8
:100F2000C0260E54401CC0B20F5405E001F800E08A
:100F3000401CC0B26C260E54401CC0B2792601F889
:100F40000090401CC0B20E54401CC0B270260E541B
:100F5000401CC0B20A54401CC0B240E1BAF8006064
:100F6000D0469EB1C0260E54401CC0B255260F5428
:100F7000401CC0B20E54401CC0B2FB260F54401C93
:100F8000C0B20E54401CC6B2F520F7E001F800E0F4
:100F9000401CC0B26C270F54401CC0B255270F54E0
:100FA000401CC0B26F270F54401CC0B275270F54AD
:100FB000401CC7B27420C8557F1CF8B29DF8097058
:100FC0007646012F66D0022F66D006E1C0260E5469
:100FD000401CC0B255260F54401CC0B20E54401CD9
:100FE000C0B2E8260E54401CC0B201E0E0E28DE23F
:100FF000ED260E54401CC0B20F54401CC0B2CCE1D0
:1010000001F800E025E0022E21D0032E7ED01CE066
:1010100001F800E0401CC0B26C270F54401CC0B265
:1010200055270F54401CC0B269270F54401CC0B252
:101030006E270F54401CC7B276467620CBE10E5483
:1010400007E0022F03D0032FE0D00A5401E001F89B
:101050000090401CC0B20A545BE1BAF80060D04670
:10106000F6B1C0260E54401CC0B2D4260F54401C0A
:10107000C0B20E54401CC0B2E8260E54401CC0B290
:10108000ED260E54401C08E00040024094E10200AE
:1010900044E149E238E281E2F0E0C0B20F5415E0E9
:1010A00001F800E0401CC0B26C260E54401CC0B2D7
:1010B000D4260E54401CC0B269260E54401CC0B247
:1010C0006E260E54401CC0B276260E54401CC0B290
:1010D0000A54401CC0B20A543DE0BAF80060D04641
:1010E000DEB1C0260E54401CC0B2D4260F54401CA2
:1010F000C0B20E54401CC0B2F1260E54401CC0B207
:10110000E5260E54401CC0B2F22600E04BE10E541E
:10111000401CC0B2FC260E54DBE701F800E0401C86
:10112000C0B26C260E54401CC0B2D4260E54401CD3
:10113000C0B26D260E54401CC0B261260E54401C35
:10114000C0B269260E54401CC0B26E260E54401C1C
:10115000C0B273260E54401CC0B20A54401CC0B228
:101160000A54401CC0B20A54401C9DF80070C0B222
:10117000FF4EB6F83CC067457ED032E08855761CFD
:10118000F0B29DF80960012E77D0022E76D0032EA2
:1011900025D14326B8E1401CC0B20A546FE601F8DD
:1011A0000090401CC0B279270F54401CC0B2702779
:1011B0000F54401CC0B261270F54401CC0B27327AB
:1011C0000F54401CC0B24E460F54401C9DF809708D
:1011D000C0B2012FD8D0022FDCD0032FD9D00A54AF
:1011E000D9E70A54401CC0B20B54401CC0B20D5485
:1011F000401CC0B20C54401CC0B20A54401CC0B2C7
:101200000A54401CC0B200220B54401CC0B201F86A
:1012100000B09DF802002121FFF757FA9DF8000069
:1012200000222321FFF751FA9DF80100401E0C28EF
:1012300002D301208DF80100B8F8000022E5BAF8C9
:10124000006026B301F80080401CC0B2C5260E54D1
:10125000401CC0B2D2260E54401CC0B2DC260E5434
:10126000401CC0B2D0260A54401CC0B20E54401CD0
:10127000C0B201F8009002E083E142E13EE1401C8F
:10128000C0B2D7260E54401CC0B2CD2637E44D263E
:101290000E54401CC0B2492601F800E0401CC0B208
:1012A0004E270E54401CC0B253260F54401CC0B2EF
:1012B000F4460E54401CC0B248260A54401CC0B22A
:1012C0000E54401CC0B201F800C0401CC0B20F5404
:1012D000401CC0B24426FFF7CEBB49260E54401C2A
:1012E000C0B24E270F54401CC0B256260E54401CAC
:1012F000C0B248260A54401CC0B20E54401CC0B2B2
:1013000001F800E0401CC0B20F54401CC0B244269B
:101310000E54401CC0B20A54FFF7F2BB9DF80A609D
:10132000552E21D04F2E6ED0492E7ED0542E7FF4D4
:10133000AFAABAF80060D046002E3FF430AFC12605
:101340000E54401CC0B2E0260E54401CC0B2E92727
:101350000F54401CC0B2EF270F54401CC0B20E54B3
:10136000401CC6B2F12009E7BAF80060EEB1C02611
:101370000E54401CC0B255260F54401CC0B20E542F
:10138000401CC0B2FB260F54401CC0B20E54401C7F
:10139000C6B2F5208855761CF0B29DF80960012E82
:1013A0007FF431AE2CE6432649E601F800E0401C0C
:1013B000C0B26C270F54401CC0B255270F54401CBC
:1013C000C0B26F270F54401CC0B275270F54401C89
:1013D000C7B276467420C8557F1CF8B29DF80970D4
:1013E000012F7FF42EAE2AE69DF801609CF838703C
:1013F000BE427FF495AB9DF802609CF82C70BE4213
:10140000F7D1FFF71BBABAF80060EEB3C0260E544E
:10141000401CC0B255260F54401CC0B20E54401C94
:10142000C0B20F54401CC0B200E061E0FB260E5475
:10143000401CC6B2F5208855761CF0B29DF80960B4
:10144000012E04D0022E50D0032E03D049E001F823
:1014500000E001E0432646E0401CC0B2444E0A547E
:10146000401CC0B20A54401CC0B20A54401CC0B256
:101470000A54401C9DF80070B6F83CC0C0B26745E5
:10148000B7D19DF8017000E00AE096F838C06745D2
:10149000AFD19DF8027096F82C60B742A9D1B0E7A1
:1014A00001F800E0401CC0B26C270F54401CC0B2D1
:1014B00055270F54401CC0B26F270F54401CC0B2B8
:1014C00075270F54401CC7B27420C8557F1CF8B252
:1014D0009DF809707646012F05D0022F05D0032F05
:1014E000B8D00A54B8E70E54B6E701F80090B3E755
:1014F000BAF80060002E3FF48BAD67E501F800906C
:1015000049E601F800E046E60E5444E69DF8016025
:101510009CF83870BE427FF4FEAC9DF802609CF8E7
:101520002C70BE42F7D16CE79DF80A60552E7FF40F
:10153000AFA9BAF80060D0464FF0640C4FF06309D1
:101540002EB1C0260E54401CC0B20F5405E001F865
:1015500000E0401CC0B26C260E54401CC0B25526A0
:101560000E54401CC0B201F800C0401CC0B202E0E2
:10157000004002404EE001F80090401CC0B20A5406
:10158000A4E59DF8017096F838C06745C3D19DF871
:10159000027096F82C60B742BDD132E750260E5447
:1015A000401CC0B253260E54401CC0B255260E54E7
:1015B000401C00F0FF0C9DF80900092803D23130CF
:1015C00001F80C001BE0A0F109065A2E15D2401CB0
:1015D0000A27B0FBF7F6B046303601F80C600CF184
:1015E000010C07FB18000CF0FF0C303001F80C0068
:1015F0000CF1010C0CF0FF0008E001F80C200CF1DC
:10160000010C0CF0FF000A54401CC0B20A54401CEC
:10161000C0B266E7FA48FFF745B970B50446084618
:1016200015461E46FEF77AFEF64B0146FF2804D10A
:1016300006E01A54641C401CC0B22278002AF8D17B
:10164000F1480078002804D0002E02D029445F2001
:10165000585470BDF0B5074614460E460846FEF7CE
:101660005DFE0546002231463846FEF748FF002C55
:1016700008D0E5480078002804D05F20E14A291B03
:1016800011444870F0BD2DE9FF4F8146DDE90D049E
:101690008A469346FEF742FE2022DFF86C83D94942
:1016A0000A234FF0640C012C09D198F8005035B191
:1016B0000D18A5F10E05AA706A702A7020E099FB3A
:1016C000F3F603FB16970D183037A5F10E05022C23
:1016D000AF7096FBF3F703FB176606F130066E70EA
:1016E00099FBFCF606F1300605F80E6B08D198F868
:1016F00000602EB1A5F10A05AA706A702A7021E077
:101700009AFBF3F603FB16A70D183037A5F10A056F
:10171000032CAF7096FBF3F703FB176606F1300658
:101720006E709AFBFCF606F13006674605F80A6B08
:1017300008D198F800602EB1A5F10605AA706A706C
:101740002A7022E09BFBF3F603FB16B70D18303727
:10175000A5F10605042CAF7096FBF3F703FB1766A3
:1017600006F130066E709BFBFCF606F1300667460C
:1017700005F8066B09D198F8004034B1A5F10205CF
:101780000A546A702A70BDE8FF8F039C94FBF3F241
:1017900003FB124430340C5492FBF3F403FB142289
:1017A0000844A0F1020030324270039991FBF7F136
:1017B00001F130010170E6E717B501EB810002EBA2
:1017C0008000C2B29DF80030904803F00F0100EB9A
:1017D0001313445C8B498C54521ED2B21B788B5429
:1017E0009DF80130521E03F00F04D2B2045D8C54F8
:1017F000521E00EB1313D2B21B788B549DF80230AB
:10180000521E03F00F04D2B2045D8C54521E00EB42
:101810001313D2B21B788B549DF80330521E03F081
:101820000F04D2B2045D8C54521E00EB1310D2B2DE
:10183000007888541EBD10B504460846FEF76EFDBC
:10184000724904F00F028B5C6E4A01EB14111354C1
:10185000401EC0B20978115410BD01EB810102EBAA
:1018600081016A4A10B500F00F03C9B2D45C654B20
:1018700002EB10105C54491EC9B20078585410BDD8
:1018800001EB810102EB8101CBB2604910B500F0A0
:101890000F028C5C5B4AD45404095B1E04F00F00F9
:1018A000DBB2085CD0545B1ED8B2230903F00F04EE
:1018B0000C5D1454401E1B09C0B2C95C115410BD0C
:1018C00001EB810102EB8101CBB2504910B500F070
:1018D00001028C5C4B4AD45444085B1E04F00100A6
:1018E000DBB2085CD0545B1ED8B2630803F001047D
:1018F0005B080C5D1454401E03F00104C0B20C5D83
:1019000014545B08401E03F00104C0B20C5D145473
:101910005B08401E03F00104C0B20C5D14545B0868
:10192000401E03F00104C0B20C5D1454401EC4B24A
:101930005808085C105510BD30B535490123314DAC
:1019400091F9012091F9041000EB80048A4202D140
:1019500005F8243030BD2B4D4C1C00EB800005EB0E
:101960008000A24201D1037530BD8C1CA24202D17D
:1019700080F8283030BDCC1CA24202D180F83C3027
:1019800030BD0C1DA24202D180F8503030BD4C1D3C
:10199000A24202D180F8643030BD8C1DA24202D137
:1019A00080F8783030BDC91D8A42FBD180F88C3078
:1019B00030BD184B1A88521E104400B21880164AC7
:1019C00000EB800002441248136803601279027130
:1019D0004278114441707047F0B50E4D0E4FB5F985
:1019E000004004EB8406641C2C80094C3E442568AE
:1019F000356025793571207061702271A370F0BD5A
:101A000007E2020030020010390000105EE202001E
:101A1000AC01001060000010D00B0820F0B50546A6
:101A20000E461746FEF771FC5A4C0020401C15F874
:101A3000011BC0B204F8011B1428F7D35FF00000AB
:101A4000401C16F8011BC0B204F8011B1428F7D380
:101A50005FF00000401C17F8011BC0B204F8011B26
:101A60001428F7D35FF00000401C13F8011BC0B22C
:101A700004F8011B1428F7D3C1E710B5029CFFF747
:101A8000CDFF4548C378827841787A20FFF7A4FFDC
:101A9000642094FBF0F0BDE81040C0B2FEF705BC36
:101AA0002DE9FE4340010D4600F58060044602A981
:101AB00023F0FDFF694604F1080023F0F8FF01A9B7
:101AC00004F10C0023F0F3FF2846FEF727FC314C0D
:101AD000202530262554401CC0B24FF02108265442
:101AE000401CC0B24FF0400C04F80080401CC0B253
:101AF000232104F800C0401CC0B200222554401C21
:101B0000C0B22554401CC0B22654401CC0B221545F
:101B1000401CC7B29DF802002121FEF7D6FD9DF8BA
:101B2000000000222321FEF7D0FD9DF80100401E99
:101B30000C2802D301208DF801009DF801001749FF
:101B4000002201EB80004021FEF7ACFDE5557F1C33
:101B5000F8B23A212654401CC0B2002204F800809A
:101B6000401CC0B22154401CC0B221212654401C4C
:101B7000C0B204F800C0401CC6B29DF80400FEF7D5
:101B8000A4FD9DF8050000224021FEF79EFDA5550D
:101B9000BDE8FE8330020010AC01001094E10200A9
:101BA0002DE9FF4105460027FF4C01216776A07D06
:101BB000022805D0FD4A525D552A04D065200EE06A
:101BC0006176BDE8FF8105EB450202EB0513F84A9B
:101BD00002EB830696F83D20D30702D0662060769C
:101BE000EFE796F83F309B0701D56720F7E79207AC
:101BF00001D56820F3E7EF4AB6F90830B2F90020C2
:101C0000934201DD6920EAE75242934201DA6A20F9
:101C1000E5E7012804D1E07D00287ED001287DD0B1
:101C200064206076A17521864FF4F87023F010FED1
:101C3000E575294665864FF4FA7023F009FEDE4803
:101C4000B761002130F9150023F002FE2776A78640
:101C500039464FF4FB7023F0FBFDD848D84D00887F
:101C6000401C00F0070006EB4000008CADF80000BF
:101C7000A88B8DF804004FF063024FF0010101A81A
:101C800002F0D3FFC84C9DF804004C342070287E2D
:101C90008DF804000C22012101A802F0C6FF9DF876
:101CA00004006070287B8DF804001F22012101A828
:101CB00002F0BBFF9DF80400A0709DF80000E070EA
:101CC0004FF4FC70216823F0ADFF287A8DF80400F2
:101CD0001722002101A802F0A8FF9DF8040020713E
:101CE00028798DF804003B22002101A802F09DFF15
:101CF0009DF80400607128788DF804003B220021D3
:101D000001A802F092FF9DF80400A0719DF8010067
:101D1000E0714FF4FE70616801E003E004E023F03D
:101D200081FF4EE76B205AE76C2058E770477047F9
:101D300070B5A34C203C94F83800A24D2978084493
:101D40000C2803D9A08F401C01B201E0B4F93C106B
:101D5000B82023F07DFD94F83810287801440C2930
:101D600094F8381000D90C380144B62023F070FDE7
:101D700094F82C001C2801D91C2101E094F82C10A7
:101D8000B42023F065FD04F12004217A4FF0AE0069
:101D900023F05EFD2179B02023F05AFD2178BDE8C3
:101DA0007040B22023F054BD87486FF03B0100889B
:101DB000C0EB001001EB80007B49488570477A49F1
:101DC00040F2F9600885704770B5774C208D401C53
:101DD00000B22085B0F5E16F02DB0020208570BDE8
:101DE000B0F5DF6F11D90F2301226421D22002F058
:101DF000B9FE0F230022D821D72002F0B3FE0F2313
:101E00000022D821DC2002F0ADFEB4F92800A0F5B4
:101E1000E0610739E3D16D4E6D4C6E4D30882188FD
:101E2000884205D0B4F90010B5F9000023F010FD88
:101E3000708861888842D2D0B4F90210B5F90200E6
:101E4000BDE8704023F004BD10B55C4C08220021B1
:101E50002088401C2080204602F0FDFE5448B4F942
:101E6000001000EB410142880A84B0F84E00A1F84E
:101E70006C0010BD2DE9F04FDFF85CE15A4C574B78
:101E8000BEF9002056495748B4F90060574D8BB051
:101E9000002412B1012E0FD018E0012E16D1544E9D
:101EA00036881E80534BB3F900300380002B00DAD4
:101EB00004805148006808E06E881E80B5F9003043
:101EC0000380002B00DA0480686808604B48B0F992
:101ED0000060002E66D0DFF828B100208246ABF803
:101EE0000040014640F6B833FCE000BFC1EB0110F2
:101EF000DFF8108100EB411708EB870090F817C05E
:101F0000BCF1050F4FD2C14690F804C090F805808F
:101F10000CEB082CCDF814C01FFA8CFCCDF808C0CF
:101F200019F8277090F801C007EB0C271FFA87F803
:101F30000697877901970097877A90F80BC007EB8F
:101F40000C270797BFB20397077B90F80DC007EBEC
:101F50000C270897BFB20497077A90F809C007EBDF
:101F60000C27DDF808C01FFA87F909979C457ED237
:101F7000B8F57A7F7BD2009F782F78D2039F9F425B
:101F800075D2049FB7F57A6F71D2B9F52F6F6ED203
:101F9000069FC76190F802C0C7780CEB07273FB2D5
:101FA000078631E0A6E08CE000C00720BE000010EC
:101FB00040EC0720B8C007201CDB020028010010FD
:101FC000204002403F000010BEC007209EC00720F6
:101FD000E25800103CDB0200B60000102A0100109D
:101FE000980100102C010010B8000010D005082046
:101FF000E0C00720AE030010E4C00720AC000010D2
:10200000D2030010D8EC0720002F00DA0486059FC9
:102010008761019F076290F8078080F83A80099FE6
:102020008762079F4762089FC762877B80F83B7083
:1020300018F01A0F03D0012780F83C7001E080F8F7
:102040003C405FEA48670AD5C77B7F2F31D0802F9D
:1020500032D090F90F7007F5FA77ABF800705FEAAD
:10206000886701D50127BA4600F15A0000E037E041
:10207000477C4770877C8770C77CC770077D077176
:10208000477D4771877D90F817C007EB0C27C78005
:10209000077E0772477E4772877E8772C77EC77248
:1020A000077F0773477F90F81EC007EB0C27C78197
:1020B00016E040F2EE2C01E04FF0FA0CABF800C055
:1020C000CDE7C46104868461046280F83A404462CA
:1020D0008462C46280F83C4080F84C4080F83B4009
:1020E000491CC9B2B142FFF601AFBAF1000F01D1EC
:1020F000ABF80040FA4FDFF8EC83DFF8ECB3DFF821
:10210000EC93DFF8ECA3FB4E012A03DBA87F0A283F
:1021100001D235E0A2BB95F82000012805D10122AB
:1021200000234321104603F0A8FD2C806C606C80D6
:102130002C776C772C81F0486C8185F820400480E6
:10214000EE483C700470EE48047088F8004088F84F
:10215000014088F802408BF800408BF801408BF872
:10216000024089F8004089F8014089F802408AF865
:1021700000408AF801408AF8024034707470B470EC
:10218000E048B0F90000022804DB95F892000A2824
:1021900008D200E030B1A87F0A2839D3DA48008895
:1021A000032835D195F89400012805D10023012298
:1021B0004321022003F061FD25F8744FCF486C6085
:1021C0006C802C776C772C816C8185F820403C707A
:1021D0000470CB48A5F17405047088F8004088F8B5
:1021E000014088F802408BF800408BF801408BF8E2
:1021F000024089F8004089F8014089F802408AF8D5
:1022000000408AF801408AF8024034707470B4705B
:10221000BC48B0F90000032804DB95F806010A2841
:1022200008D200E030B1A87F0A2837D3B64800882A
:10223000032833D195F80801012805D10023012294
:102240004321032003F019FD25F8E84FAB486C60EB
:102250006C802C776C772C816C8185F820403C70E9
:102260000470A748047088F8004088F8014088F896
:1022700002408BF800408BF801408BF8024089F84F
:10228000004089F8014089F802408AF800408AF845
:1022900001408AF8024034707470B4709B489C4AC4
:1022A00040F6B733B0F90410B2F9002051434FF4AF
:1022B000FA7291FBF2F1974A1180B0F90A0096493F
:1022C000A0F221329A4201D20C6001E001220A60A0
:1022D0009249B1F90010414344F6206091FBF0F0BF
:1022E0008F49A0F211100880864801888D4851B1AD
:1022F0008D49098829B18049098801800BB0BDE862
:10230000F08F0480FAE78949F6E7894A894811780D
:10231000042901D0012905D1517819B986490978D4
:10232000552902D08549098803E00178002901D0A8
:10233000491E017070478248416821F4402141F4F0
:1023400080214160416821F4403141F48031416095
:10235000416821F4404141F480414160416C21F4E5
:10236000402141F400214164416C21F4403141F4A9
:1023700000314164416C21F4404141F40041416429
:102380007048016821F0E0610160016841F40011CA
:102390000160016821F480310160016821F47F410E
:1023A00041F4807101608115C16067488903016053
:1023B00070472DE9F041654C60882188401A00B2D1
:1023C00003F08EFDA51D2880A0886188401A00B208
:1023D00003F086FD6880A0882188401A00B203F0CF
:1023E0007FFD4FF49672A880A4F13E01904201DA7D
:1023F000A0880AE0B5F90200904201DA608804E0A2
:10240000B5F90000904201DA2088888391F802C073
:102410000023BCF1000F23D03C48B1F91C20203030
:102420000468144404604468144444608468144498
:102430008460C4682244C2608A8C521C12B28A84AE
:10244000B2F5805F00DB8B84B1F9242094052ED196
:10245000921250F8224024124C8340F8223026E099
:102460003B4FC8780C7907EB8015B1F91C2045F873
:102470002420A2070FD100252A4607EB801600BFB3
:1024800056F82270521CD2B23D44102AF8D32A11B9
:102490001E4D25F81020401CC0B2C870102806D36D
:1024A000641CE0B2CB700871102800D30B710CF1E2
:1024B000010C4B701CF00100224A887005D0106896
:1024C00020F0FF00001D10606FE0C97808070028A9
:1024D000106820F0FF003DDB00F101003CE000004F
:1024E000580000105B0100105E0100106101001037
:1024F000640100106701001014C10720590000108A
:102500005A000010B6000010B8000010845E0010E1
:10251000B0C007202E010010380B08206A030010FD
:10252000F201001054010010D4030010D203001077
:10253000AC0100101E000010DCC00720D00000100D
:1025400000C002400040034000E100E03EC0072020
:10255000845A001000F102001060FF48036843F045
:1025600080530360036A43F080430362036E43F0C9
:1025700080630366CB07436908D043F0805343610F
:102580008B07436B05D423F0804304E023F0805392
:10259000F5E743F0804343634907416F02D421F0DC
:1025A000806101E041F080614167106840F0807017
:1025B0001060BDE8F0812DE9F041E84C6088218889
:1025C000401A00B203F08CFCA51D2880A088618809
:1025D000401A00B203F084FC6880A0882188401A69
:1025E00000B203F07DFC4FF49672A880A4F13E0186
:1025F000904201DAA0880AE0B5F90200904201DABF
:10260000608804E0B5F90000904201DA20888883F0
:102610008E780020F6B34C79D14A8CB1B1F91C30D8
:10262000156805EBA3051560556805EBA305556016
:10263000956805EBA3059560D56805EBA303D3600A
:10264000B1F91C30642B0EDA0B8C4FF4FA655B1C6D
:102650001BB20B84AB4208DB0D84106050609060AD
:10266000D060488352E0088450E0052B4ED1A4B1DD
:10267000CB8B5B1C1BB2CB83B3F5007F00DBC88325
:10268000B1F91E305D0608D1DB1152F823502D122E
:102690004D8300E00FE042F82300B1F92220962A92
:1026A00001DD04B148711F3A272A2FD24A796ABB4B
:1026B00001224A712AE0AB4FCA7891F804C007EBB7
:1026C0008214B1F91C3044F82C305FEA8C730FD1BE
:1026D0000024234607EB821555F823705B1CDBB200
:1026E0003C44102BF8D323119D4C203C24F812308D
:1026F000521CD2B2CA70102A08D30CF1010C0CF093
:10270000FF02C8700A71102A00D308714870761C45
:1027100016F00100944A887005D0106820F0FF0080
:10272000001D106032E0C97808070028106820F00A
:10273000FF0001DB401C00E0801C1060864803683D
:1027400043F080530360036A43F080430362036EE7
:1027500043F080630366CB07436908D043F080539E
:1027600043618B07436B05D423F0804304E023F0DF
:102770008053F5E743F0804343634907416F02D438
:1027800021F0806101E041F080614167106840F014
:10279000807010600DE72DE9F04F74480168744AAD
:1027A000114001606C49086840F47C700860724B0D
:1027B0000020704AB3F9003001E0401CC0B29842DA
:1027C000FBDB6E4A0020DFF8C48114786C4A714B41
:1027D000064615786B4A4FF0010B92F800C06A4A22
:1027E000127891466A4A127892466B4A16542CB176
:1027F00033F81070FF0701D002F800B02DB133F8A4
:102800001070BF0701D502F800B0BCF1000F05D071
:1028100033F810707F0701D502F800B0B9F1000F4E
:102820000ED198F819705FB998F88D7047B998F87B
:1028300001712FB9594F3F7817B9594F3F782FB1D0
:1028400033F810703F0701D502F800B0BAF1000F5D
:1028500005D033F81070FF0601D502F800B0401C17
:10286000C0B20228C2D34B481378B0F9000013B1AC
:10287000012B03D009E0000402D406E0000404D4D4
:10288000C86940F02000C86103E0886940F020007A
:10289000886140485278B0F9020012B1012A03D091
:1028A00009E0000402D406E0000404D4C86940F042
:1028B0001000C86123E5886940F0100088611EE5BA
:1028C0002DE9FF5F254E00273E3EB07A0A2807D249
:1028D000401CC0B2B0720A2802D3B7720120F07255
:1028E000B785F785CD2002F074F9D8B12D494FF6A0
:1028F000FF720868CE2808D0CF2808D0D12808D089
:10290000D22809D0D02809D00CE0F2850AE0486826
:1029100007E04868B08505E0B28503E04868B08507
:10292000C043F08500200D4960F30F043E39824614
:10293000C872009001900290487236318346087048
:102940004870887060F31F4460F30F058146864627
:102950000023094928E0000000C009203EC00720EC
:10296000A45E0010845A00100040034000C00240E2
:10297000FF00F0FFD8EC0720AC000010CE030010E1
:10298000510000105200001053000010D005082024
:1029900010C10720720100100EC107205500001061
:1029A0005600001060C00720B1F900207AE000BF97
:1029B000C3EB031101EB4316F94901EB8601CE7D10
:1029C0000396052E59D291F83A60B60655D59A422B
:1029D00053DDF44E777A7F1C7772D1F81C8008EBB8
:1029E0000A0636B2B246B1F9306006EB0B07BB46B9
:1029F0000327B3FBF7FC07FB1C3727B1012F15D0CA
:102A0000022F27D039E0E74F3044363797F800C01F
:102A10000CF1010C87F800C0009FD1F824C0674476
:102A2000009704EB080767F30F0426E0DD4F4E44E0
:102A30003637B14697F801C00CF1010C87F801C098
:102A4000019FD1F824C06744019708EB244767F33E
:102A50001F4412E0D34F76443637B64697F802C08B
:102A60000CF1010C87F802C0029FD1F824C0674422
:102A7000029705EB080767F30F0591F83A6016F027
:102A8000BF0F19D191F83B60F60715D1039E052EB3
:102A900012D291F8BB60642E02D2761C81F8BB6022
:102AA0005B1CDBB2934283DB0021DFF8F8C288466F
:102AB0000B468CF809101AE00026EFE7C3EB03166B
:102AC00006EB4317B64E06EB8707FE7D052E0CD2AC
:102AD00097F83A60B60608D59A4206DD7E6AB04499
:102AE0009CF80960761C8CF809605B1CDBB2934291
:102AF000E4DB9CF80930AC4E98FBF3F33380BAF179
:102B0000000300DA00231E46A84B1E80BBF1000321
:102B100000DA00231E46A64B1E60A24E009B3636EE
:102B2000377893FBF7F3A34F3B8023B2002B01DAF6
:102B300061F30F04A04B00281C8000DA084684468D
:102B40009E48C0F800C096F80180DDF804C09CFBE8
:102B5000F8FCA7F802C05FEA244C01D561F31F44DA
:102B600024145C80B9F1000F00DA8946C0F80490A3
:102B7000B678029C94FBF6F4BC802CB2002C01DAEF
:102B800061F30F059D80BEF1000F00DA8E468C497F
:102B9000C0F808E00988022965D18A490988002916
:102BA00061D17F49B1F93040B1F9EC502C44046057
:102BB000B1F9A841B1F96452B1F9DC632C44B1F91F
:102BC000205335442C444460D1F8D840C86920448F
:102BD0001880D1F85042D1F89401D1F8C853044478
:102BE000D1F80C032844204458804FF000042346B9
:102BF0004FEA0400C0EB001505EB401501EB85051D
:102C000095F83A60B60609D5EE7D052E06D28242C9
:102C100004DD6D6A5B1C2C4424B2DBB2401CC0B2E4
:102C20000228E7D394FBF3F00024388023460220E7
:102C3000C0EB001505EB401501EB850595F83A60F2
:102C4000B60609D5EE7D052E06D2824204DD6D6AF8
:102C50005B1C2C4424B2DBB2401CC0B20628E7D374
:102C600094FBF3F07880BDE8FF9F2DE9F047564EC6
:102C7000308800287DD000254FF00109A846484F34
:102C800071E100BFC5EB051000EB451007EB8004B8
:102C900094F83A0010F0BF0F94F83B004FEAC07070
:102CA00001D0D0B134E080BB94F84C0068B3B4F9E3
:102CB000580096280DDA401C00B2A4F85800962857
:102CC00026DB94F85A0000BB002384F85A900122B6
:102CD00017E09620A4F858001AE094F84C00A0B130
:102CE000B4F95800002811DDC01E00B2A4F8580045
:102CF00000280DDC94F85A0038B1002384F85A807B
:102D00001A465321284602F06BFC01E0A4F85880D3
:102D100094F83A00000794F84C0012D528B394F9BF
:102D20005000322821DA401C40B284F8500032288A
:102D30001BDB94F85100C0B984F851900122A369BB
:102D40000FE090B194F9500078B1401E40B284F881
:102D5000500050B994F8510038B1002384F85180E4
:102D60001A464F21284602F03BFC94F83A00C00670
:102D700000E0FDE094F84C0029D538B394F94F00F9
:102D8000322838DA401C40B284F84F00322832DB57
:102D900094F85100D0B984F851900122A36926E03B
:102DA000D8EC072000C00720E0C00720AE030010C9
:102DB000E4C00720E6010010EC0100102C070820F9
:102DC000B8000010B6000010AC00001013E090B185
:102DD00094F94F0078B1401E40B284F84F0050B9CA
:102DE00094F8510038B1002384F851801A466F21BD
:102DF000284602F0F5FB94F83A00810714D594F8C0
:102E00004C1089B194F95200322826DA401C40B2A5
:102E100084F85200322820DB94F85300E8B984F893
:102E200053900122236A14E010F0060F15D194F894
:102E30004C0090B194F9520078B1401E40B284F831
:102E4000520050B994F8530038B1002384F85380ED
:102E50001A465421284602F0C3FB94F83A00C007F2
:102E600094F84C0012D088B394F95400322824DA34
:102E7000401C40B284F8540032281EDB94F8550000
:102E8000D8B9002384F8559001220FE0F0B194F9ED
:102E9000540090B1401E40B284F8540068B994F8D0
:102EA000550050B1002384F855801A464C2128461D
:102EB00002F096FB94F84C0040B194F9560018B318
:102EC000401E40B284F8560098B11DE0FFE794F927
:102ED0005600322818DA401C40B284F856003228D6
:102EE00012DB94F8570078B9002384F85790012238
:102EF00006E094F8570038B1002384F857801A464A
:102F00004321284602F06CFB94F83B00C00794F87C
:102F10004C0012D028B394F94D00322821DA401C1D
:102F200040B284F84D0032281BDB94F84E00C0B943
:102F3000002384F84E9001220FE090B194F94D00E7
:102F400078B1401E40B284F84D0050B994F84E005C
:102F500038B1002384F84E801A464921284602F0F1
:102F60003FFB6D1CEDB2B6F900008542FFF68AAE5C
:102F7000BDE8F0872DE9F0470022DFF8FC93134607
:102F80001146FE48B0F9006023E000BFC1EB01101C
:102F900000EB411409EB840090F8514074B990F8AB
:102FA00053405CB990F8574044B990F85A402CB956
:102FB00090F8554014B990F84E4004B10122C47DF8
:102FC000052C04D290F83A00800600D50123491C54
:102FD000C9B2B142DADBEA48EA490270EA48B0F91C
:102FE00000007BB900220BE002EB4204C4EB421468
:102FF00001EB8404A47F052C00D20123521CD2B221
:103000008242F1DBE14ADFF888C3DFF890A3137056
:10301000E04A9CF80D301370E14ADF4BB2F90040F2
:10302000002210B19446654629E04FF00108012CBA
:1030300008D0D74FFD7C3F7D3D43022C0BD0032CA5
:103040000CD021E09CF8125005E000BF83F800800E
:103050001AE01A7018E0002DFBD0F7E79CF8157005
:103060003D43F8E705EB4507C7EB451701EB87073D
:10307000FF7B17B14FF0010C03E06D1CEDB2A542D0
:10308000F0DB83F800C0D0B9C64B1B88BBB100246D
:1030900023464D460EE000BFC3EB031707EB431773
:1030A00005EB870797F83B70BF0701D4012403E0C5
:1030B0005B1CDBB2B342EFDB8AF8004012E0002574
:1030C0002B460BE003EB4306C6EB431601EB8606EB
:1030D000767B0EB1012503E05B1CDBB2A342F1DB82
:1030E0008AF80050B04DB14EDFF8C4C2DFF8C48298
:1030F00010B1002423460DE02A7012E003EB4307D1
:10310000C7EB431701EB8707FF7D0FB1012403E0F5
:103110005B1CDBB28342F1DB2C7010B10024234630
:103120000EE0327013E000BF03EB4305C5EB43151F
:1031300001EB85056D7C0DB1012403E05B1CDBB266
:103140008342F1DB347010B100231A4611E08CF891
:10315000002088F800200BE702EB4204C4EB421485
:1031600001EB8404647F240601D4012303E0521C94
:10317000D2B28242F0DB8CF8003000231A460CE019
:1031800002EB4204C4EB421401EB8404647F640646
:1031900001D4012303E0521CD2B28242F0DB88F852
:1031A0000030E5E62DE9F0478148834D844E0378F1
:1031B00082482A784FF0010801784FF00009322444
:1031C000E3B1B6F9003027463E2B00D005278F42E9
:1031D0000ED9491CC9B2017020463E2B00D00520F3
:1031E000884217D10AB901F06CFE85F8008011E021
:1031F00021463E2B00D0052101700BE051B1491E44
:1032000011F0FF01017005D1012A01D101F0E7FEA3
:1032100085F8009067486C4D01786A48E1B1B6F9CD
:10322000001023463E2900D00523027893420ED990
:10323000521CD2B202703E2900D00524944205D11E
:10324000287808B901F06DFF85F8008090E63E29E6
:1032500000D0052404708BE601780029F6D0491EC1
:1032600011F0FF010170F1D12878012801D101F09E
:10327000E6FF85F800907BE6544830B4B0F90010C2
:103280000A2091FBF0F15248B0F900404048A142B9
:10329000437B90F90C2004DA4E4CB4F90040A14273
:1032A0000CDC322A18DA521C52B20273322A13DBB7
:1032B000002B11D10122427310460AE0002A0BD0E4
:1032C000521E51B20173002906D1002B04D0417364
:1032D000084630BC02F0A6BA30BC70472DE9F05F5A
:1032E0002948008800287FD1DFF8B4800125DFF865
:1032F000E8B0B8F80000394E0027254C4FF00A0915
:1033000001282BD13648BBF90030B0F90010204617
:1033100091FBF9F1827C90F90E00994203DCB6F939
:10332000003099420BDA32285EDA401C40B2A073BA
:10333000322859DB002A57D1A57401200CE000285F
:1033400052D0401E40B2A07300284DD1002A4BD06D
:103350000022A7741146104602F081FB1048B0F914
:103360000000022801D003283ED1DFF87880B8F9A8
:10337000001091FBF9F138E0D8EC0720AC00001008
:10338000CE030010D0050820B60000105400001035
:1033900000C0072051000010520000105300001020
:1033A000B8000010BA0000105500001056000010C0
:1033B00010C1072011C107205F030010CF030010C8
:1033C00026010010D003001099C007202E01001024
:1033D000A6000010A80000109E000010A000001021
:1033E000E0C00720E601001085E0BBF90000814243
:1033F00003DCB6F9000081420EDA94F90F0032289E
:1034000019DA401C40B2E073322814DBE07C90B93A
:103410000122E57410460CE094F90F0058B1401EEB
:1034200040B2E07338B9E07C28B10021E774012292
:10343000084602F014FBB8F90210BBF9000091FB3A
:10344000F9F1CA46D946814203DCB6F9000081424F
:103450000EDA94F91000322819DA401C40B22074B8
:10346000322814DB207D90B90222257501200CE062
:1034700094F9100058B1401E40B2207438B9207D34
:1034800028B1002127750222084602F0E8FAFE481A
:10349000008803282FD1B8F90410B9F9000091FB76
:1034A000FAF1814203DCB6F9000081420FDA94F9A7
:1034B000110032281FDA401C40B2607432281ADB37
:1034C000607D002817D10322657501200FE094F973
:1034D000110000280FD0401E40B2607400280AD1AD
:1034E000607D002807D00322002167750846BDE8EB
:1034F000F05F02F0B4BABDE8F09F2DE9F05FE34859
:1035000000260088002878D0DFF87CA3BAF80000F5
:10351000032800D10126DE4FDE4C4FF00109388828
:103520004FF000083E2851D0DB4822460378D17C7A
:1035300092F9120092F820206BB1F2B105281CDA42
:10354000401C40B2A074052817DBB1B9002384F8F1
:10355000139001220AE082B178B1401E40B2A074FB
:1035600058B951B1002384F813801A464D21002028
:1035700002F083FB38883E2828D0C848007800280D
:1035800094F8200010D008B394F9140005281DDA2F
:10359000401C40B22075052818DB607DB0B90023BF
:1035A00084F8159001220DE080B194F9140068B1FF
:1035B000401E40B2207548B9607D38B1002384F8C0
:1035C00015801A466D21002002F057FB00254FF0B0
:1035D0000A0B16E238883E287AD0F5BBB04800784E
:1035E00060B194F82010204659B390F9161041B3F9
:1035F000491E49B28175B1B123E007E294F8200079
:103600002146F0B191F916000A281ADA401C40B29E
:1036100088750A2815DBC87D98B9002384F81790AF
:103620003046012206E0C17D59B1002384F817809D
:1036300030461A46662102F020FB38883E2847D0E3
:103640005DB9984894F820100078002820460AD0E8
:1036500019B190F9101001B100E023E0491E49B200
:10366000017491B11EE0E9B190F910100A2919DA3C
:10367000491C49B201740A2914DB417C91B9002329
:1036800084F811903046012206E0417C51B10023BC
:1036900084F8118030461A46462102F0EEFA388846
:1036A0003E2815D08048405D002805EB4500C0EB62
:1036B000451004EB800090F820104CD0F1B390F945
:1036C0000E10D9B3491E49B28173C1B364E0FFE75C
:1036D00005EB4500C0EB451004EB8000B0F902207B
:1036E00092FBFBF1714AB2F90020914204DA704B6F
:1036F000B3F90030994211DC90F8203073B190F9A1
:103700000E20322A5DDA521C52B28273322A58DB02
:10371000C27BEABB80F80F900BB22FE0914250DAE7
:10372000634AB2F9002091424BDD90F8201079B342
:1037300090F90E1061B3491E49B201E02CE028E077
:10374000817329BBC17B19B380F80F80A8190023AE
:10375000C0B21A4615E0F9B190F90E100A291BDA29
:10376000491C49B281730A2916DBC17BA1B980F8D3
:103770000F90B0F9021091FBFBF003B2A819C0B290
:1037800001224F2102F079FA38883E2819D003E04F
:1037900017E0C17B0029D7D14648405D002805EBE2
:1037A0004500C0EB451004EB800090F820104CD091
:1037B000F1B390F90C10D9B3491E49B20173C1B3EA
:1037C00081E005EB4500C0EB451004EB8000B0F94B
:1037D000082092FBFBF1384AB2F90020914204DA4A
:1037E000364BB3F90030994211DC90F8203073B1B8
:1037F00090F90C20322A71DA521C52B20273322A2A
:103800006CDB427BF2BB80F80D900BB230E0914252
:1038100064DA2A4AB2F9002091425FDD90F8201064
:1038200081B390F90C1069B3491E49B2017301E0EC
:1038300029E045E031BB417B21B300BF80F80D801A
:10384000A8190023C0B21A4615E0E1B190F90C1096
:103850000A2938DA491C49B201730A2933DB417B52
:1038600089B980F80D90B0F9081091FBFBF003B214
:10387000A819C0B201224E2102F0FFF938883E2873
:103880002CD020E02AE01EE0B8000010B6000010A6
:1038900026010010D00508205A0000105900001021
:1038A00064010010670100105B0100109E00001011
:1038B000A00000105E010010A2000010A400001083
:1038C000417B0029BAD1FF48405D002805EB450047
:1038D000C0EB451004EB80003FD02CE005EB450029
:1038E000C0EB451004EB8000B0F90A2092FBFBF11D
:1038F000F54AB2F90030994204DAF44AB2F90020EC
:10390000914211DC90F8202072B190F91820322AEF
:103910003EDA521C52B20276322A39DB427EBABB00
:1039200080F819900BB22DE0994231DAE74AB2F9EA
:10393000002091422CDD90F8201049B390F9181026
:1039400031B3491E49B20176D1B321E080F8198024
:10395000A8190023C0B21A4617E090F82010B9B198
:1039600090F918100A2913DA491C49B201760A297C
:103970000EDB417E61B980F81990B0F90A1091FB15
:10398000FBF003B2A819C0B20122492102F075F977
:1039900005EB4500C0EB451004EB8000417F890733
:1039A00090F8201018D551B390F91A10322926DA60
:1039B000491C49B28176322921DBC17E29B11EE042
:1039C000FFE7417E0029C1D1E2E780F81B90037F29
:1039D000A819C0B201220FE089B190F91A1071B193
:1039E000491E49B2817651B9C17E41B180F81B8030
:1039F000A8190023C0B21A46542102F03EF96D1CEA
:103A0000EDB2BAF900008542FFF6E4AD73E570B59A
:103A1000044607220121AE4801F007F9C4EB041067
:103A200000EB4411AB4800EB8105AB4895F83D1025
:103A300095F83A20514000D041700A4000D0827081
:103A400001EA0203DB071ED0C178491CC17034B102
:103A5000012C09D0022C0CD0032C0FD0E4E0012360
:103A60001A460E219DA0DDE0012302220E21A2A014
:103A7000D8E0012303220E21A6A0D3E001230422D3
:103A80000E21ABA0CEE08B0720D593071ED5C178C1
:103A9000491CC17034B1012C09D0022C0CD0032C6C
:103AA0000FD0C1E0022301220E21A8A0BAE0022318
:103AB0001A460E21ACA0B5E0022303220E21B1A0CC
:103AC000B0E0022304220E21B5A0ABE04B0720D5C5
:103AD00053071ED5C178491CC17034B1012C09D0DF
:103AE000022C0CD0032C0FD09EE0032301220E21C8
:103AF000B2A097E0032302220E21B7A092E0032395
:103B00001A460E21BBA08DE0032304220E21C0A083
:103B100088E00B0720D513071ED5C178491CC1705A
:103B200034B1012C09D0022C0CD0032C0FD07BE037
:103B3000042301220E21BDA074E0042302220E21E1
:103B4000C3A06FE0042303220E21CAA06AE004236D
:103B50001A460E21D0A065E0CB0620D5D3061ED58F
:103B6000C178491CC17034B1012C09D0022C0CD091
:103B7000032C0FD058E0052301220E21CFA051E0E5
:103B8000052302220E21D6A04CE0052303220E219C
:103B9000DCA047E0052304220E21E3A042E08B06CF
:103BA00020D593061ED5C178491CC17034B1012CB3
:103BB00009D0022C0CD0032C0FD035E006230122B3
:103BC0000E21E2A02EE0062302220E21E8A029E029
:103BD000062303220E21EFA024E0062304220E2157
:103BE000F5A01FE001B3FAB9C178491CC17034B126
:103BF000012C09D0022C0CD0032C0FD014E0002390
:103C000001220E21F5A00DE0002302220E21F8A0D2
:103C100008E0002303220E21FAA003E0002304227F
:103C20000E21FDA020F02CF915F83A0FE87070BDB8
:103C300070B5FE490020FE4DB1F90C20012103466C
:103C400001FA00F4224201D0295400E02B54401C18
:103C5000C0B20C28F4D3F74C2878F74E2178814273
:103C60000CD0B6F90010012908DB012825D000236B
:103C700001220B21F1A000BF20F002F961786878E1
:103C800081420BD0B6F90010022907DB012815D0BC
:103C9000002302220B21EEA020F0F2F8A178A878F0
:103CA00081420CD0B6F90010032908DB012807D0A7
:103CB000002303220B21EBA0DEE147E24BE2DDE132
:103CC0004EE2000061010010A2000010A4000010EC
:103CD0001D000010D8EC072039C00720496E76651A
:103CE00072746F7220233120416C61726D2C206FD1
:103CF0007665726C6F616400496E766572746F727E
:103D000020233220416C61726D2C206F7665726CBD
:103D10006F616400496E766572746F722023332080
:103D2000416C61726D2C206F7665726C6F616400FE
:103D3000496E766572746F7220233420416C617213
:103D40006D2C206F7665726C6F616400496E7665CC
:103D500072746F7220233120416C61726D2C206F60
:103D60007665726865617400496E766572746F720B
:103D700020233220416C61726D2C206F7665726851
:103D800065617400496E766572746F72202333200A
:103D9000416C61726D2C206F76657268656174008C
:103DA000496E766572746F7220233420416C6172A3
:103DB0006D2C206F7665726865617400496E76655A
:103DC00072746F7220233120416C61726D2C2069F6
:103DD00073207761726D0000496E766572746F7240
:103DE00020233220416C61726D2C20697320776131
:103DF000726D0000496E766572746F7220233320F5
:103E0000416C61726D2C206973207761726D0000C6
:103E1000496E766572746F7220233420416C617232
:103E20006D2C206973207761726D0000496E766594
:103E300072746F7220233120416C61726D2C207678
:103E40006F6C7461676520697320757000000000F5
:103E5000496E766572746F7220233220416C6172F4
:103E60006D2C20766F6C74616765206973207570A6
:103E700000000000496E766572746F722023332053
:103E8000416C61726D2C20766F6C7461676520697E
:103E90007320757000000000496E766572746F7251
:103EA00020233420416C61726D2C20766F6C74611C
:103EB000676520697320757000000000496E7665A3
:103EC00072746F7220233120416C61726D2C2076E8
:103ED0006F6C7461676520697320646F776E000092
:103EE000496E766572746F7220233220416C617264
:103EF0006D2C20766F6C7461676520697320646F28
:103F0000776E0000496E766572746F7220233320DD
:103F1000416C61726D2C20766F6C746167652069ED
:103F20007320646F776E0000496E766572746F72ED
:103F300020233420416C61726D2C20766F6C74618B
:103F4000676520697320646F776E0000496E76653F
:103F500072746F7220233120416C61726D2C206F5E
:103F60007574707574206973206F666665640000EF
:103F7000496E766572746F7220233220416C6172D3
:103F80006D2C206F7574707574206973206F666670
:103F900065640000496E766572746F722023332069
:103FA000416C61726D2C206F75747075742069732B
:103FB000206F666665640000496E766572746F7284
:103FC00020233420416C61726D2C206F75747075E4
:103FD00074206973206F666665640000496E7665BB
:103FE00072746F72202331206973206E6F726D00BE
:103FF000496E766572746F72202332206973206E69
:104000006F726D00496E766572746F722023332073
:104010006973206E6F726D00496E766572746F728F
:10402000202334206973206E6F726D00345F00109E
:10403000B00B0820485F0010B20000104176746F8A
:104040006D6174202331206973204F4646000000C3
:104050004176746F6D6174202332206973204F465E
:10406000460000004176746F6D617420233320692F
:1040700073204F46460000001FF002FFE178E87809
:1040800081420BD0B6F90010042907DB01286CD05F
:10409000002304220B21F6A01FF0F2FE21792879DB
:1040A00081420BD0B6F90010052907DB012861D049
:1040B000002305220B21F3A01FF0E2FE617968794D
:1040C00081420BD0B6F90010062907DB012856D033
:1040D000002306220B21F0A01FF0D2FEA179A879BF
:1040E00081420BD0B6F90010072907DB01284BD01D
:1040F000002307220B21EDA01FF0C2FEE179E87931
:1041000081420BD0B6F90010082907DB012840D006
:10411000002308220B21EAA01FF0B2FE217A287AA0
:1041200081420BD0B6F90010092907DB012835D0F0
:10413000002309220B21E7A01FF0A2FE0020295C2A
:104140002154401CC0B20C28F9D370BD01231A467B
:104150000B21E5A090E5012302220B21E7A09BE5BE
:10416000012303220B21EAA0A6E5012304220B214F
:10417000ECA091E7012305220B21EFA09CE701238E
:1041800006220B21F1A0A7E7012307220B21F4A0AF
:10419000B2E7012308220B21F6A0BDE70123092283
:1041A0000B21F9A0C8E72DE9F041FC4FFC48FD4C7C
:1041B000B7F90010B0F90020B4F90000914202DD17
:1041C00000F1010002E002DAA0F1010020800622E5
:1041D0000021F44800F034FDB4F90010F248012643
:1041E000052900DD06700024012900DA0470EF487B
:1041F000B7F90010EF4DB0F90020ED48931E994239
:104200000BDA90F900201E2A16DA521C52B2027004
:104210001E2A11DB2A88521E0CE091420BDD90F918
:1042200000201E2A08DA521C52B202701E2A03DB3A
:104230002A88521C2A800470DF48B846B0F9000072
:10424000814201DD142203E0DC480088093002B21B
:104250000021D84800F0F4FCF02000F0BAFC28B1AE
:10426000D7480168F12901D140682880B5F90010CC
:10427000D448012901DC067000E00470D248D34F15
:10428000B0F90000A0F1320128291BD8B8F90010BC
:10429000CF4D814202DD2888401C2880CD48B0F9EE
:1042A0000000814202DA2888401E28800622002170
:1042B000C74800F0C5FCB5F90000052800DD3E70D8
:1042C000012800DA3C70C448C44FB0F90000A0F1E6
:1042D00032011E291BD8B8F90010C14D814202DD00
:1042E0002888401C2880BF48B0F90000814202DACB
:1042F0002888401E288006220021B94800F0A0FC32
:10430000B5F90000052800DD3E70012800DA3C7098
:10431000BDE8F081F8B5B44C0021A0790A2807D295
:10432000401CC0B2A0710A2802D3A17101202072E2
:10433000E079052805D2401CC0B2E071052800D103
:10434000E171BE2000F045FCA84928B19C480268F4
:10435000BF2A5BD1406858E0207A88B3A44A10781D
:10436000552805D05078552802D0A24800884CE046
:10437000A14D00204FF0140C6B466FF01307165C34
:10438000552E0FD023F81070401CC0B20228F6D36F
:10439000BDF90030BDF902209848934215DD1A4658
:1043A000036013E000EB400606EB001605EB860603
:1043B00096F80CE0BEF1000F03D023F810C0E3E73D
:1043C00024E0768923F81060DEE702608C4B002A37
:1043D00002DAB3F9000012E0282A01DD2822026087
:1043E000884AB3F900300068B2F90020D21A02EB13
:1043F000820252004243C82092FBF0F01844A27D92
:10440000022A02D18048B0F900000880B1F900000A
:1044100062214143642291FBF2F17C4B19806621B9
:10442000484390FBF2F07A490880F8BD2DE9F05F2F
:10443000794E002077494FF0010A8146774DB6F951
:10444000003002E1764A774C125C34F91220B2F562
:10445000FA6F0A5609DA0A2A08DA521C52B20A54CA
:104460000A2A01DB05F800A0EDE0E0E0DCE0000056
:104470004176746F6D6174202334206973204F4638
:10448000460000004176746F6D6174202335206909
:1044900073204F46460000004176746F6D617420B2
:1044A0002336206973204F46460000004176746F22
:1044B0006D6174202337206973204F464600000049
:1044C0004176746F6D6174202338206973204F46E4
:1044D000460000004176746F6D61742023392069B5
:1044E00073204F46460000004176746F6D61742062
:1044F0002331206973204F4E200000004176746FF5
:104500006D6174202332206973204F4E200000001B
:104510004176746F6D6174202333206973204F4E90
:10452000200000004176746F6D617420233420698F
:1045300073204F4E200000004176746F6D6174202F
:104540002335206973204F4E200000004176746FA0
:104550006D6174202336206973204F4E20000000C7
:104560004176746F6D6174202337206973204F4E3C
:10457000200000004176746F6D617420233820693B
:1045800073204F4E200000004176746F6D617420DF
:104590002339206973204F4E200000004001001095
:1045A00078000010CA03001098C007207A0000109D
:1045B00096C007204E0100107C000010480100103A
:1045C00060C007205D0300108200001097C0072024
:1045D0000CC10720840000107E0000105E03001054
:1045E000CC0300108000001000C00720BC030010A6
:1045F000BE000010BCC0072040EC0720FCC0072014
:10460000B2C00720760300107C030010BE03001028
:10461000F8C00720B4030010B00000106A010010B9
:1046200013DB0200845E00100A220A540BE0002A09
:1046300007DB521E52B20A54002A04DC05F800902F
:1046400001E001F80090401CC0B29842FFF6FAAEBB
:104650000024DFF8FCB3FF4FDFF8FC8372E0FF4873
:1046600030F814000028285D01D078B101E001285D
:104670000CD01BF90410002919DB491E49B20BF8B4
:104680000410002915DC07F8049012E01BF904005F
:104690000A2808DA401C40B20BF804000A2808DB9C
:1046A00007F804A005E00A200BF8040001E00BF86D
:1046B000049018F80410385D81423ED0E84AD18C4D
:1046C000491CD184012807D014B3012C25D0022C19
:1046D00028D0032C2BD030E034B1012C09D0022C8F
:1046E0000CD0032C0FD028E001231A460F21DDA0A7
:1046F00021E0012302220F21DDA01CE0012303227F
:104700000F21DEA017E0012304220F21DEA012E01A
:10471000002301220F21DFA00DE0002302220F2140
:10472000E1A008E0002303220F21E4A003E000231E
:1047300004220F21E6A01FF0A3FB385D08F8040057
:10474000641CE4B2B6F90000844288DBE548A0F8B6
:104750000090297851B1012906D1697801290BD03F
:10476000002901D103210180BDE8F09F697801296A
:10477000FAD1A0F800A0F7E70221F4E7DA49DB4A12
:104780000120087010704870507070472DE9F05F7C
:10479000D848DFF864E3DFF858C3B0F90070BEF919
:1047A0000000AF4CC0EB0011BCF902506FF01D0AC5
:1047B0006FF0950B0026DFF83083B4F92A000AEB7E
:1047C00081020BEB8103BD4204DCCC4FB7F90070D2
:1047D000BD4205DA824203DD834201DA88F80060D7
:1047E000C74DE146BCF908C0B5F90050BF4FBCEB5E
:1047F000450F03DC6D42BCEB450F04DA824202DD5B
:10480000834200DA3E706FF0090202EB81017546C7
:10481000814220D1A07DF0B998F8000001281AD17A
:104820003878012817D14FF4D67021F067F8B549D0
:10483000B1F9001088420ED0B348008858B199F8F9
:104840003D00C00707D14FF4D67021F001F8AF4802
:104850000178491C0170A749B9F902204846B1F90D
:1048600000108A4206DCA549B0F94E20B1F90010CB
:104870008A420FDAB5F90010B4F92A20C1EB011110
:104880000AEB8103934205DD0BEB8101914201DAD2
:1048900088F801609A49B9F95400B1F90010B0EBF9
:1048A000410F03DC4942B0EB410F0EDAB5F90000CD
:1048B000B4F92A10C0EB00100AEB80028A4204DD32
:1048C0000BEB8000884200DA7E70B5F90000C0EB87
:1048D00000116FF0090000EB8100B4F92A10884242
:1048E00022D1A07D00BB98F8010001281CD1787866
:1048F000012819D14FF4E576304620F0FFFF02463B
:104900008048B0F902108A420ED07F480088022801
:104910000AD199F88900C00706D1304620F098FFE7
:104920007A480178491C0170B5F900006FF0010167
:10493000C0EB001001EB8000B4F92A10884202D1CC
:10494000BDE8F05F1AE70FE72DE9F04F7048DFF898
:104950001081714903786F4898F90020B1F900106F
:10496000B0F900004FF0000E4FF0010B23B1022B05
:1049700023D0012B31D01EE0684E5D4B3478777820
:10498000B3F90A5093F80CC0B3F9566093F8583055
:1049900022B1012A11D1552C16D110E0552C04D189
:1049A000854208DCBCF1000F05D1552F05D18642A8
:1049B00001DC002B01D088F800B0BDE8F08F8D42FB
:1049C000FBDABCF1000FF8D1552F03D18E42F4DA97
:1049D000002BF2D188F800E0EFE7524C504BB4F9CD
:1049E0000050B4F90260AA464F4DB3F90030B4F953
:1049F0000440D5E900C7AD68B9468BB18245DADC21
:104A0000BCF1000FD7D1012B04DD8642D3DCB9F114
:104A1000000FD0D1022B03DD8442CCDC002DCAD1A3
:104A2000012ACAD1002BD5D08A45C6DABCF1000FC5
:104A3000C3D1022B04DB8E42BFDAB9F1000FBCD127
:104A4000032BC7DB8C42B8DA002DC3D0B5E70000DA
:104A5000F1C007206E010010B80300101002001012
:104A600000C00720534B20233120416C61726D0040
:104A7000534B20233220416C61726D00534B202335
:104A80003320416C61726D00534B20233420416C04
:104A900061726D00534B20233120416C61726D2097
:104AA0006973206F66660000534B20233220416CEF
:104AB00061726D206973206F66660000534B20237E
:104AC0003320416C61726D206973206F666600004F
:104AD000534B20233420416C61726D206973206F29
:104AE00066660000F6C0072000C10720C003001062
:104AF00040EC0720F8C00720BEC00720BE0300100E
:104B0000B8C0072090010010AA000010C2030010D6
:104B10008A03001088030010C6C00720BE000010E2
:104B2000AE000010F2010010380B082070B5374AB3
:104B30000020A2F11401064601F10A030C5C54B1F5
:104B40001D5CAC4207D1145C2CB1641E14F0FF0450
:104B5000145400D10E540C5C1C54401CC0B20A28E2
:104B6000ECD370BD70B5294D0024143D641CE4B233
:104B70002E5D1EB1864201D00A2CF7D3285523485A
:104B80000C3040F82410283040F8242034380355E5
:104B900070BD1E4A0021143A491CC9B2535C8342BD
:104BA00001D00A29F8D3DBB2834210D117480C3068
:104BB00050F8213016480360144B343353F8213039
:104BC000436000205054114A505401207047002087
:104BD00070470E4A0021143A491CC9B2535C834203
:104BE00001D00A29F8D3DAB282420CD107480C303E
:104BF00050F8212006480260044A343252F821104D
:104C0000416001207047002070470000D85E00100E
:104C100060C0072090F900308B4200DA027090F9F2
:104C20000030934200DD0170704790F900308B42F4
:104C300000DA017090F90010914200DD02707047B7
:104C4000B0F900308B4200DA0180B0F900109142D7
:104C500000DD02807047B0F900308B4200DA02803C
:104C6000B0F90030934200DD0180704703688B4249
:104C700001DB194600E00160914200DD02607047EF
:104C800003688B4200DA02600368934200DD016032
:104C90007047000070B5FF480278FF48016812B104
:104CA00041F0010101E021F0010101600021FB4C14
:104CB0005FF0010301EB410202EB011204EB8202FF
:104CC00092F83D20D20706D04D1C03FA05F2056884
:104CD0009543154304E04A1C056803FA02F2954324
:104CE000491CC9B205600229E4D32946EA4D0022D5
:104CF0001435AC5C34B102F10F0603FA06F4A1439B
:104D0000214304E002F10F0403FA04F4A143521C0E
:104D1000D2B2062AEDD3E24D00220160AC5C012C38
:104D20002FD002F1190403FA04F4A143521CD2B2A9
:104D3000042AF3D30160836821EA0302C260446855
:104D40001443D84A4460158815B124F000744460B7
:104D500054881CB1446824F08064446094881CB179
:104D6000446824F000644460D2881AB1426822F09A
:104D7000805242608B43DA43CB4B02611B883BB1CC
:104D800009E002F1190603FA06F4A1432143CDE735
:104D900062F001020261036942681A40C0E9012120
:104DA00070BDF8B54FF46065284620F0A7FD401CA3
:104DB00004463F2800D9002421B2284620F048FDAF
:104DC00040F60266304620F099FD3F2800D020468C
:104DD00001B2304620F03CFD284620F08FFD4FF414
:104DE000806101EB401555208DF8000000248DF8FE
:104DF000014052208DF802008DF803406946284694
:104E000020F053FF6946281D009420F04EFFA74E66
:104E1000308B8DF80000307D8DF80100307A8DF8F0
:104E200002008DF80340694605F1080020F03DFFBF
:104E300030798DF8000030789D4E8DF80100306893
:104E40008DF802008DF80340694605F10C0020F052
:104E50002CFF41248DF800408DF801408DF8024070
:104E60008DF80340694605F1100020F01EFF8DF813
:104E700000408DF801408DF802408DF803406946EE
:104E800005F1140020F011FF8DF800408DF801406D
:104E90008DF802408DF80340694605F1180020F0B6
:104EA00004FF8DF800408DF801408DF802408DF828
:104EB0000340694605F11C0020F0F7FEFF2030603A
:104EC000F8BDF8B54FF46065284620F017FD401C8A
:104ED00004463F2800D9002421B2284620F0B8FC1F
:104EE00040F60266304620F009FD3F2800D02046FB
:104EF00001B2304620F0ACFC284620F0FFFC4FF415
:104F0000806101EB4010054657208DF80000002617
:104F10008DF801604E208DF802008DF8036069461F
:104F2000284620F0C2FE6946281D009620F0BDFEEE
:104F3000604CA08B8DF80000207E8DF80100207B56
:104F40008DF802008DF80360694605F1080020F035
:104F5000ACFE207A8DF8000020798DF801002078D1
:104F60008DF802008DF80360694605F10C0020F011
:104F70009CFE41248DF800408DF801408DF80240E0
:104F80008DF80340694605F1100020F08EFE8DF883
:104F900000408DF801408DF802408DF803406946CD
:104FA00005F1140020F081FE8DF800408DF80140DD
:104FB0008DF802408DF80340694605F1180020F095
:104FC00074FE8DF800408DF801408DF802408DF898
:104FD0000340694605F11C0020F067FEF8BDF8B5F6
:104FE0004FF46065284620F089FC401C04463F28A9
:104FF00000D9002421B2284620F02AFC40F602669F
:10500000304620F07BFC3F2800D0204601B23046DD
:1050100020F01EFC284620F071FC4FF4806101EB6B
:105020004010054657208DF8000000268DF80160DD
:1050300049208DF802008DF803606946284620F06B
:1050400034FE6946281D009620F02FFE194CA08BD7
:105050008DF80000207E8DF80100207B8DF8020085
:105060008DF80360694605F1080020F01EFE207AE5
:105070008DF8000020798DF8010020788DF802006D
:105080008DF80360694605F10C0020F00EFE412406
:1050900012E00000F0C007207CC0072040EC072091
:1050A0006E01001020020010720000102440024027
:1050B00080C10F40204002408DF800408DF8014033
:1050C0008DF802408DF80340694605F1100020F08C
:1050D000ECFD8DF800408DF801408DF802408DF810
:1050E0000340694605F1140020F0DFFD8DF8004013
:1050F0008DF801408DF802408DF80340694605F1B6
:10510000180020F0D2FD8DF800408DF801408DF898
:1051100002408DF80340694605F11C0020F0C5FDF2
:10512000F8BDF8B54FF46065284620F0E7FB401C59
:1051300004463F2800D9002421B2284620F088FBED
:1051400040F60266304620F0D9FB3F2800D02046CA
:1051500001B2304620F07CFB284620F0CFFB4FF414
:10516000806101EB4010054654208DF800000026B8
:105170008DF801604E208DF802008DF803606946BD
:10518000284620F092FD6946281D009620F08DFDEE
:10519000FF4CA08B8DF80000207E8DF80100207B55
:1051A0008DF802008DF80360694605F1080020F0D3
:1051B0007CFD207A8DF8000020798DF801002078A0
:1051C0008DF802008DF80360694605F10C0020F0AF
:1051D0006CFD41248DF800408DF801408DF80240AF
:1051E0008DF80340694605F1100020F05EFD8DF852
:1051F00000408DF801408DF802408DF8034069466B
:1052000005F1140020F051FD8DF800408DF80140AB
:105210008DF802408DF80340694605F1180020F032
:1052200044FD8DF800408DF801408DF802408DF866
:105230000340694605F11C0020F037FDF8BDF8B5C4
:105240004FF46065284620F059FB401C04463F2877
:1052500000D9002421B2284620F0FAFA40F602666E
:10526000304620F04BFB3F2800D0204601B23046AC
:1052700020F0EEFA284620F041FB4FF4806101EB6C
:105280004010054654208DF8000000268DF801607E
:1052900049208DF802008DF803606946284620F009
:1052A00004FD6946281D009620F0FFFCB84CA08B39
:1052B0008DF80000207E8DF80100207B8DF8020023
:1052C0008DF80360694605F1080020F0EEFC207AB5
:1052D0008DF8000020798DF8010020788DF802000B
:1052E0008DF80360694605F10C0020F0DEFC4124D6
:1052F0008DF800408DF801408DF802408DF8034094
:10530000694605F1100020F0D0FC8DF800408DF8C2
:1053100001408DF802408DF80340694605F1140004
:1053200020F0C3FC8DF800408DF801408DF802405C
:105330008DF80340694605F1180020F0B6FC8DF8A1
:1053400000408DF801408DF802408DF80340694619
:1053500005F11C0020F0A9FCF8BD2DE9F8438C4DA7
:105360008C4A203D00262F154FF46061012802D0A1
:1053700000287DD031E1012010708846084620F0D9
:10538000BDFA401C04463F2800D9002421B2404603
:1053900020F05EFA40F60269484620F0AFFA3F2856
:1053A00000D0204601B2484620F052FA404620F094
:1053B000A5FA07EB401750208DF800008DF801602A
:1053C00041248DF802408DF803606946384620F08C
:1053D0006CFC6946381D009620F067FC05F120053D
:1053E000A88B8DF80000287E8DF80100287B8DF8B1
:1053F00002008DF80360694607F1080020F055FCB3
:10540000287A8DF8000028798DF8010028788DF829
:1054100002008DF80360694607F10C0020F045FC9E
:105420008DF800408DF801408DF802408DF8034062
:10543000694607F1100020F038FC8DF800408DF827
:1054400001408DF802408DF80340694607F11400D1
:1054500020F02BFC8DF800408DF801408DF80240C3
:105460008DF80340694607F1180020F01EFC00E0AB
:1054700011E08DF800408DF801408DF802408DF864
:105480000340694607F11C0020F00FFC00230122B5
:10549000022141A09FE045481670B046026822F004
:1054A00001020260424A12881AB1426822F00102E7
:1054B0004260084620F022FA064634464FEA0709C1
:1054C00009EB44176946384620F0F1FA9DF80000D0
:1054D000502822D19DF80100F8B99DF8020041281A
:1054E0001BD105E0641E00E03F24B442E8D174E023
:1054F000694607F1100020F0DAFA9DF80000412813
:105500000BD19DF80100412807D19DF802004128E8
:1055100003D19DF80300412802D0002CE4D0E1E73C
:1055200005F12005A88B8DF80000287E8DF801007C
:10553000287B8DF8020044468DF80380694607F108
:10554000100020F0B2FB287A8DF8000028798DF841
:10555000010028788DF802008DF80340694607F1B4
:10556000140020F0A2FB1348422401788DF80010AB
:1055700040788DF801008DF802408DF803406946AF
:1055800007F1180020F091FB8DF8004014E00000B6
:1055900020400240F0C007204D61696E20706F7797
:1055A0006572206973206F66660000007CC007206A
:1055B00072000010EEC007208DF801408DF8024007
:1055C0008DF80340694607F11C0020F06EFB0123B3
:1055D0001A460221FFA01EF053FC00BFBDE8F8836D
:1055E0002DE9F84F4F2581461C464F2912D06F29CF
:1055F0000FD0432908D054290BD0492909D04C2970
:1056000007D0532905D005E00D46F7490F20088043
:1056100000E00D46DFF8D4A34FF460604FF4806BD8
:10562000012A13D0002A7DD120F068F984B2A04667
:105630005FF000070BEB441086B26946304620F05D
:1056400036FA9DF8000049286DD17BE0074620F02E
:1056500055F9401C86B23F2E00D9002631B238469B
:1056600020F0F6F840F60268404620F047F980B294
:105670003F2800D0304601B2404620F0E9F83846D5
:1056800020F03CF90BEB401086B249208DF8000069
:105690008DF801908DF8025000258DF80350694671
:1056A000304620F002FB8DF8004020128DF80100FA
:1056B0008DF802508DF803506946301D20F0F5FA40
:1056C000BAF83C000AF120048DF80000207E8DF825
:1056D0000100207B8DF802008DF80350694606F129
:1056E000080020F0E2FA207A8DF8000020798DF889
:1056F000010020788DF802008DF80350694606F10C
:105700000C0020F0D2FA41248DF800408DF80140C1
:105710008DF802408DF80340694606F1100020F034
:10572000C4FA01E06DE07AE08DF800408DF80140A8
:105730008DF802408DF80340694606F1140020F010
:10574000B4FA44E09DF80110494568D19DF8020083
:10575000A84264D1694606F1100020F0A8F99DF82E
:10576000000041285BD14EE0641EA4B200E03F245B
:10577000444546D07F1CFFB23F2FFFF45BAF002EA5
:105780003FD0BAF83C000AF120048DF80000207EDA
:105790008DF80100207B8DF802004FF000058DF898
:1057A0000350694606F1100020F07FFA207A8DF848
:1057B000000020798DF8010020788DF802008DF826
:1057C0000350694606F1140020F06FFA42248DF868
:1057D00000408DF801408DF802408DF80340694685
:1057E00006F1180020F061FA8DF800408DF80140B4
:1057F0008DF802408DF80340694606F11C0020F048
:1058000054FABDE8F88F9DF80100412807D19DF8B2
:105810000200412803D19DF803004128AAD0002CA2
:10582000A5D0A1E72DE9F84F0E465521DFF8BCB110
:1058300088464FF000094FF460674FF480650128F7
:1058400014D000287ED1384620F058F887B23C4664
:105850000026AA460AEB441085B26946284620F085
:1058600026F99DF8000044286DD17BE0384620F0F1
:1058700045F8401C84B23F2C00D9002421B23846A0
:105880001FF0E6FF40F6026A504620F037F880B27B
:105890003F2800D0204601B250461FF0D9FF3846BD
:1058A00020F02CF805EB401085B244208DF8000064
:1058B0008DF801908DF802804C468DF80390694672
:1058C000284620F0F2F98DF8006030128DF80100C2
:1058D0008DF802408DF803406946281D20F0E5F957
:1058E000BBF83C000BF120068DF80000307E8DF8EF
:1058F0000100307B8DF802008DF80340694605F108
:10590000080020F0D2F9307A8DF8000030798DF857
:10591000010030788DF802008DF80340694605F1EA
:105920000C0020F0C2F941248DF800408DF80140B0
:105930008DF802408DF80340694605F1100020F013
:10594000B4F901E07BE044E08DF800408DF80140BF
:105950008DF802408DF80340694605F1140020F0EF
:10596000A4F952E09DF8010098BB9DF80210414552
:1059700072D1694605F1100020F099F89DF80000F9
:10598000412869D15CE0641EA4B200E03F24BC421F
:1059900055D0761CF6B23F2EFFF45CAF002D4ED0F2
:1059A000BBF83C000BF120048DF80000207E8DF840
:1059B0000100207B8DF802004E468DF80390694669
:1059C00005F1100020F071F9207A8DF8000020799F
:1059D0000EE041E04D61696E20706F77657220695D
:1059E00073206F6E00000000700000100040024045
:1059F0008DF8010020788DF802008DF8036069466B
:105A000005F1140020F051F942248DF800408DF882
:105A100001408DF802408DF80340694605F11800F9
:105A200020F043F98DF800408DF801408DF80240D8
:105A30008DF80340694605F11C0020F036F9E0E6D8
:105A40009DF80100412807D19DF80200412803D1AB
:105A50009DF8030041289CD0002C97D093E72DE9B6
:105A6000F84F0E465521DFF844A4914688464FF47E
:105A700060654FF4806B012814D000287ED1284641
:105A80001FF03CFF87B23C465FF000060BEB441072
:105A900085B26946284620F00AF89DF800004F2894
:105AA0006DD17BE028461FF029FF401C84B23F2CBB
:105AB00000D9002421B228461FF0CAFE40F6026732
:105AC00038461FF01BFF80B23F2800D0204601B2AD
:105AD00038461FF0BDFE28461FF010FF0BEB4010AC
