:020000040000FA
:10000000E87F0010CD010000D1010000D301000005
:10001000D5010000D7010000D90100000000000058
:10002000000000000000000000000000DB010000F4
:10003000DD01000000000000DF010000F998010070
:10004000E3010000C3CE0100EFCE0100E301000098
:10005000E30100005F000200E3010000E301000093
:10006000E3010000E3010000E3010000E301000000
:10007000E3010000E3010000E3010000E3010000F0
:10008000E3010000E3010000E3010000E3010000E0
:10009000E3010000E3010000954D0000E3010000D2
:1000A000E301000013FB0100E3010000E301000095
:1000B00055140200E3010000E3010000E301000029
:1000C000E3010000E3010000E301000000F002F89A
:1000D00000F06DF80AA090E8000C82448344AAF175
:1000E0000107DA4501D100F062F8AFF2090EBAE873
:1000F0000F0013F0010F18BFFB1A43F0010318475C
:1001000018760200587602000A444FF0000C10F8EE
:10011000013B13F0070408BF10F8014B1D1108BF85
:1001200010F8015B641E05D010F8016B641E01F825
:10013000016BF9D113F0080F1EBF10F8014BAD1C75
:100140000C1B09D16D1E58BF01F801CBFAD505E093
:1001500014F8016B01F8016B6D1EF9D59142D6D3ED
:10016000704700000023002400250026103A28BF15
:1001700078C1FBD8520728BF30C148BF0B60704719
:10018000642921F03B82732921F09F84002070476D
:100190001FB525F0E3FA21F055FD040000200021F1
:1001A00025F0C6FA401C60601FBD10B510BD21F0DF
:1001B00024FD1146FFF7ECFF19F05FFC21F056FD1E
:1001C00003B4FFF7F2FF03BC21F05AFD08480047D3
:1001D000FEE7FEE7FEE7FEE7FEE7FEE7FEE7FEE7F7
:1001E000FEE7FEE703480449044A054B7047000058
:1001F000CD000000E86F0010E87F0010E8770010E5
:10020000E8770010FEE710B523F084F923F010FA28
:1002100023F002FA23F090F9AFF30080BDE810401C
:1002200023F0CCB910B523F0DDFF24F04DFE24F00F
:1002300031F8BDE8104024F0A9B923F0F1BE23F055
:10024000B9BC09B10020704722F00EBA00207047F7
:100250001E4BDA601870597070471C48C16800293D
:100260000DD0491EC1600AD1194902780A7042783E
:100270004A700A710021C17001714171817170472A
:10028000124A1161907070471048016900290BD023
:10029000491E016108D10E4A817811700021517008
:1002A000C1700171417181717047084908817047BF
:1002B0000648B0F90810002907D0491E09B201818B
:1002C000002902D1084600F002BF70475CC0072039
:1002D000ECC1072070B5064600F00CF8046805462E
:1002E00030460A22002121F0F4FB2C6070BD7047DB
:1002F0007047704700487047846F0010FFFFFFFF92
:10030000002801DA404200B270470020F94A20215B
:100310001154401CC0B2C828FAD370470146F54AB0
:100320000020401CC0B2135C8B4201D0C828F8D317
:10033000704710B50021F04C0A2200BFB0FBF2F369
:1003400002FB13006054491CC9B218460529F5D3B5
:1003500010BDF0B5E94B0121202719700521E64AAF
:10036000002601E01C7844B1541814F8015C25B94A
:10037000814202D904F8017C05E0541814F8015DAB
:10038000303525701E70491E11F0FF01EAD1F0BD15
:1003900070B50D461446002802DAC043401C00B276
:1003A000FFF7C7FF601CC0B2FFF7D3FF2846FFF777
:1003B000B5FFFF2819D0D04ACE4B0021A14201D26F
:1003C000555C13E004D14FF02E051D54555C03E03D
:1003D000555C202D03D04CB11E1806F8015C401E60
:1003E000491CC9B2C0B20529E8D370BD1D54F6E757
:1003F000F0B50D461446002801DA404200B2FFF77E
:1004000098FF601CC0B2FFF7A4FF2846FFF786FFE5
:10041000B94AB84B002164B9555C202D09D0561853
:100420007678202E03D12D261F1807F8016C1D5455
:100430000FE0A14201D2555CF9E704D14FF02E053F
:100440001D54555C02E0555C202D02D01E1806F8A4
:10045000015C401E491CC9B2C0B20529DBD3F0BD06
:10046000FEB52B23002802DA404200B22D230025DE
:100470000A266C4690FBF6F706FB170060556D1CCC
:100480006DB238B20A2DF5DB0126002509202027A0
:1004900000E046B114F800C0BCF1000F03D1904257
:1004A00001DD275405E0265C3036265400266D1CFD
:1004B000EDB2401E40B20028EBDA2D2B02D163557D
:1004C0006D1CEDB26AB168B205E0231813F8013C67
:1004D0002354401E40B29042F7DC2E206D1CA054E5
:1004E000EDB20846FFF71AFF0021824A04E0635C80
:1004F000461A491C935549B2A942F8DBFEBDFEB528
:100500002B23002801DA40422D2300250A266C46C1
:10051000074690FBF6F006FB107767556D1C6DB231
:100520000A2DF5DB012600250920202700E046B131
:1005300014F800C0BCF1000F03D1904201DD275434
:1005400005E0265C3036265400266D1CEDB2401EB8
:1005500040B20028EBDA2D2B02D163556D1CEDB2B1
:100560006AB168B205E0231813F8013C2354401E19
:1005700040B29042F7DC2E206D1CA054EDB208462C
:10058000FFF7CCFE00215B4A04E0635C461A491C7D
:10059000935549B2A942F8DBFEBDFEB52B260028D3
:1005A00001DA40422D2600240A276D46844690FB3E
:1005B000F7F007FB10CC05F804C0641C64B20A2CE9
:1005C000F4DB0127002009244FF0200C00E04FB19C
:1005D00015F804E0BEF1000F04D19C4202DD05F8DD
:1005E00004C005E02F5D30372F550027401CC0B2F6
:1005F000641E64B2002CEADA2D2E02D12E54401C67
:10060000C0B26BB144B205E02E1916F8016C2E553C
:10061000641E64B29C42F7DC2E24401CEC54C0B231
:1006200001EB810102EB8101CAB20021314B04E0F0
:100630006C5C561A491C9C5549B28142F8DBFEBDE0
:1006400070B50D4616461C46FFF773FE601CC0B21F
:10065000FFF77FFE05EB850006EB8000C1B2264A5E
:10066000244B0020A04201D2155C5D5406D3155CDA
:10067000202D03D04CB15E1806F8015C491E401CC9
:10068000C0B2C9B20528EDD370BD5D54F6E710B510
:100690000C46FFF743FE17490CB1032200E0042289
:1006A0000A5410BD30B5044608461546FFF736FE1D
:1006B000FF2809D00F4A2178002905D04319641C6E
:1006C000401CD154C0B2F6E730BD70B50D4614469B
:1006D000FFF72FFE601CC0B2FFF73BFE2846FFF776
:1006E0001DFE054B034A002154B95D5C202D07D047
:1006F000155415E064C20720E4C30720E9C30720AE
:10070000A14201D25D5CF3E704D14FF02E051554F0
:100710005D5C02E05D5C202D02D0161806F8015CDD
:10072000401E491CC9B2C0B20529DDD370BD801876
:1007300001D5084402E0884200DB401AC0B270478D
:100740002DE9F04F044685B00D464FF460601DF072
:10075000ABF962424021FFF7EAFF400100F58060FB
:10076000044602A91DF01DFA694604F108001DF0B7
:1007700018FA01A904F10C001DF013FA2846FFF73E
:10078000CDFD9DF808C04022302121232324DFF82D
:10079000E4A3F94D20264FF03A0BBCF1550F32D0AF
:1007A000CF27BCF1500F65D04FF0C00E4FF0E208DC
:1007B000BCF1490F69D0BCF1420F7ED0BCF1440FAF
:1007C0007CD0BCF1530F52D14FF0C10C05F800C0E2
:1007D000401CC0B2A9462F54401CC0B2D1272F5490
:1007E000401C00F0FF0C9DF80900092867D2313049
:1007F00005F80C000CF1010C0CF0FF0009F800608A
:10080000401CC5B261E29DF80A70522F0AD1C2277E
:100810002F54401CC0B2EA272F54401CC0B2EB2713
:100820002F542FE02E54401CC0B22E54EEE12E5413
:10083000401CC0B22954401CC0B22B54401CC0B252
:100840002A54401CC0B22E54401CC0B22E54401C2E
:10085000C0B22954401CC0B22C54ABE19DF8011029
:10086000C648002200EB81004021FFF71BFF05B0C6
:10087000BDE8F08F2F54401CC0B2D1272F54401C2C
:10088000C0B22E54401CC0B2CCE7C8272F54401C25
:10089000C0B2ED272F54401CC0B2A94605F8008015
:1008A000401C00F0FF0C9DF80900092815D23130DA
:1008B00005F80C000CF1010C02E066E090E1E0E1CB
:1008C0000CF0FF0005F800E0401CC0B205F8008005
:1008D000401CC0B209F8006021E0A0F109055A2DC2
:1008E00020D2401C0A27B0FBF7F5CDE903053035CF
:1008F00009F80C50DDE903050CF1010C07FB1500AC
:100900000CF0FF0C303009F80C000CF1010C0CF06D
:10091000FF0009F800E0401CC0B209F80080401C4C
:1009200000F0FF0C484609F80C600CF1010C0CF0CB
:10093000FF05CFE19DF8040000222121FFF7C5FE4D
:100940009DF8050000224021FFF7BFFE9DF806003C
:1009500000222321FFF7B9FE89E746556D1CEDB251
:1009600041556D1CEDB243556D1CEBB2C2545B1C7E
:10097000DAB28654521CD2B28654521CD2B281547E
:10098000521CD1B209F8014014E19DF80A704FF0F1
:1009900041094E2F33D04F2F7ED0492F7DD0542F79
:1009A000DAD1C1272F54401CC0B2E0272F54401C7D
:1009B000C0B24FF0E90C05F800C0401CC0B24FF0C7
:1009C000EF0C05F800C0401CC0B2A8462F54401CD4
:1009D000C0B2F12708F80070401C9DF80950C0B261
:1009E000012D72D0022D71D0032D70D008F8006057
:1009F000401CC5B2404646556D1CEDB22AE005F8D4
:100A000000E0401CC0B2552705F80080401CC0B271
:100A1000AC462F54401CC0B2F1272F54401CC0B22A
:100A2000E5272F54401CC0B2F2272F54401CC0B2FF
:100A3000FC270CF80070401C9DF80950C0B2012D35
:100A40003AD0022D3BD0032D3BD00CF80060401C67
:100A5000C5B26046D04646556D1C9DF80070BAF888
:100A60003CC0EDB267457BD19DF8017098F838C065
:100A7000674575D19DF8027098F82CC067456FD115
:100A800041556D1CEDB243556D1CEBB200F803B03F
:100A90005B1CDBB2C15401E01AE043E05B1CDBB23B
:100AA000C2545B1CDAB200F802B0521CD2B28154BC
:100AB000521CD1B244543DE70CF80090C7E74225E0
:100AC00000E043250CF80050C1E74EE050E057E04D
:100AD00005F800E0401CC0B2552705F80080401C16
:100AE000C0B2AC462F54401CC0B2FB2705F80080B2
:100AF000401CC0B22F54401CC0B2F5270CF8007047
:100B000027E000BF0CF8009008E0022D29D0032D4B
:100B100029D00CF8006001E00CF80050401CC5B270
:100B2000604668E705F800E0401CC0B2552705F8AC
:100B30000080401CC0B2AC462F54401CC0B2E82715
:100B40002F54401CC0B2ED272F54401CC0B20CF8EB
:100B50000080401C9DF80950C0B2012DD5D1D1E7CD
:100B600012E04225D8E74325D6E708F800903FE792
:100B7000422506E00040024064C207207C5E02007D
:100B8000432508F8005033E746556D1CEDB241553A
:100B90006D1CEDB243556D1CEBB2C2545B1CDAB256
:100BA0008654521CD2B28654521CD2B28154521C6A
:100BB000D1B244549DF8020000222121FFF785FDA7
:100BC0009DF8000000222321FFF77FFD9DF8010022
:100BD000401E0C28FFF442AE01208DF801003DE6D6
:100BE0009DF80A70552F7FF4B7AE05F800E0401C61
:100BF000C0B205F80080401CC0B22F54401CC0B2E7
:100C000064272F54401CC0B263272F54401CC0B22D
:100C1000D0462E54401CC0B22E54401CC0B22E549C
:100C2000401CC0B22E54401C9DF80070BAF83CC065
:100C3000C0B267457FF4FBAD9DF8017098F838C0ED
:100C40006745F7D19DF8027098F82CC06745F1D13F
:100C50002954401CC0B22B54401CC0B205F800B04F
:100C6000401CC0B22954401CC0B22A54401CC0B21F
:100C700005F800B0401CC0B22954401CC0B22C542E
:100C800058E6A0F109055A2D15D2401C0A27B0FBE1
:100C9000F7F5A846303509F80C500CF1010C07FBAC
:100CA00018000CF0FF0C303009F80C000CF1010CAE
:100CB0000CF0FF0509E009F80C600CF1010C0CF0D8
:100CC000FF0509F805606D1CEDB2484609F805609E
:100CD0006D1CEDB2D04646556D1C9DF80070BAF8FB
:100CE0003CC0EDB267457FF438AE9DF8017098F8CE
:100CF00038C06745F7D19DF8027098F82CC0674559
:100D0000F1D141556D1CEDB243556D1CEBB200F8AD
:100D100003B05B1CDBB2C1545B1CDBB2C2545B1C76
:100D2000DAB200F802B0521CD2B28154521CD1B2D5
:100D300009F80140FEE570B50446084615461E4612
:100D4000FFF7ECFAFE4B0146FF2804D106E01A54E7
:100D5000641C401CC0B22278002AF8D1F9480078FF
:100D6000002804D0002E02D029445F20585470BDC2
:100D7000F0B5074614460E460846FFF7CFFA05467B
:100D8000002231463846FFF7BAFB002C08D0ED4868
:100D90000078002804D05F20E94A291B11444870DC
:100DA000F0BD2DE9FF4F8146DDE90D048A469346EB
:100DB000FFF7B4FA2022DFF88C83E1490A234FF0D1
:100DC000640C012C09D198F8005035B10D18A5F12B
:100DD0000E05AA706A702A7020E099FBF3F603FBF7
:100DE00016970D183037A5F10E05022CAF7096FB43
:100DF000F3F703FB176606F130066E7099FBFCF6FD
:100E000006F1300605F80E6B08D198F800602EB197
:100E1000A5F10A05AA706A702A7021E09AFBF3F620
:100E200003FB16A70D183037A5F10A05032CAF7088
:100E300096FBF3F703FB176606F130066E709AFB1C
:100E4000FCF606F13006674605F80A6B08D198F8FB
:100E500000602EB1A5F10605AA706A702A7022E022
:100E60009BFBF3F603FB16B70D183037A5F106050B
:100E7000042CAF7096FBF3F703FB176606F1300600
:100E80006E709BFBFCF606F13006674605F8066BB4
:100E900009D198F8004034B1A5F102050A546A70EE
:100EA0002A70BDE8FF8F039C94FBF3F203FB12440E
:100EB00030340C5492FBF3F403FB14220844A0F1E9
:100EC000020030324270039991FBF7F101F13001D9
:100ED0000170E6E717B501EB810002EB8000C2B2BA
:100EE0009DF80030984803F00F0100EB1313445CA9
:100EF00093498C54521ED2B21B788B549DF801300A
:100F0000521E03F00F04D2B2045D8C54521E00EB4B
:100F10001313D2B21B788B549DF80230521E03F08B
:100F20000F04D2B2045D8C54521E00EB1313D2B2E4
:100F30001B788B549DF80330521E03F00F04D2B27D
:100F4000045D8C54521E00EB1310D2B2007888540A
:100F50001EBD10B504460846FFF7E0F97A4904F0D3
:100F60000F028B5C764A01EB14111354401EC0B281
:100F70000978115410BD01EB810102EB8101724A25
:100F800010B500F00F03C9B2D45C6D4B02EB10102A
:100F90005C54491EC9B20078585410BD01EB810160
:100FA00002EB8101CBB2684910B500F00F028C5CF6
:100FB000634AD45404095B1E04F00F00DBB2085CE2
:100FC000D0545B1ED8B2230903F00F040C5D1454F7
:100FD000401E1B09C0B2C95C115410BD01EB810158
:100FE00002EB8101CBB2584910B500F001028C5CD4
:100FF000534AD45444085B1E04F00100DBB2085C81
:10100000D0545B1ED8B2630803F001045B080C5D8A
:101010001454401E03F00104C0B20C5D14545B086C
:10102000401E03F00104C0B20C5D14545B08401E66
:1010300003F00104C0B20C5D14545B08401E03F0C1
:101040000104C0B20C5D1454401EC4B25808085CC0
:10105000105510BD30B53D490123394D91F901209E
:1010600091F9041000EB80048A4202D105F8243083
:1010700030BD334D4C1C00EB800005EB8000A242DC
:1010800001D1037530BD8C1CA24202D180F82830FA
:1010900030BDCC1CA24202D180F83C3030BD0C1DCA
:1010A000A24202D180F8503030BD4C1DA24202D184
:1010B00080F8643030BD8C1DA24202D180F87830B7
:1010C00030BDC91D8A42FBD180F88C3030BD204B29
:1010D0001A88521E104400B218801E4A00EB80008D
:1010E00002441A481368036012790271427811446D
:1010F00041707047F0B5164D164FB5F9004004EB3E
:101100008406641C2C80114C3E442568356025798A
:101110003571207061702271A370F0BDF0B5054685
:101120000E461746FFF7F1F8054C0020401C15F855
:10113000011BC0B204F8011B1428F7D300200BE0F8
:1011400064C207208EC00720FA5E0200ECC10720AF
:10115000B0C007209C620010401C16F8011BC0B2F2
:1011600004F8011B1428EAD35FF00000401C17F8B4
:10117000011BC0B204F8011B1428F7D35FF0000074
:10118000401C13F8011BC0B204F8011B1428F7D34C
:10119000F0BD10B5029CFFF7C1FF4448C3788278C8
:1011A00041787A20FFF7A6FF642094FBF0F0BDE8B9
:1011B0001040C0B2FFF779B82DE9FE4340010D465B
:1011C00000F58060044602A91CF0EBFC694604F1BE
:1011D00008001CF0E6FC01A904F10C001CF0E1FC85
:1011E0002846FFF79BF8324C202530262554401C1A
:1011F000C0B24FF021082654401CC0B24FF0400C42
:1012000004F80080401CC0B2232104F800C0401C38
:10121000C0B200222554401CC0B22554401CC0B2AC
:101220002654401CC0B22154401CC7B29DF8020095
:101230002121FFF74AFA9DF8000000222321FFF741
:1012400044FA9DF80100401E0C2802D301208DF8BD
:1012500001009DF801001749002201EB80004021A8
:10126000FFF720FAE5557F1CF8B23A212654401CBE
:10127000C0B2002204F80080401CC0B22154401CBF
:10128000C0B221212654401CC0B204F800C0401C4A
:10129000C6B29DF80400FFF718FA9DF80500002279
:1012A0004021FFF712FAA555BDE8FE83ECC10720E7
:1012B00064C207207C5E02002DE9FF41FC4C002740
:1012C00005466774A07B0121022805D0F94A525DCA
:1012D000552A04D065200EE06174BDE8FF8105EB5E
:1012E000450202EB0513F44A02EB830696F83D2013
:1012F000D30702D066206074EFE796F83F309B0773
:1013000001D56720F7E7920701D56820F3E7EB4A9C
:10131000B6F90830B2F90020934201DD6920EAE70E
:101320005242934201DA6A20E5E7012804D1E07BCA
:1013300000287ED001287DD064206074A17361856F
:101340004FF4F8701CF0DEFCE5732946A5854FF4D8
:10135000FA701CF0D7FCDA48B761002130F91500AB
:101360001CF0D0FC2774E78539464FF4FB701CF065
:10137000C9FCD448D44D0088401C00F0070006EB9F
:101380004000008CADF80000A88B8DF804004FF0F1
:1013900063024FF0010101A802F03DFCC44C9DF82E
:1013A000040040342070287E8DF804000C220121B6
:1013B00001A802F030FC9DF804006070287B8DF8D5
:1013C00004001F22012101A802F025FC9DF8040061
:1013D000A0709DF80000E0704FF4FC7021681CF0D4
:1013E000D4FC287A8DF804001722002101A802F00D
:1013F00012FC9DF80400207128798DF804003B222E
:10140000002101A802F007FC9DF804006071287813
:101410008DF804003B22002101A802F0FCFB9DF89E
:101420000400A0719DF80100E0714FF4FE70616846
:1014300001E003E004E01CF0A8FC4EE76B205AE753
:101440006C2058E77047704770B59F4C203C94F86B
:1014500038009E4D297808440C2803D9A08F401CE1
:1014600001B201E0B4F93C10B8201CF04BFC94F838
:101470003810287801440C2994F8381000D90C3819
:101480000144B6201CF03EFC94F82C001C2801D925
:101490001C2101E094F82C10B4201CF033FC04F162
:1014A0002004217A4FF0AE001CF02CFC2179B020F2
:1014B0001CF028FC2178BDE87040B2201CF022BC52
:1014C00083486FF03B010088C0EB001001EB800007
:1014D000774988847047764940F2F96048847047BC
:1014E00070B5734C608C401C00B26084B0F5E16F45
:1014F00002DB0020608470BDB0F5DF6F11D90F23CF
:1015000001226421D22002F023FB0F230022D821E4
:10151000D72002F01DFB0F230022D821DC2002F08F
:1015200017FBB4F92200A0F5E0610739E3D1694E59
:10153000694C6A4D30882188884205D0B4F9001082
:10154000B5F900001CF0DEFB708861888842D2D0BB
:10155000B4F90210B5F90200BDE870401CF0D2BB2E
:1015600010B5584C082200212088401C20802046BD
:1015700002F067FB5048B4F9001000EB41014288CB
:101580000A84B0F84E00A1F86C0010BD2DE9FC5F94
:10159000534F544B4FF4FA64B7F90010B3F90000FD
:1015A000DFF81481484390FBF4F04F4AA8F802009A
:1015B000B7F90810B2F9000048434FF42F7190FBBF
:1015C000F1F0A8F80400B7F91800B3F9023043436A
:1015D00093FBF4F0A8F84E00B7F90230B2F902001C
:1015E000584390FBF1F0A8F85000DC2002F0E7FA35
:1015F000F0BB394BDFF8DC90DFF8F0A01888B9F8C1
:10160000001045F63865401ABAF9001045F69262A6
:10161000414337484FF4967B45F2FA56008845F22D
:10162000136EA84201D0904202D191FBFBF10FE072
:10163000B04206D0704504D0A0F5AC4CBCF1110C02
:1016400002D191FBF4F103E04FF47A7C91FBFCF1C1
:10165000A8F808105988B9F80230CB1ABAF9021064
:101660005943A84201D0904203D191FBFBF00FE017
:1016700010E0B04205D0704503D0A0F5AC42113A5D
:1016800002D191FBF4F003E04FF47A7091FBF0F09B
:10169000A8F85400B7F90C2040F6B731A2F2213374
:1016A000012500208B4225D288F80C0024E00000A0
:1016B00008C007200EC1072008E6072054000010CC
:1016C000F457020078C107202040024094C0072050
:1016D0005A00001096C307201E3200101C5802004A
:1016E000EC61001092C307203A0000103E00001089
:1016F00010C1072088F80C50F84C44F62066B4F965
:101700000030534393FBF6F2A2F21112A8F80A201C
:10171000B7F90E20A2F221338B4202D288F858008A
:1017200001E088F85850B4F90230B446534393FBB3
:10173000F6F2A2F21112A8F85620E94AB2F90030E6
:10174000E84A33B9E84CE94E24883480E84C2488D0
:101750001480B2F90040002C00DA10801BB9E54A71
:10176000E54C12682260B7F90A200E46A2F2213435
:10177000E2490094B44201D2086000E00D60B9462D
:10178000DF4FDFF880E3B7F90040544394FBFCF2ED
:10179000A2F2111212B20192AEF80020B9F914208F
:1017A000A2F22134B44201D2486000E04D60B7F9A2
:1017B000024040F6B736544394FBFCF2A2F21112F9
:1017C00012B2AEF802209346B9F90620A2F22134F3
:1017D000B44201D2886000E08D60B7F90440DFF8C0
:1017E0002893544394FBFCF2A2F2111212B2C74F99
:1017F000AEF804209246B9F80040B7F900204FF443
:101800007A6C624392FBFCF2C14C92B2C14E2280D0
:10181000642A01D3C04A12883280B7F90260B9F84D
:101820000220DFF8FC92564396FBFCF26280BB4A32
:10183000B9F90060BB4FB2F90040664341F27074E1
:1018400096FBF4F63E80B2F902C0B9F9026006FBDD
:101850000CF696FBF4F67E80B9F90460B2F904C088
:10186000DFF8C49206FB0CF696FBF4F6BE80B2F9E4
:101870000670B9F900607E4396FBF4F6AB4F3E80EC
:10188000B2F908C0B9F9026006FB0CF696FBF4F653
:101890007E80B2F90A60B9F904208946724392FB4E
:1018A000F4F2BA80A24E0BF2111212B20AF2111423
:1018B000328024B274800F46496811F0FF01317202
:1018C000BF68FFB277729B4E04D001290ED011B1D0
:1018D0000DD020E017B1012F10D01CE0111901EB41
:1018E000D1716FF4887202EB610113E017B1012F1F
:1018F00008D010E0A4F2111434800CE0A2F211120E
:10190000328008E08C490978052902D28B49098880
:1019100000E0142131808A4A8A491478552C06D176
:10192000B8F90240C82C02DDB8F808400C8452789F
:10193000552A0AD1B8F94E20C82A06DDB8F9542034
:10194000B8F90840A24200DD0A847F4A1288A2F555
:10195000AC442F3C03D0283401D0143C02D17B4A44
:1019600012880A847A490022B1F900402EE000BFB3
:10197000784902EB820601EB0611CE78192E1CD2B3
:101980008E79CF7906EB07264E620E7A4F7A06EBF8
:1019900007260E628E7ACF7A06EB0726CE610E7B83
:1019A0008E624E7B81F84C608E7B81F842600E7CAB
:1019B0004F7C06EB07268E6406E0C8614862086229
:1019C000886281F842008864521CD2B2A242CFDB06
:1019D0006149DFF888A106224A60BAF90010DFF8F1
:1019E00080E131B1491E09B2AAF8001009B9AEF878
:1019F00000005C49B1F900C0BCF1000F6CD00021BF
:101A00008B46594900240880C8E000BF514904EBC7
:101A1000840201EB021191F84326052A5DD291F868
:101A2000462691F8476604EB041702EB06264A4A5D
:101A300002EB8702966091F8487691F8496607EBC9
:101A4000062636B29683002E00DA908301F24A61B0
:101A50000E784F7806EB072656608E78D66091F8A0
:101A6000038082F826800E794F7918F01A0F06EB62
:101A7000072656618E79CF7906EB072616610E7A16
:101A80004F7A06EB072696618E7A82F82760A1F2DC
:101A90004A61907002D082F8285001E082F8280054
:101AA0005FEA48620BD591F855267F2A0DD0802A2F
:101AB0000ED091F955162C4A01F5FA7111805FEAA2
:101AC000886169D501218B4666E040F2EE2200E094
:101AD000FA2225490A80F2E768E047E09AC3072026
:101AE00006C107207CC10720DEC307207AC107207A
:101AF00080000010E0C30720D8C10720F40F0820A1
:101B00004200001026C207202CC20720A0C30720D5
:101B100032C2072098C1072082C10720CE62001080
:101B2000FEC3072038C20720940000103EC20720E1
:101B30004E10082090C10720A4C007209CC1072098
:101B40000EC1072008C0072010C107207E0000102A
:101B5000F8C00720A0E60720A0FA0720A200001086
:101B60000AC40720FAC00720A0000010F94904EBBE
:101B7000041201EB82011922886088834860C860E2
:101B800081F826000861486188618A7081F8280020
:101B900081F83C0081F82700641CE4B26445FFF63C
:101BA00035AFBBF1000F01D1EB490880EB49012BA8
:101BB00003DB8A7D0A2A01D20AE04BB9088048601B
:101BC000488008754875088148810876AEF800009D
:101BD000022B04DB91F832200A2A01D20BE053B920
:101BE00021F81C0F486048800875487508814881B5
:101BF0000876A1F11C01032B04DB91F84E200A2A80
:101C000001D209E043B921F8380F486048800875CF
:101C10004875088148810876D149D24AB1F9041043
:101C2000B2F9002051434FF4FA7291FBF2F1CE4A1F
:101C30001180009940F6B732914202D2C9F80000F3
:101C400001E0C9F80050C94A01991180C8493BB167
:101C5000BAF800200AB1BEF800000880BDE8FC9F79
:101C6000BD480088F9E7C34AC3481178042901D068
:101C7000012905D1517819B9C0490978552902D0EF
:101C8000BF49098803E00178002901D0491E01708D
:101C90007047BC48416821F4402141F480214160F3
:101CA000416821F4403141F480314160416821F4C0
:101CB000404141F480414160416C21F4402141F4B4
:101CC00000214164416C21F4403141F40031416410
:101CD000416C21F4404141F400414164AA4801684B
:101CE00021F0E0610160016841F4001101600168C8
:101CF00021F480310160016821F47F4141F4807159
:101D000001608115C160A1488903016070472DE918
:101D1000F0419F4C60882188401A00B202F0F6FF23
:101D2000A51D2880A0886188401A00B202F0EEFF4D
:101D30006880A0882188401A00B202F0E7FF4FF4C3
:101D40009672A880A4F13401904201DAA0880AE0DA
:101D5000B5F90200904201DA608804E0B5F90000AC
:101D6000904201DA2088888291F802C00023BCF1F9
:101D7000000F23D07A48B1F91420203004681444AD
:101D80000460446814444460846814448460C468F3
:101D90002244C2608A8B521C12B28A83B2F5805FE1
:101DA00000DB8B83B1F91C2094052ED1921250F8E0
:101DB000224024124C8240F8223026E0754FC87829
:101DC0000C7907EB8015B1F9142045F82420A207FF
:101DD0000FD100252A4607EB801600BF56F8227067
:101DE000521CD2B23D44102AF8D32A115C4D25F87A
:101DF0001020401CC0B2C870102806D3641CE0B28A
:101E0000CB700871102800D30B710CF1010C4B70D2
:101E10001CF001005C4A887005D0106820F0FF00BB
:101E2000001D106034E0C97808070028106820F011
:101E3000FF0002DB00F1010001E000F10200106090
:101E40005548036843F080530360036A43F08043BE
:101E50000362036E43F080630366CB07436908D0D7
:101E600043F0805343618B07436B05D423F08043D9
:101E700004E023F08053F5E743F0804343634907D0
:101E8000416F02D421F0806101E041F0806141673F
:101E9000106840F080701060BDE8F0812DE9F041DD
:101EA0003B4C60882188401A00B202F02FFFA51D2C
:101EB0002880A0886188401A00B202F027FF68805D
:101EC000A0882188401A00B202F020FF4FF49672D9
:101ED000A880A4F13401904201DAA0880AE0B5F9A3
:101EE0000200904201DA608804E0B5F900009042F7
:101EF00001DA208888828E78002056B3184A4C79FF
:101F000020328CB1B1F91430156805EBA3051560CA
:101F1000556805EBA3055560956805EBA30595602D
:101F2000D56805EBA303D360B1F91430642B0EDA46
:101F30000B8B4FF4FA655B1C1BB20B83AB422DDBA2
:101F40000D83106050609060D060488275E0088317
:101F500073E047E0A0FA0720A0000010A00B0820C3
:101F6000EC6100104C0000107EC1072026C2072043
:101F7000A4C10720ECC1072072C007207C0000101C
:101F800020C1072000C002400040034000E100E003
:101F90003CC00720EC5D001000C00920052B4CD18F
:101FA00094B1CB8A5B1C1BB2CB82B3F5007F00DB04
:101FB000C882B1F916305D0606D1DB1152F8235004
:101FC0002D124D8242F82300B1F91A20962A01DD24
:101FD00004B148711F3A272A2FD24A796ABB0122DD
:101FE0004A712AE0B1F91430FF4FCA7891F804C061
:101FF00007EB821444F82C305FEA8C730FD1002475
:10200000234607EB821500BF55F823705B1CDBB23B
:102010003C44102BF8D32311F44C24F81230521CFA
:10202000D2B2CA70102A08D30CF1010C0CF0FF02D6
:10203000C8700A71102A00D308714870761C16F017
:102040000100EB4A887005D0106820F0FF00001DE9
:10205000106032E0C97808070028106820F0FF00FF
:1020600001DB401C00E0801C1060E248036843F084
:1020700080530360036A43F080430362036E43F0BE
:1020800080630366CB07436908D043F08053436104
:102090008B07436B05D423F0804304E023F0805387
:1020A000F5E743F0804343634907416F02D421F0D1
:1020B000806101E041F080614167106840F080700C
:1020C0001060E9E62DE9F047CB480168CB4A1140A2
:1020D0000160C849086840F47C700860C94B002062
:1020E000C74AB3F9003001E0401CC0B29842FBDBA4
:1020F000C54A0020C94B1478C44A06464FF0010A6D
:1021000092F800C0C24A1578C24A92F80080C24ACA
:1021100012789146C24A16542CB133F81070FF075A
:1021200001D002F800A0BCF1000F05D033F8107008
:10213000BF0701D502F800A02DB133F810707F075A
:1021400001D502F800A0B8F1000F05D033F81070E7
:102150003F0701D502F800A0B9F1000F05D033F810
:102160001070FF0601D502F800A0401CC0B2022882
:10217000D1D3AA481378B0F9000013B1012B03D0D2
:1021800009E0000402D406E0000404D4C86940F069
:102190002000C86103E0886940F0200088619F4802
:1021A0005278B0F9020012B1012A03D00AE000040B
:1021B00002D407E0000405D4C86940F01000C861EB
:1021C000BDE8F087886940F010008861F8E72DE9E4
:1021D000F041944C01260025A07A0A2806D2401C22
:1021E000C0B2A0720A2801D3A572E672E5842585E3
:1021F000CD2001F0E4FC8C49DFF830E2E0B18C48FE
:102200004FF6FF730268CE2A08D0CF2A08D0D12A11
:1022100008D0D22A09D0D02A09D04DE023854BE03E
:10222000406807E04068E08446E0E38444E04068BA
:10223000E084C04320853FE0E07A90B3002210465E
:10224000BEF9003008E000BF00EB800701EB071784
:10225000401C87F82C60C0B29842F5DD754E002016
:10226000B6F9006012E000BF00EB800701EB071732
:1022700097F802C0BCF1020F02D0BCF1010F03D1EC
:10228000521C87F82C50D2B2401CC0B2984201DADE
:10229000B242E9DB6848B0F900003C280CDA0020C3
:1022A00008E009E000EB800201EB0212401C82F81A
:1022B0002C50C0B29842F5DD00206326BEF90070B4
:1022C0000CE000BF00EB800201EB0212D36B1BB1EC
:1022D00082F82C605B1ED363401CC0B2B842F1DBB5
:1022E000E57265720020474D034601460246DFF85D
:1022F00010C1B5F9006014E002EB02150CEB850586
:1023000095F82670BF060AD5677A7F1C67726F68DA
:102310003B44AF68B5F91C50384400B22944521C04
:10232000D2B2B242E8DB627A002893FBF2F2434B6E
:102330001A8000DA0020424A0029108000DA0021C9
:1023400040480160A8E52DE9F0472E4E308800286E
:102350007BD000254FF00108A946294FBDE000BF02
:1023600005EB051007EB800494F8260010F0180F19
:1023700094F83C0012D028B394F93D00322821DAB9
:10238000401C40B284F83D0032281BDB94F83E002C
:10239000C0B984F83E80012263680FE090B194F9DF
:1023A0003D0078B1401E40B284F83D0050B994F829
:1023B0003E0038B1002384F83E901A464F2128464B
:1023C00002F08FF894F82600800794F83C0045D579
:1023D000D0B394F93F00322857DA401C40B284F859
:1023E0003F00322851DB31E0EC5D0010EC61001061
:1023F0000040034000C0092000C00240FF00F0FF81
:10240000A0FA0720FAC007209E000010A7C00720EE
:10241000A8C00720A9C0072008C40720B2C1072010
:1024200006C4072008C00720A0E60720F8C0072040
:102430001400001090000010AEC00720DEC307207B
:1024400080000010E0C3072028E04BE094F8400033
:10245000D8B984F840800122E3680FE0F0B194F924
:102460003F0090B1401E40B284F83F0068B994F834
:10247000400050B1002384F840901A465421284669
:1024800002F02FF894F83C0040B194F9410010B3E9
:10249000401E40B284F8410090B11CE094F9410024
:1024A000322818DA401C40B284F84100322812DB8E
:1024B00094F8420078B9002384F84280012206E0B3
:1024C00094F8420038B1002384F842901A46432120
:1024D000284602F006F86D1CEDB2B6F90000854200
:1024E000FFF63EAF6CE6F0B5FA4B00221146F84815
:1024F000B3F9004010E000BF01EB011300EB8303D0
:1025000093F83E502DB993F8405015B993F84230E6
:1025100003B10122491CC9B2A142EDDBEE49F24EE2
:10252000F24B0A70ED49EE4A4FF00005497B1170FD
:10253000EC492A46B1F9001059B116E002EB021736
:1025400000EB870797F83E700FB101250FE0521C92
:10255000D2B2A242F2DB0AE0C2EBC20703EB87076A
:10256000FF7B002FF1D1521CD2B28A42F4DB3570CE
:10257000DF4EA9B9DF4A128892B100252A460BE046
:1025800002EB021700EB870797F82770BF0701D40B
:10259000012503E0521CD2B2A242F1DB357010E0FB
:1025A000002210460AE000BFC0EBC00403EB840425
:1025B000647B0CB1012203E0401CC0B28842F3DB13
:1025C0003270CD4C11B1002210460EE00020207078
:1025D000F0BD00BFC0EBC00503EB85056D7D2D068A
:1025E00001D4012203E0401CC0B28842F2DB227019
:1025F000F0BDC24830B4B0F900100A2091FBF0F1F0
:10260000BF48B0F90040B548A142437B90F90C2087
:1026100004DABC4CB4F90040A1420CDC322A18DACE
:10262000521C52B20273322A13DB002B11D1012249
:10263000427310460AE0002A0BD0521E51B20173B9
:10264000002906D1002B04D04173084630BC02F0AB
:1026500022B930BC70472DE9F05FA24800260088FF
:10266000002870D0A8480188032900D10126002540
:10267000DFF898B2DFF898820A27DFF898A281463F
:10268000E2E000BF9948C5EBC50100EB8104BBF94E
:102690000010B4F9020090FBF7F0884204DA9E4A79
:1026A000B2F90020904213DC227E8AB194F90E1018
:1026B000322928DA491C49B2A173322923DBE17B94
:1026C00009BB012103B2A819E173C0B20A4617E0A1
:1026D000884218DA9049B1F90010884213DD207E53
:1026E00088B194F90E0070B1401E40B2A07350B989
:1026F000E07B40B10020E073A8190023C0B21A4665
:102700004F2102F0D8F9B4F90800B8F9001090FB95
:10271000F7F0884203DABAF90020904214DC227EF6
:1027200092B194F90C10322928DA491C49B221736C
:10273000322923DB617B09BB012103B2A819617334
:10274000C0B20A4617E084E0884217DABAF90010EE
:10275000884213DD207E88B194F90C0070B1401ED0
:1027600040B2207350B9607B40B100206073A8195B
:102770000023C0B21A464E2102F09DF9B4F90A00B6
:10278000B8F9001090FBF7F0884203DABAF900209C
:10279000904213DC227E8AB194F91010322927DA94
:1027A000491C49B22174322922DB617C01BB012121
:1027B00003B2A8196174C0B20A4616E0884217DA5B
:1027C000BAF90010884213DD207E88B194F9100018
:1027D00070B1401E40B2207450B9607C40B10020FE
:1027E0006074A8190023C0B21A46492102F063F9A7
:1027F000607D8007207E12D520B394F91200322824
:1028000020DA401C40B2A07432281BDBE07CC8B93F
:102810000120E074A819237DC0B201220FE088B125
:1028200094F9120070B1401E40B2A07450B9E07C1F
:1028300040B10020E074A8190023C0B21A46542108
:1028400002F039F96D1CEDB2B9F900008542FFF6CE
:1028500019AFBDE8F09F70B50446072201212F484B
:1028600001F0D9F91A4804EB041100EB81051B486B
:1028700095F8291095F8262000F13000514000D03D
:1028800041700A4000D0827001EA0203DB077FD06A
:10289000C178491CC17034B1012C09D0022C0CD074
:1028A000032C0FD045E101231A460E211CA03EE166
:1028B000012302220E2121A039E1012303220E214E
:1028C00025A034E1012304220E212AA02FE15FE09C
:1028D000A0FA0720FAC007209E00001008C00720B9
:1028E000A7C0072006C10720A8C00720A00B08200A
:1028F000A9C007200AC1072008C407207EC10720FD
:10290000F2C00720F4C0072008C10720EAC0072052
:10291000EEC00720F0C00720ECC0072071C00720E0
:10292000496E766572746F7220233120416C61723A
:102930006D2C206F7665726C6F616400496E7665F0
:1029400072746F7220233220416C61726D2C206F83
:102950007665726C6F616400496E766572746F7231
:1029600020233320416C61726D2C206F7665726C70
:102970006F616400496E766572746F722023342033
:10298000416C61726D2C206F7665726C6F616400B2
:102990008B0720D593071ED5C178491CC17034B16F
:1029A000012C09D0022C0CD0032C0FD0C1E0022343
:1029B00001220E21A9A0BAE002231A460E21AEA0E0
:1029C000B5E0022303220E21B2A0B0E002230422CC
:1029D0000E21B7A0ABE04B0720D553071ED5C17819
:1029E000491CC17034B1012C09D0022C0CD0032C2D
:1029F0000FD09EE0032301220E21B4A097E0032311
:102A000002220E21B8A092E003231A460E21BDA097
:102A10008DE0032304220E21C1A088E00B0720D5FE
:102A200013071ED5C178491CC17034B1012C09D0DF
:102A3000022C0CD0032C0FD07BE0042301220E21AA
:102A4000BEA074E0042302220E21C5A06FE004237F
:102A500003220E21CBA06AE004231A460E21D2A045
:102A600065E0CB0620D5D3061ED5C178491CC170C0
:102A700034B1012C09D0022C0CD0032C0FD058E01B
:102A8000052301220E21D1A051E0052302220E21AF
:102A9000D7A04CE0052303220E21DEA047E005234A
:102AA00004220E21E4A042E08B0620D593061ED519
:102AB000C178491CC17034B1012C09D0022C0CD052
:102AC000032C0FD035E0062301220E21E3A02EE0D7
:102AD000062302220E21EAA029E0062303220E216A
:102AE000F0A024E0062304220E21F7A01FE001B38A
:102AF000FAB9C178491CC17034B1012C09D0022C3B
:102B00000CD0032C0FD014E0002301220E21F7A0DB
:102B10000DE0002302220E21F9A008E00023032289
:102B20000E21FCA003E0002304220E21FEA019F0D8
:102B300045F815F8260FE87070BD70B5FF49002004
:102B4000FF4DB1F90C200121034600BF01FA00F44A
:102B5000224201D0295400E02B54401CC0B20C2862
:102B6000F4D3F84C2878F84E217881420CD0B6F98D
:102B70000010012908DB012869D0002301220B2164
:102B8000F2A000BF19F01AF86178687881420BD082
:102B9000B6F90010022907DB012859D000230222D0
:102BA0000B21EFA019F00AF8A178A87881420BD088
:102BB000B6F90010032907DB01284AD000230322BD
:102BC0000B21ECA018F0FAFFE178E87881420BD0F5
:102BD000B6F90010042907DB01283BD000230422AA
:102BE0000B21E9A018F0EAFF2179287981420BD066
:102BF000B6F90010052907DB01282CD00023052297
:102C00000B21E6A018F0DAFF6179687981420BD0D8
:102C1000B6F90010062907DB01281DD00023062283
:102C20000B21E3A018F0CAFFA179A87981420BD04B
:102C3000B6F90010072907DB01280ED00023072270
:102C40000B21E0A018F0BAFFE179E879C4E1E9E1ED
:102C5000EDE1F1E1F5E1F9E1FDE101E2496E7665D1
:102C600072746F7220233120416C61726D2C206F61
:102C70007665726865617400496E766572746F720C
:102C800020233220416C61726D2C206F7665726852
:102C900065617400496E766572746F72202333200B
:102CA000416C61726D2C206F76657268656174008D
:102CB000496E766572746F7220233420416C6172A4
:102CC0006D2C206F7665726865617400496E76655B
:102CD00072746F7220233120416C61726D2C2069F7
:102CE00073207761726D0000496E766572746F7241
:102CF00020233220416C61726D2C20697320776132
:102D0000726D0000496E766572746F7220233320F5
:102D1000416C61726D2C206973207761726D0000C7
:102D2000496E766572746F7220233420416C617233
:102D30006D2C206973207761726D0000496E766595
:102D400072746F7220233120416C61726D2C207679
:102D50006F6C7461676520697320757000000000F6
:102D6000496E766572746F7220233220416C6172F5
:102D70006D2C20766F6C74616765206973207570A7
:102D800000000000496E766572746F722023332054
:102D9000416C61726D2C20766F6C7461676520697F
:102DA0007320757000000000496E766572746F7252
:102DB00020233420416C61726D2C20766F6C74611D
:102DC000676520697320757000000000496E7665A4
:102DD00072746F7220233120416C61726D2C2076E9
:102DE0006F6C7461676520697320646F776E000093
:102DF000496E766572746F7220233220416C617265
:102E00006D2C20766F6C7461676520697320646F28
:102E1000776E0000496E766572746F7220233320DE
:102E2000416C61726D2C20766F6C746167652069EE
:102E30007320646F776E0000496E766572746F72EE
:102E400020233420416C61726D2C20766F6C74618C
:102E5000676520697320646F776E0000496E766540
:102E600072746F7220233120416C61726D2C206F5F
:102E70007574707574206973206F666665640000F0
:102E8000496E766572746F7220233220416C6172D4
:102E90006D2C206F7574707574206973206F666671
:102EA00065640000496E766572746F72202333206A
:102EB000416C61726D2C206F75747075742069732C
:102EC000206F666665640000496E766572746F7285
:102ED00020233420416C61726D2C206F75747075E5
:102EE00074206973206F666665640000496E7665BC
:102EF00072746F72202331206973206E6F726D00BF
:102F0000496E766572746F72202332206973206E69
:102F10006F726D00496E766572746F722023332074
:102F20006973206E6F726D00496E766572746F7290
:102F3000202334206973206E6F726D00CE62001002
:102F40006C1008209610082002C107204176746F8B
:102F50006D6174202331206973204F4646000000C4
:102F60004176746F6D6174202332206973204F465F
:102F7000460000004176746F6D6174202333206930
:102F800073204F46460000004176746F6D617420D7
:102F90002334206973204F46460000004176746F49
:102FA0006D6174202335206973204F464600000070
:102FB0004176746F6D6174202336206973204F460B
:102FC000460000004176746F6D61742023372069DC
:102FD00073204F464600000081420BD0B6F9001026
:102FE000082907DB012840D0002308220B21E7A095
:102FF00018F0E4FD217A287A81420BD0B6F900104E
:10300000092907DB012835D0002309220B21E4A080
:1030100018F0D4FD0020295C2154401CC0B20C28BB
:10302000F9D370BD01231A460B21E2A0AAE50123C2
:1030300002220B21E4A0B5E5012303220B21E7A026
:10304000C0E5012304220B21E9A0CBE501230522E1
:103050000B21ECA0D6E5012306220B21EEA0E1E531
:10306000012307220B21F1A0ECE5012308220B210B
:10307000F3A0BDE7012309220B21F6A0C8E72DE943
:10308000F041F94FF948FA4CB7F90010B0F90020B7
:10309000B4F90000914202DD00F1010002E002DA21
:1030A000A0F10100208006220021F14800F0BEFDC1
:1030B000B4F90010EF480126052900DD0670002450
:1030C000012900DA0470EC48B7F90010EC4DB0F9B2
:1030D0000020EA48931E99420BDA90F900201E2A3C
:1030E00016DA521C52B202701E2A11DB2A88521EB6
:1030F0000CE091420BDD90F900201E2A08DA521CE8
:1031000052B202701E2A03DB2A88521C2A800470E5
:10311000DC48B846B0F90000814201DD142203E02A
:10312000D9480088093002B20021D54800F07EFD60
:10313000F02000F044FD28B1D4480168F12901D104
:1031400040682880B5F90010D148012901DC0670DB
:1031500000E00470CF48D04FB0F90000A0F1320178
:1031600028291BD8B8F90010CC4D814202DD2888EF
:10317000401C2880CA48B0F90000814202DA288841
:10318000401E288006220021C44800F04FFDB5F9FA
:103190000000052800DD3E70012800DA3C70C148BF
:1031A000C14FB0F90000A0F132011E291BD8B8F9B7
:1031B0000010BE4D814202DD2888401C2880BC489A
:1031C000B0F90000814202DA2888401E28800622D9
:1031D0000021B64800F02AFDB5F90000052800DD01
:1031E0003E70012800DA3C70BDE8F081F8B5B14CC2
:1031F0000021A0790A2807D2401CC0B2A0710A2879
:1032000002D3A17101202072E079052805D2401C6B
:10321000C0B2E071052800D1E171BE2000F0CFFC02
:10322000A54928B199480268BF2A5BD1406858E097
:10323000207A88B3A14A1078552805D050785528AF
:1032400002D09F4800884CE09E4D00204FF0140CA7
:103250006B466FF01307165C552E0FD023F81070D5
:10326000401CC0B20228F6D3BDF90030BDF90220DF
:103270009548934215DD1A46036013E000EB4006C3
:1032800006EB001605EB860696F80CE0BEF1000F83
:1032900003D023F810C0E3E724E0768923F8106018
:1032A000DEE70260894B002A02DAB3F9000012E07F
:1032B000282A01DD28220260854AB3F9003000681F
:1032C000B2F90020D21A02EB820252004243C82017
:1032D00092FBF0F01844A27B022A02D17D48B0F99B
:1032E00000000880B1F9000062214143642291FB93
:1032F000F2F1794B19806621484390FBF2F077494F
:103300000880F8BD2DE9F05F764E002074494FF03B
:10331000010A8146744DB6F9003023E0734A744CBB
:10332000125C34F91220B2F5FA6F0A560CDA0A2A46
:1033300007DA521C52B20A540A2A11DB05F800A01F
:103340000EE00A220A540BE0002A07DB521E52B29A
:103350000A54002A04DC05F8009001E001F800900E
:10336000401CC0B29842D9DB0024DFF888B1624F1C
:10337000DFF8888131E1624830F814000028285DC8
:1033800002D000B1C0E0CCE0BCE000004176746F38
:103390006D6174202338206973204F464600000079
:1033A0004176746F6D6174202339206973204F4614
:1033B000460000004176746F6D61742023312069EE
:1033C00073204F4E200000004176746F6D617420B1
:1033D0002332206973204F4E200000004176746F25
:1033E0006D6174202333206973204F4E200000004C
:1033F0004176746F6D6174202334206973204F4EC1
:10340000200000004176746F6D61742023352069BF
:1034100073204F4E200000004176746F6D61742060
:103420002336206973204F4E200000004176746FD0
:103430006D6174202337206973204F4E20000000F7
:103440004176746F6D6174202338206973204F4E6C
:10345000200000004176746F6D617420233920696B
:1034600073204F4E2000000090C10720C8C00720E5
:103470009A00001038000010CAC007203600001063
:10348000A0C10720CCC007209AC10720140000105B
:1034900090C30720D2C007203700001004C40720C3
:1034A000D4C00720CEC0072091C307209C00001085
:1034B000D0C0072008C0072092C107200EC10720F6
:1034C0005800001008E60720F4C307204E00001043
:1034D000ACC30720B2C30720F2C307208E00001040
:1034E00085000010FEC00720A9C10720EB5702008D
:1034F000EC610010ECC30720ADC10720890000106B
:1035000044C2072001280CD01BF90410002919DB44
:10351000491E49B20BF80410002915DC07F8049085
:1035200012E01BF904000A2808DA401C40B20BF82C
:1035300004000A2808DB07F804A005E00A200BF8BD
:10354000040001E00BF8049018F80410385D814283
:103550003ED0FF4AD18B491CD183012807D014B338
:10356000012C25D0022C28D0032C2BD030E034B1F4
:10357000012C09D0022C0CD0032C0FD028E0012301
:103580001A460F21F3A021E0012302220F21F4A00B
:103590001CE0012303220F21F4A017E001230422E1
:1035A0000F21F5A012E0002301220F21F5A00DE06C
:1035B000002302220F21F8A008E0002303220F219C
:1035C000FAA003E0002304220F21FDA018F0F6FA70
:1035D000385D08F80400641CE4B2B6F900008442C7
:1035E000FFF6C9AEFB48A0F80090297851B1012937
:1035F00006D1697801290BD0002901D1032101806E
:10360000BDE8F09F69780129FAD1A0F800A0F7E79A
:103610000221F4E7F049F14A012008701070487067
:10362000507070472DE9F05FEE48DFF8BCE3DFF83B
:10363000B0C3B0F90070BEF90000C54CC0EB00117A
:10364000BCF902506FF01D0A6FF0950B0026DFF8F1
:103650008883B4F924000AEB81020BEB8103BD429D
:1036600004DCE24FB7F90070BD4205DA824203DDA7
:10367000834201DA88F80060DD4DE146BCF908C0FC
:10368000B5F90050D54FBCEB450F03DC6D42BCEBE8
:10369000450F04DA824202DD834200DA3E706FF0A9
:1036A000090202EB81017546814220D1A07BF0B96D
:1036B00098F8000001281AD13878012817D14FF462
:1036C000D6701AF0F1F9CB49B1F9001088420ED04A
:1036D000C948008858B199F83D00C00707D14FF498
:1036E000D6701AF00FFBC5480178491C0170BD491E
:1036F000B9F902204846B1F900108A4206DCBB49FC
:10370000B0F94E20B1F900108A420FDAB5F9001075
:10371000B4F92420C1EB01110AEB8103934205DDCA
:103720000BEB8101914201DA88F80160B049B9F9E7
:103730005400B1F90010B0EB410F03DC4942B0EB8B
:10374000410F0EDAB5F90000B4F92410C0EB0010F7
:103750000AEB80028A4204DD0BEB8000884200DA2B
:103760007E70B5F90000C0EB00116FF0090000EBAE
:103770008100B4F92410884222D1A07B00BB98F8C4
:10378000010001281CD17878012819D14FF4E57681
:1037900030461AF089F902469648B0F902108A427A
:1037A0000ED09548008802280AD199F88900C007F0
:1037B00006D130461AF0A6FA90480178491C0170EB
:1037C000B5F900006FF00101C0EB001001EB8000C3
:1037D000B4F92410884202D1BDE8F05F1AE70FE780
:1037E0002DE9F04F8648DFF86881874903788548DE
:1037F00098F90020B1F90010B0F9000088B023B1A9
:10380000022B34D0012B7ED066E1804E744B34788D
:1038100096F801C0B3F90A501F7BB3F9566093F8CC
:10382000583022B1012A0FD1552C14D10FE0552C5C
:1038300003D1854268DC002F66D1BCF1550F03D15E
:10384000864261DC002B5FD108B0BDE8F08F8D426D
:10385000FADA002FF8D1BCF1550F76D18E42F3DAA7
:10386000002B72D0F0E700BF88F80000ECE7694C4D
:10387000674B94F803C0B3F90030A76AA56F0095B1
:1038800094F853500195D4F8C850029594F8A35079
:103890000395D4F81851049594F8F3500595D4F88D
:1038A0006851069594F84351AE46D4F8B85107953F
:1038B00094F89351D4F85862AB46D4F80852B14604
:1038C000AA4694F8E35194F83342DBB387421BDCF9
:1038D000BCF11E0F18D2012B05DD009E864213DCC1
:1038E000019E1E2E10D2022B05DD029E86420BDCAD
:1038F000039E1E2E08D2032B08DD049E864203DCA5
:10390000059E1E2E01E0C5E020E01FD2042B05DD40
:10391000069E86421ADCBEF11E0F17D2052B05DD6E
:10392000079E864212DCBBF11E0F0FD2062B03DD71
:1039300082450BDC1E2D09D2072B03DD814505DCFA
:103940001E2C03D2012A8DD166E0A2E0C4E0000063
:1039500008C00720534B20233120416C61726D0059
:10396000534B20233220416C61726D00534B202356
:103970003320416C61726D00534B20233420416C25
:1039800061726D00534B20233120416C61726D20B8
:103990006973206F66660000534B20233220416C10
:1039A00061726D206973206F66660000534B20239F
:1039B0003320416C61726D206973206F6666000070
:1039C000534B20233420416C61726D206973206F4A
:1039D00066660000F0C30720F8C3072092000010BD
:1039E00008E607208E0000105A000010F2C30720DE
:1039F00054000010D0C10720F6C00720FAC30720EA
:103A0000C0C30720BEC30720620000100EC10720FC
:103A1000F8C00720A0E60720DBB38F42BFF622AF35
:103A2000BCF10A0FBFF41EAF022B2BDB00988842BB
:103A3000F4DA01980A28F5D2032B23DB0298884296
:103A4000ECDA03980A28EDD2042B1BDB0498884299
:103A5000E4DA05980A28E5D2052B13DB069888429C
:103A6000DCDABEF10A0FDDD2062B0BDB07988842A9
:103A7000D4DABBF10A0FD5D2072B03DB8A45CDDAA6
:103A80000A2DCFD2082B3EDB8945C7DA0A2C3AD360
:103A9000DAE638E01E4C1D4BB4F90050B4F9026070
:103AA000AA461C4DB3F90030B4F90440D5E900C76B
:103AB000AD68B94693B182450EDCBCF1000F0BD165
:103AC000012B04DD864207DCB9F1000F04D1022B83
:103AD00004DD844200DC0DB10120C5E6012AD7D106
:103AE0008BB18A45D4DABCF1000FD1D1022B04DBB3
:103AF0008E42CDDAB9F1000FCAD1032B03DB8C4221
:103B0000C6DA002DC4D10020AEE60000FCC00720BC
:103B100026C20720F40F082070B5374A0020A2F112
:103B20001401064601F10A030C5C54B11D5CAC4261
:103B300007D1145C2CB1641E14F0FF04145400D19E
:103B40000E540C5C1C54401CC0B20A28ECD370BD4F
:103B500070B5294D0024143D641CE4B22E5D1EB1E5
:103B6000864201D00A2CF7D3285523480C3040F860
:103B70002410283040F824203438035570BD1E4AE4
:103B80000021143A491CC9B2535C834201D00A296E
:103B9000F8D3DBB2834210D117480C3050F82130F3
:103BA00016480360144B343353F82130436000202F
:103BB0005054114A505401207047002070470E4A5B
:103BC0000021143A491CC9B2535C834201D00A292E
:103BD000F8D3DAB282420CD107480C3050F82120D9
:103BE00006480260044A343252F821104160012034
:103BF0007047002070470000406200101400001061
:103C000090F900308B4200DA027090F90030934254
:103C100000DD0170704790F900308B4200DA0170CE
:103C200090F90010914200DD02707047B0F9003049
:103C30008B4200DA0180B0F90010914200DD028071
:103C40007047B0F900308B4200DA0280B0F90030E2
:103C5000934200DD0180704703688B4201DB194607
:103C600000E00160914200DD0260704703688B4212
:103C700000DA02600368934200DD016070470000D3
:103C800070B5F9480278F948016812B141F00101B4
:103C900001E021F0010101600021F54C5FF001031A
:103CA00001EB410202EB011204EB820292F83D208B
:103CB000D20706D04D1C03FA05F20568954315435B
:103CC00004E04A1C056803FA02F29543491CC9B294
:103CD00005600229E4D3E74C002100BF01EB81021B
:103CE00004EB0212527832B1CD1C03FA05F20568DA
:103CF0009543154303E0CA1C03FA02F29543491C9D
:103D0000C9B205600C29E9D32946D84D00221435E3
:103D1000AC5C34B102F10F0603FA06F4A14321436F
:103D200004E002F10F0403FA04F4A143521CD2B2DE
:103D3000062AEDD3D04D00220160AC5C012C2FD0BF
:103D400002F1190403FA04F4A143521CD2B2042A6A
:103D5000F3D30160836821EA0302C260446814431C
:103D6000C64A4460158815B124F000744460548834
:103D70001CB1446824F08064446094881CB1446899
:103D800024F000644460D2881AB1426822F0805264
:103D900042608B43DA43BA4B02611B883BB109E0B6
:103DA00002F1190603FA06F4A1432143CDE762F0BC
:103DB00001020261036942681A40C0E9012170BD35
:103DC000F8B54FF46065284619F06EFE401C0446B5
:103DD0003F2800D9002421B2284619F093FF40F66D
:103DE0000266304619F060FE3F2800D0204601B23E
:103DF000304619F087FF284619F056FE4FF48061CF
:103E000001EB401555208DF8000000248DF801408D
:103E100052208DF802008DF803406946284619F0BB
:103E2000F6FF6946281D009419F0F1FF954E308B7E
:103E30008DF80000307D8DF80100307A8DF8020099
:103E40008DF80340694605F1080019F0E0FF30796C
:103E50008DF8000030788C4E8DF8010030688DF8B8
:103E600002008DF80340694605F10C0019F0CFFF00
:103E700041248DF800408DF801408DF802408DF806
:103E80000340694605F1100019F0C1FF8DF80040AC
:103E90008DF801408DF802408DF80340694605F128
:103EA000140019F0B4FF8DF800408DF801408DF832
:103EB00002408DF80340694605F1180019F0A7FF8C
:103EC0008DF800408DF801408DF802408DF80340D8
:103ED000694605F11C0019F09AFFFF203060F8BD1B
:103EE0002DE9F843674D604A243D00262F154FF415
:103EF0006061012802D000287DD036E101201070D9
:103F00008846084619F0D0FD401C04463F2800D9D9
:103F1000002421B2404619F0F5FE40F602694846F9
:103F200019F0C2FD3F2800D0204601B2484619F0E2
:103F3000E9FE404619F0B8FD07EB401750208DF818
:103F400000008DF8016041248DF802408DF8036077
:103F50006946384619F05BFF6946381D009619F02E
:103F600056FF05F12005A88B8DF80000287E8DF8FE
:103F70000100287B8DF802008DF80360694607F187
:103F8000080019F044FF287A8DF8000028798DF890
:103F9000010028788DF802008DF80360694607F16A
:103FA0000C0019F034FF8DF800408DF801408DF8B9
:103FB00002408DF80340694607F1100019F027FF11
:103FC0008DF800408DF801408DF802408DF80340D7
:103FD000694607F1140019F01AFF8DF800408DF8BA
:103FE00001408DF802408DF80340694607F1180042
:103FF00019F00DFF00E011E08DF800408DF8014050
:104000008DF802408DF80340694607F11C0019F055
:10401000FEFE0023012202211CA0A4E0134816701A
:10402000B046026822F001020260154A12881AB1F5
:10403000426822F001024260084619F035FD06464A
:104040003446B94609EB44176946384619F0A9FDCC
:104050009DF8000050283ED19DF80100D8BB9DF886
:104060000200412837D121E0840000101C0000101C
:1040700008E60720A0E60720ADC1072054C20720AC
:10408000C2C007202440024080C10F404D61696ECC
:1040900020706F776572206973206F66660000007C
:1040A000641E00E03F24B442CCD15EE0694607F1D3
:1040B000100019F076FD9DF8000041280BD19DF805
:1040C0000100412807D19DF80200412803D19DF845
:1040D0000300412802D0002CE4D0E1E705F12005DF
:1040E000A88B8DF80000287E8DF80100287B8DF8C4
:1040F000020044468DF80380694607F1100019F06C
:1041000086FE287A8DF8000028798DF8010028783D
:104110008DF802008DF80340694607F1140019F08C
:1041200076FEF948422401788DF8001040788DF829
:1041300001008DF802408DF80340694607F1180030
:1041400019F065FE8DF800408DF801408DF80240B1
:104150008DF80340694607F11C0019F058FE012351
:104160001A460221E9A017F029FD00BFBDE8F88337
:104170002DE9F84F05460C004FF054060BD0012CEA
:1041800004D0022C04D0032C04D004E0552602E015
:10419000752600E04C26E349DFF884A305EB850390
:1041A0004FF0000B4FF460604FF4806901EB031196
:1041B000012A02D0002A7DD090E134B1012C08D030
:1041C000022C0AD0032C0CD00FE04A7842F00102F6
:1041D0000AE04A7842F0020206E04A7842F004021D
:1041E00002E04A7842F008024A7081F84D40804669
:1041F00019F05AFC401C87B23F2F00D9002739B272
:10420000404619F07FFD40F6026019F04DFC80B287
:104210003F2800D0384601B240F6026019F072FD26
:10422000404619F041FC09EB401087B253208DF84D
:1042300000008DF801508DF80260D8468DF803B06B
:104240006946384619F0E3FD6946381DCDF800800F
:1042500019F0DDFDBAF83C000AF120068DF80000E7
:10426000307E8DF80100307B8DF802008DF80380E0
:10427000694607F1080019F0CAFD307A8DF8000090
:1042800030798DF8010030788DF802008DF80380C8
:10429000694607F10C0019F0BAFD41268DF800605F
:1042A0008DF801608DF802608DF80360694607F1B2
:1042B000100000E084E019F0AAFD8DF800608DF890
:1042C00001608DF802608DF80360694607F1140003
:1042D00019F09DFD8DF800608DF801608DF8026089
:1042E0008DF80360694607F1180019F090FD8DF80C
:1042F00000608DF801608DF802608DF803606946FA
:1043000007F11C0019F083FD25B1012D20D0022DED
:104310003AD0E3E034B1012C09D0022C0CD0032CAC
:104320000FD0DBE00023012204217FA00DE0012358
:104330001A46042182A008E002230122042187A05A
:1043400003E00323012204218CA017F037FCC5E011
:1043500034B1012C09D0022C0CD0032C0FD0BDE0BD
:104360000023022204218DA0EFE701230222042171
:1043700090A0EAE702231A46042195A0E5E703236B
:10438000022204219AA0E0E734B1012C09D0022CCA
:104390000CD0032C0FD0A1E00023032204219CA009
:1043A000D3E70123032204219FA0CEE702230322A7
:1043B0000421A4A0C9E703231A460421A9A0C4E745
:1043C00034B1012C08D0022C0AD0032C0CD00FE001
:1043D0004A7822F001020AE04A7822F0020206E05E
:1043E0004A7822F0040202E04A7822F008024A7079
:1043F00019F05AFB84B2A04609EB441087B2694613
:10440000384619F0CEFB9DF80000532824D19DF8C2
:104410000100A84220D19DF80200B0421CD169469B
:1044200007F1100019F0BDFB9DF80000412813D1E1
:1044300006E0641EA4B200E03F244445DCD14DE018
:104440009DF80100412807D19DF80200412803D1C1
:104450009DF80300412802D0002CEDD0E9E7BAF81E
:104460003C000AF120048DF80000207E8DF8010048
:10447000207B8DF802005D468DF803B0694607F198
:10448000100019F0C4FC207A8DF8000020798DF816
:10449000010020788DF802008DF80350694607F17D
:1044A000140019F0B4FC42248DF800408DF801404E
:1044B0008DF802408DF80340694607F1180019F0A5
:1044C000A6FC8DF800408DF801408DF802408DF873
:1044D0000340694607F11C0019F099FC00BFBDE8D4
:1044E000F88F2DE9F84F4F2581461F464F2903D0FD
:1044F000432902D0542905D0C7E00D4661490F2059
:104500000880C2E0C0E00000EAC307204D61696E88
:1045100020706F776572206973206F6E0000000055
:1045200000400240A0E607204250532023312041A2
:104530006C61726D2C206F76657268656174000025
:1045400042505320233120416C61726D2C20766FD4
:104550006C74616765206973207570004250532048
:10456000233120416C61726D2C20766F6C74616711
:104570006520697320646F776E00000042505320FD
:10458000233120416C61726D2C20636F6E6E656308
:1045900074206973206C6F737400000042505320C4
:1045A000233220416C61726D2C206F7665726865D4
:1045B0006174000042505320233220416C61726DBF
:1045C0002C20766F6C7461676520697320757000AC
:1045D00042505320233220416C61726D2C20766F43
:1045E0006C7461676520697320646F776E000000EA
:1045F00042505320233220416C61726D2C20636F36
:104600006E6E656374206973206C6F7374000000B4
:1046100042505320233320416C61726D2C206F7601
:104620006572686561740000425053202333204155
:104630006C61726D2C20766F6C7461676520697394
:104640002075700042505320233320416C61726DFD
:104650002C20766F6C7461676520697320646F77B6
:104660006E00000042505320233320416C61726D74
:104670002C20636F6E6E656374206973206C6F739A
:1046800074000000C0C007200D46DFF848A64FF4B4
:1046900060604FF4806B012A12D0002A7ED119F09D
:1046A00003FA84B2A04600270BEB441086B2694699
:1046B000304619F076FA9DF8000049286FD17BE06A
:1046C000064619F0F1F9401C84B23F2C00D90024B1
:1046D00021B2304619F016FB40F60268404619F048
:1046E000E3F980B23F2800D0204601B2404619F0DD
:1046F00009FB304619F0D8F90BEB401086B249207F
:104700008DF800008DF801908DF8025000248DF88E
:1047100003406946304619F07AFB8DF80070381274
:104720008DF801008DF802408DF803406946301D78
:1047300019F06DFBBAF83C000AF120058DF8000075
:10474000287E8DF80100287B8DF802008DF803404B
:10475000694606F1080019F05AFB287A8DF8000026
:1047600028798DF8010028788DF802008DF8034033
:10477000694606F10C0019F04AFB41248DF800400F
:104780008DF801408DF802408DF80340694606F12E
:10479000100019F03CFB8DF8004001E06BE077E081
:1047A0008DF801408DF802408DF80340694606F10E
:1047B000140019F02CFB44E09DF80110494567D125
:1047C0009DF80200A84263D1694606F1100019F075
:1047D000E8F99DF8000041285AD14DE0641EA4B2CA
:1047E00000E03F24444546D07F1CFFB23F2FFFF43A
:1047F0005BAF002E3FD0BAF83C000AF120048DF8E0
:104800000000207E8DF80100207B8DF802004FF023
:1048100000058DF80350694606F1100019F0F7FA0B
:10482000207A8DF8000020798DF8010020788DF82D
:1048300002008DF80350694606F1140019F0E7FAFA
:1048400042248DF800408DF801408DF802408DF82B
:104850000340694606F1180019F0D9FA8DF80040B6
:104860008DF801408DF802408DF80340694606F14D
:104870001C0019F0CCFA32E69DF80100412807D15E
:104880009DF80200412803D19DF803004128ABD0D8
:10489000002CA6D0A2E72DE9F84F0E465521DFF8EF
:1048A00034B488464FF000094FF460674FF48065D8
:1048B000012815D000287DD1384619F0F5F887B2C7
:1048C0003C4600264FEA050A0AEB441085B26946C9
:1048D000284619F066F99DF8000044286BD17BE06A
:1048E000384619F0E1F8401C84B23F2C00D900246E
:1048F00021B2384619F006FA40F6026A504619F01D
:10490000D3F880B23F2800D0204601B2504619F0BB
:10491000F9F9384619F0C8F805EB401085B2442083
:104920008DF800008DF801908DF802804C468DF8CE
:1049300003906946284619F06AFA8DF80060301233
:104940008DF801008DF802408DF803406946281D5E
:1049500019F05DFABBF83C000BF120068DF8000061
:10496000307E8DF80100307B8DF802008DF8034019
:10497000694605F1080019F04AFA307A8DF800000E
:1049800030798DF8010030788DF802008DF8034001
:10499000694605F10C0019F03AFA41248DF80040FF
:1049A0008DF801408DF802408DF80340694605F10D
:1049B000100001E06FE050E019F029FA8DF8004096
:1049C0008DF801408DF802408DF80340694605F1ED
:1049D000140019F01CFA44E09DF80100E8BB9DF8B2
:1049E0000210414564D1694605F1100019F0D9F86B
:1049F0009DF8000041285BD14EE0641EA4B200E0A7
:104A00003F24BC4247D0761CF6B23F2EFFF45CAF89
:104A1000002D40D0BBF83C000BF120048DF80000C5
:104A2000207E8DF80100207B8DF802004E468DF827
:104A30000390694605F1100019F0E9F9207A8DF824
:104A4000000020798DF8010020788DF802008DF8A3
:104A50000360694605F1140000E029E019F0D7F978
:104A600042248DF800408DF801408DF802408DF809
:104A70000340694605F1180019F0C9F98DF80040A6
:104A80008DF801408DF802408DF80340694605F12C
:104A90001C0019F0BCF922E59DF80100412807D15E
:104AA0009DF80200412803D19DF803004128AAD0B7
:104AB000002CA5D0A1E72DE9F84F4F2581461F46D0
:104AC0004F2906D0492903D04E2901D0542900D1BD
:104AD0000D464FF0000A4FF460604FF4806B012ADE
:104AE00012D0002A7ED118F0DFFF84B2A046002742
:104AF0000BEB441086B26946304619F052F89DF827
:104B0000000042286FD179E0064618F0CDFF401C26
:104B100084B23F2C00D9002421B2304619F0F2F8BB
:104B200040F60268404618F0BFFF80B23F2800D030
:104B3000204601B2404619F0E5F8304618F0B4FFBF
:104B40000BEB401086B242208DF800008DF80190EA
:104B50008DF8025054468DF803A06946304619F08E
:104B600056F98DF8007038128DF801008DF802406A
:104B70008DF803406946301D19F049F9564DA88B50
:104B80008DF80000287E8DF80100287B8DF802004A
:104B90008DF80340694606F1080019F038F9287AC3
:104BA0008DF8000028798DF8010028788DF8020032
:104BB0008DF80340694606F10C0019F028F94124EC
:104BC0008DF800408DF801408DF802408DF80340CB
:104BD000694606F1100019F01AF98DF800408DF8B9
:104BE000014001E066E072E08DF802408DF803407C
:104BF000694606F1140019F00AF941E09DF8011028
:104C0000494564D19DF80200A84260D1694606F189
:104C1000100018F0C6FF9DF80000412857D14AE067
:104C2000641EA4B200E03F24444543D07F1CFFB281
:104C30003F2FFFF45DAF002E3CD0274CA08B8DF8AA
:104C40000000207E8DF80100207B8DF80200554683
:104C50008DF803A0694606F1100019F0D8F8207A03
:104C60008DF8000020798DF8010020788DF8020081
:104C70008DF80350694606F1140019F0C8F8422473
:104C80008DF800408DF801408DF802408DF803400A
:104C9000694606F1180019F0BAF88DF800408DF851
:104CA00001408DF802408DF80340694606F11C0072
:104CB00019F0ADF813E49DF80100412807D19DF8E3
:104CC0000200412803D19DF803004128AED0002CFA
:104CD000A9D0A5E700400240204002401120FF4932
:104CE00008727047FE490820FE4A4870002000BF45
:104CF00000EB800302EB03131B78052B04D0401C50
:104D0000C0B20C28F4D3704748707047002801DA0D
:104D1000404200B2704710B54FF4347018F0C4FE32
:104D2000F14C207040F2D22018F0BEFE60704FF4BB
:104D3000357018F0B9FEA07040F2D62018F0B4FE1D
:104D4000E0704FF4367018F0AFFE207240F2DA20B7
:104D500018F0AAFE60724FF4377018F0A5FEA0722A
:104D600040F2DE2018F0A0FEE0724FF4437018F01D
:104D70009BFE207140F20E3018F096FE60714FF4E9
:104D8000447018F091FEA07140F2123018F08CFEC1
:104D9000E07110BDD54810B5016821F0E0610160F7
:104DA0004168D44AC1F30B13D14C117824F8113067
:104DB000491CC9B21170032903D2016841F0807106
:104DC000016010BD2DE9F0470746DDE90A090E46EE
:104DD000DDE9085A01B214469846982018F092FF6F
:104DE00000219A2018F08EFF0121CA2018F08AFFB6
:104DF0003C21C22018F086FF39B2782018F082FFDB
:104E000004EBD470401001B2C82018F07BFF31B21F
:104E10007A2018F077FF21B27C2018F073FF46212A
:104E2000C62018F06FFF50217E2018F06BFF0FFA9C
:104E300088F1822018F066FFBB21842018F062FF01
:104E40000021862018F05EFF0A21882018F05AFF02
:104E50000FFA89F1DE2018F055FF29B28C2018F0E6
:104E600051FFE8000A2190FBF1F001B28E2018F00A
:104E700049FF0121A02018F045FF0121A22018F0D0
:104E800041FF0121A42018F03DFFA021922018F03D
:104E900039FF0FFA8AF1942018F034FF032196208D
:104EA00018F030FF3221CC2018F02CFF2821CE2022
:104EB00018F028FF5521BC2018F024FF1E21BE2029
:104EC00018F020FF0121802018F01CFF4621D0207F
:104ED00018F018FF3C21D42018F014FF1921D2201B
:104EE00018F010FF5021D62018F00CFF4621D820D2
:104EF00018F008FF5B21DA2018F004FF5021DC20B5
:104F000018F000FF7C4C0021B4F9000018F0FAFE04
:104F10007A4D0021B5F9000018F0F4FE784E4FF0FC
:104F2000FF373946B6F9000018F0ECFEB4F902007C
:104F3000002118F0E7FEB5F90200002118F0E2FEAA
:104F4000B6F90200394618F0DDFEB4F9040000217C
:104F500018F0D8FEB5F90400002118F0D3FEB6F918
:104F60000400394618F0CEFEB4F90600002118F00E
:104F7000C9FEB5F90600002118F0C4FEB6F9060016
:104F8000394618F0BFFE0A214FF4197018F0BAFE26
:104F9000BDE8F0470B214FF4187018F0B3BE2DE9AF
:104FA000FF4700210723182809D064224FF4167404
:104FB000302810D03C2819D0DC2823D04FE0F02432
:104FC0009622CDE90024CDE902310246162311468E
:104FD0004FF4967013E04FF4F075CDE90025CDE95C
:104FE000023102462C231146204608E0CDE9002478
:104FF000CDE9023102463723114640F2EE20FFF799
:10500000E1FE2CE040F6980440F62A110220CDE99A
:105010000024CDE90201BB2340F60B1240F63E11FD
:1050200040F69210FFF7CEFE40F2BD11C82018F0F6
:1050300069FE2146C42018F065FE1421922018F064
:1050400061FE45F211614FF49E7018F05BFE012184
:10505000CA2018F057FEAA21BC2018F053FE294D93
:10506000AA21B5F9000018F04DFE274C2178274EF3
:10507000B6F9000018F046FE217B254FB7F9000075
:1050800018F040FEB4F91010DFF888A0BAF900005B
:1050900018F038FEDFF880800021B8F9000018F021
:1050A00031FEDFF878900021B9F9000018F02AFEEF
:1050B000B5F90200AA2118F025FE2178B6F9020000
:1050C00018F020FE217BB7F9020018F01BFEB4F99E
:1050D0001010BAF9020018F015FE21E0004002405D
:1050E00070C00720A0E60720486F00100040034072
:1050F0003CC0072009C00720585802006058020031
:1051000070580200005802002C400240045802006F
:1051100008580200FC570200F85702000C58020021
:10512000B8F90200002118F0EDFDB9F9020004B051
:105130000021BDE8F04718F0E5BD70B5062018F075
:10514000B3FC002804DB062018F0AEFC022803DDC7
:105150000021062018F0D6FDFF490878401CC0B297
:105160000870FE4C01250A2813D3FD480068C007CB
:105170000FD1E07868B9062018F096FC022808DA0A
:10518000062018F091FC401C01B2062018F0BAFD70
:10519000E570B4F93E00B0F5616F07D3062018F052
:1051A00083FC18B10021062018F0ACFDED488168A1
:1051B0007F22B2EB116F00D1E5708068C0F3074029
:1051C0007F2800D1E57070BDE4488030B0F90A0056
:1051D00000F11C01CBB2E1492D314B720A78521C0F
:1051E000D2B201F82D299A4203D9142281F82D2038
:1051F00001E0142A1BD3D1B21430814217DADA4805
:1052000001EB810100EB0110C1783C2905D2491C5A
:10521000C9B2C170032902D207E03C21C1700179F3
:10522000032902D24179491C4171C178017170474B
:105230002DE9FF41C94F8037A7F1530478891C300D
:1052400060722078401CC0B204F82D09322821D9A0
:10525000B4F85000F0B104F13A04002004F80D0C49
:10526000A08FE18FA28E638FC0B2C9B2D2B2DBB27F
:10527000CDE90210CDE90032E08EA0F13200C3B2D8
:10528000208FC2B2608EA4F13A04C1B24FF0F10097
:105290001BF001FA94F82D00142837D3B7F90A103F
:1052A0001431884232DA94F83510DFF8BC82A1B9A3
:1052B000B4F8501089B100EB800208EB021101F143
:1052C0002C010A794E7A0D7A4B798DE86C000B78B7
:1052D0004FF0ED0201461BF0DEF994F82D0000EBD3
:1052E000800108EB0110C1783C2905D2491CC9B2E4
:1052F000C170032902D207E03C21C1700179032962
:1053000002D24179491C4171C1780171F88A0028A3
:1053100017D094F82D00142813D19448817D3C298E
:1053200001D2491C817590F832103C2902D2491CE7
:1053300080F8321090F84E103C2902D2491C80F8B7
:105340004E10BDE8FF818A490020087048708870BF
:105350004631487070472DE9F04F0020834A85B0F0
:105360004FF4F471044654321454401C00B2884285
:10537000FADB7A4DA87858B905F1800ABAF9060027
:10538000A8B1012804D105F19E00007855280ED05F
:1053900000214FF0140C7A2301FB03F001EB810391
:1053A0009B0001EB81041BB20CEB84046BE26C48A4
:1053B0004FF002064FF003070068C0071BD0A87F1C
:1053C000002817D06B494FF03208CDE90214CDE91F
:1053D0000087032118234246084615F01CF9664849
:1053E000CDE90204CDE900870321182332220846C3
:1053F00015F011F9CEE0BAF90800DFF880B1DFF856
:1054000068914FF00F08012852DB1423002100940B
:105410001A460846019415F042F81223012100941F
:105420001A460846019415F03AF899F80200042843
:1054300007D05349CDE902140F2302211A46032055
:1054400018E099F80100C10708D0A87F80B30F23A6
:10545000CDE902B402211A4603200BE010F0060F3A
:1054600026D0A87F20B347480F23CDE902040221AC
:105470001A460846CDE9008615F0CDF899F80200E5
:10548000012815D10B23002214210920009414F0C7
:10549000EBFD00235B221F210920009414F0E4FDA2
:1054A000687A04231330C1B20022092015F034F8C1
:1054B000BAF9080002286DDB142300941A46002173
:1054C0001720019414F0EBFF122300941A460121D7
:1054D0001820019414F0E3FF99F85200042806D034
:1054E0002949CDE902140F231A46022117E099F841
:1054F0005100C10708D0A87F68B30F23CDE902B4DB
:1055000002211A4619200BE010F0060F42D0A87FA6
:1055100008B31C480F23CDE902041A4602211920C2
:10552000CDE9008615F077F899F85200012831D1BD
:105530000B23002214212020009414F095FD002359
:1055400044221F212020009414F08EFD687A042349
:10555000002213301AE01DE02EE5072070C007205E
:105560001C00001000400440A0E60720A00B08200B
:10557000A6C107200B5F0200A15F0200736002005A
:10558000376002009160020055600200C1B2202025
:1055900014F0C2FFBAF80600DFF848B44FF0010972
:1055A0004FF00A0A00282BD0009414232322002154
:1055B0003220019414F073FF00940223032214217B
:1055C0003520019414F06BFF009402230322142170
:1055D0004F20019414F063FF9BF83D00D846C007AC
:1055E0000FD0A87F00280BD03221FF48CDE900174B
:1055F000CDE902040A46182300212B2015F00BF8F0
:1056000096E00B23002214214220009414F02CFD7C
:10561000002322221F214220009414F025FDB8F916
:105620000800002805DA687A042300221330C1B28A
:1056300005E0687A0423C0F12200C1B202224220B0
:1056400014F06AFF287B0F2859D2E848B0F900000F
:10565000A0F5AA4155396BD0B8F91000052190FB8F
:10566000F1F0ADF810001422002104A8FEF7DEFAD4
:10567000CDE90094BDF9103020220021332014F030
:105680000EFFB8F810000A2813D2CDE900960923BE
:105690000C2205213D2014F002FFB8F910100091F2
:1056A000CDE9014902230521D1A23D20CDF80C907E
:1056B00012E064284FF0090311D2CDE900961222BE
:1056C00005213A2014F0EBFEB8F9101003238DE801
:1056D0005202C8A2052121E014F0C9FF28E0CDE95B
:1056E000009618220521372014F0D9FEB8F91010C1
:1056F00004238DE892020521BFA23720ECE7B8F918
:1057000008101E2891FBFAF001B2CDE900194846B5
:1057100006D2CDE902700423B9A205213A20DBE7C5
:10572000CDE902700523B8A21946352015F042F8DC
:1057300000940E231B2204215C20019414F0AFFE80
:1057400000231A1F0A215C20009414F08DFC002312
:1057500004220A217620009414F086FC00232722DC
:105760001F214320009414F07FFC6FF00D030022F2
:105770001F216920009414F077FCE87AA846C0F154
:105780002200C1B204230222692014F0C5FE974E04
:105790004D46603E0523B6F90A10CDF80C9091FBFA
:1057A000FAF000B200900421CDE9014198A216213F
:1057B000462014F05CFFB6F90C00642807DA8DE887
:1057C000A100042307218EA25D20039509E090FB30
:1057D000FAF000B203958DE89100042388A2072116
:1057E0005A2014F044FF98F808104046491CC9B2EA
:1057F00088F80810032923D30472417A491CC9B2DE
:1058000041720D2900D34472817A491CC9B2817258
:10581000202900D38472C17A491CC9B2C1720F29F0
:1058200000D3C472017B01F10101C9B201739BF87D
:105830003D20920707D52D2902D300BF88F80C40E0
:1058400005B0BDE8F08F1E29F8D2F9E7674D724F19
:105850009435ED5C05EB450517F81560165407EB1C
:105860004505401C6E781654401CAE781654401CFA
:10587000EE781654401C2E791654401C6D79155440
:10588000401C5B1C1BB29C42E0DC491C09B2042991
:10589000FFF681ADD4E72DE9F04F604CADF50B7DFF
:1058A000052122680020D30752AD03D05CA052909E
:1058B00001200621604BDE7946B160A645F82060E4
:1058C00000F1010001F10101C0B2C9B2160708D50B
:1058D00060A645F8206000F1010001F10101C0B2AD
:1058E000C9B2D60608D561A645F8206000F10100CE
:1058F00001F10101C0B2C9B2960608D561A645F80A
:10590000206000F1010001F10101C0B2C9B25606E8
:1059100008D562A645F8206000F1010001F10101FF
:10592000C0B2C9B2160608D562A645F8206000F1DB
:10593000010001F10101C0B2C9B2D60508D563A6C4
:1059400045F8206000F1010001F10101C0B2C9B2C7
:10595000960508D563A645F8206000F1010001F125
:105960000101C0B2C9B2520506D564A245F8202093
:10597000401C491CC0B2C9B21C4A233A02F1AF0410
:10598000A2F1BD0B92F800C0B4F90040BBF90E6063
:105990008396BCF1010F08D13EB134B95DA645F83C
:1059A0002060401C491CC0B2C9B25678012E0DD1EE
:1059B000839E012E0ADD0D4E8C36768836B95BA6A5
:1059C00045F82060401C491CC0B2C9B29678012E2F
:1059D00006D1839E022E03DD044E8C36B688B1E0DC
:1059E000B8E0000008E60720A15F0200D0C1072050
:1059F0002025000020202500202020250000000078
:105A00002020204100000000414343C8CC0000009A
:105A100020202020420000007C5802001C000010C2
:105A2000202020C0E2E0F0E8FF20F1E5F2E82121AB
:105A3000212020200000000070C007202020C0E2AC
:105A4000E0F0E8FF20E1E0F2E0F0E5E820202020AF
:105A500000000000202020C0E2E0F0E8FF20C1CFDD
:105A6000D120B9312020202000000000202020C0BB
:105A7000E2E0F0E8FF20C1CFD120B9322020202081
:105A800000000000202020C0E2E0F0E8FF20C1CFAD
:105A9000D120B9332020202000000000202020C089
:105AA000E2E0F0E8FF20C1CFD120B934202020204F
:105AB00000000000202020C0E2E0F0E8FF20C1CF7D
:105AC000D120B9352020202000000000202020C057
:105AD000E2E0F0E8FF20C1CFD120B936202020201D
