:020000040000FA
:10000000C07D0010CD010000D1010000D30100002F
:10001000D5010000D7010000D90100000000000058
:10002000000000000000000000000000DB010000F4
:10003000DD01000000000000DF010000857201000A
:10004000E30100001FA401004BA40100E301000034
:10005000E30100006FD50100E3010000E3010000AF
:10006000E3010000E3010000E3010000E301000000
:10007000E3010000E3010000E3010000E3010000F0
:10008000E3010000E3010000E3010000E3010000E0
:10009000E3010000E30100001D500000E301000047
:1000A000E30100002BD00100E3010000E3010000A8
:1000B00079DC0100E3010000E3010000E30100003E
:1000C000E3010000E3010000E301000000F002F89A
:1000D00000F06DF80AA090E8000C82448344AAF175
:1000E0000107DA4501D100F062F8AFF2090EBAE873
:1000F0000F0013F0010F18BFFB1A43F0010318475C
:100100000C2F02004C2F02000A444FF0000C10F894
:10011000013B13F0070408BF10F8014B1D1108BF85
:1001200010F8015B641E05D010F8016B641E01F825
:10013000016BF9D113F0080F1EBF10F8014BAD1C75
:100140000C1B09D16D1E58BF01F801CBFAD505E093
:1001500014F8016B01F8016B6D1EF9D59142D6D3ED
:10016000704700000023002400250026103A28BF15
:1001700078C1FBD8520728BF30C148BF0B60704719
:1001800064291DF04D8673291EF0B1800020704750
:100190001FB521F0F5FE1EF067F9040000200021D4
:1001A00021F0D8FE401C60601FBD10B510BD1EF0D0
:1001B00036F91146FFF7ECFF17F004F91EF068F965
:1001C00003B4FFF7F2FF03BC1EF06CF908480047C8
:1001D000FEE7FEE7FEE7FEE7FEE7FEE7FEE7FEE7F7
:1001E000FEE7FEE703480449044A054B7047000058
:1001F000CD000000C0350820C07D0010C03D0820A3
:10020000C0750010FEE710B51FF096FD1FF022FE2E
:100210001FF014FE1FF0A2FDAFF30080BDE81040F8
:100220001FF0DEBD10B520F0EFFB21F05FFA20F0EB
:1002300043FCBDE8104020F0BBBD20F003BB20F024
:10024000CBB809B1002070471EF020BE00207047D7
:100250001E4BDA601870597070471C48C16800293D
:100260000DD0491EC1600AD1194902780A7042783E
:100270004A700A710021C17001714171817170472A
:10028000124A1161907070471048016900290BD023
:10029000491E016108D10E4A817811700021517008
:1002A000C1700171417181717047084908817047BF
:1002B0000648B0F90810002907D0491E09B201818B
:1002C000002902D1084601F066B8704708C007202F
:1002D0000002001070B5064600F00CF804680546F0
:1002E00030460A2200211EF006F82C6070BD7047CF
:1002F00070477047004870475C750010FFFFFFFFB4
:10030000002801DA404200B270470020F94A20215B
:100310001154401CC0B2C828FAD370470146F54AB0
:100320000020401CC0B2135C8B4201D0C828F8D317
:10033000704710B50021F04C0A2200BFB0FBF2F369
:1003400002FB13006054491CC9B218460529F5D3B5
:1003500010BDF0B5E94B0121202719700521E64AAF
:10036000002601E01C7844B1541814F8015C25B94A
:10037000814202D904F8017C05E0541814F8015DAB
:10038000303525701E70491E11F0FF01EAD1F0BD15
:1003900070B50D461446002802DAC043401C00B276
:1003A000FFF7C7FF601CC0B2FFF7D3FF2846FFF777
:1003B000B5FFFF2819D0D04ACE4B0021A14201D26F
:1003C000555C13E004D14FF02E051D54555C03E03D
:1003D000555C202D03D04CB11E1806F8015C401E60
:1003E000491CC9B2C0B20529E8D370BD1D54F6E757
:1003F000F0B50D461446002801DA404200B2FFF77E
:1004000098FF601CC0B2FFF7A4FF2846FFF786FFE5
:10041000B94AB84B002164B9555C202D09D0561853
:100420007678202E03D12D261F1807F8016C1D5455
:100430000FE0A14201D2555CF9E704D14FF02E053F
:100440001D54555C02E0555C202D02D01E1806F8A4
:10045000015C401E491CC9B2C0B20529DBD3F0BD06
:10046000FEB52B23002802DA404200B22D230025DE
:100470000A266C4690FBF6F706FB170060556D1CCC
:100480006DB238B20A2DF5DB0126002509202027A0
:1004900000E046B114F800C0BCF1000F03D1904257
:1004A00001DD275405E0265C3036265400266D1CFD
:1004B000EDB2401E40B20028EBDA2D2B02D163557D
:1004C0006D1CEDB26AB168B205E0231813F8013C67
:1004D0002354401E40B29042F7DC2E206D1CA054E5
:1004E000EDB20846FFF71AFF0021824A04E0635C80
:1004F000461A491C935549B2A942F8DBFEBDFEB528
:100500002B23002801DA40422D2300250A266C46C1
:10051000074690FBF6F006FB107767556D1C6DB231
:100520000A2DF5DB012600250920202700E046B131
:1005300014F800C0BCF1000F03D1904201DD275434
:1005400005E0265C3036265400266D1CEDB2401EB8
:1005500040B20028EBDA2D2B02D163556D1CEDB2B1
:100560006AB168B205E0231813F8013C2354401E19
:1005700040B29042F7DC2E206D1CA054EDB208462C
:10058000FFF7CCFE00215B4A04E0635C461A491C7D
:10059000935549B2A942F8DBFEBDFEB52B260028D3
:1005A00001DA40422D2600240A276D46844690FB3E
:1005B000F7F007FB10CC05F804C0641C64B20A2CE9
:1005C000F4DB0127002009244FF0200C00E04FB19C
:1005D00015F804E0BEF1000F04D19C4202DD05F8DD
:1005E00004C005E02F5D30372F550027401CC0B2F6
:1005F000641E64B2002CEADA2D2E02D12E54401C67
:10060000C0B26BB144B205E02E1916F8016C2E553C
:10061000641E64B29C42F7DC2E24401CEC54C0B231
:1006200001EB810102EB8101CAB20021314B04E0F0
:100630006C5C561A491C9C5549B28142F8DBFEBDE0
:1006400070B50D4616461C46FFF773FE601CC0B21F
:10065000FFF77FFE05EB850006EB8000C1B2264A5E
:10066000244B0020A04201D2155C5D5406D3155CDA
:10067000202D03D04CB15E1806F8015C491E401CC9
:10068000C0B2C9B20528EDD370BD5D54F6E730B5F0
:10069000044608461546FFF741FEFF2809D0154AD3
:1006A0002178002905D04319641C401CD154C0B2E4
:1006B000F6E730BD70B50D461446FFF73AFE601CF4
:1006C000C0B2FFF746FE2846FFF728FE0A4B094A4C
:1006D000002124B95D5C202D01D0155416E0A14203
:1006E00001D25D5CF9E70BD14FF02E0515545D5C2E
:1006F00009E000008002001068C00720DC03001041
:100700005D5C202D02D0161806F8015C401E491CC5
:10071000C9B2C0B20529DCD370BD801801D5084428
:1007200002E0884200DB401AC0B270472DE9FE4F5C
:1007300004460D464FF460601AF04CFC62424021C2
:10074000FFF7EBFF400100F58060044602A91AF0B4
:10075000BEFC694604F108001AF0B9FC01A904F1D5
:100760000C001AF0B4FC2846FFF7D8FD06469DF8A9
:10077000080040273025DFF8F0B4DFF8F0A420248B
:100780004FF0210C4FF02309552820D0CF22D12340
:10079000502878D0422874D0532873D0492862D189
:1007A000C8210AF80610761CF1B2ED220AF80120E1
:1007B000491CC9B2E2220AF80120491C9DF809200F
:1007C0005046C9B2092A78D231324254FDE39DF82D
:1007D0000A0052280ED1C2210AF80610761CF1B286
:1007E000EA220AF80120491CC9B2EB220AF80120CA
:1007F000491CCEB25046B5E39DF8012096F838303A
:100800009A4267D19DF8022096F82C309A42F8D18E
:100810004554491CC9B23A2200F801C0491CC9B26A
:100820004254491CC9B24554491CC9B24754491CD9
:10083000C9B24254491CC9B200224554491CC9B22C
:100840000AF801909DF804002121FFF733FF9DF87D
:10085000050000224021FFF72DFF9DF80600002231
:100860002321FFF727FFBDE8FE8F00BF9DF8011091
:10087000FF48002200EB81004021FFF708FFF2E76C
:1008800001E028E045E30AF80620761CF1B2504664
:100890000AF80130491CC9B20AF80140491CC9B222
:1008A0000AF80140491CC9B20AF80140491CC9B202
:1008B0000AF80140491CC9B21FE397E39DF80130D3
:1008C00092F83860B3429CD19DF8023092F82C2007
:1008D00093429DD05AE39DF80A0043287CD1C12160
:1008E0000AF80610761CF1B2E0220AF80120491C31
:1008F000C9B2F2220AF80120491CCEB29DF80910B3
:100900005046092906D231318155761CF1B2C022F8
:10091000425419E0A1F109025A2A11D2491C0A23B2
:10092000B1FBF3F2904630328255761C03FB18116E
:10093000F6B230318155761CF1B2C022425406E045
:100940008455761CF1B24454491CC9B24454491C24
:10095000C9B25E464454491C9DF80020BBF83C30A7
:10096000C9B29A4239D19DF8012096F838309A429E
:1009700033D19DF8022096F82C309A422DD145545F
:10098000491CC9B23A2200F801C0491CC9B24254FC
:10099000491CC9B24554491CC9B24754491CC9B283
:1009A0004254491CC9B200224554491CC9B20AF834
:1009B0000190491CCEB29DF804002121FFF77AFE78
:1009C0009DF8050000224021FFF774FE9DF8060007
:1009D00000222321FFF76EFE36E04454491CC9B2C1
:1009E00000224554491CC9B200F801C0491CC9B2D3
:1009F0004754491CC9B24454491CC9B24454491C07
:100A0000C9B24554491CC9B20AF80190491CCEB27A
:100A10009DF802002121FFF74DFE9DF80000002205
:100A20002321FFF747FE9DF80100401E0C2802D34A
:100A300001208DF801009DF801108D48002200EB87
:100A400081004021FFF723FE9DF80A00532873D14F
:100A5000C1210AF80610761CF1B2E0220AF8012042
:100A6000491CC9B2F2220AF80120491C9DF809204C
:100A700043235046C9B2092A09D231324254491C93
:100A8000C9B2C0224254491CC9B243540FE0093ACA
:100A90005A2A05D2C0224254491CC9B2435403E029
:100AA0004454491CC9B24454491CC9B24454491C59
:100AB000C9B25E464454491C9DF80020BBF83C3046
:100AC000C9B29A4239D19DF8012096F838309A423D
:100AD00033D19DF8022096F82C309A422DD14554FE
:100AE000491CC9B23A2200F801C0491CC9B242549B
:100AF000491CC9B24554491CC9B24754491CC9B222
:100B00004254491CC9B200224554491CC9B20AF8D2
:100B10000190491CCEB29DF804002121FFF7CAFDC7
:100B20009DF8050000224021FFF7C4FD9DF8060056
:100B300000222321FFF7BEFD36E04454491CC9B210
:100B400000224554491CC9B200F801C0491CC9B271
:100B50004754491CC9B24454491CC9B24454491CA5
:100B6000C9B24554491CC9B20AF80190491CCEB219
:100B70009DF802002121FFF79DFD9DF80000002255
:100B80002321FFF797FD9DF80100401E0C2802D39A
:100B900001208DF801009DF801103548002200EB7E
:100BA00081004021FFF773FD9DF80A005A2863D1A8
:100BB000C2210AF80610761CF1B2C7220AF80120F9
:100BC000491CC9B250460AF80140491CC9B25E46E8
:100BD0000AF80140491CC9B20AF80140491CC9B2CF
:100BE0004454491CC9B24454491C9DF80020BBF828
:100BF0003C30C9B29A4240D19DF8012096F8383075
:100C00009A423AD19DF8022096F82C309A4234D17B
:100C10004554491CC9B23A2200F801C0491CC9B266
:100C20004254491CC9B24554491CC9B24754491CD5
:100C3000C9B24254491CC9B200224554491CC9B228
:100C40000AF80190491CCEB29DF804002121FFF75B
:100C500031FD9DF8050000224021FFF72BFD002209
:100C60009DF80600232105E00040024080020010AC
:100C7000A0260200FFF71EFD36E04454491CC9B20D
:100C800000224554491CC9B200F801C0491CC9B230
:100C90004754491CC9B24454491CC9B24454491C64
:100CA000C9B24554491CC9B20AF80190491CCEB2D8
:100CB0009DF802002121FFF7FDFC9DF800000022B5
:100CC0002321FFF7F7FC9DF80100401E0C2802D3FA
:100CD00001208DF801009DF80110FF48002200EB73
:100CE00081004021FFF7D3FC9DF80A0057287DD1F1
:100CF000C1210AF80610761CF1B2E0220AF80120A0
:100D0000491CC9B2F2220AF80120491CCEB29DF852
:100D1000091050464FF0F00E092906D231318155A5
:100D2000761CF1B200F801E019E0A1F109025A2A9B
:100D300011D2491C0A23B1FBF3F29046303282559E
:100D4000761C03FB1811F6B230318155761CF1B2D6
:100D500000F801E006E08455761CF1B24454491CC9
:100D6000C9B24454491CC9B25E464454491C9DF85A
:100D70000020BBF83C30C9B29A423BD19DF801201B
:100D800096F838309A4235D19DF8022096F82C30EA
:100D90009A422FD14554491CC9B23A2200F801C0E9
:100DA000491CC9B24254491CC9B24554491CC9B274
:100DB0004754491CC9B24254491CC9B20022455487
:100DC000491CC9B20AF80190491CCEB29DF8040032
:100DD0002121FFF76FFC9DF8050000224021FFF75D
:100DE00069FC00229DF80600232100E039E0FFF7AE
:100DF00061FC36E04454491CC9B200224554491CE8
:100E0000C9B200F801C0491CC9B24754491CC9B253
:100E10004454491CC9B24454491CC9B24554491CE4
:100E2000C9B20AF80190491CCEB29DF802002121F6
:100E3000FFF740FC9DF8000000222321FFF73AFC59
:100E40009DF80100401E0C2802D301208DF80100FE
:100E50009DF80110A048002200EB81004021FFF71F
:100E600016FC9DF80A004B287FF409ADC1210AF851
:100E70000610761CF1B2E0220AF80120491CC9B222
:100E8000F2220AF80120491C9DF80900C9B209287C
:100E90000BD231300AF80100491CC8B2EA210AF825
:100EA0000010401CC0B2E52115E0A0F109025A2A49
:100EB00016D2401C0A23B0FBF3F2904630320AF8F7
:100EC0000120491C03FB1800C9B230300AF80100A8
:100ED000491CC8B2EA210AF80010401CC1B20BE05C
:100EE0000AF80140491CC9B20AF80140491CC9B2BC
:100EF0000AF80140491CC9B250465A464454491C9C
:100F00009DF80030BBF83C60C9B2B3423FF4D6ACA8
:100F10003CE0C1210AF80610761CF1B250460AF8EE
:100F20000120491CC9B20AF80130491CCEB29DF813
:100F30000910092902D23131815514E0A1F10902C9
:100F40005A2A0FD2491C0A23B1FBF3F290463032E1
:100F50008255761C03FB1811F6B230318155761C90
:100F6000F1B205E08455761CF1B24454491CC9B273
:100F70005E464454491CC9B24454491C9DF80020A3
:100F8000BBF83C30C9B29A423FF436AC4454491CD9
:100F9000C9B200224554491CC9B200F801C0491C1D
:100FA000C9B24754491CC9B24454491CC9B244543B
:100FB000491CC9B24554491CC9B20AF801909DF8B0
:100FC00002002121FFF776FB00E022E09DF80000FF
:100FD00000222321FFF76EFB9DF80100401E0C2824
:100FE000FFF444AC01208DF801003FE4A2F10903B5
:100FF0005A2B0DD2521C0A25B2FBF5F303F1300631
:101000004654491C05FB1322C9B23032425403E056
:101010004454491CC9B24454491CC9B20AF801409D
:1010200021E470B50446084615461E46FFF776F9DA
:101030002A4B0146FF2804D106E01A54641C401CC8
:10104000C0B22278002AF8D125480078002804D0C0
:10105000002E02D029445F20585470BD2DE9FF4F67
:101060008146DDE90D048A469346FFF757F92022B1
:10107000DFF86C8019490A234FF0640C012C09D168
:1010800098F8005035B10D18A5F10E05AA706A70D8
:101090002A7027E099FBF3F603FB16970D183037FB
:1010A000A5F10E05022CAF7096FBF3F703FB176654
:1010B00006F130066E7099FBFCF606F1300605F875
:1010C0000E6B0FD198F8006066B1A5F10A05AA7001
:1010D0006A702A7028E00000A0260200800200103A
:1010E000A90000109AFBF3F603FB16A70D18303782
:1010F000A5F10A05032CAF7096FBF3F703FB176607
:1011000006F130066E709AFBFCF606F13006674673
:1011100005F80A6B08D198F800602EB1A5F1060514
:10112000AA706A702A7022E09BFBF3F603FB16B7E5
:101130000D183037A5F10605042CAF7096FBF3F7B8
:1011400003FB176606F130066E709BFBFCF606F19A
:101150003006674605F8066B09D198F8004034B1AF
:10116000A5F102050A546A702A70BDE8FF8F039C3E
:1011700094FBF3F203FB124430340C5492FBF3F46F
:1011800003FB14220844A0F102003032427003999C
:1011900091FBF7F101F130010170E6E717B501EBC2
:1011A000810002EB8000C2B29DF80030EB4803F0F2
:1011B0000F0100EB1313445CE9498C54521ED2B268
:1011C0001B788B549DF80130521E03F00F04D2B2ED
:1011D000045D8C54521E00EB1313D2B21B788B5457
:1011E0009DF80230521E03F00F04D2B2045D8C54FD
:1011F000521E00EB1313D2B21B788B549DF80330B0
:10120000521E03F00F04D2B2045D8C54521E00EB48
:101210001310D2B2007888541EBD10B5044608469B
:10122000FFF77CF8CD4904F00F028B5CCC4A01EB50
:1012300014111354401EC0B20978115410BD01EBB3
:10124000810102EB8101C54A10B500F00F03C9B25C
:10125000D45CC34B02EB10105C54491EC9B2007839
:10126000585410BD01EB810102EB8101CBB2BB49A7
:1012700010B500F00F028C5CB94AD45404095B1E0F
:1012800004F00F00DBB2085CD0545B1ED8B2230917
:1012900003F00F040C5D1454401E1B09C0B2C95C5E
:1012A000115410BD01EB810102EB8101CBB2AB49BE
:1012B00010B500F001028C5CA94AD45444085B1EAE
:1012C00004F00100DBB2085CD0545B1ED8B26308A6
:1012D00003F001045B080C5D1454401E03F001048C
:1012E000C0B20C5D14545B08401E03F00104C0B290
:1012F0000C5D14545B08401E03F00104C0B20C5D89
:1013000014545B08401E03F00104C0B20C5D145479
:10131000401EC4B25808085C105510BD30B5914944
:1013200001238F4D91F9012091F9041000EB800405
:101330008A4202D105F8243030BD894D4C1C00EBA7
:10134000800005EB8000A24201D1037530BD8C1CEA
:10135000A24202D180F8283030BDCC1CA24202D17A
:1013600080F83C3030BD0C1DA24202D180F85030D4
:1013700030BD4C1DA24202D180F8643030BD8C1DBE
:10138000A24202D180F8783030BDC91D8A42FBD11B
:1013900080F88C3030BD744B1A88521E104400B255
:1013A0001880724A00EB800002446E4813680360A4
:1013B000127902714278114441707047F0B56A4D5C
:1013C0006A4FB5F9004004EB8406641C2C80654C20
:1013D0003E44256835602579357120706170227131
:1013E000A370F0BDF0B505460E461746FEF78DFF1B
:1013F0005B4C0020401C15F8011BC0B204F8011B17
:101400001428F7D35FF00000401C16F8011BC0B28F
:1014100004F8011B1428F7D35FF00000401C17F8F4
:10142000011BC0B204F8011B1428F7D35FF00000C1
:10143000401C13F8011BC0B204F8011B1428F7D399
:10144000F0BD10B5029CFFF7CDFF4648C378827807
:1014500041787820FFF7B2FF642094FBF0F0BDE8FC
:101460001040C0B2FEF721BF2DE9FE4340010D46FA
:1014700000F58060044602A919F029FE694604F1CE
:10148000080019F024FE01A904F10C0019F01FFE58
:101490002846FEF743FF324C202530262554401CB9
:1014A000C0B24FF021082654401CC0B24FF0400C8F
:1014B00004F80080401CC0B2232104F800C0401C86
:1014C000C0B200222554401CC0B22554401CC0B2FA
:1014D0002654401CC0B22154401CC7B29DF80200E3
:1014E0002121FFF7E7F89DF8000000222321FFF7F4
:1014F000E1F89DF80100401E0C2802D301208DF870
:1015000001009DF801001A49002201EB80004021F2
:10151000FFF7BDF8E5557F1CF8B23A212654401C70
:10152000C0B2002204F80080401CC0B22154401C0C
:10153000C0B221212654401CC0B204F800C0401C97
:10154000C6B29DF80400FFF7B5F89DF8050000222B
:101550004021FFF7AFF8A555BDE8FE831E27020026
:101560008002001000020010CA000010886C0010F9
:10157000A02602002DE9FF4105460027FF4C01216E
:10158000A774A07B022805D0FD4A525D552A04D0DD
:1015900065200EE0A174BDE8FF8105EB450202EB7A
:1015A0000513F84A02EB830696F83D20D30702D0D4
:1015B0006620A074EFE796F83F309B0701D56720BF
:1015C000F7E7920701D56820F3E7EF4AB6F908304C
:1015D000B2F90020934201DD6920EAE752429342CA
:1015E00001DA6A20E5E7012804D1E07B00287ED0FB
:1015F00001287DD06420A074A173A1874FF4F870F6
:1016000019F016FEE5732946E5874FF4FA7019F0D4
:101610000FFEDE48B761002130F9150019F008FE11
:101620002774A4F8407039464FF4FB7019F000FE9F
:10163000D748D84D0088401C00F0070006EB40005A
:10164000008CADF80000A88B8DF804004FF0630209
:101650004FF0010101A802F0B2FAC84C9DF8040055
:1016600068342070287E8DF804000C22012101A826
:1016700002F0A5FA9DF804006070287B8DF8040044
:101680001F22012101A802F09AFA9DF80400A0701F
:101690009DF80000E0704FF4FC70216819F00BFE1B
:1016A000287A8DF804001722002101A802F087FA99
:1016B0009DF80400207128798DF804003B22002158
:1016C00001A802F07CFA9DF80400607128788DF87A
:1016D00004003B22002101A802F071FA9DF80400E9
:1016E000A0719DF80100E0714FF4FE7001E004E08C
:1016F00005E0616819F0DFFD4DE76B2059E76C20CC
:1017000057E72DE9F0479D4CA07B01287DD120466D
:101710000127C07B217CC0F1010207FA02F09B4E39
:10172000984D02B211B1012933D037E01423CA21F8
:10173000C82002F0E1F914234FF0FF32CE21CD2072
:1017400002F0DAF9E07B00EB400101EB001005EB61
:101750008000B0F90800FEF7D3FDE17B01EB410208
:1017600002EB011205EB82029369184448F6A0438C
:101770009061984212DBC01A906136F8110019F09E
:1017800029FC401C01B2E07B36F9100019F050FD35
:1017900004E01423CA21C82002F0AEF9E07BA84679
:1017A00000EB400101EB001205EB82017A4AB1F92E
:1017B00002100025B2F900204FF4F87902EB820202
:1017C000B1EB420F40DA218F491C09B221871E2953
:1017D0003BDBA17B012921D1217CF9B936F810002E
:1017E00019F0F8FB01B26D48E27B30F9120019F0F4
:1017F0001FFDE07B36F8100019F0ECFB81B2E07BB6
:1018000003F012FA6648E17B00E03EE030F9110097
:10181000002119F00DFD3220A082E082E07B5849C2
:10182000C0F10100085C552807D0A573A5870021E9
:101830004FEA090019F0FCFC07E02774A4F8407097
:1018400001214FF4FB70F5E72587E17B01EB4100B7
:1018500000EB0112C1F1010101EB410303EB0111A6
:1018600008EB820208EB8100B2F90220B0F9020015
:1018700082420ADB207C012807D1A573A587484650
:10188000BDE8F047002119F0D3BCBDE8F08770B582
:101890003A4C05460026A07BE0B90221A173A1873E
:1018A0004FF4F87019F0C4FCC5EB05108100A58653
:1018B0000D4661874FF4F97019F0BAFC29464FF4D0
:1018C000FF7019F0B5FC0020E086608601263046E6
:1018D00003F038FA304670BD10B5284CA07B0228C2
:1018E0000FD1A08E03F02EFA00206086A086E0863D
:1018F000A073A0870146BDE810404FF4F87019F0BE
:1019000097BC10BD70B5234C203C94F83800254D91
:10191000297808440C2803D9A08F401C01B201E0AB
:10192000B4F93C10B82019F083FC94F838102878EA
:1019300001440C2994F8381000D90C380144B62021
:1019400019F076FC94F82C001C2801D91C2101E028
:1019500094F82C10B42019F06BFC04F12004217AC7
:101960004FF0AE0019F064FC2179B02019F060FC52
:101970002178BDE87040B22016E000000C00001095
:101980003601001050E50720EC0000101420020082
:101990009601001020400240E600001030200200B6
:1019A00010200200B100001019F042BC10B5FF4831
:1019B000FF4C007830B3FF48818FFF4A1288914274
:1019C00020D190F83810FD4A128891421AD190F82F
:1019D0002C10FB4A1288914214D190F82810F94A31
:1019E000128891420ED190F82410F74A1288914241
:1019F00008D190F82000F5490988884202D10120D9
:101A0000607402E0607C00280BD0F1480088C0B20E
:101A1000FFF73DFF002804D000206074BDE81040AF
:101A200070E710BDEB486FF03B010088C0EB001081
:101A300001EB8000DE4988857047DD4940F2F9609E
:101A40004885704770B5DA4C608D401C00B26085E7
:101A5000B0F5E16F02DB0020608570BDB0F5DF6F8F
:101A600011D90F2301226421D22002F045F80F235F
:101A70000022D821D72002F03FF80F230022D821DE
:101A8000DC2002F039F8B4F92A00A0F5E06107394A
:101A9000E3D1D14ED14CD24D30882188884205D037
:101AA000B4F90010B5F9000019F0C2FB7088618824
:101AB0008842D2D0B4F90210B5F90200BDE87040F6
:101AC00019F0B6BB10B5C74C082200212088401C75
:101AD0002080204602F089F8C348B4F9001000EBDA
:101AE000410142880A84B0F84E00A1F86C0010BD94
:101AF0002DE9F05FBD4DBE4F4FF4FA66B5F9001009
:101B0000B7F90000B84C484390FBF6F0B949608043
:101B1000B5F90820B1F900004FF42F73504390FB42
:101B2000F3F0A080B5F91820B7F90200504390FBFC
:101B3000F6F0A4F84E00B5F90220B1F902005043C6
:101B400090FBF3F0A4F85000DC2002F00CF8DFF872
:101B5000A8B2F0BBDFF88482DFF87CE245F6386794
:101B6000B8F80000BEF8001045F69262401AA3498A
:101B700045F2136345F21169B1F900104FF47A7A16
:101B80004143BBF80000B84201D0904204D14FF469
:101B9000967C91FBFCF10DE0A0F5A84CBCF5FD7C1A
:101BA00003D0984201D0484502D191FBF6F101E003
:101BB00091FBFAF12181B8F80210BEF802C0B842D8
:101BC000A1EB0C0C8D49B1F9021001FB0CF103D013
:101BD00000E015E0904204D14FF4967091FBF0F0D4
:101BE0000CE0A0F5AA42FA3A03D0984201D0484549
:101BF00002D191FBF6F001E091FBFAF0A4F8540059
:101C0000B5F90C1040F6B733A1F2213601220020BD
:101C10009E4201D2207300E02273794F44F6206C7B
:101C2000B7F900604E4396FBFCF1A1F211116181FE
:101C3000B5F90E10A1F221369E4202D284F8580066
:101C400001E084F85820B7F902604E4396FBFCF19E
:101C5000A1F21111A4F856106A49B1F900606A495D
:101C600046B96A4FDFF8A8813F88A8F80070694F2D
:101C70003F880F80B1F90070002F00DA08806649B4
:101C800016B9664E36880E80B1F90060002E00DA73
:101C90000880B5F90A606249A6F221379F4201D255
:101CA000086000E00A60DFF87C919A46B9F900709C
:101CB000774397FBFCF65C4FA6F211163E80B5F910
:101CC0001460A6F22138D04501D2486000E04A6095
:101CD000B9F90230734393FBFCF3A3F211130FFA2B
:101CE00083F8A7F80280B5F90630A3F221355545EF
:101CF00001D2886000E08A60B9F904204FF47A6567
:101D00005A4392FBFCF2A2F2111212B2BA80474F70
:101D1000DFF81CC191463B88BCF90020464E5A436F
:101D200092FBF5F2434B92B2642A1A8001D3434AE4
:101D300012883280BCF902607A88DFF80CC1564301
:101D400096FBF5F25A803E4A3E4DB2F90030B5F9A5
:101D500000605E4341F2707396FBF3F6ACF80060EE
:101D6000B2F90270B5F902607E4396FBF3F6ACF867
:101D70000260B2F90460B5F90450754395FBF3F5C0
:101D8000ACF80450DFF8C4C0B2F90660BCF90050EA
:101D9000754395FBF3F62E4D2E80B2F90870BCF911
:101DA00002607E4396FBF3F66E8053E0B1000010B4
:101DB0000C000010004002404401001042010010DD
:101DC000400100103A0100103C0100103E010010DB
:101DD00046010010FC000010B20300105625001050
:101DE0003C2002009601001050E50720486C0010CE
:101DF000AE0300103AC00720380100103EC0072093
:101E0000B6030010320100109A01001064C00720D0
:101E100098010010DA0300109C01001066C0072032
:101E200090040820BC0300103A0200104002001089
:101E300042C0072046020010B6010010A0010010A9
:101E4000BA6C001080C007204C020010F003001094
:101E500052020010B2F90A20BCF9046008F211180D
:101E6000564396FBF3F2AA80FA4E0FFA88F309F272
:101E70001112338015B275804A6812F0FF02327277
:101E80008968C9B27172F44E04D0012A0ED012B121
:101E90000DD020E011B1012910D01CE0591901EB3F
:101EA000D1716FF4887202EB610113E011B1012965
:101EB00008D010E0A5F2111535800CE0A3F2111343
:101EC000338008E0E5490978052902D2E449098808
:101ED00000E014213180E34AE3491378552B05D102
:101EE000B4F90230C82B01DD23890B855278552ABD
:101EF0000AD1B4F94E20C82A06DDB4F95420B4F949
:101F000008309A4200DD0A85BBF80020A2F5AC43F8
:101F10002F3B03D0283301D0143B02D1D34A12887F
:101F20000A85D4490022DFF848C3B1F900302CE01B
:101F300002EB82010CEB0111CC78192C1CD28C79AC
:101F4000CD7904EB05240C620C7A4D7A04EB052460
:101F5000CC618C7ACD7A04EB05248C610C7B4C62CD
:101F60004C7B81F84E408C7B81F83E400C7C4D7C54
:101F700004EB05248C6406E088610862C86148624D
:101F800081F83E008864521CD2B29A42D0DBBA4C2F
:101F90000621A161B949B1F90050002D46D00022B7
:101FA00042E000BF02EB82010CEB011191F84336D5
:101FB000192B27D201F246610B784E7803EB0626E7
:101FC00002EB420303EBC20304EBC303DE618E7832
:101FD000CF7806EB0726DE620E794F7906EB0726EF
:101FE0009E618E791E62CE7983F846600E7A4F7AB2
:101FF00006EB07269E628E7AC97A06EB01215962AA
:1020000098700FE002EB420101EBC20104EBC10149
:102010001923C861C8628861086281F84600486275
:1020200088628B70521CD2B2AA42BBDBBDE8F09F23
:10203000934A94481178042901D0012905D1517897
:1020400019B991490978552902D09049098803E0C6
:102050000178002901D0491E017070478C48416801
:1020600021F4402141F480214160416821F4403154
:1020700041F480314160416821F4404141F48041A4
:102080004160416C21F4402141F400214164416CE4
:1020900021F4403141F400314164416C21F440416C
:1020A00041F4004141647B48016821F0E061016036
:1020B000016841F400110160016821F48031016080
:1020C000016821F47F4141F4807101608115C16094
:1020D00071488903016070472DE9F041624C5C341E
:1020E00060882188401A00B202F054FFA51D2880A4
:1020F000A0886188401A00B202F04CFF6880A08876
:102100002188401A00B202F045FF4FF496725649FA
:10211000A880904201DAA0880AE0B5F90200904256
:1021200001DA608804E0B5F90000904201DA208805
:10213000888391F802C00023BCF1000F22D05748D9
:10214000B1F91C20046814440460446814444460D9
:10215000846814448460C4682244C2608A8C521C1F
:1021600012B28A84B2F5805F00DB8B84B1F924203F
:1021700094052FD1921250F8224024124C8340F83B
:10218000223027E0464FC8780C7907EB8015B1F96B
:102190001C2045F82420A20710D100252A4607EB71
:1021A000801600BF56F82270521CD2B23D44102A4D
:1021B000F8D32A11394D203D25F81020401CC0B21B
:1021C000C870102806D3641CE0B2CB7008711028C8
:1021D00000D30B710CF1010C4B701CF001002D4A67
:1021E000887005D0106820F0FF00001D10605EE0D0
:1021F000C97808070028106820F0FF0002DB00F112
:10220000010001E000F1020010602648036843F07D
:1022100080530360036A43F080430362036E43F01C
:1022200080630366CB07436908D043F08053436162
:102230008B07436B05D423F0804304E023F08053E5
:10224000F5E743F0804343634907416F2CD421F005
:1022500080612BE0EA040820AE010010C2000010EB
:10226000BA010010360100100C000010D803001055
:1022700090E607202401001030F607202601001008
:10228000000200108E000010B20000104801001083
:1022900000C002400040034000E100E0686C001014
:1022A0004868001000C0092041F080614167106853
:1022B00040F080701060BDE8F0812DE9F041FB4CEA
:1022C00060882188401A00B202F064FEA51D2880B3
:1022D000A0886188401A00B202F05CFE6880A08885
:1022E0002188401A00B202F055FE4FF49672A88081
:1022F000A4F15C01904201DAA0880AE0B5F902007D
:10230000904201DA608804E0B5F90000904201DAF9
:10231000208888838E780020F6B34C79E44A8CB10B
:10232000B1F91C30156805EBA3051560556805EB80
:10233000A3055560956805EBA3059560D56805EB89
:10234000A303D360B1F91C30642B0EDA0B8C4FF46D
:10235000FA655B1C1BB20B84AB4208DB0D8410607A
:1023600050609060D060488352E0088450E0052BB4
:102370004ED1A4B1CB8B5B1C1BB2CB83B3F5007FDA
:1023800000DBC883B1F91E305D0608D1DB1152F8BD
:1023900023502D124D8300E00FE042F82300B1F9E5
:1023A0002220962A01DD04B148711F3A272A2FD234
:1023B0004A796ABB01224A712AE0BE4FCA7891F875
:1023C00004C007EB8214B1F91C3044F82C305FEAEA
:1023D0008C730FD10024234607EB821555F8237028
:1023E0005B1CDBB23C44102BF8D32311B04C203CD7
:1023F00024F81230521CD2B2CA70102A08D30CF141
:10240000010C0CF0FF02C8700A71102A00D3087189
:102410004870761C16F00100A74A887005D0106835
:1024200020F0FF00001D106032E0C9780807002886
:10243000106820F0FF0001DB401C00E0801C1060F1
:102440009E48036843F080530360036A43F080436F
:102450000362036E43F080630366CB07436908D0D1
:1024600043F0805343618B07436B05D423F08043D3
:1024700004E023F08053F5E743F0804343634907CA
:10248000416F02D421F0806101E041F08061416739
:10249000106840F0807010600DE7F0B583485C383C
:1024A000B0F9181019B1A1F1010101837FE00022F8
:1024B000844C827213468249B4F900400FE000BF99
:1024C00003EB830501EB0515AE78012E05D1ED7800
:1024D000142D02D2857A6D1C85725B1CDBB2A3427F
:1024E000EEDB867A022E62D341F28833C0E91123F3
:1024F0000023C26415E000BF03EB830501EB051563
:10250000AF78012F0BD12D6A476CBD4200DD4564C9
:10251000876CBD4200DA8564C76C3D44C5645B1CB2
:10252000DBB2A342E8DBC36C012593FBF6F707653A
:10253000836C03B98564436C64267343866C93FB98
:10254000F6F34365A02B00DD4572782B01DA427269
:102550002DE0407A01282AD100226FF0310324E0D7
:1025600002EB820001EB00108578012D1BD1056A7A
:10257000BD4205DDB0F84C50A5F10105A0F84C5066
:1025800005DAB0F84C5005F10105A0F84C50B0F94F
:102590004C509D4202DAA0F84C3004E0322D02DDAE
:1025A0003225A0F84C50521CD2B2A242D8DB00BF58
:1025B000F0BD45480168454A114001603F4A116835
:1025C00041F47C711160C16921F44021C161116E37
:1025D00041F000711166416821F04061416010686E
:1025E00040F0005010603A4991F84600830639489F
:1025F000B0F9000002D58B781E2B01D900284FDCE2
:1026000091F89E309B0603D591F85A301E2B01D9C4
:10261000012845DC91F8F6309B0603D591F8B230DD
:102620001E2B01D902283BDC91F84E319B0603D5C5
:1026300091F80A311E2B01D9032831DC91F8A6311B
:102640009B0603D591F862311E2B01D9042827DCA3
:1026500091F8FE319B0603D591F8BA311E2B01D9B2
:1026600005281DDC91F856329B0603D591F81232ED
:102670001E2B01D9062813DC91F8AE329B0603D538
:1026800091F86A321E2B01D9072809DC91F806332C
:102690009B0603D591F8C2121E291DD908281BDDFF
:1026A000906940F0100090617047000068000010D1
:1026B000686C0010486800100040034000C009200A
:1026C00090E607202401001000C00240FF00F0FF48
:1026D00030F6072026010010D06940F01000D061CC
:1026E000E2E72DE9F041FF4C01260025207B0A2876
:1026F00006D2401CC0B220730A2801D3257366732A
:10270000E5852586CD2001F02EFAF749DFF8DCE3D8
:10271000E0B1F7484FF6FF730268CE2A08D0CF2AFF
:1027200008D0D12A08D0D22A09D0D02A09D04DE029
:1027300023864BE0406807E04068E08546E0E3859B
:1027400044E04068E085C04320863FE0607B90B372
:1027500000221046BEF9003008E000BF00EB800701
:1027600001EB0717401C87F82860C0B29842F5DDDE
:10277000E04E0020B6F9006012E000BF00EB8007D9
:1027800001EB071797F802C0BCF1020F02D0BCF1B1
:10279000010F03D1521C87F82850D2B2401CC0B29E
:1027A000984201DAB242E9DBD348B0F900003C2894
:1027B0000CDA002008E009E000EB800201EB0212D5
:1027C000401C82F82850C0B29842F5DD00206326F4
:1027D000BEF900700CE000BF00EB800201EB0212BA
:1027E000936B1BB182F828605B1E9363401CC0B2E0
:1027F000B842F1DB6573E5720020C14D0146034626
:102800000246DFF8F8C2B5F9006016E002EB4205B7
:1028100005EBC2050CEBC50595F84670BF060AD559
:10282000E77A7F1CE772AF693B44EF69ED6A384491
:10283000294400B209B2521CD2B2B242E6DBE27ABB
:10284000002893FBF2F2AF4B1A8000DA0020AE4A68
:102850000029108000DA0021AC4801802BE570B51A
:10286000044607220121AA4801F0A9F904EB44001B
:1028700000EBC401A14800EBC1059A4895F8471048
:1028800095F8462000F15800514000D041700A40B0
:1028900000D0827001EA0203DB071ED0C178491C18
:1028A000C17034B1012C09D0022C0CD0032C0FD0F4
:1028B000E4E001231A460E2196A0DDE00123022266
:1028C0000E219BA0D8E0012303220E219FA0D3E07C
:1028D000012304220E21A4A0CEE08B0720D593076C
:1028E0001ED5C178491CC17034B1012C09D0022C0D
:1028F0000CD0032C0FD0C1E0022301220E21A1A095
:10290000BAE002231A460E21A5A0B5E00223032255
:102910000E21AAA0B0E0022304220E21AEA0ABE05B
:102920004B0720D553071ED5C178491CC17034B15F
:10293000012C09D0022C0CD0032C0FD09EE00323D5
:1029400001220E21ABA097E0032302220E21B0A0AA
:1029500092E003231A460E21B4A08DE00323042243
:102960000E21B9A088E00B0720D513071ED5C1782A
:10297000491CC17034B1012C09D0022C0CD0032C9D
:102980000FD07BE0042301220E21B6A074E00423C3
:1029900002220E21BCA06FE0042303220E21C3A05B
:1029A0006AE004231A460E21C9A065E0CB0620D5B3
:1029B000D3061ED5C178491CC17034B1012C09D091
:1029C000022C0CD0032C0FD058E0052301220E213D
:1029D000C8A051E0052302220E21CFA04CE0052320
:1029E00003220E21D5A047E0052304220E21DCA0FE
:1029F00042E08B0620D593061ED5C178491CC170D4
:102A000034B1012C09D0022C0CD0032C0FD035E0AE
:102A1000062301220E21DBA02EE0062302220E2136
:102A2000E1A029E0062303220E21E8A024E00623EA
:102A300004220E21EEA01FE001B3FAB9C178491CAF
:102A4000C17034B1012C09D0022C0CD0032C0FD052
:102A500014E0002301220E21EEA00DE0002302224B
:102A60000E21F1A008E0002303220E21F3A003E0D1
:102A7000002304220E21F6A016F032FD15F8460FB1
:102A8000687070BD70B5F7490020F74DB1F90C20A2
:102A90000121034601FA00F4224201D0295400E04A
:102AA0002B54401CC0B20C28F4D3F04C2878F04EC4
:102AB000217881420CD0B6F90010012908DB0128E9
:102AC0000ED0002301220B21EAA000BF16F008FD62
:102AD00061786878814204D0B6F900100229D3E108
:102AE00056E2DBE10C00001090E607202401001004
:102AF00084000010EA030010C800001030F6072020
:102B00002601001064C00720DA03001066C0072009
:102B10008D000010496E766572746F72202331202B
:102B2000416C61726D2C206F7665726C6F61640010
:102B3000496E766572746F7220233220416C617227
:102B40006D2C206F7665726C6F616400496E7665DE
:102B500072746F7220233320416C61726D2C206F70
:102B60007665726C6F616400496E766572746F721F
:102B700020233420416C61726D2C206F7665726C5D
:102B80006F616400496E766572746F722023312024
:102B9000416C61726D2C206F76657268656174009E
:102BA000496E766572746F7220233220416C6172B7
:102BB0006D2C206F7665726865617400496E76656C
:102BC00072746F7220233320416C61726D2C206F00
:102BD0007665726865617400496E766572746F72AD
:102BE00020233420416C61726D2C206F76657268F1
:102BF00065617400496E766572746F7220233120AE
:102C0000416C61726D2C206973207761726D0000D8
:102C1000496E766572746F7220233220416C617246
:102C20006D2C206973207761726D0000496E7665A6
:102C300072746F7220233320416C61726D2C206995
:102C400073207761726D0000496E766572746F72E1
:102C500020233420416C61726D2C206973207761D0
:102C6000726D0000496E766572746F722023312098
:102C7000416C61726D2C20766F6C746167652069A0
:102C80007320757000000000496E766572746F7273
:102C900020233220416C61726D2C20766F6C746140
:102CA000676520697320757000000000496E7665C5
:102CB00072746F7220233320416C61726D2C207608
:102CC0006F6C746167652069732075700000000087
:102CD000496E766572746F7220233420416C617284
:102CE0006D2C20766F6C7461676520697320757038
:102CF00000000000496E766572746F7220233120E7
:102D0000416C61726D2C20766F6C7461676520690F
:102D10007320646F776E0000496E766572746F720F
:102D200020233220416C61726D2C20766F6C7461AF
:102D3000676520697320646F776E0000496E766561
:102D400072746F7220233320416C61726D2C207677
:102D50006F6C7461676520697320646F776E000023
:102D6000496E766572746F7220233420416C6172F3
:102D70006D2C20766F6C7461676520697320646FB9
:102D8000776E0000496E766572746F722023312071
:102D9000416C61726D2C206F75747075742069734D
:102DA000206F666665640000496E766572746F72A6
:102DB00020233220416C61726D2C206F7574707508
:102DC00074206973206F666665640000496E7665DD
:102DD00072746F7220233320416C61726D2C206FEE
:102DE0007574707574206973206F66666564000081
:102DF000496E766572746F7220233420416C617263
:102E00006D2C206F7574707574206973206F666601
:102E100065640000496E766572746F7220233120FC
:102E20006973206E6F726D00496E766572746F7291
:102E3000202332206973206E6F726D00496E7665B3
:102E400072746F72202333206973206E6F726D006D
:102E5000496E766572746F72202334206973206E18
:102E60006F726D00BA6C001008050820CE6C00105F
:102E70002E0100104176746F6D617420233120693A
:102E800073204F464600000008DB01287ED0002357
:102E900002220B21FDA000BF16F022FBA178A8782A
:102EA00081420BD0B6F90010032907DB012879D045
:102EB000002303220B21FAA016F012FBE178E87838
:102EC00081420BD0B6F90010042907DB01286ED02F
:102ED000002304220B21F7A016F002FB21792879A8
:102EE00081420BD0B6F90010052907DB012863D019
:102EF000002305220B21F4A016F0F2FA617968791B
:102F000081420BD0B6F90010062907DB012858D002
:102F1000002306220B21F1A016F0E2FAA179A8798C
:102F200081420BD0B6F90010072907DB01284DD0EC
:102F3000002307220B21EEA016F0D2FAE179E879FE
:102F400081420BD0B6F90010082907DB012842D0D6
:102F5000002308220B21EBA016F0C2FA217A287A6E
:102F600081420BD0B6F90010092907DB012837D0C0
:102F7000002309220B21E8A016F0B2FA0020295CF8
:102F80002154401CC0B20C28F9D370BD05E009E003
:102F900001231A460B21E5A098E5012302220B210B
:102FA000E7A079E7012303220B21EAA084E70123AC
:102FB00004220B21ECA08FE7012305220B21EFA0B7
:102FC0009AE7012306220B21F1A0A5E7012307229E
:102FD0000B21F4A0B0E7012308220B21F6A0BBE7E8
:102FE000012309220B21F9A0C6E72DE9F041FC4F8E
:102FF000FC48FD4CB7F90010B0F90020B4F900000E
:10300000914202DD00F1010002E002DAA0F10100CC
:10301000208006220021F44800F0DCFDB4F9001005
:10302000F2480126052900DD06700024012900DA96
:103030000470EF48B7F90010EF4DB0F90020ED48EB
:10304000931E99420BDA90F900201E2A16DA521CC0
:1030500052B202701E2A11DB2A88521E0CE09142E5
:103060000BDD90F900201E2A08DA521C52B20270C1
:103070001E2A03DB2A88521C2A800470DF48B846C7
:10308000B0F90000814201DD142203E0DC48008831
:10309000093002B20021D84800F09CFDF02000F079
:1030A00062FD28B1D7480168F12901D14068288024
:1030B000B5F90010D448012901DC067000E0047065
:1030C000D248D34FB0F90000A0F1320128291BD813
:1030D000B8F90010CF4D814202DD2888401C2880BD
:1030E000CD48B0F90000814202DA2888401E2880CD
:1030F00006220021C74800F06DFDB5F90000052843
:1031000000DD3E70012800DA3C70C448C44FB0F9BD
:103110000000A0F132011E291BD8B8F90010C14DE2
:10312000814202DD2888401C2880BF48B0F9000099
:10313000814202DA2888401E288006220021B948F0
:1031400000F048FDB5F90000052800DD3E700128BB
:1031500000DA3C70BDE8F081F8B5B44C0021A079EC
:103160000A2807D2401CC0B2A0710A2802D3A1715C
:1031700001202072E079052805D2401CC0B2E07120
:10318000052800D1E171BE2000F0EDFCA84928B16E
:103190009C480268BF2A5BD1406858E0207A88B317
:1031A000A44A1078552805D05078552802D0A24856
:1031B00000884CE0A14D00204FF0140C6B466FF0DE
:1031C0001307165C552E0FD023F81070401CC0B2A8
:1031D0000228F6D3BDF90030BDF902209848934289
:1031E00015DD1A46036013E000EB400606EB0016FF
:1031F00005EB860696F80CE0BEF1000F03D023F82D
:1032000010C0E3E724E0768923F81060DEE702606F
:103210008C4B002A02DAB3F9000012E0282A01DD03
:1032200028220260884AB3F900300068B2F9002011
:10323000D21A02EB820252004243C82092FBF0F005
:103240001844A27B022A02D18048B0F9000008800D
:10325000B1F9000062214143642291FBF2F17C4B01
:1032600019806621484390FBF2F07A490880F8BD46
:103270002DE9F05F7A4E00207749DFF8E0814FF0CA
:103280000A0B8246B6F9003011E100004176746FF6
:103290006D6174202332206973204F464600000080
:1032A0004176746F6D6174202333206973204F461B
:1032B000460000004176746F6D61742023342069EC
:1032C00073204F46460000004176746F6D61742094
:1032D0002335206973204F46460000004176746F05
:1032E0006D6174202336206973204F46460000002C
:1032F0004176746F6D6174202337206973204F46C7
:10330000460000004176746F6D6174202338206997
:1033100073204F46460000004176746F6D61742043
:103320002339206973204F46460000004176746FB0
:103330006D6174202331206973204F4E20000000FE
:103340004176746F6D6174202332206973204F4E73
:10335000200000004176746F6D6174202333206972
:1033600073204F4E200000004176746F6D61742011
:103370002334206973204F4E200000004176746F83
:103380006D6174202335206973204F4E20000000AA
:103390004176746F6D6174202336206973204F4E1F
:1033A000200000004176746F6D617420233720691E
:1033B00073204F4E200000004176746F6D617420C1
:1033C0002338206973204F4E200000004176746F2F
:1033D0006D6174202339206973204F4E2000000056
:1033E000AE0100100A010010F603001038C00720DB
:1033F0000C01001036C00720BE0100100E010010A5
:10340000B801001084000010AC030010140100107B
:1034100037C0072086C007201601001010010010D9
:10342000AD030010F8030010120100100C00001092
:10343000B001001036010010F600001050E5072022
:1034400078C00720DC000010DE000010EE00001045
:1034500076C00720E8030010E0030010C50100104B
:103460002A010010FF4A125CFF4C34F91220B2F519
:10347000FA6F0A560DDA0A2A08DA521C52B20A54B6
:103480000A2A12DB012208F800200EE001F800B041
:103490000BE0002A07DB521E52B20A54002A04DC59
:1034A00008F800A001E001F800A0401CC0B298425A
:1034B000D8DB0024DFF8B493ED4DEE4F70E0EE481A
:1034C00030F81400002818F8040001D078B101E0A9
:1034D00001280CD019F90400002818DB401E40B266
:1034E00009F80400002814DC05F804A011E019F91B
:1034F00004100A2908DA491C49B209F804100A29FB
:1035000007DB0120285504E009F804B001E009F8C0
:1035100004A0395D285D81423ED0D84AD18C491C37
:10352000D184012807D014B3012C25D0022C28D037
:10353000032C2BD030E034B1012C09D0022C0CD05C
:10354000032C0FD028E001231A460F21CCA021E044
:10355000012302220F21CDA01CE0012303220F2111
:10356000CDA017E0012304220F21CEA012E00023FA
:1035700001220F21CEA00DE0002302220F21D1A0B5
:1035800008E0002303220F21D3A003E0002304223C
:103590000F21D6A015F0A4FF285D3855641CE4B2B5
:1035A000B6F9000084428ADBBDE8F09FD449D54AD1
:1035B0000120087010704870507070472DE9F05F5E
:1035C000D248DFF84CE3DFF840C3B0F90070BEF931
:1035D0000000AA4CC0EB0011BCF902506FF01D0AAC
:1035E0006FF0950B0026DFF81883B4F92C000AEB76
:1035F00081020BEB8103BD4204DCC64FB7F90070BA
:10360000BD4205DA824203DD834201DA88F80060B8
:10361000C14DE146BCF908C0B5F90050B94FBCEB4B
:10362000450F03DC6D42BCEB450F04DA824202DD3C
:10363000834200DA3E706FF0090202EB81017546A9
:10364000814220D1A07BF0B998F8000001281AD15E
:103650003878012817D14FF4D67017F0BBFCAF496A
:10366000B1F9001088420ED0AD48008858B199F8E1
:103670003D00C00707D14FF4D67017F0D9FDA94817
:103680000178491C0170A149B9F902204846B1F9F5
:1036900000108A4206DC9F49B0F94E20B1F90010B3
:1036A0008A420FDAB5F90010B4F92C20C1EB0111F0
:1036B0000AEB8103934205DD0BEB8101914201DAB4
:1036C00088F801609449B9F95400B1F90010B0EBE1
:1036D000410F03DC4942B0EB410F0EDAB5F90000AF
:1036E000B4F92C10C0EB00100AEB80028A4204DD12
:1036F0000BEB8000884200DA7E70B5F90000C0EB69
:1037000000116FF0090000EB8100B4F92C10884221
:1037100022D1A07B00BB98F8010001281CD1787849
:10372000012819D14FF4E576304617F053FC0246D4
:103730007A48B0F902108A420ED0794800880228EF
:103740000AD199F88900C00706D1304617F070FDFC
:1037500074480178491C0170B5F900006FF001014F
:10376000C0EB001001EB8000B4F92C10884202D1AC
:10377000BDE8F05F1AE717E72DE9F04F6A48DFF878
:10378000FC806B490378694898F90020B1F9001072
:10379000B0F9000088B023B1022B34D0012B5ED0E9
:1037A0006FE1644E584B347896F801C0B3F90A5073
:1037B0001F7BB3F9566093F8583022B1012A0FD11C
:1037C000552C14D10FE0552C03D1854248DC002F35
:1037D00046D1BCF1550F03D1864241DC002B3FD1CD
:1037E00008B0BDE8F08F8D42FADA002FF8D1BCF1B5
:1037F000550F36D18E42F3DA002B32D0F0E700BFFE
:1038000088F80000ECE74D4C4B4B94F803C0B3F93B
:103810000030676A656F009594F853500195D4F8AD
:10382000C450029594F8A3500395D4F8145104950C
:1038300094F8F3500595D4F86451069594F84351E3
:10384000AE46D4F8B451079594F89351D4F8546225
:10385000AB46D4F80452AA4694F8E35170E0EEE087
:10386000ECE0EAE00B200200486C001071C0072079
:10387000C9010010E4030010580200100C000010F1
:10388000534B20233120416C61726D00534B202338
:103890003220416C61726D00534B20233320416C08
:1038A00061726D00534B20233420416C61726D00B6
:1038B000534B20233120416C61726D206973206F5E
:1038C00066660000534B20233220416C61726D20EC
:1038D0006973206F66660000534B20233320416CD0
:1038E00061726D206973206F66660000534B202360
:1038F0003420416C61726D206973206F6666000030
:103900007CC00720EC03001050E50720E8030010FE
:10391000FC00001076C00720EC000010E801001049
:1039200022010010EE030010AC000010180100107E
:103930001A010010360100102401001090E6072043
:1039400094F83342B146C3B3874277DCBCF11E0F13
:1039500074D2012B05DD009E86426FDC019E1E2E77
:103960006CD2022B05DD029E864267DC039E1E2E72
:1039700064D2032B05DD049E86425FDC059E1E2E6D
:103980007FD2042B05DD069E86427ADCBEF11E0F37
:1039900077D2052B05DD079E864272DCBBF11E0F38
:1039A0006FD2062B03DD82456BDC1E2D69D2072BFF
:1039B00003DD814565DC1E2C63D2012A7FF41EAF36
:1039C000DBB38F42BFF61AAFBCF10A0FBFF416AFDC
:1039D000022B2BDB00988842F4DA01980A28F5D2F2
:1039E000032B23DB02988842ECDA03980A28EDD2F5
:1039F000042B1BDB04988842E4DA05980A28E5D2F8
:103A0000052B13DB06988842DCDABEF10A0FDDD203
:103A1000062B0BDB07988842D4DABBF10A0FD5D20C
:103A2000072B03DB8A45CDDA0A2DCFD2082B3FDBEB
:103A30008945C7DA0A2C3BD3D2E639E021E01E4C97
:103A40001C4BB4F90050B4F90260AA461B4DB3F9FF
:103A50000030B4F90440D5E900C7AD68B94693B168
:103A600082450EDCBCF1000F0BD1012B04DD864238
:103A700007DCB9F1000F04D1022B04DD844200DC25
:103A80000DB10120BCE6012AD6D18BB18A45D3DA2B
:103A9000BCF1000FD0D1022B04DB8E42CCDAB9F19D
:103AA000000FC9D1032B03DB8C42C5DA002DC3D133
:103AB0000020A5E6280100103A020010900408201A
:103AC00070B5374A0020A2F11401064601F10A033D
:103AD0000C5C54B11D5CAC4207D1145C2CB1641E6B
:103AE00014F0FF04145400D10E540C5C1C54401C00
:103AF000C0B20A28ECD370BD70B5294D0024143D26
:103B0000641CE4B22E5D1EB1864201D00A2CF7D3AC
:103B1000285523480C3040F82410283040F8242041
:103B20003438035570BD1E4A0021143A491CC9B2ED
:103B3000535C834201D00A29F8D3DBB2834210D10F
:103B400017480C3050F8213016480360144B3433BA
:103B500053F82130436000205054114A5054012042
:103B60007047002070470E4A0021143A491CC9B220
:103B7000535C834201D00A29F8D3DAB282420CD1D5
:103B800007480C3050F8212006480260044A3432BD
:103B900052F821104160012070470020704700005A
:103BA000F4E407208400001090F900308B4200DA22
:103BB000027090F90030934200DD0170704790F977
:103BC00000308B4200DA017090F90010914200DD64
:103BD00002707047B0F900308B4200DA0180B0F912
:103BE0000010914200DD02807047B0F900308B4236
:103BF00000DA0280B0F90030934200DD01807047A6
:103C000003688B4200DA02600368934200DD0160C2
:103C10007047000070B5F9480278F948016812B1A0
:103C200041F0010101E021F0010101600021F54CAA
:103C30005FF0010301EB410202EB011204EB82028F
:103C400092F83D20D20706D04D1C03FA05F2056814
:103C50009543154304E04A1C056803FA02F29543B4
:103C6000491CC9B205600229E4D3E74C002100BF1A
:103C700001EB810204EB0212527832B1CD1C03FA3F
:103C800005F205689543154303E0CA1C03FA02F2E6
:103C90009543491CC9B205600C29E9D32946D84D82
:103CA00000221435AC5C34B102F10F0603FA06F4BD
:103CB000A143214304E002F10F0403FA04F4A143F9
:103CC000521CD2B2062AEDD3D04D00220160AC5C6A
:103CD000012C2FD002F1190403FA04F4A143521C61
:103CE000D2B2042AF3D30160836821EA0302C260DE
:103CF00044681443C64A4460158815B124F0007422
:103D0000446054881CB1446824F080644460948802
:103D10001CB1446824F000644460D2881AB142683F
:103D200022F0805242608B43DA43BA4B02611B8817
:103D30003BB109E002F1190603FA06F4A14321435D
:103D4000CDE762F001020261036942681A40C0E9EE
:103D5000012170BDF8B54FF46065284617F03AF9B7
:103D6000401C04463F2800D9002421B2284617F001
:103D70005FFA40F60266304617F02CF93F2800D073
:103D8000204601B2304617F053FA284617F022F9C0
:103D90004FF4806101EB401555208DF800000024A0
:103DA0008DF8014052208DF802008DF803406946DD
:103DB000284617F0C2FA6946281D009417F0BDFA8C
:103DC000954E308B8DF80000307D8DF80100307AF3
:103DD0008DF802008DF80340694605F1080017F0E0
:103DE000ACFA30798DF8000030788C4E8DF80100F7
:103DF00030688DF802008DF80340694605F10C002B
:103E000017F09BFA41248DF800408DF801408DF8A1
:103E100002408DF80340694605F1100017F08DFA55
:103E20008DF800408DF801408DF802408DF8034078
:103E3000694605F1140017F080FA8DF800408DF8FE
:103E400001408DF802408DF80340694605F11800E5
:103E500017F073FA8DF800408DF801408DF802409C
:103E60008DF80340694605F11C0017F066FAFF2043
:103E70003060F8BD2DE9F843674D604A243D0026C7
:103E80002F154FF46061012802D000287DD036E163
:103E9000012010708846084617F09CF8401C044624
:103EA0003F2800D9002421B2404617F0C1F940F65E
:103EB0000269484617F08EF83F2800D0204601B22C
:103EC000484617F0B5F9404617F084F807EB40175D
:103ED00050208DF800008DF8016041248DF80240DB
:103EE0008DF803606946384617F027FA6946381D91
:103EF000009617F022FA05F12005A88B8DF8000036
:103F0000287E8DF80100287B8DF802008DF8036073
:103F1000694607F1080017F010FA287A8DF80000BA
:103F200028798DF8010028788DF802008DF803605B
:103F3000694607F10C0017F000FA8DF800408DF883
:103F400001408DF802408DF80340694607F11000EA
:103F500017F0F3F98DF800408DF801408DF802401C
:103F60008DF80340694607F1140017F0E6F98DF863
:103F700000408DF801408DF802408DF803406946FD
:103F800007F1180017F0D9F900E011E08DF80040B2
:103F90008DF801408DF802408DF80340694607F125
:103FA0001C0017F0CAF90023012202211CA0A4E082
:103FB00013481670B046026822F001020260154AEA
:103FC00012881AB1426822F001024260084617F0D6
:103FD00001F806463446B94609EB441769463846A7
:103FE00017F075F89DF8000050283ED19DF80100AB
:103FF000D8BB9DF80200412837D121E070C00720CE
:104000001CC0072050E5072090E60720C9010010DA
:1040100068020010E40000102440024080C10F40FC
:104020004D61696E20706F776572206973206F66CD
:1040300066000000641E00E03F24B442CCD15EE084
:10404000694607F1100017F042F89DF8000041287A
:104050000BD19DF80100412807D19DF802004128AD
:1040600003D19DF80300412802D0002CE4D0E1E701
:1040700005F12005A88B8DF80000287E8DF8010041
:10408000287B8DF8020044468DF80380694607F1CD
:10409000100017F052F9287A8DF8000028798DF871
:1040A000010028788DF802008DF80340694607F179
:1040B000140017F042F9FF48422401788DF80010EF
:1040C00040788DF801008DF802408DF80340694674
:1040D00007F1180017F031F98DF800408DF8014014
:1040E0008DF802408DF80340694607F11C0017F077
:1040F00024F901231A460221EFA015F0F1F900BFBF
:10410000BDE8F8832DE9F84F05460C004FF0540642
:104110000BD0012C04D0022C04D0032C04D004E0DA
:10412000552602E0752600E04C26E949DFF89CA3FD
:1041300005EB85034FF0000B4FF460604FF480698E
:1041400001EB0311012A02D0002A7DD090E134B1A5
:10415000012C08D0022C0AD0032C0CD00FE04A7896
:1041600042F001020AE04A7842F0020206E04A7890
:1041700042F0040202E04A7842F008024A7081F8F4
:104180004F40804616F026FF401C87B23F2F00D9D3
:10419000002739B2404617F04BF840F6026016F09F
:1041A00019FF80B23F2800D0384601B240F60260C5
:1041B00017F03EF8404616F00DFF09EB401087B2AD
:1041C00053208DF800008DF801508DF80260D8461C
:1041D0008DF803B06946384617F0AFF86946381DC8
:1041E000CDF8008017F0A9F8BAF83C000AF12006D3
:1041F0008DF80000307E8DF80100307B8DF80200D4
:104200008DF80380694607F1080017F096F8307AB8
:104210008DF8000030798DF8010030788DF80200BB
:104220008DF80380694607F10C0017F086F84126E7
:104230008DF800608DF801608DF802608DF80360E4
:10424000694607F1100000E084E017F076F88DF879
:1042500000608DF801608DF802608DF8036069469A
:1042600007F1140017F069F88DF800608DF801600F
:104270008DF802608DF80360694607F1180017F0A9
:104280005CF88DF800608DF801608DF802608DF8A3
:104290000360694607F11C0017F04FF825B1012DA6
:1042A00020D0022D3AD0E3E034B1012C09D0022C09
:1042B0000CD0032C0FD0DBE000230122042185A0C9
:1042C0000DE001231A46042188A008E00223012200
:1042D00004218DA003E003230122042192A015F004
:1042E000FFF8C5E034B1012C09D0022C0CD0032C0E
:1042F0000FD0BDE000230222042193A0EFE70123A9
:104300000222042196A0EAE702231A4604219BA078
:10431000E5E7032302220421A0A0E0E734B1012C49
:1043200009D0022C0CD0032C0FD0A1E000230322D3
:104330000421A2A0D3E7012303220421A5A0CEE7F4
:10434000022303220421AAA0C9E703231A46042159
:10435000AFA0C4E734B1012C08D0022C0AD0032C42
:104360000CD00FE04A7822F001020AE04A7822F0ED
:10437000020206E04A7822F0040202E04A7822F0C3
:1043800008024A7016F026FE84B2A04609EB4410DB
:1043900087B26946384616F09AFE9DF80000532809
:1043A00024D19DF80100A84220D19DF80200B0421E
:1043B0001CD1694607F1100016F089FE9DF8000037
:1043C000412813D106E0641EA4B200E03F24444516
:1043D000DCD14DE09DF80100412807D19DF8020095
:1043E000412803D19DF80300412802D0002CEDD0D4
:1043F000E9E7BAF83C000AF120048DF80000207EBD
:104400008DF80100207B8DF802005D468DF803B029
:10441000694607F1100016F090FF207A8DF8000031
:1044200020798DF8010020788DF802008DF8035076
:10443000694607F1140016F080FF42248DF8004011
:104440008DF801408DF802408DF80340694607F170
:10445000180016F072FF8DF800408DF801408DF8BD
:1044600002408DF80340694607F11C0016F065FF15
:1044700000BFBDE8F88F2DE9FC41064600EB460081
:1044800000EB06116A4800EB8104E08B052810D38D
:1044900068484FF460670088801D00F0070004EB57
:1044A0004000008CADF80400384616F093FD401C27
:1044B000C2E02CE1DE0300104D61696E20706F7761
:1044C0006572206973206F6E00000000004002409A
:1044D00090E6072042505320233120416C61726DD9
:1044E0002C206F766572686561740000425053201D
:1044F000233120416C61726D2C20766F6C74616782
:10450000652069732075700042505320233120418B
:104510006C61726D2C20766F6C74616765206973B5
:1045200020646F776E0000004250532023312041F9
:104530006C61726D2C20636F6E6E6563742069739D
:10454000206C6F73740000004250532023322041CE
:104550006C61726D2C206F76657268656174000005
:1045600042505320233220416C61726D2C20766FB3
:104570006C74616765206973207570004250532028
:10458000233220416C61726D2C20766F6C746167F0
:104590006520697320646F776E00000042505320DD
:1045A000233220416C61726D2C20636F6E6E6563E7
:1045B00074206973206C6F737400000042505320A4
:1045C000233320416C61726D2C206F7665726865B3
:1045D0006174000042505320233320416C61726D9E
:1045E0002C20766F6C74616765206973207570008C
:1045F00042505320233320416C61726D2C20766F22
:104600006C7461676520697320646F776E000000C9
:1046100042505320233320416C61726D2C20636F14
:104620006E6E656374206973206C6F737400000094
:1046300050E507209601001085B23F2D00D90025D6
:1046400029B2384616F0F4FD40F60268404616F0EE
:10465000C1FC80B23F2800D0284601B2404616F087
:10466000E7FD384616F0B6FC4FF4806101EB4010D0
:1046700085B242208DF800008DF8016057208DF83A
:10468000020000268DF803606946284616F055FEA4
:10469000A07F8DF80000E07F8DF801009DF80400F8
:1046A0008DF802009DF805008DF803006946281D6D
:1046B00016F043FE04F1340105F1080016F03DFE4A
:1046C00004F1380105F10C0016F037FEFF4CA08B09
:1046D0008DF80000207E8DF80100207B8DF802000F
:1046E0008DF80360694605F1100016F026FE207A69
:1046F0008DF8000020798DF8010020788DF80200F7
:104700008DF80360694605F1140016F016FE00BF2F
:10471000BDE8FC812DE9F84F0646ED48DFF8AC9383
:1047200006EB460202EB06124FF0000B4FF0420A76
:10473000A9F120094FF460674FF4806500EB820017
:10474000012902D000297ED01EE110F83D1F41F062
:1047500001010170384616F03DFC401C84B23F2C2C
:1047600000D9002421B2384616F062FD40F60268F6
:10477000404616F02FFC80B23F2800D0204601B200
:10478000404616F055FD384616F024FC05EB401067
:1047900085B28DF800A08DF8016043208DF80200ED
:1047A0005F468DF803B06946284616F0C6FD694697
:1047B000281D009716F0C1FDB9F83C0009F120044E
:1047C0008DF80000207E8DF80100207B8DF802001E
:1047D0008DF80370694605F1080016F0AEFD207AE9
:1047E0008DF8000020798DF8010020788DF8020006
:1047F0008DF80370694605F10C0016F09EFD41240A
:104800008DF800408DF801408DF802408DF803408E
:10481000694605F1100016F090FD8DF800408DF806
:1048200001408DF802408DF80340694605F11400FF
:1048300016F083FD8DF800408DF801408DF80240A0
:104840008DF8034000E021E0694605F1180016F0FC
:1048500074FD8DF800408DF801408DF802408DF810
:104860000340694605F11C0016F067FD16B1012EE4
:1048700005D089E001231A46052196A003E0012313
:104880000222052198A014F02BFE7DE010F83D1FB8
:1048900021F001010170384616F09CFB87B23C46BE
:1048A0004FEA050808EB441085B26946284616F021
:1048B0000EFC9DF80000422824D19DF80100B04272
:1048C00020D19DF8020043281CD106E0641EA4B24A
:1048D00000E03F24BC42E5D156E0694605F11000F6
:1048E00016F0F5FB9DF8000041280BD19DF8010062
:1048F000412807D19DF80200412803D19DF803000B
:10490000412802D0002CE4D0E0E7B9F83C0009F1DE
:1049100020048DF80000207E8DF80100207B8DF8AA
:1049200002005E468DF803B0694605F1100016F0EE
:1049300004FD207A8DF8000020798DF801002078A0
:104940008DF802008DF80360694605F1140016F039
:10495000F4FC8DF800A08DF801A08DF802A054465B
:104960008DF803A0694605F1180016F0E6FC8DF8F5
:1049700000408DF801408DF802408DF803406946F3
:1049800005F11C0016F0D9FC00BF72E52DE9F84FC7
:10499000DFF8388106464FF0000A4FF04209A8F1CF
:1049A00020084FF460604FF48065012902D000298F
:1049B0007DD037E106EB460101EB0612444907467C
:1049C00001EB820111F83D2F42F002020A7016F04D
:1049D00001FB401C84B23F2C00D9002421B2384690
:1049E00016F026FC40F6026B584616F0F3FA80B239
:1049F0003F2800D0204601B2584616F019FC384630
:104A000016F0E8FA05EB401085B28DF800908DF8AD
:104A1000016053208DF8020057468DF803A06946C7
:104A2000284616F08AFC6946281D009716F085FC7A
:104A3000B8F83C0008F120048DF80000207E8DF8C5
:104A40000100207B8DF802008DF80370694605F1A6
:104A5000080016F072FC207A8DF8000020798DF89D
:104A6000010020788DF802008DF80370694605F189
:104A70000C0016F062FC41248DF800408DF80140D6
:104A80008DF802408DF80340694605F1100016F0DC
:104A900054FC8DF800408DF801408DF802408DF8EF
:104AA0000340694605F1140016F047FC00E042E0BF
:104AB0008DF800408DF801408DF802408DF80340DC
:104AC000694605F1180016F038FC17E02040024056
:104AD00050E5072042415420233120416C61726D22
:104AE0002C206C6F7374000042415420233220410B
:104AF0006C61726D2C206C6F737400008DF8004037
:104B00008DF801408DF802408DF80340694605F1AB
:104B10001C0016F012FC16B1012E05D082E0022313
:104B200001220521FBA003E002231A460521FFA074
:104B300014F0D6FC76E016F04DFA87B23C46AB4650
:104B40000BEB441085B26946284616F0C0FA9DF872
:104B50000000422824D19DF80100B04220D19DF8E8
:104B6000020043281CD106E0641EA4B200E03F24EA
:104B7000BC42E5D156E0694605F1100016F0A7FAEF
:104B80009DF8000041280BD19DF80100412807D174
:104B90009DF80200412803D19DF80300412802D06E
:104BA000002CE4D0E0E7B8F83C0008F120048DF8D0
:104BB0000000207E8DF80100207B8DF80200564613
:104BC0008DF803A0694605F1100016F0B6FB207AB7
:104BD0008DF8000020798DF8010020788DF8020012
:104BE0008DF80360694605F1140016F0A6FB8DF8F8
:104BF00000908DF801908DF802904C468DF803904E
:104C0000694605F1180016F098FB8DF800408DF804
:104C100001408DF802408DF80340694605F11C0003
:104C200016F08BFB00BF24E4F3B5054600EB45000E
:104C3000C44900EB051001EB8000C34983B04FF479
:104C40006066B1F9001000EB4100B0F9220001905C
:104C5000304616F0BFF9401C04463F2800D9002416
:104C600021B2304616F0E4FA40F60267384616F0F4
:104C7000B1F93F2800D0204601B2384616F0D8FAE4
:104C8000304616F0A7F94FF4806101EB4014422042
:104C90008DF800008DF801504B208DF802000026A1
:104CA0008DF803606946204616F047FB9DF810001A
:104CB0008DF800009DF811008DF801009DF80400AA
:104CC0008DF802009DF805008DF803006946201D4F
:104CD00016F033FB4FF4FC7016F0B5F99B4D2946E6
:104CE000286004F1080016F028FB4FF4FE7016F05F
:104CF000AAF96860291D04F10C0016F01EFB944D02
:104D0000A88B8DF80000287E8DF80100287B8DF897
:104D100002008DF80360694604F1100016F00DFBE7
:104D2000287A8DF8000028798DF8010028788DF810
:104D300002008DF80360694604F1140016F0FDFAD4
:104D400005B0F0BD2DE9F84F814E0027203E351506
:104D50003C46BA464FF04209012802D0002871D0E3
:104D6000FCE04FF46067384616F034F9401C044606
:104D70003F2800D9002421B2384616F059FA40F6EF
:104D80000268404616F026F93F2800D0204601B2BE
:104D9000404616F04DFA384616F01CF905EB401562
:104DA0008DF800908DF801A05A208DF8020054462D
:104DB0008DF803A06946284616F0BFFA6946281DFB
:104DC000009416F0BAFA06F12006B08B8DF80000B8
:104DD000307E8DF80100307B8DF802008DF80340A5
:104DE000694605F1080016F0A8FA307A8DF800003F
:104DF00030798DF8010030788DF802008DF803408D
:104E0000694605F10C0016F098FA41248DF800402F
:104E10008DF801408DF802408DF80340694605F198
:104E2000100016F08AFA8DF800408DF801408DF8D8
:104E300002408DF80340694605F1140016F07DFA32
:104E40004EE0FFE74FEA050808EB4415694628469F
:104E500016F03DF99DF80000422803D19DF80200AC
:104E60005A2804D0ECB3641EBC42EDD176E069460A
:104E700005F1100016F02BF99DF800004128F1D142
:104E80009DF801004128EDD19DF802004128E9D1AB
:104E90009DF803004128E5D106F12006B08B8DF87E
:104EA0000000307E8DF80100307B8DF80200544602
:104EB0008DF803A0694605F1100016F03EFA307A2D
:104EC0008DF8000030798DF8010030788DF80200FF
:104ED0008DF80340694605F1140016F02EFA4C4691
:104EE00000E03DE08DF800408DF801408DF8024073
:104EF0008DF80340694605F1180016F01EFA8DF88A
:104F000000408DF801408DF802408DF8034069465D
:104F100020E0000042415420233120416C61726D39
:104F20002C20617373696D6574727900424154205D
:104F3000233220416C61726D2C20617373696D6541
:104F40007472790050E5072096010010740000107B
:104F50002040024005F11C0016F0EFF900BF14E5F7
:104F60003F2471E7FF49112008727047FE4908206D
:104F7000FE4A4870002000BF00EB800302EB0313E1
:104F80001B78052B04D0401CC0B20C28F4D370470A
:104F900048707047002801DA404200B2704710B5EF
:104FA0004FF4347016F016F8F14C207040F2D22015
:104FB00016F010F860704FF4357016F00BF8A07012
:104FC00040F2D62016F006F8E0704FF4367016F076
:104FD00001F8207240F2DA2015F0FCFF60724FF405
:104FE000377015F0F7FFA07240F2DE2015F0F2FFE7
:104FF000E0724FF4437015F0EDFF207140F20E3077
:1050000015F0E8FF60714FF4447015F0E3FFA071F4
:1050100040F2123015F0DEFFE07110BDD54810B53A
:10502000016821F0E06101604168D44AC1F30B13CB
:10503000D14C117824F81130491CC9B211700329E0
:1050400003D2016841F08071016010BD2DE9F04785
:105050000746DDE90A090E46DDE9085A01B21446A1
:105060009846982016F0E4F800219A2016F0E0F80F
:105070000021762016F0DCF80121CA2016F0D8F8BD
:105080003C21C22016F0D4F839B2782016F0D0F8BE
:1050900004EBD470401001B2C82016F0C9F831B248
:1050A0007A2016F0C5F821B27C2016F0C1F846210E
:1050B000C62016F0BDF850217E2016F0B9F80FFA80
:1050C00088F1822016F0B4F8BB21842016F0B0F8E5
:1050D0000021862016F0ACF80A21882016F0A8F8E6
:1050E0000FFA89F1DE2016F0A3F829B28C2016F011
:1050F0009FF8E8000A2190FBF1F001B28E2016F033
:1051000097F80121A02016F093F80121A22016F0B3
:105110008FF80121A42016F08BF8A021922016F020
:1051200087F80FFA8AF1942016F082F8032196206E
:1051300016F07EF83221CC2016F07AF82821CE2005
:1051400016F076F85521BC2016F072F81E21BE200C
:1051500016F06EF80121802016F06AF84621D02062
:1051600016F066F83C21D42016F062F81921D220FE
:1051700016F05EF85021D62016F05AF84621D820B5
:1051800016F056F85B21DA2016F052F85021DC2098
:1051900016F04EF87A4C0021B4F9000016F048F8E9
:1051A000784D0021B5F9000016F042F8764E4FF028
:1051B000FF373946B6F9000016F03AF8B4F90200A4
:1051C000002116F035F8B5F90200002116F030F88C
:1051D000B6F90200394616F02BF8B4F904000021A4
:1051E00016F026F8B5F90400002116F021F8B6F9FA
:1051F0000400394616F01CF8B4F90600002116F038
:1052000017F8B5F90600002116F012F8B6F90600F5
:10521000394616F00DF80A214FF4197016F008F807
:10522000BDE8F0470B214FF4187016F001B82DE9D6
:10523000FF4700210723182809D064224FF4167471
:10524000302810D03C2819D0DC2823D04FE0F0249F
:105250009622CDE90024CDE90231024616231146FB
:105260004FF4967013E04FF4F075CDE90025CDE9C9
:10527000023102462C231146204608E0CDE90024E5
:10528000CDE9023102463723114640F2EE20FFF706
:10529000DDFE2CE040F6980440F62A110220CDE90C
:1052A0000024CDE90201BB2340F60B1240F63E116B
:1052B00040F69210FFF7CAFE40F2BD11C82015F06B
:1052C000B7FF2146C42015F0B3FF1421922015F03A
:1052D000AFFF45F211614FF49E7015F0A9FF012157
:1052E000CA2015F0A5FFAA21BC2015F0A1FF274D6B
:1052F000AA21B5F9000015F09BFF254C2178254E19
:10530000B6F9000015F094FF217B234FB7F9000098
:1053100015F08EFFB4F91010DFF880A0BAF9000084
:1053200015F086FFDFF878800021B8F9000015F04D
:105330007FFFDFF870900021B9F9000015F078FFC9
:10534000B5F90200AA2115F073FF2178B6F9020021
:1053500015F06EFF217BB7F9020015F069FFB4F973
:10536000101021E0004002408C00001090E6072061
:105370008435082000400340680000100D00001034
:1053800078200200802002009020020020200200ED
:105390002C40024024200200282002001C20020091
:1053A000182002002C200200BAF9020015F040FF7C
:1053B000B8F90200002115F03BFFB9F9020004B072
:1053C0000021BDE8F04715F033BF70B5062015F099
:1053D00001FE002804DB062015F0FCFD022803DD99
:1053E0000021062015F024FFFF490878401CC0B2B8
:1053F0000870FE4C01250A2813D3FD480068C00739
:105400000FD1E07868B9062015F0E4FD022808DA2B
:10541000062015F0DFFD401C01B2062015F008FF44
:10542000E570B4F93C00B0F5616F07D3062015F0C4
:10543000D1FD18B10021062015F0FAFEED48816873
:105440007F22B2EB116F00D1E5708068C0F3074096
:105450007F2800D1E57070BDE4488030408B1C305F
:10546000C1B2E2482F3041720278521CD2B200F829
:105470002F298A4202D9142180F82F1090F82F008A
:10548000A0F114010F2917D200EB8001DA4800EBDC
:105490000110C1783C2905D2491CC9B2C170032949
:1054A00002D207E03C21C1700179032902D241797F
:1054B000491C4171C17801717047D04900200870C2
:1054C000487088703E31487070472DE9F04F0020D9
:1054D000CB4A85B04FF4F47104461454401C00B21A
:1054E0008842FADBC14DA87858B905F1800ABAF9AB
:1054F0001600A8B1012804D105F1AA0000785528AA
:105500000ED000214FF0140C7A2301FB03F001EBC5
:1055100081039B0001EB81041BB20CEB84046EE25F
:10552000B3484FF002064FF003070068C0071BD0D6
:10553000687F002817D0B3494FF03208CDE9021434
:10554000CDE90087032118234246084612F0B9FC32
:10555000AD48CDE90204CDE90087032118233222AA
:10556000084612F0AEFCB2E0BAF91800DFF89CB2BF
:10557000DFF884924FF00F08012852DB142300213A
:1055800000941A460846019412F0DFFB1223012111
:1055900000941A460846019412F0D7FB99F80200CD
:1055A000042807D09A49CDE902140F2302211A4694
:1055B000032018E099F80100C10708D0687F80B384
:1055C0000F23CDE902B402211A4603200BE010F0AC
:1055D000060F26D0687F20B38E480F23CDE9020442
:1055E00002211A460846CDE9008612F06AFC99F8B5
:1055F0000200012815D10B23002214210920009458
:1056000012F088F900235B221F210920009412F078
:1056100081F9687A04231330C1B20022092012F004
:10562000D1FBBAF91800022851DB142300941A4662
:1056300000211720019412F088FB122300941A46CF
:1056400001211820019412F080FB99F852000428DF
:1056500006D07149CDE902140F231A46022117E042
:1056600099F85100C10708D0687F80B30F23CDE9B6
:1056700002B402211A4619200BE010F0060F26D0C2
:10568000687F20B363480F23CDE902041A46022144
:105690001920CDE9008612F014FC99F85200012877
:1056A00015D10B23002214212020009412F032F98E
:1056B000002344221F212020009412F02BF9687A45
:1056C00004231330C1B20022202012F07BFBBAF871
:1056D0001600DFF848B14FF001094FF00A0A002820
:1056E0002BD000941423232200213220019412F0A5
:1056F0002CFB00940223032214213520019412F084
:1057000024FB00940223032214214F20019412F061
:105710001CFB9BF83D00D846C0070FD0687F0028CF
:105720000BD032213848CDE90017CDE902040A46F2
:10573000182300212B2012F0C4FBB7E00B2300221A
:1057400014214220009412F0E5F8002322221F21A8
:105750004220009412F0DEF8B8F90800002805DABB
:10576000687A042300221330C1B205E0687A04236A
:10577000C0F12200C1B20222422012F023FB287B9A
:105780000F287AD21D482630B0F90000A0F5AA41B2
:10579000553960D0B8F91000052190FBF1F0ADF853
:1057A00010001422002104A8FEF714FACDE9009499
:1057B000BDF9103020220021332012F0C6FAB8F8CB
:1057C00010000A2832D2CDE9009609230C220521C7
:1057D0003D2012F0BAFAB8F910100091CDE9014954
:1057E00002230FA205211DE002E407208C00001017
:1057F0001CC007200040044090E60720C2010010B2
:105800008E0008202F270200C527020097280200DB
:105810005B280200B52802007928020050E5072025
:10582000202500003D20CDF80C9012E064284FF0B8
:10583000090311D2CDE90096122205213A2012F077
:1058400084FAB8F9101003238DE85202FEA2052154
:1058500022E012F062FB29E0CDE900961822052132
:10586000372012F072FAB8F9101004238DE8920272
:105870000521F6A23720ECE7FFE7B8F908101E284B
:1058800091FBFAF001B2CDE90019484606D2CDE904
:1058900002700423EFA205213A20DAE7CDE9027075
:1058A0000523EEA21946352012F0DAFB00940E23F0
:1058B0001B2204215C20019412F047FA00231A1FD6
:1058C0000A215C20009412F025F8002304220A210A
:1058D0007620009412F01EF8002327221F21432077
:1058E000009412F017F86FF00D0300221F216920B9
:1058F000009412F00FF8E87AA846C0F12200C1B275
:1059000004230222692012F05DFAD64E4D4605238B
:10591000B6F90C10CDF80C9091FBFAF000B20090A3
:105920000421CDE90141D0A21621462012F0F5FA5A
:10593000B6F90E00642807DA8DE8A10004230721D8
:10594000C4A25D20039509E090FBFAF000B2039534
:105950008DE891000423BFA207215A2012F0DDFA3E
:1059600098F808104046491CC9B288F80810032965
:1059700022D30472417A491CC9B241720D2900D365
:105980004472817A491CC9B28172202900D3847281
:10599000C17A491CC9B2C1720F2900D3C472017BFC
:1059A00001F10101C9B201739BF83D20920706D5B0
:1059B0002D2901D388F80C4005B0BDE8F08F1E29D1
:1059C000F8D2F9E7A74DAA4FF435ED5C05EB450594
:1059D00017F81560165407EB4505401C6E781654F1
:1059E000401CAE781654401CEE781654401C2E799C
:1059F0001654401C6D791554401C5B1C1BB29C4214
:105A0000E0DC491C09B20429FFF67EADD4E72DE99C
:105A1000F04F984BDBB005221C680021E5072AA84F
:105A20004FF0010B03D094A12A9101210622984D39
:105A3000EE7946B197A640F8216001F1010102F12B
:105A40000102C9B2D2B2260708D598A640F8216053
:105A500001F1010102F10102C9B2D2B2E60608D594
:105A600098A640F8216001F1010102F10102C9B2DA
:105A7000D2B2A60608D599A640F8216001F101012D
:105A800002F10102C9B2D2B2660608D599A640F861
:105A9000216001F1010102F10102C9B2D2B2260670
:105AA00008D59AA640F8216001F1010102F1010236
:105AB000C9B2D2B2E60508D59AA640F8216001F134
:105AC000010102F10102C9B2D2B2A60508D59BA616
:105AD00040F8216001F1010102F10102C9B2D2B224
