:020000040000FA
:10000000D8310820E1000000E5000000E700000012
:10001000E9000000EB000000ED000000000000001F
:10002000000000000000000000000000EF000000E1
:10003000F100000000000000F3000000D3CC01003C
:10004000F700000079F50100A5F50100F7000000B8
:10005000F7000000B9200200F7000000F7000000E0
:10006000F7000000F7000000F7000000F7000000B4
:10007000F7000000F7000000F7000000F7000000A4
:10008000F7000000F7000000F7000000F700000094
:10009000F7000000F700000041580000F7000000E2
:1000A000F7000000931E0200F7000000F7000000B8
:1000B000E5270200F7000000F7000000F70000004D
:1000C000F7000000F7000000F7000000DFF80CD098
:1000D00022F050FC0048004715CE0100D83108201E
:1000E00005480047FEE7FEE7FEE7FEE7FEE7FEE71E
:1000F000FEE7FEE7FEE7FEE7CD000000FEE710B5F5
:1001000024F002FB24F08EFB24F080FB24F00EFB95
:10011000AFF30080BDE8104024F04ABB10B525F0D5
:100120005BF925F0CBFF25F0AFF9BDE8104025F0D5
:1001300027BB25F06FB824F037BE09B10020704707
:1001400023F08CBB0020704770B5374A0020A2F125
:100150001401064601F10A030C5C54B11D5CAC426B
:1001600007D1145C2CB1641E14F0FF04145400D1A8
:100170000E540C5C1C54401CC0B20A28ECD370BD59
:1001800070B5294D0024143D641CE4B22E5D1EB1EF
:10019000864201D00A2CF7D3285523480C3040F86A
:1001A0002410283040F824203438035570BD1E4AEE
:1001B0000021143A491CC9B2535C834201D00A2978
:1001C000F8D3DBB2834210D117480C3050F82130FD
:1001D00016480360144B343353F821304360002039
:1001E0005054114A505401207047002070470E4A65
:1001F0000021143A491CC9B2535C834201D00A2938
:10020000F8D3DAB282420CD107480C3050F82120E2
:1002100006480260044A343252F82110416001203D
:10022000704700207047000018670010B0C007201A
:100230000C4BDA601870597070470A4A116190705F
:1002400070470849088170470648B0F9081000292E
:1002500007D0491E09B20181002902D1084600F0E9
:10026000C0BF70470C00001090F900308B4200DADC
:10027000027090F90030934200DD0170704790F9F0
:1002800000308B4200DA017090F90010914200DDDD
:1002900002707047B0F900308B4200DA0180B0F98B
:1002A0000010914200DD02807047B0F900308B42AF
:1002B00000DA0280B0F90030934200DD018070471F
:1002C0000146002000E0401C0A5C002AFBD1704778
:1002D00010B5002200E0521C835C8C5CA34201D16B
:1002E000002BF8D1D8B2E1B2401A10BD00487047D7
:1002F0003C7902000048704714E60720FFFFFFFF2B
:10030000002801DA404200B270470020F84A20215C
:100310001154401CC0B2C828FAD370470146F44AB1
:100320000020401CC0B2135C8B4201D0C828F8D317
:10033000704710B50021EF4C0A2200BFB0FBF2F36A
:1003400002FB13006054491CC9B218460529F5D3B5
:1003500010BDF0B5E84B0121202719700521E54AB1
:10036000002601E01C7844B1541814F8015C25B94A
:10037000814202D904F8017C05E0541814F8015DAB
:10038000303525701E70491E11F0FF01EAD1F0BD15
:10039000FEB52B23002802DA404200B22D230025AF
:1003A0000A266C4690FBF6F706FB170060556D1C9D
:1003B0006DB238B20A2DF5DB012600250920202771
:1003C00000E046B114F800C0BCF1000F03D1904228
:1003D00001DD275405E0265C3036265400266D1CCE
:1003E000EDB2401E40B20028EBDA2D2B02D163554E
:1003F0006D1CEDB26AB168B205E0231813F8013C38
:100400002354401E40B29042F7DC2E206D1CA054B5
:10041000EDB20846FFF782FF0021B54A04E0635CB5
:10042000461A491C935549B2A942F8DBFEBDFEB5F8
:100430002B23002801DA40422D2300250A266C4692
:10044000074690FBF6F006FB107767556D1C6DB202
:100450000A2DF5DB012600250920202700E046B102
:1004600014F800C0BCF1000F03D1904201DD275405
:1004700005E0265C3036265400266D1CEDB2401E89
:1004800040B20028EBDA2D2B02D163556D1CEDB282
:100490006AB168B205E0231813F8013C2354401EEA
:1004A00040B29042F7DC2E206D1CA054EDB20846FD
:1004B000FFF734FF00218E4A04E0635C461A491CB2
:1004C000935549B2A942F8DBFEBDFEB52B260028A4
:1004D00001DA40422D2600240A276D46844690FB0F
:1004E000F7F007FB10CC05F804C0641C64B20A2CBA
:1004F000F4DB0127002009244FF0200C00E04FB16D
:1005000015F804E0BEF1000F04D19C4202DD05F8AD
:1005100004C005E02F5D30372F550027401CC0B2C6
:10052000641E64B2002CEADA2D2E02D12E54401C37
:10053000C0B26BB144B205E02E1916F8016C2E550D
:10054000641E64B29C42F7DC2E24401CEC54C0B202
:1005500001EB810102EB8101CAB20021644B04E08E
:100560006C5C561A491C9C5549B28142F8DBFEBDB1
:1005700070B50D4616461C46FFF7DBFE601CC0B288
:10058000FFF7E7FE05EB850006EB8000C1B2594A94
:10059000574B0020A04201D2155C5D5406D3155C78
:1005A000202D03D04CB15E1806F8015C491E401C9A
:1005B000C0B2C9B20528EDD370BD5D54F6E730B5C1
:1005C000044608461546FFF7A9FEFF2809D0484A09
:1005D0002178002905D04319641C401CD154C0B2B5
:1005E000F6E730BD70B50D461446FFF7A2FE601C5D
:1005F000C0B2FFF7AEFE2846FFF790FE3D4B3C4AE7
:10060000002124B95D5C202D01D015540FE0A142DA
:1006100001D25D5CF9E704D14FF02E0515545D5C05
:1006200002E05D5C202D02D0161806F8015C401E29
:10063000491CC9B2C0B20529E3D370BD801801D5E9
:10064000084402E0884200DB401AC0B270472DE93E
:10065000FE4F04460D464FF460601FF061FC62429D
:100660004021FFF7EBFF400100F58060044602A93E
:100670001FF0D3FC694604F108001FF0CEFC01A96D
:1006800004F10C001FF0C9FC2846FFF747FE0646A0
:100690009DF8080040273025DFF860B0DFF850A053
:1006A00020244FF0210C4FF02309552828D0CF22C9
:1006B000D123502873D0422872D0532871D04928B2
:1006C0006BD1C8210AF80610761CF1B2ED220AF8A7
:1006D0000120491CC9B2E2220AF80120491C9DF8F8
:1006E00009205046C9B2092A7ED231324254FEE373
:1006F000D8C2072030C4072035C40720004002407C
:100700009DF80A0052280ED1C2210AF80610761C64
:10071000F1B2EA220AF80120491CC9B2EB220AF818
:100720000120491CCEB25046B1E300BF9DF8012024
:1007300096F838309A4267D19DF8022096F82C300E
:100740009A42F8D14554491CC9B23A2200F801C076
:10075000491CC9B24254491CC9B24554491CC9B2CA
:100760004754491CC9B24254491CC9B200224554DD
:10077000491CC9B20AF801909DF804002121FFF735
:1007800031FF9DF8050000224021FFF72BFF9DF867
:10079000060000222321FFF725FFBDE8FE8F0BE0B6
:1007A00033E04BE39DF80110FD48002200EB81008F
:1007B0004021FFF704FFF0E70AF80620761CF1B2AB
:1007C00050460AF80130491CC9B20AF80140491CD8
:1007D000C9B20AF80140491CC9B20AF80140491CD3
:1007E000C9B20AF8014000E095E3491CC9B219E317
:1007F0009DF8013092F83860B3429CD19DF80230E8
:1008000092F82C2093429DD055E39DF80A0043288E
:100810007CD1C1210AF80610761CF1B2E0220AF858
:100820000120491CC9B2F2220AF80120491CCEB2AB
:100830009DF809105046092906D231318155761CA0
:10084000F1B2C022425419E0A1F109025A2A11D290
:10085000491C0A23B1FBF3F2904630328255761CD4
:1008600003FB1811F6B230318155761CF1B2C0226B
:10087000425406E08455761CF1B24454491CC9B276
:100880004454491CC9B25E464454491C9DF800209A
:10089000BBF83C30C9B29A4239D19DF8012096F894
:1008A00038309A4233D19DF8022096F82C309A4283
:1008B0002DD14554491CC9B23A2200F801C0491C47
:1008C000C9B24254491CC9B24554491CC9B2475423
:1008D000491CC9B24254491CC9B200224554491CA2
:1008E000C9B20AF80190491CCEB29DF8040021213A
:1008F000FFF778FE9DF8050000224021FFF772FE09
:100900009DF8060000222321FFF76CFE36E04454D8
:10091000491CC9B200224554491CC9B200F801C0A3
:10092000491CC9B24754491CC9B24454491CC9B2F4
:100930004454491CC9B24554491CC9B20AF8019033
:10094000491CCEB29DF802002121FFF74BFE9DF815
:10095000000000222321FFF745FE9DF80100401E04
:100960000C2802D301208DF801009DF801108C485D
:10097000002200EB81004021FFF721FE9DF80A00D4
:10098000532873D1C1210AF80610761CF1B2E02277
:100990000AF80120491CC9B2F2220AF80120491CB8
:1009A0009DF8092043235046C9B2092A09D23132A1
:1009B0004254491CC9B2C0224254491CC9B24354D2
:1009C0000FE0093A5A2A05D2C0224254491CC9B242
:1009D000435403E04454491CC9B24454491CC9B2AD
:1009E0004454491CC9B25E464454491C9DF8002039
:1009F000BBF83C30C9B29A4239D19DF8012096F833
:100A000038309A4233D19DF8022096F82C309A4221
:100A10002DD14554491CC9B23A2200F801C0491CE5
:100A2000C9B24254491CC9B24554491CC9B24754C1
:100A3000491CC9B24254491CC9B200224554491C40
:100A4000C9B20AF80190491CCEB29DF804002121D8
:100A5000FFF7C8FD9DF8050000224021FFF7C2FD09
:100A60009DF8060000222321FFF7BCFD36E0445428
:100A7000491CC9B200224554491CC9B200F801C042
:100A8000491CC9B24754491CC9B24454491CC9B293
:100A90004454491CC9B24554491CC9B20AF80190D2
:100AA000491CCEB29DF802002121FFF79BFD9DF865
:100AB000000000222321FFF795FD9DF80100401E54
:100AC0000C2802D301208DF801009DF80110344854
:100AD000002200EB81004021FFF771FD9DF80A0024
:100AE0005A285CD1C2210AF80610761CF1B2C7223E
:100AF0000AF80120491CC9B250460AF80140491CB5
:100B0000C9B25E460AF80140491CC9B20AF8014060
:100B1000491CC9B24454491CC9B24454491C9DF8EB
:100B20000020BBF83C30C9B29A423BD19DF801206D
:100B300096F838309A4235D19DF8022096F82C303C
:100B40009A422FD14554491CC9B23A2200F801C03B
:100B5000491CC9B24254491CC9B24554491CC9B2C6
:100B60004754491CC9B24254491CC9B200224554D9
:100B7000491CC9B20AF80190491CCEB29DF8040084
:100B80002121FFF72FFD9DF8050000224021FFF7EE
:100B900029FD9DF8060000222321FFF723FD38E000
:100BA000387002004454491CC9B200224554491C03
:100BB000C9B200F801C0491CC9B24754491CC9B2A6
:100BC0004454491CC9B24454491CC9B24554491C37
:100BD000C9B20AF80190491CCEB29DF80200212149
:100BE000FFF700FD9DF8000000222321FFF7FAFC2B
:100BF0009DF80100401E0C2802D301208DF8010051
:100C00009DF80110FE48002200EB81004021FFF713
:100C1000D6FC9DF80A0057287DD1C1210AF806109C
:100C2000761CF1B2E0220AF80120491CC9B2F22276
:100C30000AF80120491CCEB29DF8091050464FF029
:100C4000F00E092906D231318155761CF1B200F837
:100C500001E019E0A1F109025A2A11D2491C0A2324
:100C6000B1FBF3F2904630328255761C03FB18112B
:100C7000F6B230318155761CF1B200F801E006E0A1
:100C80008455761CF1B24454491CC9B24454491CE1
:100C9000C9B25E464454491C9DF80020BBF83C3064
:100CA000C9B29A423BD19DF8012096F838309A4259
:100CB00035D19DF8022096F82C309A422FD1455418
:100CC000491CC9B23A2200F801C0491CC9B24254B9
:100CD000491CC9B24554491CC9B24754491CC9B240
:100CE0004254491CC9B200224554491CC9B20AF8F1
:100CF0000190491CCEB29DF804002121FFF772FC3F
:100D00009DF8050000224021FFF76CFC00229DF8B1
:100D10000600232100E039E0FFF764FC36E044548C
:100D2000491CC9B200224554491CC9B200F801C08F
:100D3000491CC9B24754491CC9B24454491CC9B2E0
:100D40004454491CC9B24554491CC9B20AF801901F
:100D5000491CCEB29DF802002121FFF743FC9DF80B
:100D6000000000222321FFF73DFC9DF80100401EFA
:100D70000C2802D301208DF801009DF80110A04835
:100D8000002200EB81004021FFF719FC9DF80A00CA
:100D90004B287FF410ADC1210AF80610761CF1B281
:100DA000E0220AF80120491CC9B2F2220AF8012007
:100DB000491C9DF80900C9B209280BD231300AF844
:100DC0000100491CC8B2EA210AF80010401CC0B258
:100DD000E52115E0A0F109025A2A16D2401C0A2387
:100DE000B0FBF3F2904630320AF80120491C03FBB5
:100DF0001800C9B230300AF80100491CC8B2EA2113
:100E00000AF80010401CC1B20BE00AF80140491C6E
:100E1000C9B20AF80140491CC9B20AF80140491C8C
:100E2000C9B250465A464454491C9DF80030BBF89C
:100E30003C60C9B2B3423FF4DBAC3CE0C1210AF8EC
:100E40000610761CF1B250460AF80120491CC9B2BE
:100E50000AF80130491CCEB29DF80910092902D2C6
:100E60003131815514E0A1F109025A2A0FD2491CEF
:100E70000A23B1FBF3F2904630328255761C03FB15
:100E80001811F6B230318155761CF1B205E0845567
:100E9000761CF1B24454491CC9B25E464454491C04
:100EA000C9B24454491C9DF80020BBF83C30C9B27B
:100EB0009A423FF43BAC4454491CC9B24554491CC6
:100EC000C9B200F801C0491CC9B24754491CC9B293
:100ED0004454491CC9B24454491CC9B24554491C24
:100EE000C9B200220AF801909DF8020000E025E056
:100EF0002121FFF777FB9DF8000000222321FFF757
:100F000071FB9DF80100401E0C28FFF44BAC012042
:100F10008DF8010046E4A2F109035A2B0DD2521CB0
:100F20000A25B2FBF5F303F130064654491C05FBD4
:100F30001322C9B23032425403E04454491CC9B2AE
:100F40004454491CC9B20AF8014026E470B504466D
:100F5000084615461E46FFF7E1F92A4B0146FF28D1
:100F600004D106E01A54641C401CC0B22278002A46
:100F7000F8D125480078002804D0002E02D029445A
:100F80005F20585470BD2DE9FF4F8146DDE90D0407
:100F90008A469346FFF7C2F92022DFF86C80194990
:100FA0000A234FF0640C012C09D198F8005035B198
:100FB0000D18A5F10E05AA706A702A7026E099FB3B
:100FC000F3F603FB16970D183037A5F10E05022C2A
:100FD000AF7096FBF3F703FB176606F130066E70F1
:100FE00099FBFCF606F1300605F80E6B0ED198F869
:100FF00000605EB1A5F10A05AA706A702A7027E048
:1010000038700200D8C20720F4C007209AFBF3F61C
:1010100003FB16A70D183037A5F10A05032CAF7096
:1010200096FBF3F703FB176606F130066E709AFB2A
:10103000FCF606F13006674605F80A6B08D198F809
:1010400000602EB1A5F10605AA706A702A7022E030
:101050009BFBF3F603FB16B70D183037A5F1060519
:10106000042CAF7096FBF3F703FB176606F130060E
:101070006E709BFBFCF606F13006674605F8066BC2
:1010800009D198F8004034B1A5F102050A546A70FC
:101090002A70BDE8FF8F039C94FBF3F203FB12441C
:1010A00030340C5492FBF3F403FB14220844A0F1F7
:1010B000020030324270039991FBF7F101F13001E7
:1010C0000170E6E717B501EB810002EB8000C2B2C8
:1010D0009DF80030B44803F00F0100EB1313445C9B
:1010E000B2498C54521ED2B21B788B549DF80130F9
:1010F000521E03F00F04D2B2045D8C54521E00EB5A
:101100001313D2B21B788B549DF80230521E03F099
:101110000F04D2B2045D8C54521E00EB1313D2B2F2
:101120001B788B549DF80330521E03F00F04D2B28B
:10113000045D8C54521E00EB1310D2B20078885418
:101140001EBD01EB810102EB8101974A10B500F051
:101150000F03C9B2D45C954B02EB10105C54491ECE
:10116000C9B20078585410BD30B5914901238F4D54
:1011700091F9012091F9041000EB80048A4202D118
:1011800005F8243030BD894D4C1C00EB800005EB88
:101190008000A24201D1037530BD8C1CA24202D155
:1011A00080F8283030BDCC1CA24202D180F83C30FF
:1011B00030BD0C1DA24202D180F8503030BD4C1D14
:1011C000A24202D180F8643030BD8C1DA24202D10F
:1011D00080F8783030BDC91D8A42FBD180F88C3050
:1011E00030BD744B1A88521E104400B21880724AE7
:1011F00000EB800002446E481368036012790271AC
:101200004278114441707047F0B56A4D6A4FB5F9A4
:10121000004004EB8406641C2C80654C3E44256829
:10122000356025793571207061702271A370F0BD31
:10123000F0B505460E461746FFF767F85B4C0020F1
:10124000401C15F8011BC0B204F8011B1428F7D389
:101250005FF00000401C16F8011BC0B204F8011B2F
:101260001428F7D35FF00000401C17F8011BC0B230
:1012700004F8011B1428F7D35FF00000401C13F89A
:10128000011BC0B204F8011B1428F7D3F0BD10B540
:10129000029CFFF7CDFF4648C378827841788F20C3
:1012A000FFF7B2FF642094FBF0F0BDE81040C0B23D
:1012B000FEF7C7BF2DE9FE4340010D4600F58060F3
:1012C000044602A91EF0A9FE694604F108001EF0BA
:1012D000A4FE01A904F10C001EF09FFE2846FFF7B2
:1012E0001DF8324C202530262554401CC0B24FF04A
:1012F00021082654401CC0B24FF0400C04F8008076
:10130000401CC0B2232104F800C0401CC0B200221F
:101310002554401CC0B22554401CC0B22654401C69
:10132000C0B22154401CC7B29DF802002121FFF732
:1013300059F99DF8000000222321FFF753F99DF889
:101340000100401E0C2802D301208DF801009DF8F9
:1013500001001A49002201EB80004021FFF72FF91C
:10136000E5557F1CF8B23A212654401CC0B2002239
:1013700004F80080401CC0B22154401CC0B221219E
:101380002654401CC0B204F800C0401CC6B29DF8F0
:101390000400FFF727F99DF8050000224021FFF720
:1013A00021F9A555BDE8FE83B6700200D8C207201A
:1013B00058C2072016C10720746700103870020059
:1013C0002DE9FF41FB4C00270546A776A07D0121B2
:1013D000022805D0F84A525D552A04D065200EE057
:1013E000A176BDE8FF8105EB450202EB0513F34A48
:1013F00002EB830696F83D20D30702D06620A07644
:10140000EFE796F83F309B0701D56720F7E7920793
:1014100001D56820F3E7EA4AB6F90830B2F90020AE
:10142000934201DD6920EAE75242934201DA6A20E1
:10143000E5E7012804D1E07D00287ED001287DD099
:101440006420A076A175A4F856104FF4F8701EF031
:101450005BFEE5752946A4F858504FF4FA701EF06B
:1014600053FED848B761002130F915001EF04CFE3C
:101470002776A4F85A7039464FF4FB701EF044FEEC
:10148000D148D24D0088401C00F0070006EB400018
:10149000008CADF80000A88B8DF804004FF06302BB
:1014A0004FF0010101A8FEF7EAFEC24C9DF80400CE
:1014B0009C342070287E8DF804000C22012101A8A4
:1014C000FEF7DDFE9DF804006070287B8DF80400B7
:1014D0001F22012101A8FEF7D2FE9DF80400A07092
:1014E0009DF80000E0704FF4FC7021681EF047FE8C
:1014F000287A8DF804001722002101A8FEF7BFFE0C
:101500009DF80400207128798DF804003B22002109
:1015100001A8FEF7B4FE9DF80400607128788DF8EC
:1015200004003B22002101A8FEF7A9FE9DF804005B
:10153000A0719DF80100E07101E006E007E04FF4C2
:10154000FE7061681EF01BFE4BE76B2057E76C20B6
:1015500055E72DE9F047974CA07D01287ED1204624
:101560000127C07D217EC0F1010207FA02F0954EED
:10157000924D02B211B1012933D037E01423CA21B0
:10158000C820FEF7FDFD14234FF0FF32CE21CD2001
:10159000FEF7F6FDE07D00EB400101EB001005EBEE
:1015A0008000B0F90800FEF7ABFEE17D01EB4102DF
:1015B00002EB011205EB82029369184448F6A0433E
:1015C0009061984212DBC01A906136F811001EF04B
:1015D000A7FC401C01B2E07D36F910001EF094FD1E
:1015E00004E01423CA21C820FEF7CAFDE07DA84606
:1015F00000EB400101EB001205EB8201744AB1F9E6
:1016000002100025B2F900204FF4F87902EB8202B3
:10161000B1EB420F42DAB4F85210491C09B2A4F8F7
:1016200052101E293CDBA17D012921D1217EF9B96F
:1016300036F810001EF074FC01B26648E27D30F905
:1016400012001EF061FDE07D36F810001EF068FC0F
:1016500081B2E07D03F012FF5F4800E041E0E17DF0
:1016600030F9110000211EF04FFD3220A083E083ED
:10167000E07D5149C0F10100085C552807D0A575EF
:10168000A4F85650002148461EF03EFD08E027769B
:10169000A4F85A7001214FF4FB70F5E7A4F85250FA
:1016A000E17D01EB410000EB0112C1F1010101EB11
:1016B000410303EB011108EB820208EB8100B2F950
:1016C0000220B0F9020082420BDB207E012808D103
:1016D000A575A4F856504846BDE8F04700211EF015
:1016E00013BDBDE8F08770B5324C05460026A07DDD
:1016F000F0B9022104F8161F4FF4F870A4F8401056
:101700001EF002FDC5EB0510810025870D46E1871F
:101710004FF4F9701EF0F8FC29464FF4FF701EF0EC
:10172000F3FC00206087A0860126304603F034FFDA
:10173000304670BD10B51F4CA07D022812D104F1B7
:101740001604208F03F028FF0020A08620876087E2
:101750002070A4F840000146BDE810404FF4F87036
:101760001EF0D2BC10BD70B5184C203C94F8380067
:101770001A4D297808440C2803D9A08F401C01B2C7
:1017800001E0B4F93C10B8201EF0BEFC94F838100B
:10179000287801440C2994F8381000D90C380144F9
:1017A000B6201EF0B1FC94F82C001C2818D91C217E
:1017B00018E0000008C007208CC1072078E7072048
:1017C00038C10720AC690200ECC10720204002406C
:1017D00032C10720C8690200A8690200FCC00720C6
:1017E00094F82C10B4201EF08FFC04F12004217A10
:1017F0004FF0AE001EF088FC2179B0201EF084FC72
:101800002178BDE87040B2201EF07EBC10B5FF48C4
:10181000FF4C007830B3FF48818FFF4A1288914215
:1018200020D190F83810FD4A128891421AD190F8D0
:101830002C10FB4A1288914214D190F82810F94AD2
:10184000128891420ED190F82410F74A12889142E2
:1018500008D190F82000F5490988884202D101207A
:10186000607602E0607E00280BD0F1480088C0B2AC
:10187000FFF739FF002804D000206076BDE8104053
:1018800071E710BD70B5E24CA07D02283FD1B4F8DD
:101890004C004FF461610025884212D2401C80B296
:1018A000A4F84C0088420CD3A4F84C50B4F84E0075
:1018B00038B1401E24F84E0F6088401C6080A4F1AF
:1018C0004E04B4F84A003C2821D2401C80B2A4F84F
:1018D0004A003C281BD324F84A5F6089401E01B2AD
:1018E00061814FF4F9701EF00FFC6089A4F14A0485
:1018F00000280CD1A5750146A4F856504FF4F87095
:101900001EF002FCBDE87040002003F045BE70BD33
:101910002DE9F05FDFF8F892C6480026B9F83E10CE
:10192000C54F491C09B2A9F83E10B0F90000C34DDB
:10193000C0EB00124FF0010B09F144044FF00A080C
:10194000B1EB820F51DBF0B3A9F83E602670DFF8EF
:10195000F0A2667089F810609AF80000552811D13D
:10196000B5F9020050280DDDB5F90800FEF7C8FCF6
:10197000B7F90010884203DB95F83D00C00701D09D
:1019800084F800B09AF80100552811D1B5F94E003D
:1019900050280DDDB5F95400FEF7B2FCB7F9001080
:1019A000884203DB95F88900C00701D084F801B0B4
:1019B000A448007848B999F81110484629B1817DAA
:1019C00041B1022900E010E004D02670667089F869
:1019D000106008E0217801291DD0617801291AD012
:1019E000017C012917D0A9F840604846B9F9401098
:1019F000DFF81C92DFF850A209F16009F1B38346C9
:101A00000246491E08B2A2F84000052806DD0F2351
:101A10001E22642107E0A9F84080E6E700281BDDCC
:101A20000F231E226921E120FEF7AAFBBBF840002C
:101A3000052811D1B5F90800FEF762FCA9F80000ED
:101A4000B5F95400FEF75CFCA9F80200BAF90000F1
:101A5000FEF756FCABF822006D48B0F840000028B5
:101A600041D1AB46B5F90800FEF74AFC684D643534
:101A70002880BBF95400FEF743FC00E038E06880A2
:101A8000BAF90000FEF73CFCDFF884A1AAF82400B4
:101A9000AAF84260B9F90000B5F900100844B7F996
:101AA0000010884202DA2078012817D0BBF9020022
:101AB000C82804DD00212670084603F055FAB9F95C
:101AC0000200B5F902100844B7F90010884202DAA2
:101AD0006078012805D0BBF94E007AE0AAF8428070
:101AE000EDE7AAF84280BDE8F09F6670002107E1AB
:101AF000B0F94210E9B380460246491E08B2A2F886
:101B00004200052803DD0F23C822642104E00028D9
:101B10001BDD0F23C8226921E120FEF731FBB8F855
:101B20004200052811D1B5F90800FEF7E9FBA9F834
:101B30000000B5F95400FEF7E3FBA9F80200BAF97A
:101B40000000FEF7DDFBA8F822003148B0F84200A3
:101B50000028C8D1DFF8E480B8F90800FEF7D0FB10
:101B60002B4D64352880B8F95400FEF7C9FB688016
:101B700000E037E0BAF90000FEF7C2FBDFF8908022
:101B8000A8F8240088F80F60B9F90000B5F9001032
:101B90000844B7F90010884202DA207801281BD0E7
:101BA0002648B0F90200C82804DD00212670084646
:101BB00003F0DAF9B9F90200B5F902100844B7F9EF
:101BC0000010884202DA6078012808D01B48B0F97A
:101BD0004E00C82889DC86E788F80FB0EAE788F865
:101BE0000FB080E78146C07B0028F4D00F2300228D
:101BF0006E21E120FEF7C4FAB5F90800FEF780FB7C
:101C0000B7F90010884228DD20781FE0FCC00720CB
:101C100008C00720004002409AC1072098C1072051
:101C200096C1072090C1072092C1072094C10720C8
:101C30009CC1072048C1072038C1072078E707204A
:101C40008CC1072002C10720EEC10720012804D162
:101C500000212670084603F087F9B5F95400FEF715
:101C60004FFBB7F90010884206DD6078012803D1E8
:101C70006670002103F078F9207830B9607820B9D7
:101C800099F8101009B989F80F60E620FEF78FFA6D
:101C900018B1F9480068E7280AD0F848F849B0F9BF
:101CA0000000B1F9001000EB8000B1EB400F92DAB8
:101CB00089F80F602078F34E01280FD1B7F90000A2
:101CC000410091FBF8F0B6F90010884206DA95F869
:101CD0003D00C00702D1012103F046F960780128D8
:101CE0007FF479AFB7F90000410091FBF8F0B6F945
:101CF00000108842DBDA95F88900C007F0D1012195
:101D0000BDE8F05F012003F02FB970B5DE4CA08F65
:101D1000401C00B2A087B0F5E16F02DB0020A08775
:101D200070BDB0F5DF6F11D90F2301226421D220DD
:101D3000FEF726FA0F230022D821D720FEF720FA3B
:101D40000F230022D821DC20FEF71AFAB4F93C0058
:101D5000A0F5E0610739E3D1CC4ECD4CCD4D3088B4
:101D60002188884205D0B4F90010B5F900001EF0B2
:101D7000CBF9708861888842D2D0B4F90210B5F9E5
:101D80000200BDE870401EF0BFB910B5C24C082279
:101D900000212088401C20802046FEF786FABF489C
:101DA000B4F9001000EB410142880A84B0F84E00FB
:101DB000A1F86C0010BD70B5BA48B94DB0F900304B
:101DC000B948B5F9002090F900109A421BDAB74CD7
:101DD0000A290EDAB64BB3F900300F2B0BDD491C84
:101DE00049B201700A2906DB2280012002F06EFC54
:101DF00001E00A210170B5F90000B4F90010884231
:101E000000DA208070BDFDDD0029FBD0491E49B2FB
:101E100001700029F6DCBDE87040002002F056BCDD
:101E20002DE9F05FDFF88CA20A21974FBAF8000085
:101E3000DFF884C2B0FBF1F201FB12013C8DDFF848
:101E40007C9241F2707539B9B0F5166F04D0B0F5D7
:101E5000965F01D0A84261D199499A4A9A4B99F864
:101E60007063B1F90010B2F90020B3F90030DFF867
:101E70005CB2DFF85CE24846072E25D04C4394FB69
:101E8000FCF0944908809449B1F90600504390FB56
:101E9000F5F0ABF80000B1F91400584390FBF5F0F1
:101EA000AEF800008B48B0F900107D480180BBF906
:101EB00000208A4200DA0280BEF90010B0F900204A
:101EC000914233DA018031E000F27630DFF8B8C1B8
:101ED000047846780CF1880C04EB06241FFA84F889
:101EE000ACF800808478C67808FB01F804EB06247F
:101EF000A6B2ACF80260047999F87B0398FBF5F17F
:101F000004EB0020734C80B2ACF80400218006FB87
:101F100002F696FBF5F1ABF80010BEE76F4860499A
:101F2000B0F90000444394FBFCF00880DFF8A8B14E
:101F3000DFF8ACC14FF4FA66BBF90020BCF9001021
:101F4000564C514391FBF6F1664B6180BBF908207A
:101F5000B3F900104FF42F78514391FBF8F1A180B1
:101F6000BBF91820BCF90210514391FBF6F1A4F81B
:101F70004E10BBF90200B3F90210414391FBF8F097
:101F8000A4F85000DC20FEF732F9E8BBDFF800E1EE
:101F90003E4945F63868BEF80000098845F2FA5314
:101FA000401A514945F2136CB1F900104143BAF897
:101FB0000000404503D0A0F5BC42923A02D14FF454
:101FC00096720CE0984205D0604503D0A0F5AC4273
:101FD000113A02D191FBF6F103E04FF47A7291FBD2
:101FE000F2F12A4A2181BEF8021052888A1A3E492B
:101FF000B1F902105143404503D0A0F5BC42923ADA
:1020000003D14FF496700DE010E0984205D0604582
:1020100003D0A0F5AC42113A02D191FBF6F003E0F7
:102020004FF47A7091FBF0F0A4F85400BBF90C1057
:10203000D8468C46A1F2213140F6B73B0122002060
:10204000594501D2207300E02273DFF8A0E044F686
:102050002063BEF9001001FB0CF191FBF3F1A1F23A
:1020600011116181B8F90E108C46A1F22131594548
:102070003ED284F858003DE0B0C0072032C10720AE
:10208000F0C10720F2C1072008C007202800001077
:10209000D2E50720D4690200ECC1072078E70720C9
:1020A000F6C1072034C107204C00001036C40720B9
:1020B00014C107208EC10720B0AD0100B8E8072089
:1020C00018C40720380000101AC40720FAC10720DE
:1020D000FCC10720F8C10720C466001010C4072007
:1020E0002400001008C407200CC407202C00001096
:1020F00084F85820BEF9021044F6206E01FB0CF162
:1021000091FBFEF1A1F21111A4F85610FF49DFF87E
:1021100000C4B1F90010022902D0042919D056E0F8
:10212000BCF92810052906DABCF81E1019B9BCF84C
:10213000141061812073BCF95210052947DABCF8EC
:102140004810F1BBBCF83E10A4F8561084F85800B3
:102150003DE0BCF928306FF013084146052B05DA45
:10216000BCF81E3013B9BCF914102073BCF95230FE
:10217000052B08DABCF848302BB9BCF93E308B424D
:1021800001DD2073194611F1140300D06181BCF9FF
:102190007C10052906DABCF8721019B9BCF9688000
:1021A00084F85800BCF9A610052909DABCF89C107F
:1021B00031B9BCF99210414502DD84F858008846D7
:1021C00000E004E018F1140101D0A4F85680DFF813
:1021D0004483D14BB8F90410B3F90030594391FB53
:1021E000F6F1CE4B1980B8F90A30CD499C46A3F2DE
:1021F00021335B4501D2086000E00A60C94BC34649
:10220000F046B3F90030DFF820E303FB0CF393FB57
:10221000F8F3A3F21113AEF80030BBF9143040F616
:10222000B7369C46A3F22133B34201D2486000E0A6
:102230004A60BC4B40F6B736B3F9023003FB0CF3EF
:1022400093FBF8F3A3F211131BB2AEF802309B46D6
:10225000B04BB3F906309C46A3F22133B34201D20E
:10226000886000E08A60AF4AB34EB2F9042002FBF6
:102270000CF292FBF8F2A2F2111213B2AEF8043093
:10228000DFF8A8C2AA4A9E46BCF80030B2F9002086
:102290004FF47A685A4392FBF8F2A64B92B2642A42
:1022A0001A8001D3A54A12883280BCF80260A04A85
:1022B000DFF894C2B2F90220724392FBF8F25A801E
:1022C0009F4ADFF88082B2F90060B8F900307343AA
:1022D00093FBF5F3ACF80030B2F90260B8F90230C4
:1022E000734393FBF5F3ACF80230B8F90430B2F95C
:1022F0000460DFF85882734393FBF5F3ACF80430C5
:10230000B2F90660B8F90030DFF844C2734393FBBA
:10231000F5F3ACF80030B2F90860B8F90230734355
:1023200093FBF5F3ACF80230B2F90A20B8F90430A7
:10233000884E534393FBF5F2ACF804200BF21112D4
:1023400013B20EF21112338015B275804A6812F082
:10235000FF0232728968C9B271727F4E04D0012ABD
:102360000ED012B10DD020E011B1012910D01CE027
:10237000591901EBD1716FF4887202EB610113E01E
:1023800011B1012908D010E0A5F2111535800CE03B
:10239000A3F21113338008E070490978052902D2AD
:1023A0006F49098800E0142131806E490A78552A66
:1023B00005D1B4F90220C82A01DD22893A8749787B
:1023C00055290AD1B4F94E10C82906DDB4F95410C4
:1023D000B4F90820914200DD3987BAF80010A1F560
:1023E000AC422F3A03D0283201D0143A02D15E49D0
:1023F000098839875D490022B1F900302DE000BF1E
:1024000002EB820509EB0511CD78192D1CD28D79CF
:10241000CE7905EB06250D620D7A4E7A05EB062581
:10242000CD618D7ACE7A05EB06258D610D7B4D62EF
:102430004D7B81F84E508D7B81F83E500D7C4E7C5B
:1024400005EB06258D6406E088610862C861486274
:1024500081F83E008864521CD2B29A42D0DBB4F9B3
:1024600008200A2192FBF1F2B4F95440414F94FB49
:10247000F1F1114449423E4A0CB2002114803880E7
:10248000CC460CE001EB81050CEB0516F578052D2B
:1024900003D2356A3E8835443D80491CC9B2994211
:1024A000F0DB3988214409B21180002900DA10805C
:1024B000314C0621A1613149B1F90050002D24D0E1
:1024C00000227DE002EB82010CEB011191F8433612
:1024D000192B63D201F246610B784E7803EB062686
:1024E00002EB420303EBC20304EBC303DE618E780D
:1024F000CF7806EB0726DE620E794F7906EB0726CA
:102500009E618E791E62CE793AE05CE086C107203A
:1025100010E80720C466001036000010F0C1072044
:1025200008FC07203000001092C2072098C2072044
:1025300012C407209EC207200CC20720F6C1072044
:10254000AAFC07204CC40720A4C207205E0000108C
:10255000AAC2072062FC072004C207200EC1072080
:1025600010C207208CC10720EEC107207AC10720C6
:10257000F2C1072044C4072038F507207CC107209A
:1025800083F846600E7A4F7A06EB07269E628E7AB3
:10259000C97A06EB0121596298700FE002EB420103
:1025A00001EBC20104EBC1011923C861C862886153
:1025B000086281F84600486288628B70521CD2B271
:1025C000AA42FFF67FAFBDE8F09FFA4AFA481178B9
:1025D000052901D0012905D1517819B9F7490978A0
:1025E000552902D0F649098803E00178002901D075
:1025F000491E01707047F348416821F4402141F4BD
:1026000080214160416821F4403141F480314160D2
:10261000416821F4404141F480414160416C21F422
:10262000402141F400214164416C21F4403141F4E6
:1026300000314164416C21F4404141F40041416466
:10264000E148016821F0E0610160016841F4001196
:102650000160016821F480310160016821F47F414B
:1026600041F4807101608115C160D848890301601F
:1026700070472DE9F041D64C60882188401A00B29D
:1026800003F09AF8A51D2880A0886188401A00B23E
:1026900003F092F86880A0882188401A00B203F005
:1026A0008BF84FF49672A880A4F18E01904201DA63
:1026B000A0880AE0B5F90200904201DA608804E0DF
:1026C000B5F90000904201DA2088488591F802C0EF
:1026D0000023BCF1000F22D0BE48B1F92A200468C3
:1026E000144404604468144444608468144484605E
:1026F000C4682244C2604A8E521C12B24A86B2F5A5
:10270000805F00DB4B86B1F9322094052ED1921206
:1027100050F8224024120C8540F8223026E0AE4FBB
:10272000C8780C7907EB8015B1F92A2045F82420E8
:10273000A2070FD100252A4607EB801656F8227013
:10274000521CD2B23D44102AF8D32A11A14D203D8B
:1027500025F81020401CC0B2C870102806D3641C95
:10276000E0B2CB700871102800D30B710CF1010C92
:102770004B701CF00100944A887005D0106820F05E
:10278000FF00001D106034E0C978080700281068B9
:1027900020F0FF0002DB00F1010001E000F1020087
:1027A00010608E48036843F080530360036A43F06F
:1027B00080430362036E43F080630366CB07436983
:1027C00008D043F0805343618B07436B05D423F05B
:1027D000804304E023F08053F5E743F080434363F4
:1027E0004907416F02D421F0806101E041F080612E
:1027F0004167106840F080701060BDE8F081F0B56E
:1028000073488E38B0F9201019B1A1F1010101848B
:102810007FE00022734C827313467149B4F9004083
:102820000FE000BF03EB830501EB0515AE78012E29
:1028300005D1ED78142D02D2857B6D1C85735B1C50
:10284000DBB2A342EEDB867B022E62D341F28833F9
:10285000C0E91A230023026715E000BF03EB8305DC
:1028600001EB0515AF78012F0BD12D6A876EBD42A4
:1028700000DD8566C76EBD4200DAC566076F3D4460
:1028800005675B1CDBB2A342E8DB036F012593FB0A
:10289000F6F74767C36E03B9C566836E6426734354
:1028A000C66E93FBF6F38367A02B00DD4573782B90
:1028B00001DA42732DE0407B01282AD100226FF01B
:1028C000310324E002EB820001EB00108578012D3A
:1028D0001BD1056ABD4205DDB0F84C50A5F10105DC
:1028E000A0F84C5005DAB0F84C5005F10105A0F8FD
:1028F0004C50B0F94C509D4202DAA0F84C3004E044
:10290000322D02DD3225A0F84C50521CD2B2A24228
:10291000D8DB00BFF0BD2DE9F0412A480168324AFA
:10292000114001602D4C216841F47C712160C16926
:1029300021F44021C161216E41F00071216641689E
:1029400021F040614160206840F00050206028483C
:10295000264B29490278274893F83C50B1F90010DA
:102960000078154307D030B1052904DDA56945F489
:102970008075A56103E0E56945F48075E56193F82C
:102980008830134307D030B1052904DDA06940F039
:102990004000A06103E0E06940F04000E061D22027
:1029A000FDF725FC154D20B16868012828D000B13D
:1029B0002FE02AE058C20720D6C00720FDC007201C
:1029C0009EC1072000C002400040034000E100E03B
:1029D00096C00720E4660010C462001000C0092001
:1029E000B8E807207AC10720FF00F0FF78E707204A
:1029F00005C40720D9C0072014C10720B0C0072094
:102A0000A06940F00050A06103E0E06940F0005090
:102A1000E061D220FDF7EBFBFA4E10B12868662882
:102A200015D03068C007A0B1E06F40F00070E067DB
:102A3000D220FDF7DCFB10B128686C280ED030687E
:102A4000800710D4E06940F01000E0610FE0686892
:102A5000E9E7A06F40F00070A067E9E76868002828
:102A6000F0D0012803D1A06940F01000A061D2206D
:102A7000FDF7BDFBE44FDFF8948310B128686D28A3
:102A80000AD0387802280DD0306840070ED4E069AB
:102A900040F40070E0610DE068680028F7D001287C
:102AA00004D007E098F800000028F0D0A06940F4B6
:102AB0000070A061D220FDF79AFB10B128686A2847
:102AC00004D0306810F4FF6F05D009E0686810B1D9
:102AD000012805D008E0E06940F08000E06103E0F3
:102AE000A06940F08000A061D220FDF780FB10B10A
:102AF00028686B2806D0387801280FD0C4480078A1
:102B000038B901E06868FBE7A06940F02000A061E7
:102B100073E6E06940F02000E0616EE698F800009E
:102B20000028F6D0F0E72DE9F05FB94C00264FF011
:102B30000108207D0A2807D2401CC0B220750A284F
:102B400002D3267584F81580A4F84660A4F848607E
:102B5000CD20FDF74CFBAF4DDFF8BC9288B3AF48FA
:102B60004FF6FF720168CE2908D0CF2909D0D129AC
:102B700009D0D2290BD0D0290CD011E0A4F84820DC
:102B80000EE040680AE04068A4F8460008E0A4F8B7
:102B9000462005E04068A4F84600C043A4F8480079
:102BA000002729E008FA07F0B4F8481083460842E5
:102BB00007EB870005EB001004D0818F491C81874B
:102BC00001E01EE0868707EB870005EB00108246D8
:102BD0003C3032220021FDF75DFBBAF93C0014289D
:102BE00001DD8AF82880B4F846101BEA010F01D0F5
:102BF0008AF828607F1CFFB2B9F900008742D1DD56
:102C000040E0607D98B3002108464346B9F90020B2
:102C100008E000BF00EB800705EB0717401C87F8B2
:102C20002830C0B29042F5DD7D4B0020B3F9003072
:102C300012E000BF00EB800705EB071797F802C012
:102C4000BCF1020F02D0BCF1010F03D1491C87F87F
:102C50002860C9B2401CC0B2904201DA9942E9DB57
:102C60007048B0F900003C280CDA002008E009E0C8
:102C700000EB800105EB0111401C81F82860C0B217
:102C80009042F5DD00206323B9F900100CE000BF8D
:102C900000EB800205EB0212976B1FB182F828301F
:102CA0007F1E9763401CC0B28842F1DB6675667474
:102CB00000200BE000EB800205EB02129278012A63
:102CC00002D1627C521C6274401CC0B28842F1DBAB
:102CD00079E42DE9F041074600EB87014D4800EB10
:102CE00001142078032871D194F83E50A807B4F954
:102CF000420010D54FF4966188421ADA401C00B2A7
:102D0000A4F84200884214DBA4F842106078C0079F
:102D10000FD1012209E060B1401E00B2A4F84200C8
:102D200038B96078C00704D000220021384601F08D
:102D300013FE2807B4F944004FF00A064FF00001D3
:102D40000ED50A281FDA401C00B2A4F844000A2855
:102D500019DBA4F844606078800714D4012209E0EC
:102D600000280DDDA0F1010000B2A4F8440050B924
:102D70004FF000024FF00101384601F0EDFD02E096
:102D800001DAA4F84410E806B4F946000ED50A2882
:102D900017DA401C00B2A4F846000A2811DBA4F898
:102DA0004660607840070CD4012206E048B1401E1E
:102DB00000B2A4F8460020B900220221384601F0F2
:102DC000CBFD6078000702D0042012E03CE01648FA
:102DD000007820B1E078142801D9052009E094F8A2
:102DE0003E00800601D5022003E0E078142801D2DD
:102DF0000120A070E0780A2894F8280016D340F04B
:102E0000800015E0BCC00720F8C007202200001099
:102E100008C00720B8E807207AC10720B0C0072003
:102E20005800001014C1072002C1072000F07F00E5
:102E300084F82800B4F94C00FF49B1F91C1008448B
:102E4000E0624FF47A702063D7E470B5FB4900204C
:102E5000FB4DB1F90C200121034600BF01FA00F43B
:102E6000224201D0295400E02B54401CC0B20C284F
:102E7000F4D3F44C2878F44E217881420CD0B6F982
:102E80000010012908DB01287ED0002301220B213C
:102E9000EEA000BF1BF00CFC6178687881420BD07B
:102EA000B6F90010022907DB01286ED000230222A8
:102EB0000B21EBA01BF0FCFBA178A87881420BD082
:102EC000B6F90010032907DB01287CD00023032278
:102ED0000B21E8A01BF0ECFBE178E87881420BD0F5
:102EE000B6F90010042907DB012872D00023042260
:102EF0000B21E5A01BF0DCFB2179287981420BD066
:102F0000B6F90010052907DB012867D00023052248
:102F10000B21E2A01BF0CCFB6179687981420BD0D8
:102F2000B6F90010062907DB01285CD00023062231
:102F30000B21DFA01BF0BCFBA179A87981420BD04B
:102F4000B6F90010072907DB012851D0002307221A
:102F50000B21DCA01BF0ACFBE179E87981420BD0BE
:102F6000B6F90010082907DB012846D00023082203
:102F70000B21D9A01BF09CFB217A287A81420FD02B
:102F8000B6F90010092901E013E017E008DB012879
:102F900038D0002309220B21D4A000BF1BF088FBEE
:102FA0000020295C2154401CC0B20C28F9D370BD0C
:102FB00009E001231A460B21D1A06BE7012302226D
:102FC0000B21D4A076E7012303220B21D6A081E7B1
:102FD000FFE7012304220B21D8A08BE70123052260
:102FE0000B21DBA096E7012306220B21DDA0A1E740
:102FF000012307220B21E0A0ACE7012308220B21CB
:10300000E2A0B7E7012309220B21E5A0C6E770B5CE
:10301000C820FDF7ECF8E7490022A0B3E64C0123F5
:103020002068C92803D0CA28104611D02CE00020FF
:1030300000EB400404EB001411F82450322D02D2AE
:103040006D1C01F82450401CC0B20228F0D325E0CA
:10305000D4F8045003FA00F4254200EB400409D0F0
:1030600004EB001611F82640322C07D2641C01F83C
:10307000264003E004EB001401F82420401CC0B2F9
:103080000228E7D30AE01FE000EB400404EB001441
:10309000401CC0B201F824200228F5D35FF00000E4
:1030A00000EB400404EB001411F8245001EB8404FD
:1030B000142D02D984F83C3001E084F83C20401CF7
:1030C000C0B20228ECD372E700EB400303EB00131D
:1030D000401C01F8232001EB8303C0B283F83C209D
:1030E0000228F1D363E72DE9F041B44FB448B54C61
:1030F000B7F90010B0F90020B4F90000914202DDE8
:1031000000F1010002E002DAA0F1010020800622B5
:103110000021AC48FDF7BEF8B4F90010AA4801261A
:10312000052900DD06700024012900DA0470A74893
:10313000B7F90010A74DB0F90020A548931E994299
:103140000BDA90F900201E2A16DA521C52B20270D5
:103150001E2A11DB2A88521E0CE091420BDD90F9E9
:1031600000201E2A08DA521C52B202701E2A03DB0B
:103170002A88521C2A8004709748B846B0F900008B
:10318000814201DD142203E094480088093002B234
:1031900000219048FDF77EF8F020FDF728F828B1CF
:1031A00085480168F12901D140682880B5F90010EF
:1031B0008B48012901DC067000E0047089488A4FC1
:1031C000B0F90000A0F1320128291BD8B8F900108D
:1031D000864D814202DD2888401C28808448B0F951
:1031E0000000814202DA2888401E28800622002141
:1031F0007E48FDF74FF8B5F90000052800DD3E7068
:10320000012800DA3C707B487B4FB0F90000A0F148
:1032100032011E290ED8B8F90010784D814202DD26
:103220002888401C28807648B0F90000814202DAE4
:103230002888E7E0F4E0E7E008C00720AAFC0720C0
:1032400080FC0720BEFC072084C107204176746FF4
:103250006D6174202331206973204F4646000000C1
:103260004176746F6D6174202332206973204F465C
:10327000460000004176746F6D617420233320692D
:1032800073204F46460000004176746F6D617420D4
:103290002334206973204F46460000004176746F46
:1032A0006D6174202335206973204F46460000006D
:1032B0004176746F6D6174202336206973204F4608
:1032C000460000004176746F6D61742023372069D9
:1032D00073204F46460000004176746F6D61742084
:1032E0002338206973204F46460000004176746FF2
:1032F0006D6174202339206973204F464600000019
:103300004176746F6D6174202331206973204F4EB4
:10331000200000004176746F6D61742023322069B3
:1033200073204F4E200000004176746F6D61742051
:103330002333206973204F4E200000004176746FC4
:103340006D6174202334206973204F4E20000000EB
:103350004176746F6D6174202335206973204F4E60
:10336000200000004176746F6D617420233620695F
:1033700073204F4E200000004176746F6D61742001
:103380002337206973204F4E200000004176746F70
:103390006D6174202338206973204F4E2000000097
:1033A0004176746F6D6174202339206973204F4E0C
:1033B0002000000078E70720B0C0072004C20720E3
:1033C00056C107206400001006C4072058C107201A
:1033D00004C4072014C207205AC107200EC20720C8
:1033E0002000001060C1072005C4072052C4072038
:1033F00062C107205CC10720210000106600001098
:103400005EC10720401E288006220021FF48FCF7ED
:1034100041FFB5F90000052800DD3E70012800DA03
:103420003C7011E52DE9FC5F0546F94830F91510AF
:1034300011B1491E20F81510F549091D31F9152063
:1034400012B1521E21F8152005EB450202EB0513BF
:10345000F04A02EB8304F04BB4F90820B3F90060A2
:103460006423B24201DD20F81530002A01DA21F888
:103470001530E74A30F815307C3A00264BB131F868
:10348000153033B1B2F85E30B3B140F6B830A2F8BF
:103490005C00A2F85C6094F83E00401CC0B284F866
:1034A0003E000A2801D384F83E60DC4FDFF87083C9
:1034B0003888322809D017E04FF41673A2F85E302E
:1034C00020F8156021F81560E3E794F83C00F8B99E
:1034D000B4F9020050281BDA94F83D00C00717D158
:1034E0000121284601F040FDB7F90000C8280FDD92
:1034F000B4F90800FCF704FFB8F90010884207DDB2
:1035000094F83D00C00703D00021284601F02CFDAF
:10351000B8F90000B4F908104042814212DD607B26
:103520000A280CD2401CC0B260730A2875D3A07B55
:10353000002872D0A673284601F0C7FB6DE00A2070
:1035400060736AE069DA607BF0B3401E10F0FF0040
:10355000607362D1A07BB8BB0120A073B148B24FA9
:103560000088401C00F0070004EB4000008CADF820
:103570000400B88B8DF800004FF063024FF001019A
:103580006846FCF77CFE04F11C049DF800002076E0
:10359000387E8DF800004FF00C024FF001016846B4
:1035A000FCF76DFE9DF800006076387B8DF800001A
:1035B0001F2201216846FCF762FE9DF80000A076FC
:1035C0009DF80400E07600E027E0387A8DF80000EE
:1035D000172200216846FCF752FE9DF80000207774
:1035E00038798DF800003B2200216846FCF747FE41
:1035F0009DF80000607738788DF800003B220021AC
:103600006846FCF73CFE9DF80000A0779DF8050099
:10361000E07726806680A4F11C0448F6A04894F860
:103620003E0088BBB4F908006169DFF800A20844D5
:10363000DFF8FC9145F2555B6061404525DB39F9C7
:1036400015205A4503D17B4830F8157001E039F850
:1036500015703AF815001CF063FC80B2B8420AD22B
:10366000616900F10100A1F50041A1F54A616161C4
:103670003AF915202BE031D93AF9150039B21CF08E
:1036800043FDC4F8148029E044E06B49884225DCFE
:1036900039F915205A4503D1664830F8157001E014
:1036A00039F815703AF815001CF03AFC80B2B842AF
:1036B00005D93AF9150039B21CF026FD384658B143
:1036C0006269401E02EB080161613AF9152001B2FE
:1036D00010461CF019FD01E0574860613AF81500EA
:1036E0001CF01EFC014639F91500584502D151481D
:1036F00030F915004FF47A72514308B1B1FBF0F084
:103700000A21B0FBF1F0208204F1100064220021B4
:10371000FCF7C0FDA07B012813D1A08B4746B8421F
:103720000ED2B4F90800FCF7EBFDA18B084480B27F
:10373000A083B84205D3A683E08B401CE08300E061
:10374000A6833E49B4F90A00B1F90010884201DDB0
:10375000207BF0B3B4F84000B0F10100A4F84000C1
:103760004FF4167904F140004A460021FCF792FD1F
:10377000B4F9400040F24E27B84205DB94F83F1000
:1037800041F0010184F83F100A2805DC94F83F005D
:1037900020F0010084F83F002948B4F90A10B0F97C
:1037A0000000814201DD207B70B3B4F84200401E6E
:1037B000A4F8420004F142004A460021FCF76AFDE9
:1037C000B4F94200B84207DB94F83F1041F002011F
:1037D00000E03FE084F83F100A2805DC94F83F0041
:1037E00020F0020084F83F00606C40453ADA401C4B
:1037F0006064404537DB6664124C34F815001CF0F9
:103800008FFB401C01B21FE028E0000066000010A2
:1038100084C0072078E7072040C1072012C1072095
:1038200038C10720ECC1072020400240A8690200EF
:1038300040C2072038C207206073FFFF52C1072033
:1038400050C10720C469020034F91500BDE8FC5FCF
:103850001CF05ABCB4F84000401C7FE7B4F84200AA
:10386000401CA5E76664BDE8FC9FF8B5FE4C00214E
:10387000A0790A2807D2401CC0B2A0710A2802D33E
:10388000A17101202072E079052805D2401CC0B248
:10389000E071052800D1E171BE20FCF7A8FCF349D6
:1038A00028B1F3480268BF2A5BD1406858E0207A0B
:1038B00088B3F04A1078552805D05078552802D0A2
:1038C000ED4800884CE0ED4D00204FF0140C6B46A5
:1038D0006FF01307165C552E0FD023F81070401CA4
:1038E000C0B20228F6D3BDF90030BDF90220E44889
:1038F000934215DD1A46036013E000EB400606EB29
:10390000001605EB860696F80CE0BEF1000F03D01A
:1039100023F810C0E3E724E0768923F81060DEE79F
:103920000260D84B002A02DAB3F9000012E0282A1C
:1039300001DD28220260D44AB3F900300068B2F9F0
:103940000020D21A02EB820252004243C82092FBAE
:10395000F0F01844A27D022A02D1CC48B0F9000050
:103960000880B1F9000062214143642291FBF2F129
:10397000C74B19806621484390FBF2F0C549088087
:10398000F8BD2DE9F041B84CB4F9260008B1401E4D
:10399000E084C148C14DB94E00882880B6F90800BE
:1039A0000A27002806DAFCF7ABFC90FBF7F0298821
:1039B00008442880B6F95400002806DAFCF7A0FC79
:1039C00090FBF7F0298808442880B549B5F9000034
:1039D000B44AB1F900103C2390FBF1F1491CC9B283
:1039E000A174B2F9002090FBF2F0401CC2B2AE48C4
:1039F000E274B0F90050A94201DD018004E0AA425E
:103A000003DAE18C09B90280E384A8490A88A8494D
:103A10000AB10A880280B1F90020BDE8F041012115
:103A2000A148FCF737BC2DE9F05FA2488E4CB0F9F5
:103A300000006087B4F95C1011B1491EA4F85C1055
:103A4000B4F95E1011B1491EA4F85E108B494FF015
:103A50000A0891F83F20920703D191F88B1089074B
:103A600002D090FBF8F06087607A4FF000094FF0C9
:103A7000010A0A2808D2401CC0B260720A2803D387
:103A800084F8099084F80AA0E120FCF7B0FB8A4D85
:103A9000764B40F2F23BD0B375480168642908D0F8
:103AA00069290AD06E290CD0E5291ED0E6291ED03E
:103AB000CEE04168E08B0844C9E04068E18B081A19
:103AC000C5E0A08B401E00B2A0831E2806DD7B4906
:103AD000B5F90000B1F90010884205DA0A23002286
:103AE000E721E620FCF74CFBB2E04068AFE0B5F917
:103AF0000000B3F90010884212DDA0EB01000A2893
:103B000006DDB4F91C00002802DD401F9FE01CE028
:103B1000B4F91C00002832D0A17A81B3401E96E08F
:103B20002DDA081A0A2807DDB4F91C0040F2F73133
:103B3000884201DA401D8AE0B4F91C00B0F57F7FAD
:103B40001DDAA17AD9B1401C81E0A07AB8B15C48F5
:103B50000088A0B9B4F91E00E086B4F93810628F6D
:103B600091FBF8F6B6EB420F57DC0DDAC2EB021709
:103B70008F4209DAB4F85C1021B1401E5EE067E0C4
:103B80000A385BE0C01E59E0C2EB02178F4201DD2C
:103B90009642F2DCB5F90050B3F90030394F3A4E95
:103BA0009D4231DAB7F90070B6F90060A7EB06065E
:103BB000A3EB0607AF4215DD00291ADAB4F85C1052
:103BC00071B90A303AE000BFB4F85C1041B915E0B1
:103BD000C2EB421303EB8212B2FBF8F28A422EDDF3
:103BE000401C2BE0F71706EB9776A3EBA606AE4238
:103BF00006DD02EB82038B42EADDE5E7801C1DE077
:103C00005B1E9D42E4DB1AE019DDB7F90010B6F93E
:103C10000020891ACA18AA4204DAB4F85C100029F4
:103C2000AED0AAE7CA1701EB927103EBA101A9423A
:103C30004ADAB4F85C1000299FD1801EE0860A4859
:103C40005A460A213630FCF725FBE08EE083A0833C
:103C5000174884F80C9084F80B904D46194B524647
:103C6000B0F900103EE0000008C0072006C207209F
:103C7000B0C007208CC1072042C1072078E7072089
:103C800040C4072028C107202AC107203AC10720C5
:103C90003CC407205600001044C407205A000010FE
:103CA0003CC107203EC10720580000104EC107202C
:103CB0007AC1072040C10720F0C1072032C1072088
:103CC00018C20720B8E807205B1C9D42A9DCB6E7B4
:103CD00000EB800603EB0616F6781E2E00D2227348
:103CE000401CE072E07A8842F2DB207B20B94FF47E
:103CF0001670A083E083E0865A460A21FB48FCF751
:103D0000C9FAA572BDE8F09F2DE9F05FFA4E0020D8
:103D1000F749DFF8E0834FF00A0B8246B6F900302E
:103D200024E0F64AF64C125C34F91220B2F5FA6F30
:103D30000A560DDA0A2A08DA521C52B20A540A2A22
:103D400012DB012208F800200EE001F800B00BE0C1
:103D5000002A07DB521E52B20A54002A04DC08F87B
:103D600000A001E001F800A0401CC0B29842D8DBDE
:103D70000024DFF89093E44DE44F71E0E44830F81C
:103D80001400002818F8040001D078B101E00128DF
:103D90000CD019F90400002818DB401E40B209F8C5
:103DA0000400002814DC05F804A011E019F904103F
:103DB0000A2908DA491C49B209F804100A2907DB64
:103DC0000120285504E009F804B001E009F804A036
:103DD000395D285D81423FD0C44A1C3A918E491C0E
:103DE0009186012807D014B3012C25D0022C28D0AD
:103DF000032C2BD030E034B1012C09D0022C0CD094
:103E0000032C0FD028E001231A460F21C1A021E086
:103E1000012302220F21C2A01CE0012303220F2153
:103E2000C2A017E0012304220F21C3A012E0002347
:103E300001220F21C3A00DE0002302220F21C6A002
:103E400008E0002303220F21C8A003E0002304227E
:103E50000F21CBA01AF02CFC285D3855641CE4B26D
:103E6000B6F90000844289DB4CE7CA49CA4A0120FE
:103E7000087010704870507070472DE9F05FC848A6
:103E8000DFF820E3DFF814C3B0F90070BEF90000DA
:103E9000964CC0EB00111C3CBCF902506FF01D0A9F
:103EA0006FF0950B0026DFF8EC82B4F93E000AEBC8
:103EB00081020BEB8103BD4204DCBB4FB7F90070FC
:103EC000BD4205DA824203DD834201DA88F80060F0
:103ED000B64DE146BCF908C0B5F90050AE4FBCEB99
:103EE000450F03DC6D42BCEB450F04DA824202DD74
:103EF000834200DA3E706FF0090202EB81017546E1
:103F0000814220D1A07DF0B998F8000001281AD193
:103F10003878012817D14FF4D6701CF001F8A44965
:103F2000B1F9001088420ED0A248008858B199F823
:103F30003D00C00707D14FF4D6701CF0E5F89E484D
:103F40000178491C01709649B9F902204846B1F937
:103F500000108A4206DC9449B0F94E20B1F90010F5
:103F60008A420FDAB5F90010B4F93E20C1EB011115
:103F70000AEB8103934205DD0BEB8101914201DAEB
:103F800088F801608949B9F95400B1F90010B0EB23
:103F9000410F03DC4942B0EB410F0EDAB5F90000E6
:103FA000B4F93E10C0EB00100AEB80028A4204DD37
:103FB0000BEB8000884200DA7E70B5F90000C0EBA0
:103FC00000116FF0090000EB8100B4F93E10884247
:103FD00022D1A07D00BB98F8010001281CD178787F
:103FE000012819D14FF4E57630461BF099FF0246BF
:103FF0006F48B0F902108A420ED06E48008802283D
:104000000AD199F88900C00706D130461CF07CF827
:1040100069480178491C0170B5F900006FF0010191
:10402000C0EB001001EB8000B4F93E10884202D1D1
:10403000BDE8F05F19E765E62DE9F0035F48604AE7
:10404000DFF880C100784FF000084FF00109F0B3AD
:104050005D486146B0F900605C48B1F90010B0F904
:1040600000705B48BE42B0F900305A48B0F90040D9
:104070005948B0F900505948B0F9000013DA8342AA
:1040800003DB844201DB85420DDA5548B0F90000BC
:10409000814219DA491C09B2ACF80010814213D1EF
:1040A00082F8008015E04F4FB7F90070BE420BDD7B
:1040B000834209DD844207DD854205DD21B1491EC9
:1040C00008B2ACF8000060B11078002800E08BE086
:1040D00009D1BDE8F0030F2301226E21D220FCF7A5
:1040E0004FB882F80090BDE8F003704724C0072065
:1040F0004D0000101DC2072080C10720A3690200E7
:10410000C466001038C4072021C2072051000010E7
:10411000B0C20720534B20233120416C61726D00E7
:10412000534B20233220416C61726D00534B20238E
:104130003320416C61726D00534B20233420416C5D
:1041400061726D00534B20233120416C61726D20F0
:104150006973206F66660000534B20233220416C48
:1041600061726D206973206F66660000534B2023D7
:104170003320416C61726D206973206F66660000A8
:10418000534B20233420416C61726D206973206F82
:104190006666000046C407205C00001078E7072030
:1041A0005600001048C107203CC4072038C1072032
:1041B00040C2072078C1072048C40720F8C0072064
:1041C0002200001054C40720F0C107206AC1072054
:1041D000F8C10720FAC10720FCC1072034C107201D
:1041E00068C107206CC10720ACF8008079E72DE991
:1041F000F04F9448DFF8508295490378934898F936
:104200000020B1F90010B0F9000088B023B1022BF2
:1042100033D0012B7ED0FCE08E4E8F4B347896F855
:1042200001C0B3F90A501F7BB3F9566093F85830B8
:1042300022B1012A0FD1552C14D10FE0552C03D1F6
:10424000854268DC002F66D1BCF1550F03D1864250
:1042500061DC002B5FD108B0BDE8F08F8D42FADA47
:10426000002FF8D1BCF1550F7ED18E42F3DA002B2E
:104270007AD0F0E788F80000EDE7794C774B94F8B6
:1042800003C0B3F90030676A656F009594F8535026
:104290000195D4F8C450029594F8A3500395D4F82E
:1042A0001451049594F8F3500595D4F8645106958B
:1042B00094F84351AE46D4F8B451079594F893510D
:1042C000D4F85462AB46D4F80452B146AA4694F8E6
:1042D000E35194F83342DBB387421CDCBCF11E0F80
:1042E00019D2012B05DD009E864214DC019E1E2E94
:1042F00011D2022B05DD029E86420CDC039E1E2E8F
:1043000009D2032B05DD049E864204DC059E1E2E89
:104310007FD201E05BE07CE0042B05DD069E864257
:1043200077DCBEF11E0F74D2052B05DD079E864299
:104330006FDCBBF11E0F6CD2062B03DD824568DCFF
:104340001E2D66D2072B03DD814562DC1E2C60D258
:10435000012A80D143B18F428BDABCF10A0F88D297
:10436000022B2DDB009800E06AE0884284DA019895
:104370000A28F4D2032B23DB02988842ECDA039854
:104380000A28ECD2042B1BDB04988842E4DA059857
:104390000A28E4D2052B13DB06988842DCDABEF14A
:1043A0000A0FDCD2062B0BDB07988842D4DABBF16C
:1043B0000A0FD4D2072B03DB8A45CDDA0A2DCED2E1
:1043C000082B3DDB8945C7DA0A2C39D343E7264C55
:1043D000244BB4F90050B4F90260AA46234DB3F956
:1043E0000030B4F90440D5E900C7AD68B94693B1CF
:1043F00082450EDCBCF1000F0BD1012B04DD86429F
:1044000007DCB9F1000F04D1022B04DD844200DC8B
:104410000DB101202EE7012AD8D18BB18A45D5DA1A
:10442000BCF1000FD2D1022B04DB8E42CEDAB9F1FF
:10443000000FCBD1032B03DB8C42C7DA002DC5D193
:10444000002017E7F7C0072008C0072064C1072035
:1044500066C107208CC1072078E707207AC10720B2
:10446000B8E807207EC1072092C2072008FC072079
:1044700070B5F8480278F848016812B141F00101BE
:1044800001E021F0010101600021F44C5FF0010323
:1044900001EB410202EB011204EB820292F83D2093
:1044A000D20706D04D1C03FA05F205689543154363
:1044B00004E04A1C056803FA02F29543491CC9B29C
:1044C00005600229E4D3E64C002100BF01EB810224
:1044D00004EB0212527832B1CD1C03FA05F20568E2
:1044E0009543154303E0CA1C03FA02F29543491CA5
:1044F000C9B205600C29E9D32946D74D00221435ED
:10450000AC5C34B102F10F0603FA06F4A143214377
:1045100004E002F10F0403FA04F4A143521CD2B2E6
:10452000062AEDD3CF4D00220160AC5C012C2FD0C8
:1045300002F1190403FA04F4A143521CD2B2042A72
:10454000F3D30160836821EA0302C2604468144324
:10455000C54A4460158815B124F00074446054883D
:104560001CB1446824F08064446094881CB14468A1
:1045700024F000644460D2881AB1426822F080526C
:1045800042608B43DA43B94B02611B883BB109E0BF
:1045900002F1190603FA06F4A1432143CDE762F0C4
:1045A00001020261036942681A40C0E9012170BD3D
:1045B000F8B54FF4606528461BF0B2FC401C044679
:1045C0003F2800D9002421B228461BF09DFD40F66B
:1045D000026630461BF0A4FC3F2800D0204601B202
:1045E00030461BF091FD28461BF09AFC4FF4806189
:1045F00001EB4010054655208DF8000000268DF88F
:10460000016052208DF802008DF80360694628464B
:104610001BF0FFFD6946281D00961BF0FAFD944C27
:10462000A08B8DF80000207E8DF80100207B8DF896
:1046300002008DF80360694605F108001BF0E9FDF2
:10464000207A8DF8000020798DF8010020788DF80F
:1046500002008DF80360694605F10C001BF0D9FDDE
:1046600041248DF800408DF801408DF802408DF80E
:104670000340694605F110001BF0CBFD8DF80040AA
:104680008DF801408DF802408DF80340694605F130
:1046900014001BF0BEFD8DF800408DF801408DF830
:1046A00002408DF80340694605F118001BF0B1FD8A
:1046B0008DF800408DF801408DF802408DF80340E0
:1046C000694605F11C001BF0A4FDF8BD2DE9F84377
:1046D000674D604A203D00262F154FF46061012888
:1046E00002D000287DD034E10120107088460846B1
:1046F0001BF016FC401C04463F2800D9002421B2C0
:1047000040461BF001FD40F6026948461BF008FCDC
:104710003F2800D0204601B248461BF0F5FC404639
:104720001BF0FEFB07EB401750208DF800008DF8C2
:10473000016041248DF802408DF8036069463846D7
:104740001BF067FD6946381D00961BF062FD05F100
:104750002005A88B8DF80000287E8DF80100287BAD
:104760008DF802008DF80360694607F108001BF020
:1047700050FD287A8DF8000028798DF801002878FE
:104780008DF802008DF80360694607F10C001BF0FC
:1047900040FD8DF800408DF801408DF802408DF805
:1047A0000340694607F110001BF033FD8DF800400F
:1047B0008DF801408DF802408DF80340694607F1FD
:1047C00014001BF026FD8DF800408DF801408DF897
:1047D00002408DF80340694607F118001BF019FDEF
:1047E00000E011E08DF800408DF801408DF80240A6
:1047F0008DF80340694607F11C001BF00AFD0023F9
:10480000012202211BA0A2E013481670B0460268E4
:1048100022F001020260154A12881AB1426822F0A1
:104820000102426008461BF07BFB06463446B9464F
:1048300009EB4417694638461BF0EFFB9DF8000072
:1048400050283CD19DF80100C8BB9DF802004128CA
:1048500035D11FE002C10720B8C0072078E7072044
:10486000B8E8072021C20720C0C2072030C10720B6
:10487000204002404D61696E20706F77657220693B
:1048800073206F6666000000641E00E03F24B4429F
:10489000CED15EE0694607F110001BF0BEFB9DF82B
:1048A000000041280BD19DF80100412807D19DF857
:1048B0000200412803D19DF80300412802D0002CBA
:1048C000E4D0E1E705F12005A88B8DF80000287EF3
:1048D0008DF80100287B8DF8020044468DF8038096
:1048E000694607F110001BF094FC287A8DF800004F
:1048F00028798DF8010028788DF802008DF80340A2
:10490000694607F114001BF084FCFF48422401783B
:104910008DF8001040788DF801008DF802408DF878
:104920000340694607F118001BF073FC8DF8004046
:104930008DF801408DF802408DF80340694607F17B
:104940001C001BF066FC01231A460221EFA019F09F
:10495000AFFE00BFBDE8F8832DE9F84F05460C0017
:104960004FF054060BD0012C04D0022C04D0032CA1
:1049700004D004E0552602E0752600E04C26E94903
:10498000DFF89CA305EB85034FF0000B4FF460604C
:104990004FF4806901EB0311012A02D0002A7DD077
:1049A00090E134B1012C08D0022C0AD0032C0CD099
:1049B0000FE04A7842F001020AE04A7842F002022F
:1049C00006E04A7842F0040202E04A7842F0080227
:1049D0004A7081F84F4080461BF0A2FA401C87B213
:1049E0003F2F00D9002739B240461BF08DFB40F61F
:1049F00002601BF095FA80B23F2800D0384601B221
:104A000040F602601BF080FB40461BF089FA09EB80
:104A1000401087B253208DF800008DF801508DF8BA
:104A20000260D8468DF803B0694638461BF0F1FBAA
:104A30006946381DCDF800801BF0EBFBBAF83C004E
:104A40000AF120068DF80000307E8DF80100307BE1
:104A50008DF802008DF80380694607F108001BF00D
:104A6000D8FB307A8DF8000030798DF8010030786D
:104A70008DF802008DF80380694607F10C001BF0E9
:104A8000C8FB41268DF800608DF801608DF802604A
:104A90008DF80360694607F1100000E084E01BF028
:104AA000B8FB8DF800608DF801608DF802608DF81C
:104AB0000360694607F114001BF0ABFB8DF8006042
:104AC0008DF801608DF802608DF80360694607F18A
:104AD00018001BF09EFB8DF800608DF801608DF8CA
:104AE00002608DF80360694607F11C001BF091FB22
:104AF00025B1012D20D0022D3AD0E3E034B1012CB4
:104B000009D0022C0CD0032C0FD0DBE000230122B3
:104B1000042185A00DE001231A46042188A008E0A5
:104B20000223012204218DA003E00323012204219A
:104B300092A019F0BDFDC5E034B1012C09D0022CC2
:104B40000CD0032C0FD0BDE000230222042193A03F
:104B5000EFE701230222042196A0EAE702231A4686
:104B600004219BA0E5E7032302220421A0A0E0E7A3
:104B700034B1012C09D0022C0CD0032C0FD0A1E0B1
:104B8000002303220421A2A0D3E70123032204214E
:104B9000A5A0CEE7022303220421AAA0C9E703238C
:104BA0001A460421AFA0C4E734B1012C08D0022C6E
:104BB0000AD0032C0CD00FE04A7822F001020AE060
:104BC0004A7822F0020206E04A7822F0040202E06B
:104BD0004A7822F008024A701BF0A2F984B2A0467B
:104BE00009EB441087B2694638461BF016FA9DF867
:104BF0000000532824D19DF80100A84220D19DF83F
:104C00000200B0421CD1694607F110001BF005FA02
:104C10009DF80000412813D106E0641EA4B200E014
:104C20003F244445DCD14DE09DF80100412807D1E7
:104C30009DF80200412803D19DF80300412802D0CD
:104C4000002CEDD0E9E7BAF83C000AF120048DF819
:104C50000000207E8DF80100207B8DF802005D466B
:104C60008DF803B0694607F110001BF0D2FA207AE4
:104C70008DF8000020798DF8010020788DF8020071
:104C80008DF80350694607F114001BF0C2FA422464
:104C90008DF800408DF801408DF802408DF80340FA
:104CA000694607F118001BF0B4FA8DF800408DF842
:104CB00001408DF802408DF80340694607F11C0061
:104CC0001BF0A7FA00BFBDE8F88F2DE9FC410646AE
:104CD00000EB460000EB06116A4800EB8104E08B14
:104CE000052810D368484FF460670088801D00F0E5
:104CF000070004EB4000008CADF8040038461BF0C0
:104D00000FF9401CC2E02CE136C407204D61696EEA
:104D100020706F776572206973206F6E000000004D
:104D200000400240B8E80720425053202331204180
:104D30006C61726D2C206F7665726865617400001D
:104D400042505320233120416C61726D2C20766FCC
:104D50006C74616765206973207570004250532040
:104D6000233120416C61726D2C20766F6C74616709
:104D70006520697320646F776E00000042505320F5
:104D8000233120416C61726D2C20636F6E6E656300
:104D900074206973206C6F737400000042505320BC
:104DA000233220416C61726D2C206F7665726865CC
:104DB0006174000042505320233220416C61726DB7
:104DC0002C20766F6C7461676520697320757000A4
:104DD00042505320233220416C61726D2C20766F3B
:104DE0006C7461676520697320646F776E000000E2
:104DF00042505320233220416C61726D2C20636F2E
:104E00006E6E656374206973206C6F7374000000AC
:104E100042505320233320416C61726D2C206F76F9
:104E2000657268656174000042505320233320414D
:104E30006C61726D2C20766F6C746167652069738C
:104E40002075700042505320233320416C61726DF5
:104E50002C20766F6C7461676520697320646F77AE
:104E60006E00000042505320233320416C61726D6C
:104E70002C20636F6E6E656374206973206C6F7392
:104E80007400000078E70720ECC1072085B23F2DB1
:104E900000D9002529B238461BF036F940F60268E1
:104EA00040461BF03DF880B23F2800D0284601B2B2
:104EB00040461BF029F938461BF032F84FF4806168
:104EC00001EB401085B242208DF800008DF80160A2
:104ED00057208DF8020000268DF8036069462846A9
:104EE0001BF097F9A07F8DF80000E07F8DF801009E
:104EF0009DF804008DF802009DF805008DF8030070
:104F00006946281D1BF085F904F1340105F10800FC
:104F10001BF07FF904F1380105F10C001BF079F961
:104F2000FF4CA08B8DF80000207E8DF80100207BC7
:104F30008DF802008DF80360694605F110001BF042
:104F400068F9207A8DF8000020798DF8010020782A
:104F50008DF802008DF80360694605F114001BF01E
:104F600058F900BFBDE8FC812DE9F84F0646ED4831
:104F7000DFF8AC9306EB460202EB06124FF0000B93
:104F80004FF0420AA9F120094FF460674FF48065A1
:104F900000EB8200012902D000297ED01EE110F82A
:104FA0003D1F41F00101017038461AF0B9FF401C65
:104FB00084B23F2C00D9002421B238461BF0A4F85B
:104FC00040F6026840461AF0ABFF80B23F2800D09E
:104FD000204601B240461BF097F838461AF0A0FF71
:104FE00005EB401085B28DF800A08DF801604320DC
:104FF0008DF802005F468DF803B0694628461BF025
:1050000008F96946281D00971BF003F9B9F83C0020
:1050100009F120048DF80000207E8DF80100207B2E
:105020008DF802008DF80370694605F108001BF049
:10503000F0F8207A8DF8000020798DF801002078B2
:105040008DF802008DF80370694605F10C001BF025
:10505000E0F841248DF800408DF801408DF80240C1
:105060008DF80340694605F110001BF0D2F88DF869
:1050700000408DF801408DF802408DF803406946EC
:1050800005F114001BF0C5F88DF800408DF80140C3
:105090008DF802408DF8034000E021E0694605F1FB
:1050A00018001BF0B6F88DF800408DF801408DF81F
:1050B00002408DF80340694605F11C001BF0A9F879
:1050C00016B1012E05D089E001231A46052196A0CC
:1050D00003E001230222052198A019F0E9FA7DE0FE
:1050E00010F83D1F21F00101017038461AF018FF39
:1050F00087B23C464FEA050808EB441085B2694682
:1051000028461AF08AFF9DF80000422824D19DF815
:105110000100B04220D19DF8020043281CD106E0D6
:10512000641EA4B200E03F24BC42E5D156E06946CB
:1051300005F110001AF071FF9DF8000041280BD115
:105140009DF80100412807D19DF80200412803D1B4
:105150009DF80300412802D0002CE4D0E0E7B9F824
:105160003C0009F120048DF80000207E8DF801003C
:10517000207B8DF802005E468DF803B0694605F18C
:1051800010001BF046F8207A8DF8000020798DF889
:10519000010020788DF802008DF80360694605F162
:1051A00014001BF036F88DF800A08DF801A08DF8E2
:1051B00002A054468DF803A0694605F118001BF0C3
:1051C00028F88DF800408DF801408DF802408DF8E8
:1051D0000340694605F11C001BF01BF800BF72E597
:1051E0002DE9F84FDFF8388106464FF0000A4FF0FE
:1051F0004209A8F120084FF460604FF4806501294E
:1052000002D000297DD037E106EB460101EB061202
:105210004449074601EB820111F83D2F42F002029A
:105220000A701AF07DFE401C84B23F2C00D9002485
:1052300021B238461AF068FF40F6026B58461AF061
:105240006FFE80B23F2800D0204601B258461AF0C7
:105250005BFF38461AF064FE05EB401085B28DF80E
:1052600000908DF8016053208DF8020057468DF8AC
:1052700003A0694628461AF0CCFF6946281D00970E
:105280001AF0C7FFB8F83C0008F120048DF80000C0
:10529000207E8DF80100207B8DF802008DF80370D0
:1052A000694605F108001AF0B4FF207A8DF8000075
:1052B00020798DF8010020788DF802008DF80370B8
:1052C000694605F10C001AF0A4FF41248DF8004056
:1052D0008DF801408DF802408DF80340694605F1D4
:1052E00010001AF096FF8DF800408DF801408DF8FF
:1052F00002408DF80340694605F114001AF089FF59
:1053000000E042E08DF800408DF801408DF8024049
:105310008DF80340694605F118001AF07AFF17E08E
:105320002040024078E707204241542023312041A9
:105330006C61726D2C206C6F7374000042415420BC
:10534000233220416C61726D2C206C6F73740000ED
:105350008DF800408DF801408DF802408DF8034033
:10536000694605F11C001AF054FF16B1012E05D054
:1053700082E0022301220521FBA003E002231A465A
:105380000521FFA019F094F976E01AF0C9FD87B263
:105390003C46AB460BEB441085B2694628461AF0F2
:1053A0003CFE9DF80000422824D19DF80100B04247
:1053B00020D19DF8020043281CD106E0641EA4B24F
:1053C00000E03F24BC42E5D156E0694605F11000FB
:1053D0001AF023FE9DF8000041280BD19DF8010032
:1053E000412807D19DF80200412803D19DF8030010
:1053F000412802D0002CE4D0E0E7B8F83C0008F1E6
:1054000020048DF80000207E8DF80100207B8DF8AF
:10541000020056468DF803A0694605F110001AF007
:10542000F8FE207A8DF8000020798DF801002078B0
:105430008DF802008DF80360694605F114001AF03A
:10544000E8FE8DF800908DF801908DF802904C46A2
:105450008DF80390694605F118001AF0DAFE8DF810
:1054600000408DF801408DF802408DF803406946F8
:1054700005F11C001AF0CDFE00BF24E4F3B505468B
:1054800000EB4500C44900EB051001EB8000C34967
:1054900083B04FF46066B1F9001000EB4100B0F941
:1054A0002200019030461AF03BFD401C04463F2884
:1054B00000D9002421B230461AF026FE40F60267D9
:1054C00038461AF02DFD3F2800D0204601B238465C
:1054D0001AF01AFE30461AF023FD4FF4806101EBFA
:1054E000401442208DF800008DF801504B208DF8BB
:1054F000020000268DF80360694620461AF089FEF6
:105500009DF810008DF800009DF811008DF8010045
:105510009DF804008DF802009DF805008DF8030049
:105520006946201D1AF075FE4FF4FC701AF031FD2B
:105530009B4D2946286004F108001AF06AFE4FF4DA
:10554000FE701AF026FD6860291D04F10C001AF0A7
:1055500060FE944DA88B8DF80000287E8DF8010028
:10556000287B8DF802008DF80360694604F1100075
:105570001AF04FFE287A8DF8000028798DF8010086
:1055800028788DF802008DF80360694604F1140054
:105590001AF03FFE05B0F0BD2DE9F84F814E00270F
:1055A000203E35153C46BA464FF04209012802D04C
:1055B000002871D0FCE04FF4606738461AF0B0FC68
:1055C000401C04463F2800D9002421B238461AF076
:1055D0009BFD40F6026840461AF0A2FC3F2800D02E
:1055E000204601B240461AF08FFD38461AF098FC6A
:1055F00005EB40158DF800908DF801A05A208DF82C
:10560000020054468DF803A0694628461AF001FEB0
:105610006946281D00941AF0FCFD06F12006B08BA7
:105620008DF80000307E8DF80100307B8DF802008F
:105630008DF80340694605F108001AF0EAFD307A5A
:105640008DF8000030798DF8010030788DF8020077
:105650008DF80340694605F10C001AF0DAFD41248B
:105660008DF800408DF801408DF802408DF8034020
:10567000694605F110001AF0CCFD8DF800408DF858
:1056800001408DF802408DF80340694605F1140091
:105690001AF0BFFD4EE0FFE74FEA050808EB44159E
:1056A000694628461AF0B9FC9DF80000422803D14B
:1056B0009DF802005A2804D0ECB3641EBC42EDD120
:1056C00076E0694605F110001AF0A7FC9DF800008D
:1056D0004128F1D19DF801004128EDD19DF802004B
:1056E0004128E9D19DF803004128E5D106F12006C3
:1056F000B08B8DF80000307E8DF80100307B8DF886
:10570000020054468DF803A0694605F110001AF016
:1057100080FD307A8DF8000030798DF80100307806
:105720008DF802008DF80340694605F114001AF067
:1057300070FD4C4600E03DE08DF800408DF80140E2
:105740008DF802408DF80340694605F118001AF003
:1057500060FD8DF800408DF801408DF802408DF815
:105760000340694620E0000042415420233120419B
:105770006C61726D2C20617373696D657472790050
:1057800042415420233220416C61726D2C206173A0
:1057900073696D657472790078E70720ECC10720A2
:1057A000A4C007202040024005F11C001AF031FD82
:1057B00000BF14E53F2471E7002801DA404200B23F
:1057C000704710B54FF434701AF0AAFBFF4C2070EC
:1057D00040F2D2201AF0A4FB60704FF435701AF03A
:1057E0009FFBA07040F2D6201AF09AFBE0704FF4B5
:1057F00036701AF095FB207240F2DA201AF090FB16
:1058000060724FF437701AF08BFBA07240F2DE200A
:105810001AF086FBE0724FF443701AF081FB20719E
:1058200040F20E301AF07CFB60714FF444701AF0B5
:1058300077FBA07140F212301AF072FBE07110BDDC
:10584000E34810B5016821F0E06101604168E24A77
:10585000C1F30B13DF4C117824F81130491CC9B285
:105860001170032903D2016841F08071016010BDFD
:105870002DE9F0470746DDE90A090E46DDE9085A39
:1058800001B21446984698201AF03EFC00219A2056
:105890001AF03AFC002176201AF036FC0121CA20C9
:1058A0001AF032FC3C21C2201AF02EFC39B27820CA
:1058B0001AF02AFC04EBD470401001B2C8201AF090
:1058C00023FC31B27A201AF01FFC21B27C201AF09E
:1058D0001BFC4621C6201AF017FC50217E201AF02E
:1058E00013FC0FFA88F182201AF00EFCBB218420F1
:1058F0001AF00AFC002186201AF006FC0A218820F2
:105900001AF002FC0FFA89F1DE201AF0FDFB29B231
:105910008C201AF0F9FBE8000A2190FBF1F001B2AB
:105920008E201AF0F1FB0121A0201AF0EDFB0121DD
:10593000A2201AF0E9FB0121A4201AF0E5FBA02126
:1059400092201AF0E1FB0FFA8AF194201AF0DCFBA6
:10595000032196201AF0D8FB3221CC201AF0D4FB78
:105960002821CE201AF0D0FB5521BC201AF0CCFB08
:105970001E21BE201AF0C8FB012180201AF0C4FBB2
:105980004621D0201AF0C0FB3C21D4201AF0BCFBE9
:105990001921D2201AF0B8FB5021D6201AF0B4FBFE
:1059A0004621D8201AF0B0FB5B21DA201AF0ACFBBC
:1059B0005021DC201AF0A8FB884C0021B4F900002B
:1059C0001AF0A2FB864D0021B5F900001AF09CFBED
:1059D000844E4FF0FF373946B6F900001AF094FBB9
:1059E000B4F9020000211AF08FFBB5F90200002182
:1059F0001AF08AFBB6F9020039461AF085FBB4F9B1
:105A0000040000211AF080FBB5F9040000211AF00F
:105A10007BFBB6F9040039461AF076FBB4F90600B0
:105A200000211AF071FBB5F9060000211AF06CFB99
:105A3000B6F9060039461AF067FB0A214FF41970CF
:105A40001AF062FBBDE8F0470B214FF418701AF012
:105A50005BBB2DE9FF4700210723182809D06422EA
:105A60004FF41674302810D03C2819D0DC2823D0ED
:105A70004FE0F0249622CDE90024CDE90231024620
:105A8000162311464FF4967013E04FF4F075CDE9EC
:105A90000025CDE9023102462C231146204608E0BC
:105AA000CDE90024CDE9023102463723114640F208
:105AB000EE20FFF7DDFE2CE040F6980440F62A11B8
:105AC0000220CDE90024CDE90201BB2340F60B12F0
:105AD00040F63E1140F69210FFF7CAFE40F2BD11AB
